{
	"Vesting.sol": {
		"Vesting": {
			"abi": [
				{
					"inputs": [
						{
							"internalType": "address",
							"name": "_token",
							"type": "address"
						}
					],
					"stateMutability": "nonpayable",
					"type": "constructor"
				},
				{
					"inputs": [],
					"name": "_elaspTime",
					"outputs": [
						{
							"internalType": "uint256",
							"name": "",
							"type": "uint256"
						}
					],
					"stateMutability": "view",
					"type": "function"
				},
				{
					"inputs": [
						{
							"internalType": "address",
							"name": "benificiary",
							"type": "address"
						},
						{
							"internalType": "uint256",
							"name": "totalTokens",
							"type": "uint256"
						},
						{
							"internalType": "uint256",
							"name": "startTime",
							"type": "uint256"
						},
						{
							"internalType": "uint256",
							"name": "cliff",
							"type": "uint256"
						},
						{
							"internalType": "uint256",
							"name": "vestingPeriod",
							"type": "uint256"
						},
						{
							"internalType": "uint256",
							"name": "slicePeriod",
							"type": "uint256"
						}
					],
					"name": "addAmountToVest",
					"outputs": [],
					"stateMutability": "payable",
					"type": "function"
				},
				{
					"inputs": [],
					"name": "calculateVestedAmount",
					"outputs": [
						{
							"internalType": "uint256",
							"name": "",
							"type": "uint256"
						}
					],
					"stateMutability": "nonpayable",
					"type": "function"
				},
				{
					"inputs": [
						{
							"internalType": "address",
							"name": "name",
							"type": "address"
						}
					],
					"name": "checkBalance",
					"outputs": [
						{
							"internalType": "uint256",
							"name": "",
							"type": "uint256"
						}
					],
					"stateMutability": "view",
					"type": "function"
				},
				{
					"inputs": [],
					"name": "owner",
					"outputs": [
						{
							"internalType": "address",
							"name": "",
							"type": "address"
						}
					],
					"stateMutability": "view",
					"type": "function"
				},
				{
					"inputs": [],
					"name": "release",
					"outputs": [
						{
							"internalType": "uint256",
							"name": "",
							"type": "uint256"
						}
					],
					"stateMutability": "nonpayable",
					"type": "function"
				},
				{
					"inputs": [],
					"name": "vestedTokens",
					"outputs": [
						{
							"internalType": "uint256",
							"name": "",
							"type": "uint256"
						}
					],
					"stateMutability": "view",
					"type": "function"
				},
				{
					"inputs": [
						{
							"internalType": "uint256",
							"name": "withdrawAmount",
							"type": "uint256"
						}
					],
					"name": "withdraw",
					"outputs": [],
					"stateMutability": "nonpayable",
					"type": "function"
				},
				{
					"inputs": [
						{
							"internalType": "address",
							"name": "",
							"type": "address"
						}
					],
					"name": "withdrawableAmount",
					"outputs": [
						{
							"internalType": "uint256",
							"name": "",
							"type": "uint256"
						}
					],
					"stateMutability": "view",
					"type": "function"
				}
			],
			"devdoc": {
				"kind": "dev",
				"methods": {},
				"version": 1
			},
			"evm": {
				"assembly": "    /* \"Vesting.sol\":123:2671  contract Vesting {... */\n  mstore(0x40, 0x80)\n    /* \"Vesting.sol\":539:634  constructor(address _token) {... */\n  callvalue\n  dup1\n  iszero\n  tag_1\n  jumpi\n  0x00\n  dup1\n  revert\ntag_1:\n  pop\n  mload(0x40)\n  sub(codesize, bytecodeSize)\n  dup1\n  bytecodeSize\n  dup4\n  codecopy\n  dup2\n  dup2\n  add\n  0x40\n  mstore\n  dup2\n  add\n  swap1\n  tag_2\n  swap2\n  swap1\n  tag_3\n  jump\t// in\ntag_2:\n    /* \"Vesting.sol\":592:598  _token */\n  dup1\n    /* \"Vesting.sol\":577:582  token */\n  0x00\n  dup1\n    /* \"Vesting.sol\":577:599  token = IERC20(_token) */\n  0x0100\n  exp\n  dup2\n  sload\n  dup2\n  0xffffffffffffffffffffffffffffffffffffffff\n  mul\n  not\n  and\n  swap1\n  dup4\n  0xffffffffffffffffffffffffffffffffffffffff\n  and\n  mul\n  or\n  swap1\n  sstore\n  pop\n    /* \"Vesting.sol\":617:627  msg.sender */\n  caller\n    /* \"Vesting.sol\":609:614  owner */\n  0x07\n  0x00\n    /* \"Vesting.sol\":609:627  owner = msg.sender */\n  0x0100\n  exp\n  dup2\n  sload\n  dup2\n  0xffffffffffffffffffffffffffffffffffffffff\n  mul\n  not\n  and\n  swap1\n  dup4\n  0xffffffffffffffffffffffffffffffffffffffff\n  and\n  mul\n  or\n  swap1\n  sstore\n  pop\n    /* \"Vesting.sol\":539:634  constructor(address _token) {... */\n  pop\n    /* \"Vesting.sol\":123:2671  contract Vesting {... */\n  jump(tag_6)\n    /* \"#utility.yul\":88:205   */\ntag_8:\n    /* \"#utility.yul\":197:198   */\n  0x00\n    /* \"#utility.yul\":194:195   */\n  dup1\n    /* \"#utility.yul\":187:199   */\n  revert\n    /* \"#utility.yul\":334:460   */\ntag_10:\n    /* \"#utility.yul\":371:378   */\n  0x00\n    /* \"#utility.yul\":411:453   */\n  0xffffffffffffffffffffffffffffffffffffffff\n    /* \"#utility.yul\":404:409   */\n  dup3\n    /* \"#utility.yul\":400:454   */\n  and\n    /* \"#utility.yul\":389:454   */\n  swap1\n  pop\n    /* \"#utility.yul\":334:460   */\n  swap2\n  swap1\n  pop\n  jump\t// out\n    /* \"#utility.yul\":466:562   */\ntag_11:\n    /* \"#utility.yul\":503:510   */\n  0x00\n    /* \"#utility.yul\":532:556   */\n  tag_20\n    /* \"#utility.yul\":550:555   */\n  dup3\n    /* \"#utility.yul\":532:556   */\n  tag_10\n  jump\t// in\ntag_20:\n    /* \"#utility.yul\":521:556   */\n  swap1\n  pop\n    /* \"#utility.yul\":466:562   */\n  swap2\n  swap1\n  pop\n  jump\t// out\n    /* \"#utility.yul\":568:690   */\ntag_12:\n    /* \"#utility.yul\":641:665   */\n  tag_22\n    /* \"#utility.yul\":659:664   */\n  dup2\n    /* \"#utility.yul\":641:665   */\n  tag_11\n  jump\t// in\ntag_22:\n    /* \"#utility.yul\":634:639   */\n  dup2\n    /* \"#utility.yul\":631:666   */\n  eq\n    /* \"#utility.yul\":621:684   */\n  tag_23\n  jumpi\n    /* \"#utility.yul\":680:681   */\n  0x00\n    /* \"#utility.yul\":677:678   */\n  dup1\n    /* \"#utility.yul\":670:682   */\n  revert\n    /* \"#utility.yul\":621:684   */\ntag_23:\n    /* \"#utility.yul\":568:690   */\n  pop\n  jump\t// out\n    /* \"#utility.yul\":696:839   */\ntag_13:\n    /* \"#utility.yul\":753:758   */\n  0x00\n    /* \"#utility.yul\":784:790   */\n  dup2\n    /* \"#utility.yul\":778:791   */\n  mload\n    /* \"#utility.yul\":769:791   */\n  swap1\n  pop\n    /* \"#utility.yul\":800:833   */\n  tag_25\n    /* \"#utility.yul\":827:832   */\n  dup2\n    /* \"#utility.yul\":800:833   */\n  tag_12\n  jump\t// in\ntag_25:\n    /* \"#utility.yul\":696:839   */\n  swap3\n  swap2\n  pop\n  pop\n  jump\t// out\n    /* \"#utility.yul\":845:1196   */\ntag_3:\n    /* \"#utility.yul\":915:921   */\n  0x00\n    /* \"#utility.yul\":964:966   */\n  0x20\n    /* \"#utility.yul\":952:961   */\n  dup3\n    /* \"#utility.yul\":943:950   */\n  dup5\n    /* \"#utility.yul\":939:962   */\n  sub\n    /* \"#utility.yul\":935:967   */\n  slt\n    /* \"#utility.yul\":932:1051   */\n  iszero\n  tag_27\n  jumpi\n    /* \"#utility.yul\":970:1049   */\n  tag_28\n  tag_8\n  jump\t// in\ntag_28:\n    /* \"#utility.yul\":932:1051   */\ntag_27:\n    /* \"#utility.yul\":1090:1091   */\n  0x00\n    /* \"#utility.yul\":1115:1179   */\n  tag_29\n    /* \"#utility.yul\":1171:1178   */\n  dup5\n    /* \"#utility.yul\":1162:1168   */\n  dup3\n    /* \"#utility.yul\":1151:1160   */\n  dup6\n    /* \"#utility.yul\":1147:1169   */\n  add\n    /* \"#utility.yul\":1115:1179   */\n  tag_13\n  jump\t// in\ntag_29:\n    /* \"#utility.yul\":1105:1179   */\n  swap2\n  pop\n    /* \"#utility.yul\":1061:1189   */\n  pop\n    /* \"#utility.yul\":845:1196   */\n  swap3\n  swap2\n  pop\n  pop\n  jump\t// out\n    /* \"Vesting.sol\":123:2671  contract Vesting {... */\ntag_6:\n  dataSize(sub_0)\n  dup1\n  dataOffset(sub_0)\n  0x00\n  codecopy\n  0x00\n  return\nstop\n\nsub_0: assembly {\n        /* \"Vesting.sol\":123:2671  contract Vesting {... */\n      mstore(0x40, 0x80)\n      jumpi(tag_1, lt(calldatasize, 0x04))\n      shr(0xe0, calldataload(0x00))\n      dup1\n      0x86d1a69f\n      gt\n      tag_11\n      jumpi\n      dup1\n      0x86d1a69f\n      eq\n      tag_6\n      jumpi\n      dup1\n      0x8da5cb5b\n      eq\n      tag_7\n      jumpi\n      dup1\n      0xb6a3b184\n      eq\n      tag_8\n      jumpi\n      dup1\n      0xbe7ab51b\n      eq\n      tag_9\n      jumpi\n      dup1\n      0xcacf5a33\n      eq\n      tag_10\n      jumpi\n      jump(tag_1)\n    tag_11:\n      dup1\n      0x099f5cf8\n      eq\n      tag_2\n      jumpi\n      dup1\n      0x0dfee936\n      eq\n      tag_3\n      jumpi\n      dup1\n      0x2e1a7d4d\n      eq\n      tag_4\n      jumpi\n      dup1\n      0x5f515226\n      eq\n      tag_5\n      jumpi\n    tag_1:\n      0x00\n      dup1\n      revert\n        /* \"Vesting.sol\":640:1161  function addAmountToVest(address benificiary,uint256 totalTokens, uint256 startTime,uint256 cliff,uint256 vestingPeriod,uint256 slicePeriod) public payable {... */\n    tag_2:\n      tag_12\n      0x04\n      dup1\n      calldatasize\n      sub\n      dup2\n      add\n      swap1\n      tag_13\n      swap2\n      swap1\n      tag_14\n      jump\t// in\n    tag_13:\n      tag_15\n      jump\t// in\n    tag_12:\n      stop\n        /* \"Vesting.sol\":341:368  uint256 public vestedTokens */\n    tag_3:\n      callvalue\n      dup1\n      iszero\n      tag_16\n      jumpi\n      0x00\n      dup1\n      revert\n    tag_16:\n      pop\n      tag_17\n      tag_18\n      jump\t// in\n    tag_17:\n      mload(0x40)\n      tag_19\n      swap2\n      swap1\n      tag_20\n      jump\t// in\n    tag_19:\n      mload(0x40)\n      dup1\n      swap2\n      sub\n      swap1\n      return\n        /* \"Vesting.sol\":2225:2557  function withdraw(uint256 withdrawAmount) public {... */\n    tag_4:\n      callvalue\n      dup1\n      iszero\n      tag_21\n      jumpi\n      0x00\n      dup1\n      revert\n    tag_21:\n      pop\n      tag_22\n      0x04\n      dup1\n      calldatasize\n      sub\n      dup2\n      add\n      swap1\n      tag_23\n      swap2\n      swap1\n      tag_24\n      jump\t// in\n    tag_23:\n      tag_25\n      jump\t// in\n    tag_22:\n      stop\n        /* \"Vesting.sol\":1168:1277  function checkBalance(address name) view public returns(uint256){... */\n    tag_5:\n      callvalue\n      dup1\n      iszero\n      tag_26\n      jumpi\n      0x00\n      dup1\n      revert\n    tag_26:\n      pop\n      tag_27\n      0x04\n      dup1\n      calldatasize\n      sub\n      dup2\n      add\n      swap1\n      tag_28\n      swap2\n      swap1\n      tag_29\n      jump\t// in\n    tag_28:\n      tag_30\n      jump\t// in\n    tag_27:\n      mload(0x40)\n      tag_31\n      swap2\n      swap1\n      tag_20\n      jump\t// in\n    tag_31:\n      mload(0x40)\n      dup1\n      swap2\n      sub\n      swap1\n      return\n        /* \"Vesting.sol\":1283:1449  function release() public returns(uint256) {... */\n    tag_6:\n      callvalue\n      dup1\n      iszero\n      tag_32\n      jumpi\n      0x00\n      dup1\n      revert\n    tag_32:\n      pop\n      tag_33\n      tag_34\n      jump\t// in\n    tag_33:\n      mload(0x40)\n      tag_35\n      swap2\n      swap1\n      tag_20\n      jump\t// in\n    tag_35:\n      mload(0x40)\n      dup1\n      swap2\n      sub\n      swap1\n      return\n        /* \"Vesting.sol\":315:335  address public owner */\n    tag_7:\n      callvalue\n      dup1\n      iszero\n      tag_36\n      jumpi\n      0x00\n      dup1\n      revert\n    tag_36:\n      pop\n      tag_37\n      tag_38\n      jump\t// in\n    tag_37:\n      mload(0x40)\n      tag_39\n      swap2\n      swap1\n      tag_40\n      jump\t// in\n    tag_39:\n      mload(0x40)\n      dup1\n      swap2\n      sub\n      swap1\n      return\n        /* \"Vesting.sol\":374:399  uint256 public _elaspTime */\n    tag_8:\n      callvalue\n      dup1\n      iszero\n      tag_41\n      jumpi\n      0x00\n      dup1\n      revert\n    tag_41:\n      pop\n      tag_42\n      tag_43\n      jump\t// in\n    tag_42:\n      mload(0x40)\n      tag_44\n      swap2\n      swap1\n      tag_20\n      jump\t// in\n    tag_44:\n      mload(0x40)\n      dup1\n      swap2\n      sub\n      swap1\n      return\n        /* \"Vesting.sol\":478:529  mapping(address=>uint256) public withdrawableAmount */\n    tag_9:\n      callvalue\n      dup1\n      iszero\n      tag_45\n      jumpi\n      0x00\n      dup1\n      revert\n    tag_45:\n      pop\n      tag_46\n      0x04\n      dup1\n      calldatasize\n      sub\n      dup2\n      add\n      swap1\n      tag_47\n      swap2\n      swap1\n      tag_29\n      jump\t// in\n    tag_47:\n      tag_48\n      jump\t// in\n    tag_46:\n      mload(0x40)\n      tag_49\n      swap2\n      swap1\n      tag_20\n      jump\t// in\n    tag_49:\n      mload(0x40)\n      dup1\n      swap2\n      sub\n      swap1\n      return\n        /* \"Vesting.sol\":1455:2219  function calculateVestedAmount() public returns(uint256) {... */\n    tag_10:\n      callvalue\n      dup1\n      iszero\n      tag_50\n      jumpi\n      0x00\n      dup1\n      revert\n    tag_50:\n      pop\n      tag_51\n      tag_52\n      jump\t// in\n    tag_51:\n      mload(0x40)\n      tag_53\n      swap2\n      swap1\n      tag_20\n      jump\t// in\n    tag_53:\n      mload(0x40)\n      dup1\n      swap2\n      sub\n      swap1\n      return\n        /* \"Vesting.sol\":640:1161  function addAmountToVest(address benificiary,uint256 totalTokens, uint256 startTime,uint256 cliff,uint256 vestingPeriod,uint256 slicePeriod) public payable {... */\n    tag_15:\n        /* \"Vesting.sol\":821:832  benificiary */\n      dup6\n        /* \"Vesting.sol\":806:818  _benificiary */\n      0x01\n      0x00\n        /* \"Vesting.sol\":806:832  _benificiary = benificiary */\n      0x0100\n      exp\n      dup2\n      sload\n      dup2\n      0xffffffffffffffffffffffffffffffffffffffff\n      mul\n      not\n      and\n      swap1\n      dup4\n      0xffffffffffffffffffffffffffffffffffffffff\n      and\n      mul\n      or\n      swap1\n      sstore\n      pop\n        /* \"Vesting.sol\":857:868  totalTokens */\n      dup5\n        /* \"Vesting.sol\":842:854  _totalTokens */\n      0x02\n        /* \"Vesting.sol\":842:868  _totalTokens = totalTokens */\n      dup2\n      swap1\n      sstore\n      pop\n        /* \"Vesting.sol\":886:891  token */\n      0x00\n      dup1\n      sload\n      swap1\n      0x0100\n      exp\n      swap1\n      div\n      0xffffffffffffffffffffffffffffffffffffffff\n      and\n        /* \"Vesting.sol\":886:899  token.approve */\n      0xffffffffffffffffffffffffffffffffffffffff\n      and\n      0x095ea7b3\n        /* \"Vesting.sol\":908:912  this */\n      address\n        /* \"Vesting.sol\":914:925  totalTokens */\n      dup8\n        /* \"Vesting.sol\":886:926  token.approve(address(this),totalTokens) */\n      mload(0x40)\n      dup4\n      0xffffffff\n      and\n      0xe0\n      shl\n      dup2\n      mstore\n      0x04\n      add\n      tag_55\n      swap3\n      swap2\n      swap1\n      tag_56\n      jump\t// in\n    tag_55:\n      0x20\n      mload(0x40)\n      dup1\n      dup4\n      sub\n      dup2\n      0x00\n      dup8\n      gas\n      call\n      iszero\n      dup1\n      iszero\n      tag_58\n      jumpi\n      returndatasize\n      0x00\n      dup1\n      returndatacopy\n      revert(0x00, returndatasize)\n    tag_58:\n      pop\n      pop\n      pop\n      pop\n      mload(0x40)\n      returndatasize\n      not(0x1f)\n      0x1f\n      dup3\n      add\n      and\n      dup3\n      add\n      dup1\n      0x40\n      mstore\n      pop\n      dup2\n      add\n      swap1\n      tag_59\n      swap2\n      swap1\n      tag_60\n      jump\t// in\n    tag_59:\n        /* \"Vesting.sol\":878:946  require(token.approve(address(this),totalTokens), \"Approval failed\") */\n      tag_61\n      jumpi\n      mload(0x40)\n      0x08c379a000000000000000000000000000000000000000000000000000000000\n      dup2\n      mstore\n      0x04\n      add\n      tag_62\n      swap1\n      tag_63\n      jump\t// in\n    tag_62:\n      mload(0x40)\n      dup1\n      swap2\n      sub\n      swap1\n      revert\n    tag_61:\n        /* \"Vesting.sol\":956:961  token */\n      0x00\n      dup1\n      sload\n      swap1\n      0x0100\n      exp\n      swap1\n      div\n      0xffffffffffffffffffffffffffffffffffffffff\n      and\n        /* \"Vesting.sol\":956:974  token.transferFrom */\n      0xffffffffffffffffffffffffffffffffffffffff\n      and\n      0x23b872dd\n        /* \"Vesting.sol\":975:987  _benificiary */\n      0x01\n      0x00\n      swap1\n      sload\n      swap1\n      0x0100\n      exp\n      swap1\n      div\n      0xffffffffffffffffffffffffffffffffffffffff\n      and\n        /* \"Vesting.sol\":996:1000  this */\n      address\n        /* \"Vesting.sol\":1002:1013  totalTokens */\n      dup9\n        /* \"Vesting.sol\":956:1014  token.transferFrom(_benificiary,address(this),totalTokens) */\n      mload(0x40)\n      dup5\n      0xffffffff\n      and\n      0xe0\n      shl\n      dup2\n      mstore\n      0x04\n      add\n      tag_64\n      swap4\n      swap3\n      swap2\n      swap1\n      tag_65\n      jump\t// in\n    tag_64:\n      0x20\n      mload(0x40)\n      dup1\n      dup4\n      sub\n      dup2\n      0x00\n      dup8\n      gas\n      call\n      iszero\n      dup1\n      iszero\n      tag_67\n      jumpi\n      returndatasize\n      0x00\n      dup1\n      returndatacopy\n      revert(0x00, returndatasize)\n    tag_67:\n      pop\n      pop\n      pop\n      pop\n      mload(0x40)\n      returndatasize\n      not(0x1f)\n      0x1f\n      dup3\n      add\n      and\n      dup3\n      add\n      dup1\n      0x40\n      mstore\n      pop\n      dup2\n      add\n      swap1\n      tag_68\n      swap2\n      swap1\n      tag_60\n      jump\t// in\n    tag_68:\n      pop\n        /* \"Vesting.sol\":1049:1054  cliff */\n      dup3\n        /* \"Vesting.sol\":1037:1046  startTime */\n      dup5\n        /* \"Vesting.sol\":1037:1054  startTime + cliff */\n      tag_69\n      swap2\n      swap1\n      tag_70\n      jump\t// in\n    tag_69:\n        /* \"Vesting.sol\":1024:1034  _startTime */\n      0x03\n        /* \"Vesting.sol\":1024:1054  _startTime = startTime + cliff */\n      dup2\n      swap1\n      sstore\n      pop\n        /* \"Vesting.sol\":1073:1078  cliff */\n      dup3\n        /* \"Vesting.sol\":1064:1070  _cliff */\n      0x04\n        /* \"Vesting.sol\":1064:1078  _cliff = cliff */\n      dup2\n      swap1\n      sstore\n      pop\n        /* \"Vesting.sol\":1105:1118  vestingPeriod */\n      dup2\n        /* \"Vesting.sol\":1088:1102  _vestingPeriod */\n      0x05\n        /* \"Vesting.sol\":1088:1118  _vestingPeriod = vestingPeriod */\n      dup2\n      swap1\n      sstore\n      pop\n        /* \"Vesting.sol\":1143:1154  slicePeriod */\n      dup1\n        /* \"Vesting.sol\":1128:1140  _slicePeriod */\n      0x06\n        /* \"Vesting.sol\":1128:1154  _slicePeriod = slicePeriod */\n      dup2\n      swap1\n      sstore\n      pop\n        /* \"Vesting.sol\":640:1161  function addAmountToVest(address benificiary,uint256 totalTokens, uint256 startTime,uint256 cliff,uint256 vestingPeriod,uint256 slicePeriod) public payable {... */\n      pop\n      pop\n      pop\n      pop\n      pop\n      pop\n      jump\t// out\n        /* \"Vesting.sol\":341:368  uint256 public vestedTokens */\n    tag_18:\n      sload(0x08)\n      dup2\n      jump\t// out\n        /* \"Vesting.sol\":2225:2557  function withdraw(uint256 withdrawAmount) public {... */\n    tag_25:\n        /* \"Vesting.sol\":2308:2318  msg.sender */\n      caller\n        /* \"Vesting.sol\":2292:2318  _benificiary == msg.sender */\n      0xffffffffffffffffffffffffffffffffffffffff\n      and\n        /* \"Vesting.sol\":2292:2304  _benificiary */\n      0x01\n      0x00\n      swap1\n      sload\n      swap1\n      0x0100\n      exp\n      swap1\n      div\n      0xffffffffffffffffffffffffffffffffffffffff\n      and\n        /* \"Vesting.sol\":2292:2318  _benificiary == msg.sender */\n      0xffffffffffffffffffffffffffffffffffffffff\n      and\n      eq\n        /* \"Vesting.sol\":2284:2350  require(_benificiary == msg.sender,\"Only benificiar can withdraw\") */\n      tag_72\n      jumpi\n      mload(0x40)\n      0x08c379a000000000000000000000000000000000000000000000000000000000\n      dup2\n      mstore\n      0x04\n      add\n      tag_73\n      swap1\n      tag_74\n      jump\t// in\n    tag_73:\n      mload(0x40)\n      dup1\n      swap2\n      sub\n      swap1\n      revert\n    tag_72:\n        /* \"Vesting.sol\":2401:2402  0 */\n      0x00\n        /* \"Vesting.sol\":2368:2386  withdrawableAmount */\n      0x0c\n        /* \"Vesting.sol\":2368:2400  withdrawableAmount[_benificiary] */\n      0x00\n        /* \"Vesting.sol\":2387:2399  _benificiary */\n      0x01\n      0x00\n      swap1\n      sload\n      swap1\n      0x0100\n      exp\n      swap1\n      div\n      0xffffffffffffffffffffffffffffffffffffffff\n      and\n        /* \"Vesting.sol\":2368:2400  withdrawableAmount[_benificiary] */\n      0xffffffffffffffffffffffffffffffffffffffff\n      and\n      0xffffffffffffffffffffffffffffffffffffffff\n      and\n      dup2\n      mstore\n      0x20\n      add\n      swap1\n      dup2\n      mstore\n      0x20\n      add\n      0x00\n      keccak256\n      sload\n        /* \"Vesting.sol\":2368:2402  withdrawableAmount[_benificiary]>0 */\n      gt\n        /* \"Vesting.sol\":2360:2431  require(withdrawableAmount[_benificiary]>0,\"No amount to be withdrawn\") */\n      tag_75\n      jumpi\n      mload(0x40)\n      0x08c379a000000000000000000000000000000000000000000000000000000000\n      dup2\n      mstore\n      0x04\n      add\n      tag_76\n      swap1\n      tag_77\n      jump\t// in\n    tag_76:\n      mload(0x40)\n      dup1\n      swap2\n      sub\n      swap1\n      revert\n    tag_75:\n        /* \"Vesting.sol\":2475:2489  withdrawAmount */\n      dup1\n        /* \"Vesting.sol\":2441:2459  withdrawableAmount */\n      0x0c\n        /* \"Vesting.sol\":2441:2473  withdrawableAmount[_benificiary] */\n      0x00\n        /* \"Vesting.sol\":2460:2472  _benificiary */\n      0x01\n      0x00\n      swap1\n      sload\n      swap1\n      0x0100\n      exp\n      swap1\n      div\n      0xffffffffffffffffffffffffffffffffffffffff\n      and\n        /* \"Vesting.sol\":2441:2473  withdrawableAmount[_benificiary] */\n      0xffffffffffffffffffffffffffffffffffffffff\n      and\n      0xffffffffffffffffffffffffffffffffffffffff\n      and\n      dup2\n      mstore\n      0x20\n      add\n      swap1\n      dup2\n      mstore\n      0x20\n      add\n      0x00\n      keccak256\n      0x00\n        /* \"Vesting.sol\":2441:2489  withdrawableAmount[_benificiary]-=withdrawAmount */\n      dup3\n      dup3\n      sload\n      tag_78\n      swap2\n      swap1\n      tag_79\n      jump\t// in\n    tag_78:\n      swap3\n      pop\n      pop\n      dup2\n      swap1\n      sstore\n      pop\n        /* \"Vesting.sol\":2499:2504  token */\n      0x00\n      dup1\n      sload\n      swap1\n      0x0100\n      exp\n      swap1\n      div\n      0xffffffffffffffffffffffffffffffffffffffff\n      and\n        /* \"Vesting.sol\":2499:2513  token.transfer */\n      0xffffffffffffffffffffffffffffffffffffffff\n      and\n      0xa9059cbb\n        /* \"Vesting.sol\":2514:2526  _benificiary */\n      0x01\n      0x00\n      swap1\n      sload\n      swap1\n      0x0100\n      exp\n      swap1\n      div\n      0xffffffffffffffffffffffffffffffffffffffff\n      and\n        /* \"Vesting.sol\":2527:2541  withdrawAmount */\n      dup4\n        /* \"Vesting.sol\":2499:2542  token.transfer(_benificiary,withdrawAmount) */\n      mload(0x40)\n      dup4\n      0xffffffff\n      and\n      0xe0\n      shl\n      dup2\n      mstore\n      0x04\n      add\n      tag_80\n      swap3\n      swap2\n      swap1\n      tag_56\n      jump\t// in\n    tag_80:\n      0x20\n      mload(0x40)\n      dup1\n      dup4\n      sub\n      dup2\n      0x00\n      dup8\n      gas\n      call\n      iszero\n      dup1\n      iszero\n      tag_82\n      jumpi\n      returndatasize\n      0x00\n      dup1\n      returndatacopy\n      revert(0x00, returndatasize)\n    tag_82:\n      pop\n      pop\n      pop\n      pop\n      mload(0x40)\n      returndatasize\n      not(0x1f)\n      0x1f\n      dup3\n      add\n      and\n      dup3\n      add\n      dup1\n      0x40\n      mstore\n      pop\n      dup2\n      add\n      swap1\n      tag_83\n      swap2\n      swap1\n      tag_60\n      jump\t// in\n    tag_83:\n      pop\n        /* \"Vesting.sol\":2225:2557  function withdraw(uint256 withdrawAmount) public {... */\n      pop\n      jump\t// out\n        /* \"Vesting.sol\":1168:1277  function checkBalance(address name) view public returns(uint256){... */\n    tag_30:\n        /* \"Vesting.sol\":1224:1231  uint256 */\n      0x00\n        /* \"Vesting.sol\":1249:1254  token */\n      dup1\n      0x00\n      swap1\n      sload\n      swap1\n      0x0100\n      exp\n      swap1\n      div\n      0xffffffffffffffffffffffffffffffffffffffff\n      and\n        /* \"Vesting.sol\":1249:1264  token.balanceOf */\n      0xffffffffffffffffffffffffffffffffffffffff\n      and\n      0x70a08231\n        /* \"Vesting.sol\":1265:1269  name */\n      dup4\n        /* \"Vesting.sol\":1249:1270  token.balanceOf(name) */\n      mload(0x40)\n      dup3\n      0xffffffff\n      and\n      0xe0\n      shl\n      dup2\n      mstore\n      0x04\n      add\n      tag_85\n      swap2\n      swap1\n      tag_40\n      jump\t// in\n    tag_85:\n      0x20\n      mload(0x40)\n      dup1\n      dup4\n      sub\n      dup2\n      dup7\n      gas\n      staticcall\n      iszero\n      dup1\n      iszero\n      tag_87\n      jumpi\n      returndatasize\n      0x00\n      dup1\n      returndatacopy\n      revert(0x00, returndatasize)\n    tag_87:\n      pop\n      pop\n      pop\n      pop\n      mload(0x40)\n      returndatasize\n      not(0x1f)\n      0x1f\n      dup3\n      add\n      and\n      dup3\n      add\n      dup1\n      0x40\n      mstore\n      pop\n      dup2\n      add\n      swap1\n      tag_88\n      swap2\n      swap1\n      tag_89\n      jump\t// in\n    tag_88:\n        /* \"Vesting.sol\":1242:1270  return token.balanceOf(name) */\n      swap1\n      pop\n        /* \"Vesting.sol\":1168:1277  function checkBalance(address name) view public returns(uint256){... */\n      swap2\n      swap1\n      pop\n      jump\t// out\n        /* \"Vesting.sol\":1283:1449  function release() public returns(uint256) {... */\n    tag_34:\n        /* \"Vesting.sol\":1317:1324  uint256 */\n      0x00\n        /* \"Vesting.sol\":1370:1393  calculateVestedAmount() */\n      tag_91\n        /* \"Vesting.sol\":1370:1391  calculateVestedAmount */\n      tag_52\n        /* \"Vesting.sol\":1370:1393  calculateVestedAmount() */\n      jump\t// in\n    tag_91:\n        /* \"Vesting.sol\":1336:1354  withdrawableAmount */\n      0x0c\n        /* \"Vesting.sol\":1336:1368  withdrawableAmount[_benificiary] */\n      0x00\n        /* \"Vesting.sol\":1355:1367  _benificiary */\n      0x01\n      0x00\n      swap1\n      sload\n      swap1\n      0x0100\n      exp\n      swap1\n      div\n      0xffffffffffffffffffffffffffffffffffffffff\n      and\n        /* \"Vesting.sol\":1336:1368  withdrawableAmount[_benificiary] */\n      0xffffffffffffffffffffffffffffffffffffffff\n      and\n      0xffffffffffffffffffffffffffffffffffffffff\n      and\n      dup2\n      mstore\n      0x20\n      add\n      swap1\n      dup2\n      mstore\n      0x20\n      add\n      0x00\n      keccak256\n      0x00\n        /* \"Vesting.sol\":1336:1393  withdrawableAmount[_benificiary]+=calculateVestedAmount() */\n      dup3\n      dup3\n      sload\n      tag_92\n      swap2\n      swap1\n      tag_70\n      jump\t// in\n    tag_92:\n      swap3\n      pop\n      pop\n      dup2\n      swap1\n      sstore\n      pop\n        /* \"Vesting.sol\":1410:1428  withdrawableAmount */\n      0x0c\n        /* \"Vesting.sol\":1410:1442  withdrawableAmount[_benificiary] */\n      0x00\n        /* \"Vesting.sol\":1429:1441  _benificiary */\n      0x01\n      0x00\n      swap1\n      sload\n      swap1\n      0x0100\n      exp\n      swap1\n      div\n      0xffffffffffffffffffffffffffffffffffffffff\n      and\n        /* \"Vesting.sol\":1410:1442  withdrawableAmount[_benificiary] */\n      0xffffffffffffffffffffffffffffffffffffffff\n      and\n      0xffffffffffffffffffffffffffffffffffffffff\n      and\n      dup2\n      mstore\n      0x20\n      add\n      swap1\n      dup2\n      mstore\n      0x20\n      add\n      0x00\n      keccak256\n      sload\n        /* \"Vesting.sol\":1403:1442  return withdrawableAmount[_benificiary] */\n      swap1\n      pop\n        /* \"Vesting.sol\":1283:1449  function release() public returns(uint256) {... */\n      swap1\n      jump\t// out\n        /* \"Vesting.sol\":315:335  address public owner */\n    tag_38:\n      0x07\n      0x00\n      swap1\n      sload\n      swap1\n      0x0100\n      exp\n      swap1\n      div\n      0xffffffffffffffffffffffffffffffffffffffff\n      and\n      dup2\n      jump\t// out\n        /* \"Vesting.sol\":374:399  uint256 public _elaspTime */\n    tag_43:\n      sload(0x09)\n      dup2\n      jump\t// out\n        /* \"Vesting.sol\":478:529  mapping(address=>uint256) public withdrawableAmount */\n    tag_48:\n      mstore(0x20, 0x0c)\n      dup1\n      0x00\n      mstore\n      keccak256(0x00, 0x40)\n      0x00\n      swap2\n      pop\n      swap1\n      pop\n      sload\n      dup2\n      jump\t// out\n        /* \"Vesting.sol\":1455:2219  function calculateVestedAmount() public returns(uint256) {... */\n    tag_52:\n        /* \"Vesting.sol\":1503:1510  uint256 */\n      0x00\n        /* \"Vesting.sol\":1557:1572  block.timestamp */\n      timestamp\n        /* \"Vesting.sol\":1541:1553  _slicePeriod */\n      sload(0x06)\n        /* \"Vesting.sol\":1530:1540  _startTime */\n      sload(0x03)\n        /* \"Vesting.sol\":1530:1553  _startTime+_slicePeriod */\n      tag_94\n      swap2\n      swap1\n      tag_70\n      jump\t// in\n    tag_94:\n        /* \"Vesting.sol\":1530:1572  _startTime+_slicePeriod <= block.timestamp */\n      gt\n      iszero\n        /* \"Vesting.sol\":1522:1595  require(_startTime+_slicePeriod <= block.timestamp,\"No Token vested yet\") */\n      tag_95\n      jumpi\n      mload(0x40)\n      0x08c379a000000000000000000000000000000000000000000000000000000000\n      dup2\n      mstore\n      0x04\n      add\n      tag_96\n      swap1\n      tag_97\n      jump\t// in\n    tag_96:\n      mload(0x40)\n      dup1\n      swap2\n      sub\n      swap1\n      revert\n    tag_95:\n        /* \"Vesting.sol\":1614:1631  uint256 intervals */\n      0x00\n        /* \"Vesting.sol\":1651:1663  _slicePeriod */\n      sload(0x06)\n        /* \"Vesting.sol\":1634:1648  _vestingPeriod */\n      sload(0x05)\n        /* \"Vesting.sol\":1634:1663  _vestingPeriod / _slicePeriod */\n      tag_98\n      swap2\n      swap1\n      tag_99\n      jump\t// in\n    tag_98:\n        /* \"Vesting.sol\":1614:1663  uint256 intervals = _vestingPeriod / _slicePeriod */\n      swap1\n      pop\n        /* \"Vesting.sol\":1673:1697  uint256 tokensInInterval */\n      0x00\n        /* \"Vesting.sol\":1714:1723  intervals */\n      dup2\n        /* \"Vesting.sol\":1700:1712  _totalTokens */\n      sload(0x02)\n        /* \"Vesting.sol\":1700:1723  _totalTokens /intervals */\n      tag_100\n      swap2\n      swap1\n      tag_99\n      jump\t// in\n    tag_100:\n        /* \"Vesting.sol\":1673:1723  uint256 tokensInInterval = _totalTokens /intervals */\n      swap1\n      pop\n        /* \"Vesting.sol\":1734:1753  uint256 currentTime */\n      0x00\n        /* \"Vesting.sol\":1756:1771  block.timestamp */\n      timestamp\n        /* \"Vesting.sol\":1734:1771  uint256 currentTime = block.timestamp */\n      swap1\n      pop\n        /* \"Vesting.sol\":1813:1827  _vestingPeriod */\n      sload(0x05)\n        /* \"Vesting.sol\":1802:1812  _startTime */\n      sload(0x03)\n        /* \"Vesting.sol\":1802:1827  _startTime+_vestingPeriod */\n      tag_101\n      swap2\n      swap1\n      tag_70\n      jump\t// in\n    tag_101:\n        /* \"Vesting.sol\":1787:1798  currentTime */\n      dup2\n        /* \"Vesting.sol\":1787:1827  currentTime >= _startTime+_vestingPeriod */\n      lt\n        /* \"Vesting.sol\":1784:1892  if(currentTime >= _startTime+_vestingPeriod){... */\n      tag_102\n      jumpi\n        /* \"Vesting.sol\":1867:1881  _vestingPeriod */\n      sload(0x05)\n        /* \"Vesting.sol\":1856:1866  _startTime */\n      sload(0x03)\n        /* \"Vesting.sol\":1856:1881  _startTime+_vestingPeriod */\n      tag_103\n      swap2\n      swap1\n      tag_70\n      jump\t// in\n    tag_103:\n        /* \"Vesting.sol\":1842:1881  currentTime = _startTime+_vestingPeriod */\n      swap1\n      pop\n        /* \"Vesting.sol\":1784:1892  if(currentTime >= _startTime+_vestingPeriod){... */\n    tag_102:\n        /* \"Vesting.sol\":1940:1950  _startTime */\n      sload(0x03)\n        /* \"Vesting.sol\":1926:1937  currentTime */\n      dup2\n        /* \"Vesting.sol\":1926:1950  currentTime - _startTime */\n      tag_104\n      swap2\n      swap1\n      tag_79\n      jump\t// in\n    tag_104:\n        /* \"Vesting.sol\":1913:1923  _elaspTime */\n      0x09\n        /* \"Vesting.sol\":1913:1950  _elaspTime = currentTime - _startTime */\n      dup2\n      swap1\n      sstore\n      pop\n        /* \"Vesting.sol\":1960:1983  uint256 intervalElasped */\n      0x00\n        /* \"Vesting.sol\":1998:2007  intervals */\n      dup4\n        /* \"Vesting.sol\":1986:1996  _elaspTime */\n      sload(0x09)\n        /* \"Vesting.sol\":1986:2007  _elaspTime/ intervals */\n      tag_105\n      swap2\n      swap1\n      tag_99\n      jump\t// in\n    tag_105:\n        /* \"Vesting.sol\":1960:2007  uint256 intervalElasped = _elaspTime/ intervals */\n      swap1\n      pop\n        /* \"Vesting.sol\":2078:2092  _relesedTokens */\n      sload(0x0a)\n        /* \"Vesting.sol\":2060:2076  tokensInInterval */\n      dup4\n        /* \"Vesting.sol\":2042:2057  intervalElasped */\n      dup3\n        /* \"Vesting.sol\":2042:2076  intervalElasped * tokensInInterval */\n      tag_106\n      swap2\n      swap1\n      tag_107\n      jump\t// in\n    tag_106:\n        /* \"Vesting.sol\":2041:2092  (intervalElasped * tokensInInterval)-_relesedTokens */\n      tag_108\n      swap2\n      swap1\n      tag_79\n      jump\t// in\n    tag_108:\n        /* \"Vesting.sol\":2026:2038  vestedTokens */\n      0x08\n        /* \"Vesting.sol\":2026:2092  vestedTokens = (intervalElasped * tokensInInterval)-_relesedTokens */\n      dup2\n      swap1\n      sstore\n      pop\n        /* \"Vesting.sol\":2120:2132  vestedTokens */\n      sload(0x08)\n        /* \"Vesting.sol\":2102:2116  _relesedTokens */\n      0x0a\n      0x00\n        /* \"Vesting.sol\":2102:2132  _relesedTokens += vestedTokens */\n      dup3\n      dup3\n      sload\n      tag_109\n      swap2\n      swap1\n      tag_70\n      jump\t// in\n    tag_109:\n      swap3\n      pop\n      pop\n      dup2\n      swap1\n      sstore\n      pop\n        /* \"Vesting.sol\":2170:2182  vestedTokens */\n      sload(0x08)\n        /* \"Vesting.sol\":2142:2154  vestedAmount */\n      0x0b\n        /* \"Vesting.sol\":2142:2168  vestedAmount[_benificiary] */\n      0x00\n        /* \"Vesting.sol\":2155:2167  _benificiary */\n      0x01\n      0x00\n      swap1\n      sload\n      swap1\n      0x0100\n      exp\n      swap1\n      div\n      0xffffffffffffffffffffffffffffffffffffffff\n      and\n        /* \"Vesting.sol\":2142:2168  vestedAmount[_benificiary] */\n      0xffffffffffffffffffffffffffffffffffffffff\n      and\n      0xffffffffffffffffffffffffffffffffffffffff\n      and\n      dup2\n      mstore\n      0x20\n      add\n      swap1\n      dup2\n      mstore\n      0x20\n      add\n      0x00\n      keccak256\n      0x00\n        /* \"Vesting.sol\":2142:2182  vestedAmount[_benificiary]+=vestedTokens */\n      dup3\n      dup3\n      sload\n      tag_110\n      swap2\n      swap1\n      tag_70\n      jump\t// in\n    tag_110:\n      swap3\n      pop\n      pop\n      dup2\n      swap1\n      sstore\n      pop\n        /* \"Vesting.sol\":2200:2212  vestedTokens */\n      sload(0x08)\n        /* \"Vesting.sol\":2193:2212  return vestedTokens */\n      swap5\n      pop\n      pop\n      pop\n      pop\n      pop\n        /* \"Vesting.sol\":1455:2219  function calculateVestedAmount() public returns(uint256) {... */\n      swap1\n      jump\t// out\n        /* \"#utility.yul\":88:205   */\n    tag_112:\n        /* \"#utility.yul\":197:198   */\n      0x00\n        /* \"#utility.yul\":194:195   */\n      dup1\n        /* \"#utility.yul\":187:199   */\n      revert\n        /* \"#utility.yul\":334:460   */\n    tag_114:\n        /* \"#utility.yul\":371:378   */\n      0x00\n        /* \"#utility.yul\":411:453   */\n      0xffffffffffffffffffffffffffffffffffffffff\n        /* \"#utility.yul\":404:409   */\n      dup3\n        /* \"#utility.yul\":400:454   */\n      and\n        /* \"#utility.yul\":389:454   */\n      swap1\n      pop\n        /* \"#utility.yul\":334:460   */\n      swap2\n      swap1\n      pop\n      jump\t// out\n        /* \"#utility.yul\":466:562   */\n    tag_115:\n        /* \"#utility.yul\":503:510   */\n      0x00\n        /* \"#utility.yul\":532:556   */\n      tag_144\n        /* \"#utility.yul\":550:555   */\n      dup3\n        /* \"#utility.yul\":532:556   */\n      tag_114\n      jump\t// in\n    tag_144:\n        /* \"#utility.yul\":521:556   */\n      swap1\n      pop\n        /* \"#utility.yul\":466:562   */\n      swap2\n      swap1\n      pop\n      jump\t// out\n        /* \"#utility.yul\":568:690   */\n    tag_116:\n        /* \"#utility.yul\":641:665   */\n      tag_146\n        /* \"#utility.yul\":659:664   */\n      dup2\n        /* \"#utility.yul\":641:665   */\n      tag_115\n      jump\t// in\n    tag_146:\n        /* \"#utility.yul\":634:639   */\n      dup2\n        /* \"#utility.yul\":631:666   */\n      eq\n        /* \"#utility.yul\":621:684   */\n      tag_147\n      jumpi\n        /* \"#utility.yul\":680:681   */\n      0x00\n        /* \"#utility.yul\":677:678   */\n      dup1\n        /* \"#utility.yul\":670:682   */\n      revert\n        /* \"#utility.yul\":621:684   */\n    tag_147:\n        /* \"#utility.yul\":568:690   */\n      pop\n      jump\t// out\n        /* \"#utility.yul\":696:835   */\n    tag_117:\n        /* \"#utility.yul\":742:747   */\n      0x00\n        /* \"#utility.yul\":780:786   */\n      dup2\n        /* \"#utility.yul\":767:787   */\n      calldataload\n        /* \"#utility.yul\":758:787   */\n      swap1\n      pop\n        /* \"#utility.yul\":796:829   */\n      tag_149\n        /* \"#utility.yul\":823:828   */\n      dup2\n        /* \"#utility.yul\":796:829   */\n      tag_116\n      jump\t// in\n    tag_149:\n        /* \"#utility.yul\":696:835   */\n      swap3\n      swap2\n      pop\n      pop\n      jump\t// out\n        /* \"#utility.yul\":841:918   */\n    tag_118:\n        /* \"#utility.yul\":878:885   */\n      0x00\n        /* \"#utility.yul\":907:912   */\n      dup2\n        /* \"#utility.yul\":896:912   */\n      swap1\n      pop\n        /* \"#utility.yul\":841:918   */\n      swap2\n      swap1\n      pop\n      jump\t// out\n        /* \"#utility.yul\":924:1046   */\n    tag_119:\n        /* \"#utility.yul\":997:1021   */\n      tag_152\n        /* \"#utility.yul\":1015:1020   */\n      dup2\n        /* \"#utility.yul\":997:1021   */\n      tag_118\n      jump\t// in\n    tag_152:\n        /* \"#utility.yul\":990:995   */\n      dup2\n        /* \"#utility.yul\":987:1022   */\n      eq\n        /* \"#utility.yul\":977:1040   */\n      tag_153\n      jumpi\n        /* \"#utility.yul\":1036:1037   */\n      0x00\n        /* \"#utility.yul\":1033:1034   */\n      dup1\n        /* \"#utility.yul\":1026:1038   */\n      revert\n        /* \"#utility.yul\":977:1040   */\n    tag_153:\n        /* \"#utility.yul\":924:1046   */\n      pop\n      jump\t// out\n        /* \"#utility.yul\":1052:1191   */\n    tag_120:\n        /* \"#utility.yul\":1098:1103   */\n      0x00\n        /* \"#utility.yul\":1136:1142   */\n      dup2\n        /* \"#utility.yul\":1123:1143   */\n      calldataload\n        /* \"#utility.yul\":1114:1143   */\n      swap1\n      pop\n        /* \"#utility.yul\":1152:1185   */\n      tag_155\n        /* \"#utility.yul\":1179:1184   */\n      dup2\n        /* \"#utility.yul\":1152:1185   */\n      tag_119\n      jump\t// in\n    tag_155:\n        /* \"#utility.yul\":1052:1191   */\n      swap3\n      swap2\n      pop\n      pop\n      jump\t// out\n        /* \"#utility.yul\":1197:2254   */\n    tag_14:\n        /* \"#utility.yul\":1301:1307   */\n      0x00\n        /* \"#utility.yul\":1309:1315   */\n      dup1\n        /* \"#utility.yul\":1317:1323   */\n      0x00\n        /* \"#utility.yul\":1325:1331   */\n      dup1\n        /* \"#utility.yul\":1333:1339   */\n      0x00\n        /* \"#utility.yul\":1341:1347   */\n      dup1\n        /* \"#utility.yul\":1390:1393   */\n      0xc0\n        /* \"#utility.yul\":1378:1387   */\n      dup8\n        /* \"#utility.yul\":1369:1376   */\n      dup10\n        /* \"#utility.yul\":1365:1388   */\n      sub\n        /* \"#utility.yul\":1361:1394   */\n      slt\n        /* \"#utility.yul\":1358:1478   */\n      iszero\n      tag_157\n      jumpi\n        /* \"#utility.yul\":1397:1476   */\n      tag_158\n      tag_112\n      jump\t// in\n    tag_158:\n        /* \"#utility.yul\":1358:1478   */\n    tag_157:\n        /* \"#utility.yul\":1517:1518   */\n      0x00\n        /* \"#utility.yul\":1542:1595   */\n      tag_159\n        /* \"#utility.yul\":1587:1594   */\n      dup10\n        /* \"#utility.yul\":1578:1584   */\n      dup3\n        /* \"#utility.yul\":1567:1576   */\n      dup11\n        /* \"#utility.yul\":1563:1585   */\n      add\n        /* \"#utility.yul\":1542:1595   */\n      tag_117\n      jump\t// in\n    tag_159:\n        /* \"#utility.yul\":1532:1595   */\n      swap7\n      pop\n        /* \"#utility.yul\":1488:1605   */\n      pop\n        /* \"#utility.yul\":1644:1646   */\n      0x20\n        /* \"#utility.yul\":1670:1723   */\n      tag_160\n        /* \"#utility.yul\":1715:1722   */\n      dup10\n        /* \"#utility.yul\":1706:1712   */\n      dup3\n        /* \"#utility.yul\":1695:1704   */\n      dup11\n        /* \"#utility.yul\":1691:1713   */\n      add\n        /* \"#utility.yul\":1670:1723   */\n      tag_120\n      jump\t// in\n    tag_160:\n        /* \"#utility.yul\":1660:1723   */\n      swap6\n      pop\n        /* \"#utility.yul\":1615:1733   */\n      pop\n        /* \"#utility.yul\":1772:1774   */\n      0x40\n        /* \"#utility.yul\":1798:1851   */\n      tag_161\n        /* \"#utility.yul\":1843:1850   */\n      dup10\n        /* \"#utility.yul\":1834:1840   */\n      dup3\n        /* \"#utility.yul\":1823:1832   */\n      dup11\n        /* \"#utility.yul\":1819:1841   */\n      add\n        /* \"#utility.yul\":1798:1851   */\n      tag_120\n      jump\t// in\n    tag_161:\n        /* \"#utility.yul\":1788:1851   */\n      swap5\n      pop\n        /* \"#utility.yul\":1743:1861   */\n      pop\n        /* \"#utility.yul\":1900:1902   */\n      0x60\n        /* \"#utility.yul\":1926:1979   */\n      tag_162\n        /* \"#utility.yul\":1971:1978   */\n      dup10\n        /* \"#utility.yul\":1962:1968   */\n      dup3\n        /* \"#utility.yul\":1951:1960   */\n      dup11\n        /* \"#utility.yul\":1947:1969   */\n      add\n        /* \"#utility.yul\":1926:1979   */\n      tag_120\n      jump\t// in\n    tag_162:\n        /* \"#utility.yul\":1916:1979   */\n      swap4\n      pop\n        /* \"#utility.yul\":1871:1989   */\n      pop\n        /* \"#utility.yul\":2028:2031   */\n      0x80\n        /* \"#utility.yul\":2055:2108   */\n      tag_163\n        /* \"#utility.yul\":2100:2107   */\n      dup10\n        /* \"#utility.yul\":2091:2097   */\n      dup3\n        /* \"#utility.yul\":2080:2089   */\n      dup11\n        /* \"#utility.yul\":2076:2098   */\n      add\n        /* \"#utility.yul\":2055:2108   */\n      tag_120\n      jump\t// in\n    tag_163:\n        /* \"#utility.yul\":2045:2108   */\n      swap3\n      pop\n        /* \"#utility.yul\":1999:2118   */\n      pop\n        /* \"#utility.yul\":2157:2160   */\n      0xa0\n        /* \"#utility.yul\":2184:2237   */\n      tag_164\n        /* \"#utility.yul\":2229:2236   */\n      dup10\n        /* \"#utility.yul\":2220:2226   */\n      dup3\n        /* \"#utility.yul\":2209:2218   */\n      dup11\n        /* \"#utility.yul\":2205:2227   */\n      add\n        /* \"#utility.yul\":2184:2237   */\n      tag_120\n      jump\t// in\n    tag_164:\n        /* \"#utility.yul\":2174:2237   */\n      swap2\n      pop\n        /* \"#utility.yul\":2128:2247   */\n      pop\n        /* \"#utility.yul\":1197:2254   */\n      swap3\n      swap6\n      pop\n      swap3\n      swap6\n      pop\n      swap3\n      swap6\n      jump\t// out\n        /* \"#utility.yul\":2260:2378   */\n    tag_121:\n        /* \"#utility.yul\":2347:2371   */\n      tag_166\n        /* \"#utility.yul\":2365:2370   */\n      dup2\n        /* \"#utility.yul\":2347:2371   */\n      tag_118\n      jump\t// in\n    tag_166:\n        /* \"#utility.yul\":2342:2345   */\n      dup3\n        /* \"#utility.yul\":2335:2372   */\n      mstore\n        /* \"#utility.yul\":2260:2378   */\n      pop\n      pop\n      jump\t// out\n        /* \"#utility.yul\":2384:2606   */\n    tag_20:\n        /* \"#utility.yul\":2477:2481   */\n      0x00\n        /* \"#utility.yul\":2515:2517   */\n      0x20\n        /* \"#utility.yul\":2504:2513   */\n      dup3\n        /* \"#utility.yul\":2500:2518   */\n      add\n        /* \"#utility.yul\":2492:2518   */\n      swap1\n      pop\n        /* \"#utility.yul\":2528:2599   */\n      tag_168\n        /* \"#utility.yul\":2596:2597   */\n      0x00\n        /* \"#utility.yul\":2585:2594   */\n      dup4\n        /* \"#utility.yul\":2581:2598   */\n      add\n        /* \"#utility.yul\":2572:2578   */\n      dup5\n        /* \"#utility.yul\":2528:2599   */\n      tag_121\n      jump\t// in\n    tag_168:\n        /* \"#utility.yul\":2384:2606   */\n      swap3\n      swap2\n      pop\n      pop\n      jump\t// out\n        /* \"#utility.yul\":2612:2941   */\n    tag_24:\n        /* \"#utility.yul\":2671:2677   */\n      0x00\n        /* \"#utility.yul\":2720:2722   */\n      0x20\n        /* \"#utility.yul\":2708:2717   */\n      dup3\n        /* \"#utility.yul\":2699:2706   */\n      dup5\n        /* \"#utility.yul\":2695:2718   */\n      sub\n        /* \"#utility.yul\":2691:2723   */\n      slt\n        /* \"#utility.yul\":2688:2807   */\n      iszero\n      tag_170\n      jumpi\n        /* \"#utility.yul\":2726:2805   */\n      tag_171\n      tag_112\n      jump\t// in\n    tag_171:\n        /* \"#utility.yul\":2688:2807   */\n    tag_170:\n        /* \"#utility.yul\":2846:2847   */\n      0x00\n        /* \"#utility.yul\":2871:2924   */\n      tag_172\n        /* \"#utility.yul\":2916:2923   */\n      dup5\n        /* \"#utility.yul\":2907:2913   */\n      dup3\n        /* \"#utility.yul\":2896:2905   */\n      dup6\n        /* \"#utility.yul\":2892:2914   */\n      add\n        /* \"#utility.yul\":2871:2924   */\n      tag_120\n      jump\t// in\n    tag_172:\n        /* \"#utility.yul\":2861:2924   */\n      swap2\n      pop\n        /* \"#utility.yul\":2817:2934   */\n      pop\n        /* \"#utility.yul\":2612:2941   */\n      swap3\n      swap2\n      pop\n      pop\n      jump\t// out\n        /* \"#utility.yul\":2947:3276   */\n    tag_29:\n        /* \"#utility.yul\":3006:3012   */\n      0x00\n        /* \"#utility.yul\":3055:3057   */\n      0x20\n        /* \"#utility.yul\":3043:3052   */\n      dup3\n        /* \"#utility.yul\":3034:3041   */\n      dup5\n        /* \"#utility.yul\":3030:3053   */\n      sub\n        /* \"#utility.yul\":3026:3058   */\n      slt\n        /* \"#utility.yul\":3023:3142   */\n      iszero\n      tag_174\n      jumpi\n        /* \"#utility.yul\":3061:3140   */\n      tag_175\n      tag_112\n      jump\t// in\n    tag_175:\n        /* \"#utility.yul\":3023:3142   */\n    tag_174:\n        /* \"#utility.yul\":3181:3182   */\n      0x00\n        /* \"#utility.yul\":3206:3259   */\n      tag_176\n        /* \"#utility.yul\":3251:3258   */\n      dup5\n        /* \"#utility.yul\":3242:3248   */\n      dup3\n        /* \"#utility.yul\":3231:3240   */\n      dup6\n        /* \"#utility.yul\":3227:3249   */\n      add\n        /* \"#utility.yul\":3206:3259   */\n      tag_117\n      jump\t// in\n    tag_176:\n        /* \"#utility.yul\":3196:3259   */\n      swap2\n      pop\n        /* \"#utility.yul\":3152:3269   */\n      pop\n        /* \"#utility.yul\":2947:3276   */\n      swap3\n      swap2\n      pop\n      pop\n      jump\t// out\n        /* \"#utility.yul\":3282:3400   */\n    tag_122:\n        /* \"#utility.yul\":3369:3393   */\n      tag_178\n        /* \"#utility.yul\":3387:3392   */\n      dup2\n        /* \"#utility.yul\":3369:3393   */\n      tag_115\n      jump\t// in\n    tag_178:\n        /* \"#utility.yul\":3364:3367   */\n      dup3\n        /* \"#utility.yul\":3357:3394   */\n      mstore\n        /* \"#utility.yul\":3282:3400   */\n      pop\n      pop\n      jump\t// out\n        /* \"#utility.yul\":3406:3628   */\n    tag_40:\n        /* \"#utility.yul\":3499:3503   */\n      0x00\n        /* \"#utility.yul\":3537:3539   */\n      0x20\n        /* \"#utility.yul\":3526:3535   */\n      dup3\n        /* \"#utility.yul\":3522:3540   */\n      add\n        /* \"#utility.yul\":3514:3540   */\n      swap1\n      pop\n        /* \"#utility.yul\":3550:3621   */\n      tag_180\n        /* \"#utility.yul\":3618:3619   */\n      0x00\n        /* \"#utility.yul\":3607:3616   */\n      dup4\n        /* \"#utility.yul\":3603:3620   */\n      add\n        /* \"#utility.yul\":3594:3600   */\n      dup5\n        /* \"#utility.yul\":3550:3621   */\n      tag_122\n      jump\t// in\n    tag_180:\n        /* \"#utility.yul\":3406:3628   */\n      swap3\n      swap2\n      pop\n      pop\n      jump\t// out\n        /* \"#utility.yul\":3634:3966   */\n    tag_56:\n        /* \"#utility.yul\":3755:3759   */\n      0x00\n        /* \"#utility.yul\":3793:3795   */\n      0x40\n        /* \"#utility.yul\":3782:3791   */\n      dup3\n        /* \"#utility.yul\":3778:3796   */\n      add\n        /* \"#utility.yul\":3770:3796   */\n      swap1\n      pop\n        /* \"#utility.yul\":3806:3877   */\n      tag_182\n        /* \"#utility.yul\":3874:3875   */\n      0x00\n        /* \"#utility.yul\":3863:3872   */\n      dup4\n        /* \"#utility.yul\":3859:3876   */\n      add\n        /* \"#utility.yul\":3850:3856   */\n      dup6\n        /* \"#utility.yul\":3806:3877   */\n      tag_122\n      jump\t// in\n    tag_182:\n        /* \"#utility.yul\":3887:3959   */\n      tag_183\n        /* \"#utility.yul\":3955:3957   */\n      0x20\n        /* \"#utility.yul\":3944:3953   */\n      dup4\n        /* \"#utility.yul\":3940:3958   */\n      add\n        /* \"#utility.yul\":3931:3937   */\n      dup5\n        /* \"#utility.yul\":3887:3959   */\n      tag_121\n      jump\t// in\n    tag_183:\n        /* \"#utility.yul\":3634:3966   */\n      swap4\n      swap3\n      pop\n      pop\n      pop\n      jump\t// out\n        /* \"#utility.yul\":3972:4062   */\n    tag_123:\n        /* \"#utility.yul\":4006:4013   */\n      0x00\n        /* \"#utility.yul\":4049:4054   */\n      dup2\n        /* \"#utility.yul\":4042:4055   */\n      iszero\n        /* \"#utility.yul\":4035:4056   */\n      iszero\n        /* \"#utility.yul\":4024:4056   */\n      swap1\n      pop\n        /* \"#utility.yul\":3972:4062   */\n      swap2\n      swap1\n      pop\n      jump\t// out\n        /* \"#utility.yul\":4068:4184   */\n    tag_124:\n        /* \"#utility.yul\":4138:4159   */\n      tag_186\n        /* \"#utility.yul\":4153:4158   */\n      dup2\n        /* \"#utility.yul\":4138:4159   */\n      tag_123\n      jump\t// in\n    tag_186:\n        /* \"#utility.yul\":4131:4136   */\n      dup2\n        /* \"#utility.yul\":4128:4160   */\n      eq\n        /* \"#utility.yul\":4118:4178   */\n      tag_187\n      jumpi\n        /* \"#utility.yul\":4174:4175   */\n      0x00\n        /* \"#utility.yul\":4171:4172   */\n      dup1\n        /* \"#utility.yul\":4164:4176   */\n      revert\n        /* \"#utility.yul\":4118:4178   */\n    tag_187:\n        /* \"#utility.yul\":4068:4184   */\n      pop\n      jump\t// out\n        /* \"#utility.yul\":4190:4327   */\n    tag_125:\n        /* \"#utility.yul\":4244:4249   */\n      0x00\n        /* \"#utility.yul\":4275:4281   */\n      dup2\n        /* \"#utility.yul\":4269:4282   */\n      mload\n        /* \"#utility.yul\":4260:4282   */\n      swap1\n      pop\n        /* \"#utility.yul\":4291:4321   */\n      tag_189\n        /* \"#utility.yul\":4315:4320   */\n      dup2\n        /* \"#utility.yul\":4291:4321   */\n      tag_124\n      jump\t// in\n    tag_189:\n        /* \"#utility.yul\":4190:4327   */\n      swap3\n      swap2\n      pop\n      pop\n      jump\t// out\n        /* \"#utility.yul\":4333:4678   */\n    tag_60:\n        /* \"#utility.yul\":4400:4406   */\n      0x00\n        /* \"#utility.yul\":4449:4451   */\n      0x20\n        /* \"#utility.yul\":4437:4446   */\n      dup3\n        /* \"#utility.yul\":4428:4435   */\n      dup5\n        /* \"#utility.yul\":4424:4447   */\n      sub\n        /* \"#utility.yul\":4420:4452   */\n      slt\n        /* \"#utility.yul\":4417:4536   */\n      iszero\n      tag_191\n      jumpi\n        /* \"#utility.yul\":4455:4534   */\n      tag_192\n      tag_112\n      jump\t// in\n    tag_192:\n        /* \"#utility.yul\":4417:4536   */\n    tag_191:\n        /* \"#utility.yul\":4575:4576   */\n      0x00\n        /* \"#utility.yul\":4600:4661   */\n      tag_193\n        /* \"#utility.yul\":4653:4660   */\n      dup5\n        /* \"#utility.yul\":4644:4650   */\n      dup3\n        /* \"#utility.yul\":4633:4642   */\n      dup6\n        /* \"#utility.yul\":4629:4651   */\n      add\n        /* \"#utility.yul\":4600:4661   */\n      tag_125\n      jump\t// in\n    tag_193:\n        /* \"#utility.yul\":4590:4661   */\n      swap2\n      pop\n        /* \"#utility.yul\":4546:4671   */\n      pop\n        /* \"#utility.yul\":4333:4678   */\n      swap3\n      swap2\n      pop\n      pop\n      jump\t// out\n        /* \"#utility.yul\":4684:4853   */\n    tag_126:\n        /* \"#utility.yul\":4768:4779   */\n      0x00\n        /* \"#utility.yul\":4802:4808   */\n      dup3\n        /* \"#utility.yul\":4797:4800   */\n      dup3\n        /* \"#utility.yul\":4790:4809   */\n      mstore\n        /* \"#utility.yul\":4842:4846   */\n      0x20\n        /* \"#utility.yul\":4837:4840   */\n      dup3\n        /* \"#utility.yul\":4833:4847   */\n      add\n        /* \"#utility.yul\":4818:4847   */\n      swap1\n      pop\n        /* \"#utility.yul\":4684:4853   */\n      swap3\n      swap2\n      pop\n      pop\n      jump\t// out\n        /* \"#utility.yul\":4859:5024   */\n    tag_127:\n        /* \"#utility.yul\":4999:5016   */\n      0x417070726f76616c206661696c65640000000000000000000000000000000000\n        /* \"#utility.yul\":4995:4996   */\n      0x00\n        /* \"#utility.yul\":4987:4993   */\n      dup3\n        /* \"#utility.yul\":4983:4997   */\n      add\n        /* \"#utility.yul\":4976:5017   */\n      mstore\n        /* \"#utility.yul\":4859:5024   */\n      pop\n      jump\t// out\n        /* \"#utility.yul\":5030:5396   */\n    tag_128:\n        /* \"#utility.yul\":5172:5175   */\n      0x00\n        /* \"#utility.yul\":5193:5260   */\n      tag_197\n        /* \"#utility.yul\":5257:5259   */\n      0x0f\n        /* \"#utility.yul\":5252:5255   */\n      dup4\n        /* \"#utility.yul\":5193:5260   */\n      tag_126\n      jump\t// in\n    tag_197:\n        /* \"#utility.yul\":5186:5260   */\n      swap2\n      pop\n        /* \"#utility.yul\":5269:5362   */\n      tag_198\n        /* \"#utility.yul\":5358:5361   */\n      dup3\n        /* \"#utility.yul\":5269:5362   */\n      tag_127\n      jump\t// in\n    tag_198:\n        /* \"#utility.yul\":5387:5389   */\n      0x20\n        /* \"#utility.yul\":5382:5385   */\n      dup3\n        /* \"#utility.yul\":5378:5390   */\n      add\n        /* \"#utility.yul\":5371:5390   */\n      swap1\n      pop\n        /* \"#utility.yul\":5030:5396   */\n      swap2\n      swap1\n      pop\n      jump\t// out\n        /* \"#utility.yul\":5402:5821   */\n    tag_63:\n        /* \"#utility.yul\":5568:5572   */\n      0x00\n        /* \"#utility.yul\":5606:5608   */\n      0x20\n        /* \"#utility.yul\":5595:5604   */\n      dup3\n        /* \"#utility.yul\":5591:5609   */\n      add\n        /* \"#utility.yul\":5583:5609   */\n      swap1\n      pop\n        /* \"#utility.yul\":5655:5664   */\n      dup2\n        /* \"#utility.yul\":5649:5653   */\n      dup2\n        /* \"#utility.yul\":5645:5665   */\n      sub\n        /* \"#utility.yul\":5641:5642   */\n      0x00\n        /* \"#utility.yul\":5630:5639   */\n      dup4\n        /* \"#utility.yul\":5626:5643   */\n      add\n        /* \"#utility.yul\":5619:5666   */\n      mstore\n        /* \"#utility.yul\":5683:5814   */\n      tag_200\n        /* \"#utility.yul\":5809:5813   */\n      dup2\n        /* \"#utility.yul\":5683:5814   */\n      tag_128\n      jump\t// in\n    tag_200:\n        /* \"#utility.yul\":5675:5814   */\n      swap1\n      pop\n        /* \"#utility.yul\":5402:5821   */\n      swap2\n      swap1\n      pop\n      jump\t// out\n        /* \"#utility.yul\":5827:6269   */\n    tag_65:\n        /* \"#utility.yul\":5976:5980   */\n      0x00\n        /* \"#utility.yul\":6014:6016   */\n      0x60\n        /* \"#utility.yul\":6003:6012   */\n      dup3\n        /* \"#utility.yul\":5999:6017   */\n      add\n        /* \"#utility.yul\":5991:6017   */\n      swap1\n      pop\n        /* \"#utility.yul\":6027:6098   */\n      tag_202\n        /* \"#utility.yul\":6095:6096   */\n      0x00\n        /* \"#utility.yul\":6084:6093   */\n      dup4\n        /* \"#utility.yul\":6080:6097   */\n      add\n        /* \"#utility.yul\":6071:6077   */\n      dup7\n        /* \"#utility.yul\":6027:6098   */\n      tag_122\n      jump\t// in\n    tag_202:\n        /* \"#utility.yul\":6108:6180   */\n      tag_203\n        /* \"#utility.yul\":6176:6178   */\n      0x20\n        /* \"#utility.yul\":6165:6174   */\n      dup4\n        /* \"#utility.yul\":6161:6179   */\n      add\n        /* \"#utility.yul\":6152:6158   */\n      dup6\n        /* \"#utility.yul\":6108:6180   */\n      tag_122\n      jump\t// in\n    tag_203:\n        /* \"#utility.yul\":6190:6262   */\n      tag_204\n        /* \"#utility.yul\":6258:6260   */\n      0x40\n        /* \"#utility.yul\":6247:6256   */\n      dup4\n        /* \"#utility.yul\":6243:6261   */\n      add\n        /* \"#utility.yul\":6234:6240   */\n      dup5\n        /* \"#utility.yul\":6190:6262   */\n      tag_121\n      jump\t// in\n    tag_204:\n        /* \"#utility.yul\":5827:6269   */\n      swap5\n      swap4\n      pop\n      pop\n      pop\n      pop\n      jump\t// out\n        /* \"#utility.yul\":6275:6455   */\n    tag_129:\n        /* \"#utility.yul\":6323:6400   */\n      0x4e487b7100000000000000000000000000000000000000000000000000000000\n        /* \"#utility.yul\":6320:6321   */\n      0x00\n        /* \"#utility.yul\":6313:6401   */\n      mstore\n        /* \"#utility.yul\":6420:6424   */\n      0x11\n        /* \"#utility.yul\":6417:6418   */\n      0x04\n        /* \"#utility.yul\":6410:6425   */\n      mstore\n        /* \"#utility.yul\":6444:6448   */\n      0x24\n        /* \"#utility.yul\":6441:6442   */\n      0x00\n        /* \"#utility.yul\":6434:6449   */\n      revert\n        /* \"#utility.yul\":6461:6652   */\n    tag_70:\n        /* \"#utility.yul\":6501:6504   */\n      0x00\n        /* \"#utility.yul\":6520:6540   */\n      tag_207\n        /* \"#utility.yul\":6538:6539   */\n      dup3\n        /* \"#utility.yul\":6520:6540   */\n      tag_118\n      jump\t// in\n    tag_207:\n        /* \"#utility.yul\":6515:6540   */\n      swap2\n      pop\n        /* \"#utility.yul\":6554:6574   */\n      tag_208\n        /* \"#utility.yul\":6572:6573   */\n      dup4\n        /* \"#utility.yul\":6554:6574   */\n      tag_118\n      jump\t// in\n    tag_208:\n        /* \"#utility.yul\":6549:6574   */\n      swap3\n      pop\n        /* \"#utility.yul\":6597:6598   */\n      dup3\n        /* \"#utility.yul\":6594:6595   */\n      dup3\n        /* \"#utility.yul\":6590:6599   */\n      add\n        /* \"#utility.yul\":6583:6599   */\n      swap1\n      pop\n        /* \"#utility.yul\":6618:6621   */\n      dup1\n        /* \"#utility.yul\":6615:6616   */\n      dup3\n        /* \"#utility.yul\":6612:6622   */\n      gt\n        /* \"#utility.yul\":6609:6645   */\n      iszero\n      tag_209\n      jumpi\n        /* \"#utility.yul\":6625:6643   */\n      tag_210\n      tag_129\n      jump\t// in\n    tag_210:\n        /* \"#utility.yul\":6609:6645   */\n    tag_209:\n        /* \"#utility.yul\":6461:6652   */\n      swap3\n      swap2\n      pop\n      pop\n      jump\t// out\n        /* \"#utility.yul\":6658:6836   */\n    tag_130:\n        /* \"#utility.yul\":6798:6828   */\n      0x4f6e6c792062656e696669636961722063616e20776974686472617700000000\n        /* \"#utility.yul\":6794:6795   */\n      0x00\n        /* \"#utility.yul\":6786:6792   */\n      dup3\n        /* \"#utility.yul\":6782:6796   */\n      add\n        /* \"#utility.yul\":6775:6829   */\n      mstore\n        /* \"#utility.yul\":6658:6836   */\n      pop\n      jump\t// out\n        /* \"#utility.yul\":6842:7208   */\n    tag_131:\n        /* \"#utility.yul\":6984:6987   */\n      0x00\n        /* \"#utility.yul\":7005:7072   */\n      tag_213\n        /* \"#utility.yul\":7069:7071   */\n      0x1c\n        /* \"#utility.yul\":7064:7067   */\n      dup4\n        /* \"#utility.yul\":7005:7072   */\n      tag_126\n      jump\t// in\n    tag_213:\n        /* \"#utility.yul\":6998:7072   */\n      swap2\n      pop\n        /* \"#utility.yul\":7081:7174   */\n      tag_214\n        /* \"#utility.yul\":7170:7173   */\n      dup3\n        /* \"#utility.yul\":7081:7174   */\n      tag_130\n      jump\t// in\n    tag_214:\n        /* \"#utility.yul\":7199:7201   */\n      0x20\n        /* \"#utility.yul\":7194:7197   */\n      dup3\n        /* \"#utility.yul\":7190:7202   */\n      add\n        /* \"#utility.yul\":7183:7202   */\n      swap1\n      pop\n        /* \"#utility.yul\":6842:7208   */\n      swap2\n      swap1\n      pop\n      jump\t// out\n        /* \"#utility.yul\":7214:7633   */\n    tag_74:\n        /* \"#utility.yul\":7380:7384   */\n      0x00\n        /* \"#utility.yul\":7418:7420   */\n      0x20\n        /* \"#utility.yul\":7407:7416   */\n      dup3\n        /* \"#utility.yul\":7403:7421   */\n      add\n        /* \"#utility.yul\":7395:7421   */\n      swap1\n      pop\n        /* \"#utility.yul\":7467:7476   */\n      dup2\n        /* \"#utility.yul\":7461:7465   */\n      dup2\n        /* \"#utility.yul\":7457:7477   */\n      sub\n        /* \"#utility.yul\":7453:7454   */\n      0x00\n        /* \"#utility.yul\":7442:7451   */\n      dup4\n        /* \"#utility.yul\":7438:7455   */\n      add\n        /* \"#utility.yul\":7431:7478   */\n      mstore\n        /* \"#utility.yul\":7495:7626   */\n      tag_216\n        /* \"#utility.yul\":7621:7625   */\n      dup2\n        /* \"#utility.yul\":7495:7626   */\n      tag_131\n      jump\t// in\n    tag_216:\n        /* \"#utility.yul\":7487:7626   */\n      swap1\n      pop\n        /* \"#utility.yul\":7214:7633   */\n      swap2\n      swap1\n      pop\n      jump\t// out\n        /* \"#utility.yul\":7639:7814   */\n    tag_132:\n        /* \"#utility.yul\":7779:7806   */\n      0x4e6f20616d6f756e7420746f2062652077697468647261776e00000000000000\n        /* \"#utility.yul\":7775:7776   */\n      0x00\n        /* \"#utility.yul\":7767:7773   */\n      dup3\n        /* \"#utility.yul\":7763:7777   */\n      add\n        /* \"#utility.yul\":7756:7807   */\n      mstore\n        /* \"#utility.yul\":7639:7814   */\n      pop\n      jump\t// out\n        /* \"#utility.yul\":7820:8186   */\n    tag_133:\n        /* \"#utility.yul\":7962:7965   */\n      0x00\n        /* \"#utility.yul\":7983:8050   */\n      tag_219\n        /* \"#utility.yul\":8047:8049   */\n      0x19\n        /* \"#utility.yul\":8042:8045   */\n      dup4\n        /* \"#utility.yul\":7983:8050   */\n      tag_126\n      jump\t// in\n    tag_219:\n        /* \"#utility.yul\":7976:8050   */\n      swap2\n      pop\n        /* \"#utility.yul\":8059:8152   */\n      tag_220\n        /* \"#utility.yul\":8148:8151   */\n      dup3\n        /* \"#utility.yul\":8059:8152   */\n      tag_132\n      jump\t// in\n    tag_220:\n        /* \"#utility.yul\":8177:8179   */\n      0x20\n        /* \"#utility.yul\":8172:8175   */\n      dup3\n        /* \"#utility.yul\":8168:8180   */\n      add\n        /* \"#utility.yul\":8161:8180   */\n      swap1\n      pop\n        /* \"#utility.yul\":7820:8186   */\n      swap2\n      swap1\n      pop\n      jump\t// out\n        /* \"#utility.yul\":8192:8611   */\n    tag_77:\n        /* \"#utility.yul\":8358:8362   */\n      0x00\n        /* \"#utility.yul\":8396:8398   */\n      0x20\n        /* \"#utility.yul\":8385:8394   */\n      dup3\n        /* \"#utility.yul\":8381:8399   */\n      add\n        /* \"#utility.yul\":8373:8399   */\n      swap1\n      pop\n        /* \"#utility.yul\":8445:8454   */\n      dup2\n        /* \"#utility.yul\":8439:8443   */\n      dup2\n        /* \"#utility.yul\":8435:8455   */\n      sub\n        /* \"#utility.yul\":8431:8432   */\n      0x00\n        /* \"#utility.yul\":8420:8429   */\n      dup4\n        /* \"#utility.yul\":8416:8433   */\n      add\n        /* \"#utility.yul\":8409:8456   */\n      mstore\n        /* \"#utility.yul\":8473:8604   */\n      tag_222\n        /* \"#utility.yul\":8599:8603   */\n      dup2\n        /* \"#utility.yul\":8473:8604   */\n      tag_133\n      jump\t// in\n    tag_222:\n        /* \"#utility.yul\":8465:8604   */\n      swap1\n      pop\n        /* \"#utility.yul\":8192:8611   */\n      swap2\n      swap1\n      pop\n      jump\t// out\n        /* \"#utility.yul\":8617:8811   */\n    tag_79:\n        /* \"#utility.yul\":8657:8661   */\n      0x00\n        /* \"#utility.yul\":8677:8697   */\n      tag_224\n        /* \"#utility.yul\":8695:8696   */\n      dup3\n        /* \"#utility.yul\":8677:8697   */\n      tag_118\n      jump\t// in\n    tag_224:\n        /* \"#utility.yul\":8672:8697   */\n      swap2\n      pop\n        /* \"#utility.yul\":8711:8731   */\n      tag_225\n        /* \"#utility.yul\":8729:8730   */\n      dup4\n        /* \"#utility.yul\":8711:8731   */\n      tag_118\n      jump\t// in\n    tag_225:\n        /* \"#utility.yul\":8706:8731   */\n      swap3\n      pop\n        /* \"#utility.yul\":8755:8756   */\n      dup3\n        /* \"#utility.yul\":8752:8753   */\n      dup3\n        /* \"#utility.yul\":8748:8757   */\n      sub\n        /* \"#utility.yul\":8740:8757   */\n      swap1\n      pop\n        /* \"#utility.yul\":8779:8780   */\n      dup2\n        /* \"#utility.yul\":8773:8777   */\n      dup2\n        /* \"#utility.yul\":8770:8781   */\n      gt\n        /* \"#utility.yul\":8767:8804   */\n      iszero\n      tag_226\n      jumpi\n        /* \"#utility.yul\":8784:8802   */\n      tag_227\n      tag_129\n      jump\t// in\n    tag_227:\n        /* \"#utility.yul\":8767:8804   */\n    tag_226:\n        /* \"#utility.yul\":8617:8811   */\n      swap3\n      swap2\n      pop\n      pop\n      jump\t// out\n        /* \"#utility.yul\":8817:8960   */\n    tag_134:\n        /* \"#utility.yul\":8874:8879   */\n      0x00\n        /* \"#utility.yul\":8905:8911   */\n      dup2\n        /* \"#utility.yul\":8899:8912   */\n      mload\n        /* \"#utility.yul\":8890:8912   */\n      swap1\n      pop\n        /* \"#utility.yul\":8921:8954   */\n      tag_229\n        /* \"#utility.yul\":8948:8953   */\n      dup2\n        /* \"#utility.yul\":8921:8954   */\n      tag_119\n      jump\t// in\n    tag_229:\n        /* \"#utility.yul\":8817:8960   */\n      swap3\n      swap2\n      pop\n      pop\n      jump\t// out\n        /* \"#utility.yul\":8966:9317   */\n    tag_89:\n        /* \"#utility.yul\":9036:9042   */\n      0x00\n        /* \"#utility.yul\":9085:9087   */\n      0x20\n        /* \"#utility.yul\":9073:9082   */\n      dup3\n        /* \"#utility.yul\":9064:9071   */\n      dup5\n        /* \"#utility.yul\":9060:9083   */\n      sub\n        /* \"#utility.yul\":9056:9088   */\n      slt\n        /* \"#utility.yul\":9053:9172   */\n      iszero\n      tag_231\n      jumpi\n        /* \"#utility.yul\":9091:9170   */\n      tag_232\n      tag_112\n      jump\t// in\n    tag_232:\n        /* \"#utility.yul\":9053:9172   */\n    tag_231:\n        /* \"#utility.yul\":9211:9212   */\n      0x00\n        /* \"#utility.yul\":9236:9300   */\n      tag_233\n        /* \"#utility.yul\":9292:9299   */\n      dup5\n        /* \"#utility.yul\":9283:9289   */\n      dup3\n        /* \"#utility.yul\":9272:9281   */\n      dup6\n        /* \"#utility.yul\":9268:9290   */\n      add\n        /* \"#utility.yul\":9236:9300   */\n      tag_134\n      jump\t// in\n    tag_233:\n        /* \"#utility.yul\":9226:9300   */\n      swap2\n      pop\n        /* \"#utility.yul\":9182:9310   */\n      pop\n        /* \"#utility.yul\":8966:9317   */\n      swap3\n      swap2\n      pop\n      pop\n      jump\t// out\n        /* \"#utility.yul\":9323:9492   */\n    tag_135:\n        /* \"#utility.yul\":9463:9484   */\n      0x4e6f20546f6b656e207665737465642079657400000000000000000000000000\n        /* \"#utility.yul\":9459:9460   */\n      0x00\n        /* \"#utility.yul\":9451:9457   */\n      dup3\n        /* \"#utility.yul\":9447:9461   */\n      add\n        /* \"#utility.yul\":9440:9485   */\n      mstore\n        /* \"#utility.yul\":9323:9492   */\n      pop\n      jump\t// out\n        /* \"#utility.yul\":9498:9864   */\n    tag_136:\n        /* \"#utility.yul\":9640:9643   */\n      0x00\n        /* \"#utility.yul\":9661:9728   */\n      tag_236\n        /* \"#utility.yul\":9725:9727   */\n      0x13\n        /* \"#utility.yul\":9720:9723   */\n      dup4\n        /* \"#utility.yul\":9661:9728   */\n      tag_126\n      jump\t// in\n    tag_236:\n        /* \"#utility.yul\":9654:9728   */\n      swap2\n      pop\n        /* \"#utility.yul\":9737:9830   */\n      tag_237\n        /* \"#utility.yul\":9826:9829   */\n      dup3\n        /* \"#utility.yul\":9737:9830   */\n      tag_135\n      jump\t// in\n    tag_237:\n        /* \"#utility.yul\":9855:9857   */\n      0x20\n        /* \"#utility.yul\":9850:9853   */\n      dup3\n        /* \"#utility.yul\":9846:9858   */\n      add\n        /* \"#utility.yul\":9839:9858   */\n      swap1\n      pop\n        /* \"#utility.yul\":9498:9864   */\n      swap2\n      swap1\n      pop\n      jump\t// out\n        /* \"#utility.yul\":9870:10289   */\n    tag_97:\n        /* \"#utility.yul\":10036:10040   */\n      0x00\n        /* \"#utility.yul\":10074:10076   */\n      0x20\n        /* \"#utility.yul\":10063:10072   */\n      dup3\n        /* \"#utility.yul\":10059:10077   */\n      add\n        /* \"#utility.yul\":10051:10077   */\n      swap1\n      pop\n        /* \"#utility.yul\":10123:10132   */\n      dup2\n        /* \"#utility.yul\":10117:10121   */\n      dup2\n        /* \"#utility.yul\":10113:10133   */\n      sub\n        /* \"#utility.yul\":10109:10110   */\n      0x00\n        /* \"#utility.yul\":10098:10107   */\n      dup4\n        /* \"#utility.yul\":10094:10111   */\n      add\n        /* \"#utility.yul\":10087:10134   */\n      mstore\n        /* \"#utility.yul\":10151:10282   */\n      tag_239\n        /* \"#utility.yul\":10277:10281   */\n      dup2\n        /* \"#utility.yul\":10151:10282   */\n      tag_136\n      jump\t// in\n    tag_239:\n        /* \"#utility.yul\":10143:10282   */\n      swap1\n      pop\n        /* \"#utility.yul\":9870:10289   */\n      swap2\n      swap1\n      pop\n      jump\t// out\n        /* \"#utility.yul\":10295:10475   */\n    tag_137:\n        /* \"#utility.yul\":10343:10420   */\n      0x4e487b7100000000000000000000000000000000000000000000000000000000\n        /* \"#utility.yul\":10340:10341   */\n      0x00\n        /* \"#utility.yul\":10333:10421   */\n      mstore\n        /* \"#utility.yul\":10440:10444   */\n      0x12\n        /* \"#utility.yul\":10437:10438   */\n      0x04\n        /* \"#utility.yul\":10430:10445   */\n      mstore\n        /* \"#utility.yul\":10464:10468   */\n      0x24\n        /* \"#utility.yul\":10461:10462   */\n      0x00\n        /* \"#utility.yul\":10454:10469   */\n      revert\n        /* \"#utility.yul\":10481:10666   */\n    tag_99:\n        /* \"#utility.yul\":10521:10522   */\n      0x00\n        /* \"#utility.yul\":10538:10558   */\n      tag_242\n        /* \"#utility.yul\":10556:10557   */\n      dup3\n        /* \"#utility.yul\":10538:10558   */\n      tag_118\n      jump\t// in\n    tag_242:\n        /* \"#utility.yul\":10533:10558   */\n      swap2\n      pop\n        /* \"#utility.yul\":10572:10592   */\n      tag_243\n        /* \"#utility.yul\":10590:10591   */\n      dup4\n        /* \"#utility.yul\":10572:10592   */\n      tag_118\n      jump\t// in\n    tag_243:\n        /* \"#utility.yul\":10567:10592   */\n      swap3\n      pop\n        /* \"#utility.yul\":10611:10612   */\n      dup3\n        /* \"#utility.yul\":10601:10636   */\n      tag_244\n      jumpi\n        /* \"#utility.yul\":10616:10634   */\n      tag_245\n      tag_137\n      jump\t// in\n    tag_245:\n        /* \"#utility.yul\":10601:10636   */\n    tag_244:\n        /* \"#utility.yul\":10658:10659   */\n      dup3\n        /* \"#utility.yul\":10655:10656   */\n      dup3\n        /* \"#utility.yul\":10651:10660   */\n      div\n        /* \"#utility.yul\":10646:10660   */\n      swap1\n      pop\n        /* \"#utility.yul\":10481:10666   */\n      swap3\n      swap2\n      pop\n      pop\n      jump\t// out\n        /* \"#utility.yul\":10672:11082   */\n    tag_107:\n        /* \"#utility.yul\":10712:10719   */\n      0x00\n        /* \"#utility.yul\":10735:10755   */\n      tag_247\n        /* \"#utility.yul\":10753:10754   */\n      dup3\n        /* \"#utility.yul\":10735:10755   */\n      tag_118\n      jump\t// in\n    tag_247:\n        /* \"#utility.yul\":10730:10755   */\n      swap2\n      pop\n        /* \"#utility.yul\":10769:10789   */\n      tag_248\n        /* \"#utility.yul\":10787:10788   */\n      dup4\n        /* \"#utility.yul\":10769:10789   */\n      tag_118\n      jump\t// in\n    tag_248:\n        /* \"#utility.yul\":10764:10789   */\n      swap3\n      pop\n        /* \"#utility.yul\":10824:10825   */\n      dup3\n        /* \"#utility.yul\":10821:10822   */\n      dup3\n        /* \"#utility.yul\":10817:10826   */\n      mul\n        /* \"#utility.yul\":10846:10876   */\n      tag_249\n        /* \"#utility.yul\":10864:10875   */\n      dup2\n        /* \"#utility.yul\":10846:10876   */\n      tag_118\n      jump\t// in\n    tag_249:\n        /* \"#utility.yul\":10835:10876   */\n      swap2\n      pop\n        /* \"#utility.yul\":11025:11026   */\n      dup3\n        /* \"#utility.yul\":11016:11023   */\n      dup3\n        /* \"#utility.yul\":11012:11027   */\n      div\n        /* \"#utility.yul\":11009:11010   */\n      dup5\n        /* \"#utility.yul\":11006:11028   */\n      eq\n        /* \"#utility.yul\":10986:10987   */\n      dup4\n        /* \"#utility.yul\":10979:10988   */\n      iszero\n        /* \"#utility.yul\":10959:11042   */\n      or\n        /* \"#utility.yul\":10936:11075   */\n      tag_250\n      jumpi\n        /* \"#utility.yul\":11055:11073   */\n      tag_251\n      tag_129\n      jump\t// in\n    tag_251:\n        /* \"#utility.yul\":10936:11075   */\n    tag_250:\n        /* \"#utility.yul\":10720:11082   */\n      pop\n        /* \"#utility.yul\":10672:11082   */\n      swap3\n      swap2\n      pop\n      pop\n      jump\t// out\n\n    auxdata: 0xa2646970667358221220563b5356de88af60168d83ed1a4815ebd1604f5d546dc44e7e6d97ca271ef90464736f6c63430008120033\n}\n",
				"bytecode": {
					"linkReferences": {},
					"object": "60806040523480156200001157600080fd5b506040516200118238038062001182833981810160405281019062000037919062000129565b806000806101000a81548173ffffffffffffffffffffffffffffffffffffffff021916908373ffffffffffffffffffffffffffffffffffffffff16021790555033600760006101000a81548173ffffffffffffffffffffffffffffffffffffffff021916908373ffffffffffffffffffffffffffffffffffffffff160217905550506200015b565b600080fd5b600073ffffffffffffffffffffffffffffffffffffffff82169050919050565b6000620000f182620000c4565b9050919050565b6200010381620000e4565b81146200010f57600080fd5b50565b6000815190506200012381620000f8565b92915050565b600060208284031215620001425762000141620000bf565b5b6000620001528482850162000112565b91505092915050565b611017806200016b6000396000f3fe6080604052600436106100865760003560e01c806386d1a69f1161005957806386d1a69f146101385780638da5cb5b14610163578063b6a3b1841461018e578063be7ab51b146101b9578063cacf5a33146101f657610086565b8063099f5cf81461008b5780630dfee936146100a75780632e1a7d4d146100d25780635f515226146100fb575b600080fd5b6100a560048036038101906100a09190610aa5565b610221565b005b3480156100b357600080fd5b506100bc610438565b6040516100c99190610b41565b60405180910390f35b3480156100de57600080fd5b506100f960048036038101906100f49190610b5c565b61043e565b005b34801561010757600080fd5b50610122600480360381019061011d9190610b89565b6106ae565b60405161012f9190610b41565b60405180910390f35b34801561014457600080fd5b5061014d610752565b60405161015a9190610b41565b60405180910390f35b34801561016f57600080fd5b5061017861083a565b6040516101859190610bc5565b60405180910390f35b34801561019a57600080fd5b506101a3610860565b6040516101b09190610b41565b60405180910390f35b3480156101c557600080fd5b506101e060048036038101906101db9190610b89565b610866565b6040516101ed9190610b41565b60405180910390f35b34801561020257600080fd5b5061020b61087e565b6040516102189190610b41565b60405180910390f35b85600160006101000a81548173ffffffffffffffffffffffffffffffffffffffff021916908373ffffffffffffffffffffffffffffffffffffffff1602179055508460028190555060008054906101000a900473ffffffffffffffffffffffffffffffffffffffff1673ffffffffffffffffffffffffffffffffffffffff1663095ea7b330876040518363ffffffff1660e01b81526004016102c4929190610be0565b6020604051808303816000875af11580156102e3573d6000803e3d6000fd5b505050506040513d601f19601f820116820180604052508101906103079190610c41565b610346576040517f08c379a000000000000000000000000000000000000000000000000000000000815260040161033d90610ccb565b60405180910390fd5b60008054906101000a900473ffffffffffffffffffffffffffffffffffffffff1673ffffffffffffffffffffffffffffffffffffffff166323b872dd600160009054906101000a900473ffffffffffffffffffffffffffffffffffffffff1630886040518463ffffffff1660e01b81526004016103c593929190610ceb565b6020604051808303816000875af11580156103e4573d6000803e3d6000fd5b505050506040513d601f19601f820116820180604052508101906104089190610c41565b5082846104159190610d51565b600381905550826004819055508160058190555080600681905550505050505050565b60085481565b3373ffffffffffffffffffffffffffffffffffffffff16600160009054906101000a900473ffffffffffffffffffffffffffffffffffffffff1673ffffffffffffffffffffffffffffffffffffffff16146104ce576040517f08c379a00000000000000000000000000000000000000000000000000000000081526004016104c590610dd1565b60405180910390fd5b6000600c6000600160009054906101000a900473ffffffffffffffffffffffffffffffffffffffff1673ffffffffffffffffffffffffffffffffffffffff1673ffffffffffffffffffffffffffffffffffffffff1681526020019081526020016000205411610572576040517f08c379a000000000000000000000000000000000000000000000000000000000815260040161056990610e3d565b60405180910390fd5b80600c6000600160009054906101000a900473ffffffffffffffffffffffffffffffffffffffff1673ffffffffffffffffffffffffffffffffffffffff1673ffffffffffffffffffffffffffffffffffffffff16815260200190815260200160002060008282546105e39190610e5d565b9250508190555060008054906101000a900473ffffffffffffffffffffffffffffffffffffffff1673ffffffffffffffffffffffffffffffffffffffff1663a9059cbb600160009054906101000a900473ffffffffffffffffffffffffffffffffffffffff16836040518363ffffffff1660e01b8152600401610667929190610be0565b6020604051808303816000875af1158015610686573d6000803e3d6000fd5b505050506040513d601f19601f820116820180604052508101906106aa9190610c41565b5050565b60008060009054906101000a900473ffffffffffffffffffffffffffffffffffffffff1673ffffffffffffffffffffffffffffffffffffffff166370a08231836040518263ffffffff1660e01b815260040161070a9190610bc5565b602060405180830381865afa158015610727573d6000803e3d6000fd5b505050506040513d601f19601f8201168201806040525081019061074b9190610ea6565b9050919050565b600061075c61087e565b600c6000600160009054906101000a900473ffffffffffffffffffffffffffffffffffffffff1673ffffffffffffffffffffffffffffffffffffffff1673ffffffffffffffffffffffffffffffffffffffff16815260200190815260200160002060008282546107cc9190610d51565b92505081905550600c6000600160009054906101000a900473ffffffffffffffffffffffffffffffffffffffff1673ffffffffffffffffffffffffffffffffffffffff1673ffffffffffffffffffffffffffffffffffffffff16815260200190815260200160002054905090565b600760009054906101000a900473ffffffffffffffffffffffffffffffffffffffff1681565b60095481565b600c6020528060005260406000206000915090505481565b6000426006546003546108919190610d51565b11156108d2576040517f08c379a00000000000000000000000000000000000000000000000000000000081526004016108c990610f1f565b60405180910390fd5b60006006546005546108e49190610f6e565b90506000816002546108f69190610f6e565b9050600042905060055460035461090d9190610d51565b8110610926576005546003546109239190610d51565b90505b600354816109349190610e5d565b60098190555060008360095461094a9190610f6e565b9050600a54838261095b9190610f9f565b6109659190610e5d565b600881905550600854600a600082825461097f9190610d51565b92505081905550600854600b6000600160009054906101000a900473ffffffffffffffffffffffffffffffffffffffff1673ffffffffffffffffffffffffffffffffffffffff1673ffffffffffffffffffffffffffffffffffffffff16815260200190815260200160002060008282546109f99190610d51565b9250508190555060085494505050505090565b600080fd5b600073ffffffffffffffffffffffffffffffffffffffff82169050919050565b6000610a3c82610a11565b9050919050565b610a4c81610a31565b8114610a5757600080fd5b50565b600081359050610a6981610a43565b92915050565b6000819050919050565b610a8281610a6f565b8114610a8d57600080fd5b50565b600081359050610a9f81610a79565b92915050565b60008060008060008060c08789031215610ac257610ac1610a0c565b5b6000610ad089828a01610a5a565b9650506020610ae189828a01610a90565b9550506040610af289828a01610a90565b9450506060610b0389828a01610a90565b9350506080610b1489828a01610a90565b92505060a0610b2589828a01610a90565b9150509295509295509295565b610b3b81610a6f565b82525050565b6000602082019050610b566000830184610b32565b92915050565b600060208284031215610b7257610b71610a0c565b5b6000610b8084828501610a90565b91505092915050565b600060208284031215610b9f57610b9e610a0c565b5b6000610bad84828501610a5a565b91505092915050565b610bbf81610a31565b82525050565b6000602082019050610bda6000830184610bb6565b92915050565b6000604082019050610bf56000830185610bb6565b610c026020830184610b32565b9392505050565b60008115159050919050565b610c1e81610c09565b8114610c2957600080fd5b50565b600081519050610c3b81610c15565b92915050565b600060208284031215610c5757610c56610a0c565b5b6000610c6584828501610c2c565b91505092915050565b600082825260208201905092915050565b7f417070726f76616c206661696c65640000000000000000000000000000000000600082015250565b6000610cb5600f83610c6e565b9150610cc082610c7f565b602082019050919050565b60006020820190508181036000830152610ce481610ca8565b9050919050565b6000606082019050610d006000830186610bb6565b610d0d6020830185610bb6565b610d1a6040830184610b32565b949350505050565b7f4e487b7100000000000000000000000000000000000000000000000000000000600052601160045260246000fd5b6000610d5c82610a6f565b9150610d6783610a6f565b9250828201905080821115610d7f57610d7e610d22565b5b92915050565b7f4f6e6c792062656e696669636961722063616e20776974686472617700000000600082015250565b6000610dbb601c83610c6e565b9150610dc682610d85565b602082019050919050565b60006020820190508181036000830152610dea81610dae565b9050919050565b7f4e6f20616d6f756e7420746f2062652077697468647261776e00000000000000600082015250565b6000610e27601983610c6e565b9150610e3282610df1565b602082019050919050565b60006020820190508181036000830152610e5681610e1a565b9050919050565b6000610e6882610a6f565b9150610e7383610a6f565b9250828203905081811115610e8b57610e8a610d22565b5b92915050565b600081519050610ea081610a79565b92915050565b600060208284031215610ebc57610ebb610a0c565b5b6000610eca84828501610e91565b91505092915050565b7f4e6f20546f6b656e207665737465642079657400000000000000000000000000600082015250565b6000610f09601383610c6e565b9150610f1482610ed3565b602082019050919050565b60006020820190508181036000830152610f3881610efc565b9050919050565b7f4e487b7100000000000000000000000000000000000000000000000000000000600052601260045260246000fd5b6000610f7982610a6f565b9150610f8483610a6f565b925082610f9457610f93610f3f565b5b828204905092915050565b6000610faa82610a6f565b9150610fb583610a6f565b9250828202610fc381610a6f565b91508282048414831517610fda57610fd9610d22565b5b509291505056fea2646970667358221220563b5356de88af60168d83ed1a4815ebd1604f5d546dc44e7e6d97ca271ef90464736f6c63430008120033",
					"opcodes": "PUSH1 0x80 PUSH1 0x40 MSTORE CALLVALUE DUP1 ISZERO PUSH3 0x11 JUMPI PUSH1 0x0 DUP1 REVERT JUMPDEST POP PUSH1 0x40 MLOAD PUSH3 0x1182 CODESIZE SUB DUP1 PUSH3 0x1182 DUP4 CODECOPY DUP2 DUP2 ADD PUSH1 0x40 MSTORE DUP2 ADD SWAP1 PUSH3 0x37 SWAP2 SWAP1 PUSH3 0x129 JUMP JUMPDEST DUP1 PUSH1 0x0 DUP1 PUSH2 0x100 EXP DUP2 SLOAD DUP2 PUSH20 0xFFFFFFFFFFFFFFFFFFFFFFFFFFFFFFFFFFFFFFFF MUL NOT AND SWAP1 DUP4 PUSH20 0xFFFFFFFFFFFFFFFFFFFFFFFFFFFFFFFFFFFFFFFF AND MUL OR SWAP1 SSTORE POP CALLER PUSH1 0x7 PUSH1 0x0 PUSH2 0x100 EXP DUP2 SLOAD DUP2 PUSH20 0xFFFFFFFFFFFFFFFFFFFFFFFFFFFFFFFFFFFFFFFF MUL NOT AND SWAP1 DUP4 PUSH20 0xFFFFFFFFFFFFFFFFFFFFFFFFFFFFFFFFFFFFFFFF AND MUL OR SWAP1 SSTORE POP POP PUSH3 0x15B JUMP JUMPDEST PUSH1 0x0 DUP1 REVERT JUMPDEST PUSH1 0x0 PUSH20 0xFFFFFFFFFFFFFFFFFFFFFFFFFFFFFFFFFFFFFFFF DUP3 AND SWAP1 POP SWAP2 SWAP1 POP JUMP JUMPDEST PUSH1 0x0 PUSH3 0xF1 DUP3 PUSH3 0xC4 JUMP JUMPDEST SWAP1 POP SWAP2 SWAP1 POP JUMP JUMPDEST PUSH3 0x103 DUP2 PUSH3 0xE4 JUMP JUMPDEST DUP2 EQ PUSH3 0x10F JUMPI PUSH1 0x0 DUP1 REVERT JUMPDEST POP JUMP JUMPDEST PUSH1 0x0 DUP2 MLOAD SWAP1 POP PUSH3 0x123 DUP2 PUSH3 0xF8 JUMP JUMPDEST SWAP3 SWAP2 POP POP JUMP JUMPDEST PUSH1 0x0 PUSH1 0x20 DUP3 DUP5 SUB SLT ISZERO PUSH3 0x142 JUMPI PUSH3 0x141 PUSH3 0xBF JUMP JUMPDEST JUMPDEST PUSH1 0x0 PUSH3 0x152 DUP5 DUP3 DUP6 ADD PUSH3 0x112 JUMP JUMPDEST SWAP2 POP POP SWAP3 SWAP2 POP POP JUMP JUMPDEST PUSH2 0x1017 DUP1 PUSH3 0x16B PUSH1 0x0 CODECOPY PUSH1 0x0 RETURN INVALID PUSH1 0x80 PUSH1 0x40 MSTORE PUSH1 0x4 CALLDATASIZE LT PUSH2 0x86 JUMPI PUSH1 0x0 CALLDATALOAD PUSH1 0xE0 SHR DUP1 PUSH4 0x86D1A69F GT PUSH2 0x59 JUMPI DUP1 PUSH4 0x86D1A69F EQ PUSH2 0x138 JUMPI DUP1 PUSH4 0x8DA5CB5B EQ PUSH2 0x163 JUMPI DUP1 PUSH4 0xB6A3B184 EQ PUSH2 0x18E JUMPI DUP1 PUSH4 0xBE7AB51B EQ PUSH2 0x1B9 JUMPI DUP1 PUSH4 0xCACF5A33 EQ PUSH2 0x1F6 JUMPI PUSH2 0x86 JUMP JUMPDEST DUP1 PUSH4 0x99F5CF8 EQ PUSH2 0x8B JUMPI DUP1 PUSH4 0xDFEE936 EQ PUSH2 0xA7 JUMPI DUP1 PUSH4 0x2E1A7D4D EQ PUSH2 0xD2 JUMPI DUP1 PUSH4 0x5F515226 EQ PUSH2 0xFB JUMPI JUMPDEST PUSH1 0x0 DUP1 REVERT JUMPDEST PUSH2 0xA5 PUSH1 0x4 DUP1 CALLDATASIZE SUB DUP2 ADD SWAP1 PUSH2 0xA0 SWAP2 SWAP1 PUSH2 0xAA5 JUMP JUMPDEST PUSH2 0x221 JUMP JUMPDEST STOP JUMPDEST CALLVALUE DUP1 ISZERO PUSH2 0xB3 JUMPI PUSH1 0x0 DUP1 REVERT JUMPDEST POP PUSH2 0xBC PUSH2 0x438 JUMP JUMPDEST PUSH1 0x40 MLOAD PUSH2 0xC9 SWAP2 SWAP1 PUSH2 0xB41 JUMP JUMPDEST PUSH1 0x40 MLOAD DUP1 SWAP2 SUB SWAP1 RETURN JUMPDEST CALLVALUE DUP1 ISZERO PUSH2 0xDE JUMPI PUSH1 0x0 DUP1 REVERT JUMPDEST POP PUSH2 0xF9 PUSH1 0x4 DUP1 CALLDATASIZE SUB DUP2 ADD SWAP1 PUSH2 0xF4 SWAP2 SWAP1 PUSH2 0xB5C JUMP JUMPDEST PUSH2 0x43E JUMP JUMPDEST STOP JUMPDEST CALLVALUE DUP1 ISZERO PUSH2 0x107 JUMPI PUSH1 0x0 DUP1 REVERT JUMPDEST POP PUSH2 0x122 PUSH1 0x4 DUP1 CALLDATASIZE SUB DUP2 ADD SWAP1 PUSH2 0x11D SWAP2 SWAP1 PUSH2 0xB89 JUMP JUMPDEST PUSH2 0x6AE JUMP JUMPDEST PUSH1 0x40 MLOAD PUSH2 0x12F SWAP2 SWAP1 PUSH2 0xB41 JUMP JUMPDEST PUSH1 0x40 MLOAD DUP1 SWAP2 SUB SWAP1 RETURN JUMPDEST CALLVALUE DUP1 ISZERO PUSH2 0x144 JUMPI PUSH1 0x0 DUP1 REVERT JUMPDEST POP PUSH2 0x14D PUSH2 0x752 JUMP JUMPDEST PUSH1 0x40 MLOAD PUSH2 0x15A SWAP2 SWAP1 PUSH2 0xB41 JUMP JUMPDEST PUSH1 0x40 MLOAD DUP1 SWAP2 SUB SWAP1 RETURN JUMPDEST CALLVALUE DUP1 ISZERO PUSH2 0x16F JUMPI PUSH1 0x0 DUP1 REVERT JUMPDEST POP PUSH2 0x178 PUSH2 0x83A JUMP JUMPDEST PUSH1 0x40 MLOAD PUSH2 0x185 SWAP2 SWAP1 PUSH2 0xBC5 JUMP JUMPDEST PUSH1 0x40 MLOAD DUP1 SWAP2 SUB SWAP1 RETURN JUMPDEST CALLVALUE DUP1 ISZERO PUSH2 0x19A JUMPI PUSH1 0x0 DUP1 REVERT JUMPDEST POP PUSH2 0x1A3 PUSH2 0x860 JUMP JUMPDEST PUSH1 0x40 MLOAD PUSH2 0x1B0 SWAP2 SWAP1 PUSH2 0xB41 JUMP JUMPDEST PUSH1 0x40 MLOAD DUP1 SWAP2 SUB SWAP1 RETURN JUMPDEST CALLVALUE DUP1 ISZERO PUSH2 0x1C5 JUMPI PUSH1 0x0 DUP1 REVERT JUMPDEST POP PUSH2 0x1E0 PUSH1 0x4 DUP1 CALLDATASIZE SUB DUP2 ADD SWAP1 PUSH2 0x1DB SWAP2 SWAP1 PUSH2 0xB89 JUMP JUMPDEST PUSH2 0x866 JUMP JUMPDEST PUSH1 0x40 MLOAD PUSH2 0x1ED SWAP2 SWAP1 PUSH2 0xB41 JUMP JUMPDEST PUSH1 0x40 MLOAD DUP1 SWAP2 SUB SWAP1 RETURN JUMPDEST CALLVALUE DUP1 ISZERO PUSH2 0x202 JUMPI PUSH1 0x0 DUP1 REVERT JUMPDEST POP PUSH2 0x20B PUSH2 0x87E JUMP JUMPDEST PUSH1 0x40 MLOAD PUSH2 0x218 SWAP2 SWAP1 PUSH2 0xB41 JUMP JUMPDEST PUSH1 0x40 MLOAD DUP1 SWAP2 SUB SWAP1 RETURN JUMPDEST DUP6 PUSH1 0x1 PUSH1 0x0 PUSH2 0x100 EXP DUP2 SLOAD DUP2 PUSH20 0xFFFFFFFFFFFFFFFFFFFFFFFFFFFFFFFFFFFFFFFF MUL NOT AND SWAP1 DUP4 PUSH20 0xFFFFFFFFFFFFFFFFFFFFFFFFFFFFFFFFFFFFFFFF AND MUL OR SWAP1 SSTORE POP DUP5 PUSH1 0x2 DUP2 SWAP1 SSTORE POP PUSH1 0x0 DUP1 SLOAD SWAP1 PUSH2 0x100 EXP SWAP1 DIV PUSH20 0xFFFFFFFFFFFFFFFFFFFFFFFFFFFFFFFFFFFFFFFF AND PUSH20 0xFFFFFFFFFFFFFFFFFFFFFFFFFFFFFFFFFFFFFFFF AND PUSH4 0x95EA7B3 ADDRESS DUP8 PUSH1 0x40 MLOAD DUP4 PUSH4 0xFFFFFFFF AND PUSH1 0xE0 SHL DUP2 MSTORE PUSH1 0x4 ADD PUSH2 0x2C4 SWAP3 SWAP2 SWAP1 PUSH2 0xBE0 JUMP JUMPDEST PUSH1 0x20 PUSH1 0x40 MLOAD DUP1 DUP4 SUB DUP2 PUSH1 0x0 DUP8 GAS CALL ISZERO DUP1 ISZERO PUSH2 0x2E3 JUMPI RETURNDATASIZE PUSH1 0x0 DUP1 RETURNDATACOPY RETURNDATASIZE PUSH1 0x0 REVERT JUMPDEST POP POP POP POP PUSH1 0x40 MLOAD RETURNDATASIZE PUSH1 0x1F NOT PUSH1 0x1F DUP3 ADD AND DUP3 ADD DUP1 PUSH1 0x40 MSTORE POP DUP2 ADD SWAP1 PUSH2 0x307 SWAP2 SWAP1 PUSH2 0xC41 JUMP JUMPDEST PUSH2 0x346 JUMPI PUSH1 0x40 MLOAD PUSH32 0x8C379A000000000000000000000000000000000000000000000000000000000 DUP2 MSTORE PUSH1 0x4 ADD PUSH2 0x33D SWAP1 PUSH2 0xCCB JUMP JUMPDEST PUSH1 0x40 MLOAD DUP1 SWAP2 SUB SWAP1 REVERT JUMPDEST PUSH1 0x0 DUP1 SLOAD SWAP1 PUSH2 0x100 EXP SWAP1 DIV PUSH20 0xFFFFFFFFFFFFFFFFFFFFFFFFFFFFFFFFFFFFFFFF AND PUSH20 0xFFFFFFFFFFFFFFFFFFFFFFFFFFFFFFFFFFFFFFFF AND PUSH4 0x23B872DD PUSH1 0x1 PUSH1 0x0 SWAP1 SLOAD SWAP1 PUSH2 0x100 EXP SWAP1 DIV PUSH20 0xFFFFFFFFFFFFFFFFFFFFFFFFFFFFFFFFFFFFFFFF AND ADDRESS DUP9 PUSH1 0x40 MLOAD DUP5 PUSH4 0xFFFFFFFF AND PUSH1 0xE0 SHL DUP2 MSTORE PUSH1 0x4 ADD PUSH2 0x3C5 SWAP4 SWAP3 SWAP2 SWAP1 PUSH2 0xCEB JUMP JUMPDEST PUSH1 0x20 PUSH1 0x40 MLOAD DUP1 DUP4 SUB DUP2 PUSH1 0x0 DUP8 GAS CALL ISZERO DUP1 ISZERO PUSH2 0x3E4 JUMPI RETURNDATASIZE PUSH1 0x0 DUP1 RETURNDATACOPY RETURNDATASIZE PUSH1 0x0 REVERT JUMPDEST POP POP POP POP PUSH1 0x40 MLOAD RETURNDATASIZE PUSH1 0x1F NOT PUSH1 0x1F DUP3 ADD AND DUP3 ADD DUP1 PUSH1 0x40 MSTORE POP DUP2 ADD SWAP1 PUSH2 0x408 SWAP2 SWAP1 PUSH2 0xC41 JUMP JUMPDEST POP DUP3 DUP5 PUSH2 0x415 SWAP2 SWAP1 PUSH2 0xD51 JUMP JUMPDEST PUSH1 0x3 DUP2 SWAP1 SSTORE POP DUP3 PUSH1 0x4 DUP2 SWAP1 SSTORE POP DUP2 PUSH1 0x5 DUP2 SWAP1 SSTORE POP DUP1 PUSH1 0x6 DUP2 SWAP1 SSTORE POP POP POP POP POP POP POP JUMP JUMPDEST PUSH1 0x8 SLOAD DUP2 JUMP JUMPDEST CALLER PUSH20 0xFFFFFFFFFFFFFFFFFFFFFFFFFFFFFFFFFFFFFFFF AND PUSH1 0x1 PUSH1 0x0 SWAP1 SLOAD SWAP1 PUSH2 0x100 EXP SWAP1 DIV PUSH20 0xFFFFFFFFFFFFFFFFFFFFFFFFFFFFFFFFFFFFFFFF AND PUSH20 0xFFFFFFFFFFFFFFFFFFFFFFFFFFFFFFFFFFFFFFFF AND EQ PUSH2 0x4CE JUMPI PUSH1 0x40 MLOAD PUSH32 0x8C379A000000000000000000000000000000000000000000000000000000000 DUP2 MSTORE PUSH1 0x4 ADD PUSH2 0x4C5 SWAP1 PUSH2 0xDD1 JUMP JUMPDEST PUSH1 0x40 MLOAD DUP1 SWAP2 SUB SWAP1 REVERT JUMPDEST PUSH1 0x0 PUSH1 0xC PUSH1 0x0 PUSH1 0x1 PUSH1 0x0 SWAP1 SLOAD SWAP1 PUSH2 0x100 EXP SWAP1 DIV PUSH20 0xFFFFFFFFFFFFFFFFFFFFFFFFFFFFFFFFFFFFFFFF AND PUSH20 0xFFFFFFFFFFFFFFFFFFFFFFFFFFFFFFFFFFFFFFFF AND PUSH20 0xFFFFFFFFFFFFFFFFFFFFFFFFFFFFFFFFFFFFFFFF AND DUP2 MSTORE PUSH1 0x20 ADD SWAP1 DUP2 MSTORE PUSH1 0x20 ADD PUSH1 0x0 KECCAK256 SLOAD GT PUSH2 0x572 JUMPI PUSH1 0x40 MLOAD PUSH32 0x8C379A000000000000000000000000000000000000000000000000000000000 DUP2 MSTORE PUSH1 0x4 ADD PUSH2 0x569 SWAP1 PUSH2 0xE3D JUMP JUMPDEST PUSH1 0x40 MLOAD DUP1 SWAP2 SUB SWAP1 REVERT JUMPDEST DUP1 PUSH1 0xC PUSH1 0x0 PUSH1 0x1 PUSH1 0x0 SWAP1 SLOAD SWAP1 PUSH2 0x100 EXP SWAP1 DIV PUSH20 0xFFFFFFFFFFFFFFFFFFFFFFFFFFFFFFFFFFFFFFFF AND PUSH20 0xFFFFFFFFFFFFFFFFFFFFFFFFFFFFFFFFFFFFFFFF AND PUSH20 0xFFFFFFFFFFFFFFFFFFFFFFFFFFFFFFFFFFFFFFFF AND DUP2 MSTORE PUSH1 0x20 ADD SWAP1 DUP2 MSTORE PUSH1 0x20 ADD PUSH1 0x0 KECCAK256 PUSH1 0x0 DUP3 DUP3 SLOAD PUSH2 0x5E3 SWAP2 SWAP1 PUSH2 0xE5D JUMP JUMPDEST SWAP3 POP POP DUP2 SWAP1 SSTORE POP PUSH1 0x0 DUP1 SLOAD SWAP1 PUSH2 0x100 EXP SWAP1 DIV PUSH20 0xFFFFFFFFFFFFFFFFFFFFFFFFFFFFFFFFFFFFFFFF AND PUSH20 0xFFFFFFFFFFFFFFFFFFFFFFFFFFFFFFFFFFFFFFFF AND PUSH4 0xA9059CBB PUSH1 0x1 PUSH1 0x0 SWAP1 SLOAD SWAP1 PUSH2 0x100 EXP SWAP1 DIV PUSH20 0xFFFFFFFFFFFFFFFFFFFFFFFFFFFFFFFFFFFFFFFF AND DUP4 PUSH1 0x40 MLOAD DUP4 PUSH4 0xFFFFFFFF AND PUSH1 0xE0 SHL DUP2 MSTORE PUSH1 0x4 ADD PUSH2 0x667 SWAP3 SWAP2 SWAP1 PUSH2 0xBE0 JUMP JUMPDEST PUSH1 0x20 PUSH1 0x40 MLOAD DUP1 DUP4 SUB DUP2 PUSH1 0x0 DUP8 GAS CALL ISZERO DUP1 ISZERO PUSH2 0x686 JUMPI RETURNDATASIZE PUSH1 0x0 DUP1 RETURNDATACOPY RETURNDATASIZE PUSH1 0x0 REVERT JUMPDEST POP POP POP POP PUSH1 0x40 MLOAD RETURNDATASIZE PUSH1 0x1F NOT PUSH1 0x1F DUP3 ADD AND DUP3 ADD DUP1 PUSH1 0x40 MSTORE POP DUP2 ADD SWAP1 PUSH2 0x6AA SWAP2 SWAP1 PUSH2 0xC41 JUMP JUMPDEST POP POP JUMP JUMPDEST PUSH1 0x0 DUP1 PUSH1 0x0 SWAP1 SLOAD SWAP1 PUSH2 0x100 EXP SWAP1 DIV PUSH20 0xFFFFFFFFFFFFFFFFFFFFFFFFFFFFFFFFFFFFFFFF AND PUSH20 0xFFFFFFFFFFFFFFFFFFFFFFFFFFFFFFFFFFFFFFFF AND PUSH4 0x70A08231 DUP4 PUSH1 0x40 MLOAD DUP3 PUSH4 0xFFFFFFFF AND PUSH1 0xE0 SHL DUP2 MSTORE PUSH1 0x4 ADD PUSH2 0x70A SWAP2 SWAP1 PUSH2 0xBC5 JUMP JUMPDEST PUSH1 0x20 PUSH1 0x40 MLOAD DUP1 DUP4 SUB DUP2 DUP7 GAS STATICCALL ISZERO DUP1 ISZERO PUSH2 0x727 JUMPI RETURNDATASIZE PUSH1 0x0 DUP1 RETURNDATACOPY RETURNDATASIZE PUSH1 0x0 REVERT JUMPDEST POP POP POP POP PUSH1 0x40 MLOAD RETURNDATASIZE PUSH1 0x1F NOT PUSH1 0x1F DUP3 ADD AND DUP3 ADD DUP1 PUSH1 0x40 MSTORE POP DUP2 ADD SWAP1 PUSH2 0x74B SWAP2 SWAP1 PUSH2 0xEA6 JUMP JUMPDEST SWAP1 POP SWAP2 SWAP1 POP JUMP JUMPDEST PUSH1 0x0 PUSH2 0x75C PUSH2 0x87E JUMP JUMPDEST PUSH1 0xC PUSH1 0x0 PUSH1 0x1 PUSH1 0x0 SWAP1 SLOAD SWAP1 PUSH2 0x100 EXP SWAP1 DIV PUSH20 0xFFFFFFFFFFFFFFFFFFFFFFFFFFFFFFFFFFFFFFFF AND PUSH20 0xFFFFFFFFFFFFFFFFFFFFFFFFFFFFFFFFFFFFFFFF AND PUSH20 0xFFFFFFFFFFFFFFFFFFFFFFFFFFFFFFFFFFFFFFFF AND DUP2 MSTORE PUSH1 0x20 ADD SWAP1 DUP2 MSTORE PUSH1 0x20 ADD PUSH1 0x0 KECCAK256 PUSH1 0x0 DUP3 DUP3 SLOAD PUSH2 0x7CC SWAP2 SWAP1 PUSH2 0xD51 JUMP JUMPDEST SWAP3 POP POP DUP2 SWAP1 SSTORE POP PUSH1 0xC PUSH1 0x0 PUSH1 0x1 PUSH1 0x0 SWAP1 SLOAD SWAP1 PUSH2 0x100 EXP SWAP1 DIV PUSH20 0xFFFFFFFFFFFFFFFFFFFFFFFFFFFFFFFFFFFFFFFF AND PUSH20 0xFFFFFFFFFFFFFFFFFFFFFFFFFFFFFFFFFFFFFFFF AND PUSH20 0xFFFFFFFFFFFFFFFFFFFFFFFFFFFFFFFFFFFFFFFF AND DUP2 MSTORE PUSH1 0x20 ADD SWAP1 DUP2 MSTORE PUSH1 0x20 ADD PUSH1 0x0 KECCAK256 SLOAD SWAP1 POP SWAP1 JUMP JUMPDEST PUSH1 0x7 PUSH1 0x0 SWAP1 SLOAD SWAP1 PUSH2 0x100 EXP SWAP1 DIV PUSH20 0xFFFFFFFFFFFFFFFFFFFFFFFFFFFFFFFFFFFFFFFF AND DUP2 JUMP JUMPDEST PUSH1 0x9 SLOAD DUP2 JUMP JUMPDEST PUSH1 0xC PUSH1 0x20 MSTORE DUP1 PUSH1 0x0 MSTORE PUSH1 0x40 PUSH1 0x0 KECCAK256 PUSH1 0x0 SWAP2 POP SWAP1 POP SLOAD DUP2 JUMP JUMPDEST PUSH1 0x0 TIMESTAMP PUSH1 0x6 SLOAD PUSH1 0x3 SLOAD PUSH2 0x891 SWAP2 SWAP1 PUSH2 0xD51 JUMP JUMPDEST GT ISZERO PUSH2 0x8D2 JUMPI PUSH1 0x40 MLOAD PUSH32 0x8C379A000000000000000000000000000000000000000000000000000000000 DUP2 MSTORE PUSH1 0x4 ADD PUSH2 0x8C9 SWAP1 PUSH2 0xF1F JUMP JUMPDEST PUSH1 0x40 MLOAD DUP1 SWAP2 SUB SWAP1 REVERT JUMPDEST PUSH1 0x0 PUSH1 0x6 SLOAD PUSH1 0x5 SLOAD PUSH2 0x8E4 SWAP2 SWAP1 PUSH2 0xF6E JUMP JUMPDEST SWAP1 POP PUSH1 0x0 DUP2 PUSH1 0x2 SLOAD PUSH2 0x8F6 SWAP2 SWAP1 PUSH2 0xF6E JUMP JUMPDEST SWAP1 POP PUSH1 0x0 TIMESTAMP SWAP1 POP PUSH1 0x5 SLOAD PUSH1 0x3 SLOAD PUSH2 0x90D SWAP2 SWAP1 PUSH2 0xD51 JUMP JUMPDEST DUP2 LT PUSH2 0x926 JUMPI PUSH1 0x5 SLOAD PUSH1 0x3 SLOAD PUSH2 0x923 SWAP2 SWAP1 PUSH2 0xD51 JUMP JUMPDEST SWAP1 POP JUMPDEST PUSH1 0x3 SLOAD DUP2 PUSH2 0x934 SWAP2 SWAP1 PUSH2 0xE5D JUMP JUMPDEST PUSH1 0x9 DUP2 SWAP1 SSTORE POP PUSH1 0x0 DUP4 PUSH1 0x9 SLOAD PUSH2 0x94A SWAP2 SWAP1 PUSH2 0xF6E JUMP JUMPDEST SWAP1 POP PUSH1 0xA SLOAD DUP4 DUP3 PUSH2 0x95B SWAP2 SWAP1 PUSH2 0xF9F JUMP JUMPDEST PUSH2 0x965 SWAP2 SWAP1 PUSH2 0xE5D JUMP JUMPDEST PUSH1 0x8 DUP2 SWAP1 SSTORE POP PUSH1 0x8 SLOAD PUSH1 0xA PUSH1 0x0 DUP3 DUP3 SLOAD PUSH2 0x97F SWAP2 SWAP1 PUSH2 0xD51 JUMP JUMPDEST SWAP3 POP POP DUP2 SWAP1 SSTORE POP PUSH1 0x8 SLOAD PUSH1 0xB PUSH1 0x0 PUSH1 0x1 PUSH1 0x0 SWAP1 SLOAD SWAP1 PUSH2 0x100 EXP SWAP1 DIV PUSH20 0xFFFFFFFFFFFFFFFFFFFFFFFFFFFFFFFFFFFFFFFF AND PUSH20 0xFFFFFFFFFFFFFFFFFFFFFFFFFFFFFFFFFFFFFFFF AND PUSH20 0xFFFFFFFFFFFFFFFFFFFFFFFFFFFFFFFFFFFFFFFF AND DUP2 MSTORE PUSH1 0x20 ADD SWAP1 DUP2 MSTORE PUSH1 0x20 ADD PUSH1 0x0 KECCAK256 PUSH1 0x0 DUP3 DUP3 SLOAD PUSH2 0x9F9 SWAP2 SWAP1 PUSH2 0xD51 JUMP JUMPDEST SWAP3 POP POP DUP2 SWAP1 SSTORE POP PUSH1 0x8 SLOAD SWAP5 POP POP POP POP POP SWAP1 JUMP JUMPDEST PUSH1 0x0 DUP1 REVERT JUMPDEST PUSH1 0x0 PUSH20 0xFFFFFFFFFFFFFFFFFFFFFFFFFFFFFFFFFFFFFFFF DUP3 AND SWAP1 POP SWAP2 SWAP1 POP JUMP JUMPDEST PUSH1 0x0 PUSH2 0xA3C DUP3 PUSH2 0xA11 JUMP JUMPDEST SWAP1 POP SWAP2 SWAP1 POP JUMP JUMPDEST PUSH2 0xA4C DUP2 PUSH2 0xA31 JUMP JUMPDEST DUP2 EQ PUSH2 0xA57 JUMPI PUSH1 0x0 DUP1 REVERT JUMPDEST POP JUMP JUMPDEST PUSH1 0x0 DUP2 CALLDATALOAD SWAP1 POP PUSH2 0xA69 DUP2 PUSH2 0xA43 JUMP JUMPDEST SWAP3 SWAP2 POP POP JUMP JUMPDEST PUSH1 0x0 DUP2 SWAP1 POP SWAP2 SWAP1 POP JUMP JUMPDEST PUSH2 0xA82 DUP2 PUSH2 0xA6F JUMP JUMPDEST DUP2 EQ PUSH2 0xA8D JUMPI PUSH1 0x0 DUP1 REVERT JUMPDEST POP JUMP JUMPDEST PUSH1 0x0 DUP2 CALLDATALOAD SWAP1 POP PUSH2 0xA9F DUP2 PUSH2 0xA79 JUMP JUMPDEST SWAP3 SWAP2 POP POP JUMP JUMPDEST PUSH1 0x0 DUP1 PUSH1 0x0 DUP1 PUSH1 0x0 DUP1 PUSH1 0xC0 DUP8 DUP10 SUB SLT ISZERO PUSH2 0xAC2 JUMPI PUSH2 0xAC1 PUSH2 0xA0C JUMP JUMPDEST JUMPDEST PUSH1 0x0 PUSH2 0xAD0 DUP10 DUP3 DUP11 ADD PUSH2 0xA5A JUMP JUMPDEST SWAP7 POP POP PUSH1 0x20 PUSH2 0xAE1 DUP10 DUP3 DUP11 ADD PUSH2 0xA90 JUMP JUMPDEST SWAP6 POP POP PUSH1 0x40 PUSH2 0xAF2 DUP10 DUP3 DUP11 ADD PUSH2 0xA90 JUMP JUMPDEST SWAP5 POP POP PUSH1 0x60 PUSH2 0xB03 DUP10 DUP3 DUP11 ADD PUSH2 0xA90 JUMP JUMPDEST SWAP4 POP POP PUSH1 0x80 PUSH2 0xB14 DUP10 DUP3 DUP11 ADD PUSH2 0xA90 JUMP JUMPDEST SWAP3 POP POP PUSH1 0xA0 PUSH2 0xB25 DUP10 DUP3 DUP11 ADD PUSH2 0xA90 JUMP JUMPDEST SWAP2 POP POP SWAP3 SWAP6 POP SWAP3 SWAP6 POP SWAP3 SWAP6 JUMP JUMPDEST PUSH2 0xB3B DUP2 PUSH2 0xA6F JUMP JUMPDEST DUP3 MSTORE POP POP JUMP JUMPDEST PUSH1 0x0 PUSH1 0x20 DUP3 ADD SWAP1 POP PUSH2 0xB56 PUSH1 0x0 DUP4 ADD DUP5 PUSH2 0xB32 JUMP JUMPDEST SWAP3 SWAP2 POP POP JUMP JUMPDEST PUSH1 0x0 PUSH1 0x20 DUP3 DUP5 SUB SLT ISZERO PUSH2 0xB72 JUMPI PUSH2 0xB71 PUSH2 0xA0C JUMP JUMPDEST JUMPDEST PUSH1 0x0 PUSH2 0xB80 DUP5 DUP3 DUP6 ADD PUSH2 0xA90 JUMP JUMPDEST SWAP2 POP POP SWAP3 SWAP2 POP POP JUMP JUMPDEST PUSH1 0x0 PUSH1 0x20 DUP3 DUP5 SUB SLT ISZERO PUSH2 0xB9F JUMPI PUSH2 0xB9E PUSH2 0xA0C JUMP JUMPDEST JUMPDEST PUSH1 0x0 PUSH2 0xBAD DUP5 DUP3 DUP6 ADD PUSH2 0xA5A JUMP JUMPDEST SWAP2 POP POP SWAP3 SWAP2 POP POP JUMP JUMPDEST PUSH2 0xBBF DUP2 PUSH2 0xA31 JUMP JUMPDEST DUP3 MSTORE POP POP JUMP JUMPDEST PUSH1 0x0 PUSH1 0x20 DUP3 ADD SWAP1 POP PUSH2 0xBDA PUSH1 0x0 DUP4 ADD DUP5 PUSH2 0xBB6 JUMP JUMPDEST SWAP3 SWAP2 POP POP JUMP JUMPDEST PUSH1 0x0 PUSH1 0x40 DUP3 ADD SWAP1 POP PUSH2 0xBF5 PUSH1 0x0 DUP4 ADD DUP6 PUSH2 0xBB6 JUMP JUMPDEST PUSH2 0xC02 PUSH1 0x20 DUP4 ADD DUP5 PUSH2 0xB32 JUMP JUMPDEST SWAP4 SWAP3 POP POP POP JUMP JUMPDEST PUSH1 0x0 DUP2 ISZERO ISZERO SWAP1 POP SWAP2 SWAP1 POP JUMP JUMPDEST PUSH2 0xC1E DUP2 PUSH2 0xC09 JUMP JUMPDEST DUP2 EQ PUSH2 0xC29 JUMPI PUSH1 0x0 DUP1 REVERT JUMPDEST POP JUMP JUMPDEST PUSH1 0x0 DUP2 MLOAD SWAP1 POP PUSH2 0xC3B DUP2 PUSH2 0xC15 JUMP JUMPDEST SWAP3 SWAP2 POP POP JUMP JUMPDEST PUSH1 0x0 PUSH1 0x20 DUP3 DUP5 SUB SLT ISZERO PUSH2 0xC57 JUMPI PUSH2 0xC56 PUSH2 0xA0C JUMP JUMPDEST JUMPDEST PUSH1 0x0 PUSH2 0xC65 DUP5 DUP3 DUP6 ADD PUSH2 0xC2C JUMP JUMPDEST SWAP2 POP POP SWAP3 SWAP2 POP POP JUMP JUMPDEST PUSH1 0x0 DUP3 DUP3 MSTORE PUSH1 0x20 DUP3 ADD SWAP1 POP SWAP3 SWAP2 POP POP JUMP JUMPDEST PUSH32 0x417070726F76616C206661696C65640000000000000000000000000000000000 PUSH1 0x0 DUP3 ADD MSTORE POP JUMP JUMPDEST PUSH1 0x0 PUSH2 0xCB5 PUSH1 0xF DUP4 PUSH2 0xC6E JUMP JUMPDEST SWAP2 POP PUSH2 0xCC0 DUP3 PUSH2 0xC7F JUMP JUMPDEST PUSH1 0x20 DUP3 ADD SWAP1 POP SWAP2 SWAP1 POP JUMP JUMPDEST PUSH1 0x0 PUSH1 0x20 DUP3 ADD SWAP1 POP DUP2 DUP2 SUB PUSH1 0x0 DUP4 ADD MSTORE PUSH2 0xCE4 DUP2 PUSH2 0xCA8 JUMP JUMPDEST SWAP1 POP SWAP2 SWAP1 POP JUMP JUMPDEST PUSH1 0x0 PUSH1 0x60 DUP3 ADD SWAP1 POP PUSH2 0xD00 PUSH1 0x0 DUP4 ADD DUP7 PUSH2 0xBB6 JUMP JUMPDEST PUSH2 0xD0D PUSH1 0x20 DUP4 ADD DUP6 PUSH2 0xBB6 JUMP JUMPDEST PUSH2 0xD1A PUSH1 0x40 DUP4 ADD DUP5 PUSH2 0xB32 JUMP JUMPDEST SWAP5 SWAP4 POP POP POP POP JUMP JUMPDEST PUSH32 0x4E487B7100000000000000000000000000000000000000000000000000000000 PUSH1 0x0 MSTORE PUSH1 0x11 PUSH1 0x4 MSTORE PUSH1 0x24 PUSH1 0x0 REVERT JUMPDEST PUSH1 0x0 PUSH2 0xD5C DUP3 PUSH2 0xA6F JUMP JUMPDEST SWAP2 POP PUSH2 0xD67 DUP4 PUSH2 0xA6F JUMP JUMPDEST SWAP3 POP DUP3 DUP3 ADD SWAP1 POP DUP1 DUP3 GT ISZERO PUSH2 0xD7F JUMPI PUSH2 0xD7E PUSH2 0xD22 JUMP JUMPDEST JUMPDEST SWAP3 SWAP2 POP POP JUMP JUMPDEST PUSH32 0x4F6E6C792062656E696669636961722063616E20776974686472617700000000 PUSH1 0x0 DUP3 ADD MSTORE POP JUMP JUMPDEST PUSH1 0x0 PUSH2 0xDBB PUSH1 0x1C DUP4 PUSH2 0xC6E JUMP JUMPDEST SWAP2 POP PUSH2 0xDC6 DUP3 PUSH2 0xD85 JUMP JUMPDEST PUSH1 0x20 DUP3 ADD SWAP1 POP SWAP2 SWAP1 POP JUMP JUMPDEST PUSH1 0x0 PUSH1 0x20 DUP3 ADD SWAP1 POP DUP2 DUP2 SUB PUSH1 0x0 DUP4 ADD MSTORE PUSH2 0xDEA DUP2 PUSH2 0xDAE JUMP JUMPDEST SWAP1 POP SWAP2 SWAP1 POP JUMP JUMPDEST PUSH32 0x4E6F20616D6F756E7420746F2062652077697468647261776E00000000000000 PUSH1 0x0 DUP3 ADD MSTORE POP JUMP JUMPDEST PUSH1 0x0 PUSH2 0xE27 PUSH1 0x19 DUP4 PUSH2 0xC6E JUMP JUMPDEST SWAP2 POP PUSH2 0xE32 DUP3 PUSH2 0xDF1 JUMP JUMPDEST PUSH1 0x20 DUP3 ADD SWAP1 POP SWAP2 SWAP1 POP JUMP JUMPDEST PUSH1 0x0 PUSH1 0x20 DUP3 ADD SWAP1 POP DUP2 DUP2 SUB PUSH1 0x0 DUP4 ADD MSTORE PUSH2 0xE56 DUP2 PUSH2 0xE1A JUMP JUMPDEST SWAP1 POP SWAP2 SWAP1 POP JUMP JUMPDEST PUSH1 0x0 PUSH2 0xE68 DUP3 PUSH2 0xA6F JUMP JUMPDEST SWAP2 POP PUSH2 0xE73 DUP4 PUSH2 0xA6F JUMP JUMPDEST SWAP3 POP DUP3 DUP3 SUB SWAP1 POP DUP2 DUP2 GT ISZERO PUSH2 0xE8B JUMPI PUSH2 0xE8A PUSH2 0xD22 JUMP JUMPDEST JUMPDEST SWAP3 SWAP2 POP POP JUMP JUMPDEST PUSH1 0x0 DUP2 MLOAD SWAP1 POP PUSH2 0xEA0 DUP2 PUSH2 0xA79 JUMP JUMPDEST SWAP3 SWAP2 POP POP JUMP JUMPDEST PUSH1 0x0 PUSH1 0x20 DUP3 DUP5 SUB SLT ISZERO PUSH2 0xEBC JUMPI PUSH2 0xEBB PUSH2 0xA0C JUMP JUMPDEST JUMPDEST PUSH1 0x0 PUSH2 0xECA DUP5 DUP3 DUP6 ADD PUSH2 0xE91 JUMP JUMPDEST SWAP2 POP POP SWAP3 SWAP2 POP POP JUMP JUMPDEST PUSH32 0x4E6F20546F6B656E207665737465642079657400000000000000000000000000 PUSH1 0x0 DUP3 ADD MSTORE POP JUMP JUMPDEST PUSH1 0x0 PUSH2 0xF09 PUSH1 0x13 DUP4 PUSH2 0xC6E JUMP JUMPDEST SWAP2 POP PUSH2 0xF14 DUP3 PUSH2 0xED3 JUMP JUMPDEST PUSH1 0x20 DUP3 ADD SWAP1 POP SWAP2 SWAP1 POP JUMP JUMPDEST PUSH1 0x0 PUSH1 0x20 DUP3 ADD SWAP1 POP DUP2 DUP2 SUB PUSH1 0x0 DUP4 ADD MSTORE PUSH2 0xF38 DUP2 PUSH2 0xEFC JUMP JUMPDEST SWAP1 POP SWAP2 SWAP1 POP JUMP JUMPDEST PUSH32 0x4E487B7100000000000000000000000000000000000000000000000000000000 PUSH1 0x0 MSTORE PUSH1 0x12 PUSH1 0x4 MSTORE PUSH1 0x24 PUSH1 0x0 REVERT JUMPDEST PUSH1 0x0 PUSH2 0xF79 DUP3 PUSH2 0xA6F JUMP JUMPDEST SWAP2 POP PUSH2 0xF84 DUP4 PUSH2 0xA6F JUMP JUMPDEST SWAP3 POP DUP3 PUSH2 0xF94 JUMPI PUSH2 0xF93 PUSH2 0xF3F JUMP JUMPDEST JUMPDEST DUP3 DUP3 DIV SWAP1 POP SWAP3 SWAP2 POP POP JUMP JUMPDEST PUSH1 0x0 PUSH2 0xFAA DUP3 PUSH2 0xA6F JUMP JUMPDEST SWAP2 POP PUSH2 0xFB5 DUP4 PUSH2 0xA6F JUMP JUMPDEST SWAP3 POP DUP3 DUP3 MUL PUSH2 0xFC3 DUP2 PUSH2 0xA6F JUMP JUMPDEST SWAP2 POP DUP3 DUP3 DIV DUP5 EQ DUP4 ISZERO OR PUSH2 0xFDA JUMPI PUSH2 0xFD9 PUSH2 0xD22 JUMP JUMPDEST JUMPDEST POP SWAP3 SWAP2 POP POP JUMP INVALID LOG2 PUSH5 0x6970667358 0x22 SLT KECCAK256 JUMP EXTCODESIZE MSTORE8 JUMP 0xDE DUP9 0xAF PUSH1 0x16 DUP14 DUP4 0xED BYTE BASEFEE ISZERO 0xEB 0xD1 PUSH1 0x4F 0x5D SLOAD PUSH14 0xC44E7E6D97CA271EF90464736F6C PUSH4 0x43000812 STOP CALLER "
				},
				"gasEstimates": {
					"creation": {
						"codeDepositCost": "823800",
						"executionCost": "infinite",
						"totalCost": "infinite"
					},
					"external": {
						"_elaspTime()": "2473",
						"addAmountToVest(address,uint256,uint256,uint256,uint256,uint256)": "infinite",
						"calculateVestedAmount()": "infinite",
						"checkBalance(address)": "infinite",
						"owner()": "2536",
						"release()": "infinite",
						"vestedTokens()": "2452",
						"withdraw(uint256)": "infinite",
						"withdrawableAmount(address)": "2880"
					}
				},
				"methodIdentifiers": {
					"_elaspTime()": "b6a3b184",
					"addAmountToVest(address,uint256,uint256,uint256,uint256,uint256)": "099f5cf8",
					"calculateVestedAmount()": "cacf5a33",
					"checkBalance(address)": "5f515226",
					"owner()": "8da5cb5b",
					"release()": "86d1a69f",
					"vestedTokens()": "0dfee936",
					"withdraw(uint256)": "2e1a7d4d",
					"withdrawableAmount(address)": "be7ab51b"
				}
			},
			"storageLayout": {
				"storage": [
					{
						"astId": 83,
						"contract": "Vesting.sol:Vesting",
						"label": "token",
						"offset": 0,
						"slot": "0",
						"type": "t_contract(IERC20)77"
					},
					{
						"astId": 85,
						"contract": "Vesting.sol:Vesting",
						"label": "_benificiary",
						"offset": 0,
						"slot": "1",
						"type": "t_address"
					},
					{
						"astId": 87,
						"contract": "Vesting.sol:Vesting",
						"label": "_totalTokens",
						"offset": 0,
						"slot": "2",
						"type": "t_uint256"
					},
					{
						"astId": 89,
						"contract": "Vesting.sol:Vesting",
						"label": "_startTime",
						"offset": 0,
						"slot": "3",
						"type": "t_uint256"
					},
					{
						"astId": 91,
						"contract": "Vesting.sol:Vesting",
						"label": "_cliff",
						"offset": 0,
						"slot": "4",
						"type": "t_uint256"
					},
					{
						"astId": 93,
						"contract": "Vesting.sol:Vesting",
						"label": "_vestingPeriod",
						"offset": 0,
						"slot": "5",
						"type": "t_uint256"
					},
					{
						"astId": 95,
						"contract": "Vesting.sol:Vesting",
						"label": "_slicePeriod",
						"offset": 0,
						"slot": "6",
						"type": "t_uint256"
					},
					{
						"astId": 97,
						"contract": "Vesting.sol:Vesting",
						"label": "owner",
						"offset": 0,
						"slot": "7",
						"type": "t_address"
					},
					{
						"astId": 99,
						"contract": "Vesting.sol:Vesting",
						"label": "vestedTokens",
						"offset": 0,
						"slot": "8",
						"type": "t_uint256"
					},
					{
						"astId": 101,
						"contract": "Vesting.sol:Vesting",
						"label": "_elaspTime",
						"offset": 0,
						"slot": "9",
						"type": "t_uint256"
					},
					{
						"astId": 103,
						"contract": "Vesting.sol:Vesting",
						"label": "_relesedTokens",
						"offset": 0,
						"slot": "10",
						"type": "t_uint256"
					},
					{
						"astId": 107,
						"contract": "Vesting.sol:Vesting",
						"label": "vestedAmount",
						"offset": 0,
						"slot": "11",
						"type": "t_mapping(t_address,t_uint256)"
					},
					{
						"astId": 111,
						"contract": "Vesting.sol:Vesting",
						"label": "withdrawableAmount",
						"offset": 0,
						"slot": "12",
						"type": "t_mapping(t_address,t_uint256)"
					}
				],
				"types": {
					"t_address": {
						"encoding": "inplace",
						"label": "address",
						"numberOfBytes": "20"
					},
					"t_contract(IERC20)77": {
						"encoding": "inplace",
						"label": "contract IERC20",
						"numberOfBytes": "20"
					},
					"t_mapping(t_address,t_uint256)": {
						"encoding": "mapping",
						"key": "t_address",
						"label": "mapping(address => uint256)",
						"numberOfBytes": "32",
						"value": "t_uint256"
					},
					"t_uint256": {
						"encoding": "inplace",
						"label": "uint256",
						"numberOfBytes": "32"
					}
				}
			},
			"userdoc": {
				"kind": "user",
				"methods": {},
				"version": 1
			}
		}
	}
}