{
	"Vesting.sol": {
		"Vesting": {
			"abi": [
				{
					"inputs": [],
					"stateMutability": "nonpayable",
					"type": "constructor"
				},
				{
					"anonymous": false,
					"inputs": [
						{
							"indexed": false,
							"internalType": "address",
							"name": "_from",
							"type": "address"
						},
						{
							"indexed": false,
							"internalType": "address",
							"name": "_to",
							"type": "address"
						},
						{
							"indexed": false,
							"internalType": "uint256",
							"name": "totalTokens",
							"type": "uint256"
						}
					],
					"name": "DepositTokens",
					"type": "event"
				},
				{
					"anonymous": false,
					"inputs": [
						{
							"indexed": false,
							"internalType": "address",
							"name": "_benificiary",
							"type": "address"
						},
						{
							"indexed": false,
							"internalType": "uint256",
							"name": "vestedTopkens",
							"type": "uint256"
						}
					],
					"name": "VestedTokens",
					"type": "event"
				},
				{
					"anonymous": false,
					"inputs": [
						{
							"indexed": false,
							"internalType": "address",
							"name": "_to",
							"type": "address"
						},
						{
							"indexed": false,
							"internalType": "uint256",
							"name": "amount",
							"type": "uint256"
						}
					],
					"name": "WithdrawTokens",
					"type": "event"
				},
				{
					"inputs": [
						{
							"internalType": "address",
							"name": "token",
							"type": "address"
						},
						{
							"internalType": "address",
							"name": "benificiary",
							"type": "address"
						},
						{
							"internalType": "uint256",
							"name": "totalTokens",
							"type": "uint256"
						},
						{
							"internalType": "uint256",
							"name": "startTime",
							"type": "uint256"
						},
						{
							"internalType": "uint256",
							"name": "cliff",
							"type": "uint256"
						},
						{
							"internalType": "uint256",
							"name": "vestingPeriod",
							"type": "uint256"
						},
						{
							"internalType": "uint256",
							"name": "slicePeriod",
							"type": "uint256"
						}
					],
					"name": "addAmount",
					"outputs": [],
					"stateMutability": "nonpayable",
					"type": "function"
				},
				{
					"inputs": [
						{
							"internalType": "address",
							"name": "benificiary",
							"type": "address"
						}
					],
					"name": "calculateVestedAmount",
					"outputs": [
						{
							"internalType": "uint256",
							"name": "",
							"type": "uint256"
						}
					],
					"stateMutability": "nonpayable",
					"type": "function"
				},
				{
					"inputs": [
						{
							"internalType": "address",
							"name": "token",
							"type": "address"
						},
						{
							"internalType": "address",
							"name": "account",
							"type": "address"
						}
					],
					"name": "checkBalance",
					"outputs": [
						{
							"internalType": "uint256",
							"name": "",
							"type": "uint256"
						}
					],
					"stateMutability": "view",
					"type": "function"
				},
				{
					"inputs": [
						{
							"internalType": "address",
							"name": "benificiary",
							"type": "address"
						}
					],
					"name": "releaseTokens",
					"outputs": [
						{
							"internalType": "uint256",
							"name": "",
							"type": "uint256"
						}
					],
					"stateMutability": "nonpayable",
					"type": "function"
				},
				{
					"inputs": [
						{
							"internalType": "address",
							"name": "",
							"type": "address"
						}
					],
					"name": "vestingSchedules",
					"outputs": [
						{
							"internalType": "contract IERC20",
							"name": "_token",
							"type": "address"
						},
						{
							"internalType": "uint256",
							"name": "_startTime",
							"type": "uint256"
						},
						{
							"internalType": "uint256",
							"name": "_cliff",
							"type": "uint256"
						},
						{
							"internalType": "uint256",
							"name": "_vestingPeriod",
							"type": "uint256"
						},
						{
							"internalType": "uint256",
							"name": "_slicePeriod",
							"type": "uint256"
						},
						{
							"internalType": "uint256",
							"name": "_totalTokens",
							"type": "uint256"
						},
						{
							"internalType": "uint256",
							"name": "_releasedTokens",
							"type": "uint256"
						},
						{
							"internalType": "uint256",
							"name": "_vestedTokens",
							"type": "uint256"
						},
						{
							"internalType": "uint256",
							"name": "_elaspTime",
							"type": "uint256"
						}
					],
					"stateMutability": "view",
					"type": "function"
				},
				{
					"inputs": [
						{
							"internalType": "address",
							"name": "benificiary",
							"type": "address"
						},
						{
							"internalType": "uint256",
							"name": "withdrawAmount",
							"type": "uint256"
						}
					],
					"name": "withdraw",
					"outputs": [],
					"stateMutability": "nonpayable",
					"type": "function"
				},
				{
					"inputs": [
						{
							"internalType": "address",
							"name": "",
							"type": "address"
						}
					],
					"name": "withdrawableAmount",
					"outputs": [
						{
							"internalType": "uint256",
							"name": "",
							"type": "uint256"
						}
					],
					"stateMutability": "view",
					"type": "function"
				}
			],
			"devdoc": {
				"kind": "dev",
				"methods": {},
				"version": 1
			},
			"evm": {
				"assembly": "    /* \"Vesting.sol\":112:3915  contract Vesting {... */\n  mstore(0x40, 0x80)\n    /* \"Vesting.sol\":516:565  constructor() {... */\n  callvalue\n  dup1\n  iszero\n  tag_1\n  jumpi\n  0x00\n  dup1\n  revert\ntag_1:\n  pop\n    /* \"Vesting.sol\":548:558  msg.sender */\n  caller\n    /* \"Vesting.sol\":540:545  owner */\n  0x00\n  dup1\n    /* \"Vesting.sol\":540:558  owner = msg.sender */\n  0x0100\n  exp\n  dup2\n  sload\n  dup2\n  0xffffffffffffffffffffffffffffffffffffffff\n  mul\n  not\n  and\n  swap1\n  dup4\n  0xffffffffffffffffffffffffffffffffffffffff\n  and\n  mul\n  or\n  swap1\n  sstore\n  pop\n    /* \"Vesting.sol\":112:3915  contract Vesting {... */\n  dataSize(sub_0)\n  dup1\n  dataOffset(sub_0)\n  0x00\n  codecopy\n  0x00\n  return\nstop\n\nsub_0: assembly {\n        /* \"Vesting.sol\":112:3915  contract Vesting {... */\n      mstore(0x40, 0x80)\n      callvalue\n      dup1\n      iszero\n      tag_1\n      jumpi\n      0x00\n      dup1\n      revert\n    tag_1:\n      pop\n      jumpi(tag_2, lt(calldatasize, 0x04))\n      shr(0xe0, calldataload(0x00))\n      dup1\n      0xbe7ab51b\n      gt\n      tag_10\n      jumpi\n      dup1\n      0xbe7ab51b\n      eq\n      tag_6\n      jumpi\n      dup1\n      0xf3fef3a3\n      eq\n      tag_7\n      jumpi\n      dup1\n      0xfdb20ccb\n      eq\n      tag_8\n      jumpi\n      dup1\n      0xffa06b2a\n      eq\n      tag_9\n      jumpi\n      jump(tag_2)\n    tag_10:\n      dup1\n      0x77b76ec3\n      eq\n      tag_3\n      jumpi\n      dup1\n      0x87b0be48\n      eq\n      tag_4\n      jumpi\n      dup1\n      0xbba4e631\n      eq\n      tag_5\n      jumpi\n    tag_2:\n      0x00\n      dup1\n      revert\n        /* \"Vesting.sol\":1835:1972  function checkBalance(address token,address account) view public returns(uint256){... */\n    tag_3:\n      tag_11\n      0x04\n      dup1\n      calldatasize\n      sub\n      dup2\n      add\n      swap1\n      tag_12\n      swap2\n      swap1\n      tag_13\n      jump\t// in\n    tag_12:\n      tag_14\n      jump\t// in\n    tag_11:\n      mload(0x40)\n      tag_15\n      swap2\n      swap1\n      tag_16\n      jump\t// in\n    tag_15:\n      mload(0x40)\n      dup1\n      swap2\n      sub\n      swap1\n      return\n        /* \"Vesting.sol\":1978:2188  function releaseTokens(address benificiary) public onlyOwner returns(uint256) {... */\n    tag_4:\n      tag_17\n      0x04\n      dup1\n      calldatasize\n      sub\n      dup2\n      add\n      swap1\n      tag_18\n      swap2\n      swap1\n      tag_19\n      jump\t// in\n    tag_18:\n      tag_20\n      jump\t// in\n    tag_17:\n      mload(0x40)\n      tag_21\n      swap2\n      swap1\n      tag_16\n      jump\t// in\n    tag_21:\n      mload(0x40)\n      dup1\n      swap2\n      sub\n      swap1\n      return\n        /* \"Vesting.sol\":976:1828  function addAmount(address token,address benificiary,uint256 totalTokens, uint256 startTime,uint256 cliff,uint256 vestingPeriod,uint256 slicePeriod) public {... */\n    tag_5:\n      tag_22\n      0x04\n      dup1\n      calldatasize\n      sub\n      dup2\n      add\n      swap1\n      tag_23\n      swap2\n      swap1\n      tag_24\n      jump\t// in\n    tag_23:\n      tag_25\n      jump\t// in\n    tag_22:\n      stop\n        /* \"Vesting.sol\":198:249  mapping(address=>uint256) public withdrawableAmount */\n    tag_6:\n      tag_26\n      0x04\n      dup1\n      calldatasize\n      sub\n      dup2\n      add\n      swap1\n      tag_27\n      swap2\n      swap1\n      tag_19\n      jump\t// in\n    tag_27:\n      tag_28\n      jump\t// in\n    tag_26:\n      mload(0x40)\n      tag_29\n      swap2\n      swap1\n      tag_16\n      jump\t// in\n    tag_29:\n      mload(0x40)\n      dup1\n      swap2\n      sub\n      swap1\n      return\n        /* \"Vesting.sol\":3472:3913  function withdraw(address benificiary,uint256 withdrawAmount) public {... */\n    tag_7:\n      tag_30\n      0x04\n      dup1\n      calldatasize\n      sub\n      dup2\n      add\n      swap1\n      tag_31\n      swap2\n      swap1\n      tag_32\n      jump\t// in\n    tag_31:\n      tag_33\n      jump\t// in\n    tag_30:\n      stop\n        /* \"Vesting.sol\":255:314  mapping(address => VestingSchedule) public vestingSchedules */\n    tag_8:\n      tag_34\n      0x04\n      dup1\n      calldatasize\n      sub\n      dup2\n      add\n      swap1\n      tag_35\n      swap2\n      swap1\n      tag_19\n      jump\t// in\n    tag_35:\n      tag_36\n      jump\t// in\n    tag_34:\n      mload(0x40)\n      tag_37\n      swap10\n      swap9\n      swap8\n      swap7\n      swap6\n      swap5\n      swap4\n      swap3\n      swap2\n      swap1\n      tag_38\n      jump\t// in\n    tag_37:\n      mload(0x40)\n      dup1\n      swap2\n      sub\n      swap1\n      return\n        /* \"Vesting.sol\":2194:3466  function calculateVestedAmount(address benificiary) public returns(uint256) {... */\n    tag_9:\n      tag_39\n      0x04\n      dup1\n      calldatasize\n      sub\n      dup2\n      add\n      swap1\n      tag_40\n      swap2\n      swap1\n      tag_19\n      jump\t// in\n    tag_40:\n      tag_41\n      jump\t// in\n    tag_39:\n      mload(0x40)\n      tag_42\n      swap2\n      swap1\n      tag_16\n      jump\t// in\n    tag_42:\n      mload(0x40)\n      dup1\n      swap2\n      sub\n      swap1\n      return\n        /* \"Vesting.sol\":1835:1972  function checkBalance(address token,address account) view public returns(uint256){... */\n    tag_14:\n        /* \"Vesting.sol\":1908:1915  uint256 */\n      0x00\n        /* \"Vesting.sol\":1940:1945  token */\n      dup3\n        /* \"Vesting.sol\":1933:1956  IERC20(token).balanceOf */\n      0xffffffffffffffffffffffffffffffffffffffff\n      and\n      0x70a08231\n        /* \"Vesting.sol\":1957:1964  account */\n      dup4\n        /* \"Vesting.sol\":1933:1965  IERC20(token).balanceOf(account) */\n      mload(0x40)\n      dup3\n      0xffffffff\n      and\n      0xe0\n      shl\n      dup2\n      mstore\n      0x04\n      add\n      tag_44\n      swap2\n      swap1\n      tag_45\n      jump\t// in\n    tag_44:\n      0x20\n      mload(0x40)\n      dup1\n      dup4\n      sub\n      dup2\n      dup7\n      gas\n      staticcall\n      iszero\n      dup1\n      iszero\n      tag_47\n      jumpi\n      returndatasize\n      0x00\n      dup1\n      returndatacopy\n      revert(0x00, returndatasize)\n    tag_47:\n      pop\n      pop\n      pop\n      pop\n      mload(0x40)\n      returndatasize\n      not(0x1f)\n      0x1f\n      dup3\n      add\n      and\n      dup3\n      add\n      dup1\n      0x40\n      mstore\n      pop\n      dup2\n      add\n      swap1\n      tag_48\n      swap2\n      swap1\n      tag_49\n      jump\t// in\n    tag_48:\n        /* \"Vesting.sol\":1926:1965  return IERC20(token).balanceOf(account) */\n      swap1\n      pop\n        /* \"Vesting.sol\":1835:1972  function checkBalance(address token,address account) view public returns(uint256){... */\n      swap3\n      swap2\n      pop\n      pop\n      jump\t// out\n        /* \"Vesting.sol\":1978:2188  function releaseTokens(address benificiary) public onlyOwner returns(uint256) {... */\n    tag_20:\n        /* \"Vesting.sol\":2047:2054  uint256 */\n      0x00\n        /* \"Vesting.sol\":623:628  owner */\n      dup1\n      0x00\n      swap1\n      sload\n      swap1\n      0x0100\n      exp\n      swap1\n      div\n      0xffffffffffffffffffffffffffffffffffffffff\n      and\n        /* \"Vesting.sol\":609:628  msg.sender == owner */\n      0xffffffffffffffffffffffffffffffffffffffff\n      and\n        /* \"Vesting.sol\":609:619  msg.sender */\n      caller\n        /* \"Vesting.sol\":609:628  msg.sender == owner */\n      0xffffffffffffffffffffffffffffffffffffffff\n      and\n      eq\n        /* \"Vesting.sol\":601:653  require(msg.sender == owner,\"Only Owner can access\") */\n      tag_51\n      jumpi\n      mload(0x40)\n      0x08c379a000000000000000000000000000000000000000000000000000000000\n      dup2\n      mstore\n      0x04\n      add\n      tag_52\n      swap1\n      tag_53\n      jump\t// in\n    tag_52:\n      mload(0x40)\n      dup1\n      swap2\n      sub\n      swap1\n      revert\n    tag_51:\n        /* \"Vesting.sol\":2099:2133  calculateVestedAmount(benificiary) */\n      tag_55\n        /* \"Vesting.sol\":2121:2132  benificiary */\n      dup3\n        /* \"Vesting.sol\":2099:2120  calculateVestedAmount */\n      tag_41\n        /* \"Vesting.sol\":2099:2133  calculateVestedAmount(benificiary) */\n      jump\t// in\n    tag_55:\n        /* \"Vesting.sol\":2066:2084  withdrawableAmount */\n      0x02\n        /* \"Vesting.sol\":2066:2097  withdrawableAmount[benificiary] */\n      0x00\n        /* \"Vesting.sol\":2085:2096  benificiary */\n      dup5\n        /* \"Vesting.sol\":2066:2097  withdrawableAmount[benificiary] */\n      0xffffffffffffffffffffffffffffffffffffffff\n      and\n      0xffffffffffffffffffffffffffffffffffffffff\n      and\n      dup2\n      mstore\n      0x20\n      add\n      swap1\n      dup2\n      mstore\n      0x20\n      add\n      0x00\n      keccak256\n      0x00\n        /* \"Vesting.sol\":2066:2133  withdrawableAmount[benificiary]+=calculateVestedAmount(benificiary) */\n      dup3\n      dup3\n      sload\n      tag_56\n      swap2\n      swap1\n      tag_57\n      jump\t// in\n    tag_56:\n      swap3\n      pop\n      pop\n      dup2\n      swap1\n      sstore\n      pop\n        /* \"Vesting.sol\":2150:2168  withdrawableAmount */\n      0x02\n        /* \"Vesting.sol\":2150:2181  withdrawableAmount[benificiary] */\n      0x00\n        /* \"Vesting.sol\":2169:2180  benificiary */\n      dup4\n        /* \"Vesting.sol\":2150:2181  withdrawableAmount[benificiary] */\n      0xffffffffffffffffffffffffffffffffffffffff\n      and\n      0xffffffffffffffffffffffffffffffffffffffff\n      and\n      dup2\n      mstore\n      0x20\n      add\n      swap1\n      dup2\n      mstore\n      0x20\n      add\n      0x00\n      keccak256\n      sload\n        /* \"Vesting.sol\":2143:2181  return withdrawableAmount[benificiary] */\n      swap1\n      pop\n        /* \"Vesting.sol\":1978:2188  function releaseTokens(address benificiary) public onlyOwner returns(uint256) {... */\n      swap2\n      swap1\n      pop\n      jump\t// out\n        /* \"Vesting.sol\":976:1828  function addAmount(address token,address benificiary,uint256 totalTokens, uint256 startTime,uint256 cliff,uint256 vestingPeriod,uint256 slicePeriod) public {... */\n    tag_25:\n        /* \"Vesting.sol\":1183:1495  VestingSchedule({... */\n      mload(0x40)\n      dup1\n      0x0120\n      add\n      0x40\n      mstore\n      dup1\n        /* \"Vesting.sol\":1225:1230  token */\n      dup9\n        /* \"Vesting.sol\":1183:1495  VestingSchedule({... */\n      0xffffffffffffffffffffffffffffffffffffffff\n      and\n      dup2\n      mstore\n      0x20\n      add\n        /* \"Vesting.sol\":1254:1263  startTime */\n      dup6\n        /* \"Vesting.sol\":1183:1495  VestingSchedule({... */\n      dup2\n      mstore\n      0x20\n      add\n        /* \"Vesting.sol\":1282:1287  cliff */\n      dup5\n        /* \"Vesting.sol\":1183:1495  VestingSchedule({... */\n      dup2\n      mstore\n      0x20\n      add\n        /* \"Vesting.sol\":1315:1328  vestingPeriod */\n      dup4\n        /* \"Vesting.sol\":1183:1495  VestingSchedule({... */\n      dup2\n      mstore\n      0x20\n      add\n        /* \"Vesting.sol\":1353:1364  slicePeriod */\n      dup3\n        /* \"Vesting.sol\":1183:1495  VestingSchedule({... */\n      dup2\n      mstore\n      0x20\n      add\n        /* \"Vesting.sol\":1389:1400  totalTokens */\n      dup7\n        /* \"Vesting.sol\":1183:1495  VestingSchedule({... */\n      dup2\n      mstore\n      0x20\n      add\n        /* \"Vesting.sol\":1431:1432  0 */\n      0x00\n        /* \"Vesting.sol\":1183:1495  VestingSchedule({... */\n      dup2\n      mstore\n      0x20\n      add\n        /* \"Vesting.sol\":1458:1459  0 */\n      0x00\n        /* \"Vesting.sol\":1183:1495  VestingSchedule({... */\n      dup2\n      mstore\n      0x20\n      add\n        /* \"Vesting.sol\":1483:1484  0 */\n      0x00\n        /* \"Vesting.sol\":1183:1495  VestingSchedule({... */\n      dup2\n      mstore\n      pop\n        /* \"Vesting.sol\":1151:1167  vestingSchedules */\n      0x03\n        /* \"Vesting.sol\":1151:1180  vestingSchedules[benificiary] */\n      0x00\n        /* \"Vesting.sol\":1168:1179  benificiary */\n      dup9\n        /* \"Vesting.sol\":1151:1180  vestingSchedules[benificiary] */\n      0xffffffffffffffffffffffffffffffffffffffff\n      and\n      0xffffffffffffffffffffffffffffffffffffffff\n      and\n      dup2\n      mstore\n      0x20\n      add\n      swap1\n      dup2\n      mstore\n      0x20\n      add\n      0x00\n      keccak256\n        /* \"Vesting.sol\":1151:1495  vestingSchedules[benificiary] = VestingSchedule({... */\n      0x00\n      dup3\n      add\n      mload\n      dup2\n      0x00\n      add\n      exp(0x0100, 0x00)\n      dup2\n      sload\n      dup2\n      0xffffffffffffffffffffffffffffffffffffffff\n      mul\n      not\n      and\n      swap1\n      dup4\n      0xffffffffffffffffffffffffffffffffffffffff\n      and\n      mul\n      or\n      swap1\n      sstore\n      pop\n      0x20\n      dup3\n      add\n      mload\n      dup2\n      0x01\n      add\n      sstore\n      0x40\n      dup3\n      add\n      mload\n      dup2\n      0x02\n      add\n      sstore\n      0x60\n      dup3\n      add\n      mload\n      dup2\n      0x03\n      add\n      sstore\n      0x80\n      dup3\n      add\n      mload\n      dup2\n      0x04\n      add\n      sstore\n      0xa0\n      dup3\n      add\n      mload\n      dup2\n      0x05\n      add\n      sstore\n      0xc0\n      dup3\n      add\n      mload\n      dup2\n      0x06\n      add\n      sstore\n      0xe0\n      dup3\n      add\n      mload\n      dup2\n      0x07\n      add\n      sstore\n      0x0100\n      dup3\n      add\n      mload\n      dup2\n      0x08\n      add\n      sstore\n      swap1\n      pop\n      pop\n        /* \"Vesting.sol\":1525:1526  0 */\n      0x00\n        /* \"Vesting.sol\":1513:1524  totalTokens */\n      dup6\n        /* \"Vesting.sol\":1513:1526  totalTokens>0 */\n      gt\n        /* \"Vesting.sol\":1505:1545  require(totalTokens>0,\"Add some tokens\") */\n      tag_59\n      jumpi\n      mload(0x40)\n      0x08c379a000000000000000000000000000000000000000000000000000000000\n      dup2\n      mstore\n      0x04\n      add\n      tag_60\n      swap1\n      tag_61\n      jump\t// in\n    tag_60:\n      mload(0x40)\n      dup1\n      swap2\n      sub\n      swap1\n      revert\n    tag_59:\n        /* \"Vesting.sol\":1563:1579  vestingSchedules */\n      0x03\n        /* \"Vesting.sol\":1563:1592  vestingSchedules[benificiary] */\n      0x00\n        /* \"Vesting.sol\":1580:1591  benificiary */\n      dup8\n        /* \"Vesting.sol\":1563:1592  vestingSchedules[benificiary] */\n      0xffffffffffffffffffffffffffffffffffffffff\n      and\n      0xffffffffffffffffffffffffffffffffffffffff\n      and\n      dup2\n      mstore\n      0x20\n      add\n      swap1\n      dup2\n      mstore\n      0x20\n      add\n      0x00\n      keccak256\n        /* \"Vesting.sol\":1563:1599  vestingSchedules[benificiary]._token */\n      0x00\n      add\n      0x00\n      swap1\n      sload\n      swap1\n      0x0100\n      exp\n      swap1\n      div\n      0xffffffffffffffffffffffffffffffffffffffff\n      and\n        /* \"Vesting.sol\":1563:1607  vestingSchedules[benificiary]._token.approve */\n      0xffffffffffffffffffffffffffffffffffffffff\n      and\n      0x095ea7b3\n        /* \"Vesting.sol\":1616:1620  this */\n      address\n        /* \"Vesting.sol\":1622:1633  totalTokens */\n      dup8\n        /* \"Vesting.sol\":1563:1634  vestingSchedules[benificiary]._token.approve(address(this),totalTokens) */\n      mload(0x40)\n      dup4\n      0xffffffff\n      and\n      0xe0\n      shl\n      dup2\n      mstore\n      0x04\n      add\n      tag_62\n      swap3\n      swap2\n      swap1\n      tag_63\n      jump\t// in\n    tag_62:\n      0x20\n      mload(0x40)\n      dup1\n      dup4\n      sub\n      dup2\n      0x00\n      dup8\n      gas\n      call\n      iszero\n      dup1\n      iszero\n      tag_65\n      jumpi\n      returndatasize\n      0x00\n      dup1\n      returndatacopy\n      revert(0x00, returndatasize)\n    tag_65:\n      pop\n      pop\n      pop\n      pop\n      mload(0x40)\n      returndatasize\n      not(0x1f)\n      0x1f\n      dup3\n      add\n      and\n      dup3\n      add\n      dup1\n      0x40\n      mstore\n      pop\n      dup2\n      add\n      swap1\n      tag_66\n      swap2\n      swap1\n      tag_67\n      jump\t// in\n    tag_66:\n        /* \"Vesting.sol\":1555:1654  require(vestingSchedules[benificiary]._token.approve(address(this),totalTokens), \"Approval failed\") */\n      tag_68\n      jumpi\n      mload(0x40)\n      0x08c379a000000000000000000000000000000000000000000000000000000000\n      dup2\n      mstore\n      0x04\n      add\n      tag_69\n      swap1\n      tag_70\n      jump\t// in\n    tag_69:\n      mload(0x40)\n      dup1\n      swap2\n      sub\n      swap1\n      revert\n    tag_68:\n        /* \"Vesting.sol\":1664:1680  vestingSchedules */\n      0x03\n        /* \"Vesting.sol\":1664:1693  vestingSchedules[benificiary] */\n      0x00\n        /* \"Vesting.sol\":1681:1692  benificiary */\n      dup8\n        /* \"Vesting.sol\":1664:1693  vestingSchedules[benificiary] */\n      0xffffffffffffffffffffffffffffffffffffffff\n      and\n      0xffffffffffffffffffffffffffffffffffffffff\n      and\n      dup2\n      mstore\n      0x20\n      add\n      swap1\n      dup2\n      mstore\n      0x20\n      add\n      0x00\n      keccak256\n        /* \"Vesting.sol\":1664:1700  vestingSchedules[benificiary]._token */\n      0x00\n      add\n      0x00\n      swap1\n      sload\n      swap1\n      0x0100\n      exp\n      swap1\n      div\n      0xffffffffffffffffffffffffffffffffffffffff\n      and\n        /* \"Vesting.sol\":1664:1713  vestingSchedules[benificiary]._token.transferFrom */\n      0xffffffffffffffffffffffffffffffffffffffff\n      and\n      0x23b872dd\n        /* \"Vesting.sol\":1714:1725  benificiary */\n      dup8\n        /* \"Vesting.sol\":1734:1738  this */\n      address\n        /* \"Vesting.sol\":1740:1751  totalTokens */\n      dup9\n        /* \"Vesting.sol\":1664:1752  vestingSchedules[benificiary]._token.transferFrom(benificiary,address(this),totalTokens) */\n      mload(0x40)\n      dup5\n      0xffffffff\n      and\n      0xe0\n      shl\n      dup2\n      mstore\n      0x04\n      add\n      tag_71\n      swap4\n      swap3\n      swap2\n      swap1\n      tag_72\n      jump\t// in\n    tag_71:\n      0x20\n      mload(0x40)\n      dup1\n      dup4\n      sub\n      dup2\n      0x00\n      dup8\n      gas\n      call\n      iszero\n      dup1\n      iszero\n      tag_74\n      jumpi\n      returndatasize\n      0x00\n      dup1\n      returndatacopy\n      revert(0x00, returndatasize)\n    tag_74:\n      pop\n      pop\n      pop\n      pop\n      mload(0x40)\n      returndatasize\n      not(0x1f)\n      0x1f\n      dup3\n      add\n      and\n      dup3\n      add\n      dup1\n      0x40\n      mstore\n      pop\n      dup2\n      add\n      swap1\n      tag_75\n      swap2\n      swap1\n      tag_67\n      jump\t// in\n    tag_75:\n      pop\n        /* \"Vesting.sol\":1768:1820  DepositTokens(benificiary,address(this),totalTokens) */\n      0x5b2c363c4205d12f22a6dc6a35136117f80f8cd6897d7a05e7e2987883b05004\n        /* \"Vesting.sol\":1782:1793  benificiary */\n      dup7\n        /* \"Vesting.sol\":1802:1806  this */\n      address\n        /* \"Vesting.sol\":1808:1819  totalTokens */\n      dup8\n        /* \"Vesting.sol\":1768:1820  DepositTokens(benificiary,address(this),totalTokens) */\n      mload(0x40)\n      tag_76\n      swap4\n      swap3\n      swap2\n      swap1\n      tag_72\n      jump\t// in\n    tag_76:\n      mload(0x40)\n      dup1\n      swap2\n      sub\n      swap1\n      log1\n        /* \"Vesting.sol\":976:1828  function addAmount(address token,address benificiary,uint256 totalTokens, uint256 startTime,uint256 cliff,uint256 vestingPeriod,uint256 slicePeriod) public {... */\n      pop\n      pop\n      pop\n      pop\n      pop\n      pop\n      pop\n      jump\t// out\n        /* \"Vesting.sol\":198:249  mapping(address=>uint256) public withdrawableAmount */\n    tag_28:\n      mstore(0x20, 0x02)\n      dup1\n      0x00\n      mstore\n      keccak256(0x00, 0x40)\n      0x00\n      swap2\n      pop\n      swap1\n      pop\n      sload\n      dup2\n      jump\t// out\n        /* \"Vesting.sol\":3472:3913  function withdraw(address benificiary,uint256 withdrawAmount) public {... */\n    tag_33:\n        /* \"Vesting.sol\":3574:3584  msg.sender */\n      caller\n        /* \"Vesting.sol\":3559:3584  benificiary == msg.sender */\n      0xffffffffffffffffffffffffffffffffffffffff\n      and\n        /* \"Vesting.sol\":3559:3570  benificiary */\n      dup3\n        /* \"Vesting.sol\":3559:3584  benificiary == msg.sender */\n      0xffffffffffffffffffffffffffffffffffffffff\n      and\n      eq\n        /* \"Vesting.sol\":3551:3616  require(benificiary == msg.sender,\"Only benificiar can withdraw\") */\n      tag_78\n      jumpi\n      mload(0x40)\n      0x08c379a000000000000000000000000000000000000000000000000000000000\n      dup2\n      mstore\n      0x04\n      add\n      tag_79\n      swap1\n      tag_80\n      jump\t// in\n    tag_79:\n      mload(0x40)\n      dup1\n      swap2\n      sub\n      swap1\n      revert\n    tag_78:\n        /* \"Vesting.sol\":3666:3667  0 */\n      0x00\n        /* \"Vesting.sol\":3634:3652  withdrawableAmount */\n      0x02\n        /* \"Vesting.sol\":3634:3665  withdrawableAmount[benificiary] */\n      0x00\n        /* \"Vesting.sol\":3653:3664  benificiary */\n      dup5\n        /* \"Vesting.sol\":3634:3665  withdrawableAmount[benificiary] */\n      0xffffffffffffffffffffffffffffffffffffffff\n      and\n      0xffffffffffffffffffffffffffffffffffffffff\n      and\n      dup2\n      mstore\n      0x20\n      add\n      swap1\n      dup2\n      mstore\n      0x20\n      add\n      0x00\n      keccak256\n      sload\n        /* \"Vesting.sol\":3634:3667  withdrawableAmount[benificiary]>0 */\n      gt\n        /* \"Vesting.sol\":3626:3696  require(withdrawableAmount[benificiary]>0,\"No amount to be withdrawn\") */\n      tag_81\n      jumpi\n      mload(0x40)\n      0x08c379a000000000000000000000000000000000000000000000000000000000\n      dup2\n      mstore\n      0x04\n      add\n      tag_82\n      swap1\n      tag_83\n      jump\t// in\n    tag_82:\n      mload(0x40)\n      dup1\n      swap2\n      sub\n      swap1\n      revert\n    tag_81:\n        /* \"Vesting.sol\":3739:3753  withdrawAmount */\n      dup1\n        /* \"Vesting.sol\":3706:3724  withdrawableAmount */\n      0x02\n        /* \"Vesting.sol\":3706:3737  withdrawableAmount[benificiary] */\n      0x00\n        /* \"Vesting.sol\":3725:3736  benificiary */\n      dup5\n        /* \"Vesting.sol\":3706:3737  withdrawableAmount[benificiary] */\n      0xffffffffffffffffffffffffffffffffffffffff\n      and\n      0xffffffffffffffffffffffffffffffffffffffff\n      and\n      dup2\n      mstore\n      0x20\n      add\n      swap1\n      dup2\n      mstore\n      0x20\n      add\n      0x00\n      keccak256\n      0x00\n        /* \"Vesting.sol\":3706:3753  withdrawableAmount[benificiary]-=withdrawAmount */\n      dup3\n      dup3\n      sload\n      tag_84\n      swap2\n      swap1\n      tag_85\n      jump\t// in\n    tag_84:\n      swap3\n      pop\n      pop\n      dup2\n      swap1\n      sstore\n      pop\n        /* \"Vesting.sol\":3771:3787  vestingSchedules */\n      0x03\n        /* \"Vesting.sol\":3771:3800  vestingSchedules[benificiary] */\n      0x00\n        /* \"Vesting.sol\":3788:3799  benificiary */\n      dup4\n        /* \"Vesting.sol\":3771:3800  vestingSchedules[benificiary] */\n      0xffffffffffffffffffffffffffffffffffffffff\n      and\n      0xffffffffffffffffffffffffffffffffffffffff\n      and\n      dup2\n      mstore\n      0x20\n      add\n      swap1\n      dup2\n      mstore\n      0x20\n      add\n      0x00\n      keccak256\n        /* \"Vesting.sol\":3771:3807  vestingSchedules[benificiary]._token */\n      0x00\n      add\n      0x00\n      swap1\n      sload\n      swap1\n      0x0100\n      exp\n      swap1\n      div\n      0xffffffffffffffffffffffffffffffffffffffff\n      and\n        /* \"Vesting.sol\":3771:3816  vestingSchedules[benificiary]._token.transfer */\n      0xffffffffffffffffffffffffffffffffffffffff\n      and\n      0xa9059cbb\n        /* \"Vesting.sol\":3817:3828  benificiary */\n      dup4\n        /* \"Vesting.sol\":3829:3843  withdrawAmount */\n      dup4\n        /* \"Vesting.sol\":3771:3844  vestingSchedules[benificiary]._token.transfer(benificiary,withdrawAmount) */\n      mload(0x40)\n      dup4\n      0xffffffff\n      and\n      0xe0\n      shl\n      dup2\n      mstore\n      0x04\n      add\n      tag_86\n      swap3\n      swap2\n      swap1\n      tag_63\n      jump\t// in\n    tag_86:\n      0x20\n      mload(0x40)\n      dup1\n      dup4\n      sub\n      dup2\n      0x00\n      dup8\n      gas\n      call\n      iszero\n      dup1\n      iszero\n      tag_88\n      jumpi\n      returndatasize\n      0x00\n      dup1\n      returndatacopy\n      revert(0x00, returndatasize)\n    tag_88:\n      pop\n      pop\n      pop\n      pop\n      mload(0x40)\n      returndatasize\n      not(0x1f)\n      0x1f\n      dup3\n      add\n      and\n      dup3\n      add\n      dup1\n      0x40\n      mstore\n      pop\n      dup2\n      add\n      swap1\n      tag_89\n      swap2\n      swap1\n      tag_67\n      jump\t// in\n    tag_89:\n      pop\n        /* \"Vesting.sol\":3864:3906  WithdrawTokens(benificiary,withdrawAmount) */\n      0x680f2e4f4032ebf1774e8cdbaddcb1b617a5a606411c8ca96257ada338d3833c\n        /* \"Vesting.sol\":3879:3890  benificiary */\n      dup3\n        /* \"Vesting.sol\":3891:3905  withdrawAmount */\n      dup3\n        /* \"Vesting.sol\":3864:3906  WithdrawTokens(benificiary,withdrawAmount) */\n      mload(0x40)\n      tag_90\n      swap3\n      swap2\n      swap1\n      tag_63\n      jump\t// in\n    tag_90:\n      mload(0x40)\n      dup1\n      swap2\n      sub\n      swap1\n      log1\n        /* \"Vesting.sol\":3472:3913  function withdraw(address benificiary,uint256 withdrawAmount) public {... */\n      pop\n      pop\n      jump\t// out\n        /* \"Vesting.sol\":255:314  mapping(address => VestingSchedule) public vestingSchedules */\n    tag_36:\n      mstore(0x20, 0x03)\n      dup1\n      0x00\n      mstore\n      keccak256(0x00, 0x40)\n      0x00\n      swap2\n      pop\n      swap1\n      pop\n      dup1\n      0x00\n      add\n      0x00\n      swap1\n      sload\n      swap1\n      0x0100\n      exp\n      swap1\n      div\n      0xffffffffffffffffffffffffffffffffffffffff\n      and\n      swap1\n      dup1\n      0x01\n      add\n      sload\n      swap1\n      dup1\n      0x02\n      add\n      sload\n      swap1\n      dup1\n      0x03\n      add\n      sload\n      swap1\n      dup1\n      0x04\n      add\n      sload\n      swap1\n      dup1\n      0x05\n      add\n      sload\n      swap1\n      dup1\n      0x06\n      add\n      sload\n      swap1\n      dup1\n      0x07\n      add\n      sload\n      swap1\n      dup1\n      0x08\n      add\n      sload\n      swap1\n      pop\n      dup10\n      jump\t// out\n        /* \"Vesting.sol\":2194:3466  function calculateVestedAmount(address benificiary) public returns(uint256) {... */\n    tag_41:\n        /* \"Vesting.sol\":2261:2268  uint256 */\n      0x00\n        /* \"Vesting.sol\":2280:2312  VestingSchedule storage schedule */\n      dup1\n        /* \"Vesting.sol\":2315:2331  vestingSchedules */\n      0x03\n        /* \"Vesting.sol\":2315:2344  vestingSchedules[benificiary] */\n      0x00\n        /* \"Vesting.sol\":2332:2343  benificiary */\n      dup5\n        /* \"Vesting.sol\":2315:2344  vestingSchedules[benificiary] */\n      0xffffffffffffffffffffffffffffffffffffffff\n      and\n      0xffffffffffffffffffffffffffffffffffffffff\n      and\n      dup2\n      mstore\n      0x20\n      add\n      swap1\n      dup2\n      mstore\n      0x20\n      add\n      0x00\n      keccak256\n        /* \"Vesting.sol\":2280:2344  VestingSchedule storage schedule = vestingSchedules[benificiary] */\n      swap1\n      pop\n        /* \"Vesting.sol\":2408:2423  block.timestamp */\n      timestamp\n        /* \"Vesting.sol\":2383:2391  schedule */\n      dup2\n        /* \"Vesting.sol\":2383:2404  schedule._slicePeriod */\n      0x04\n      add\n      sload\n        /* \"Vesting.sol\":2363:2371  schedule */\n      dup3\n        /* \"Vesting.sol\":2363:2382  schedule._startTime */\n      0x01\n      add\n      sload\n        /* \"Vesting.sol\":2363:2404  schedule._startTime+schedule._slicePeriod */\n      tag_92\n      swap2\n      swap1\n      tag_57\n      jump\t// in\n    tag_92:\n        /* \"Vesting.sol\":2363:2423  schedule._startTime+schedule._slicePeriod <= block.timestamp */\n      gt\n      iszero\n        /* \"Vesting.sol\":2355:2446  require(schedule._startTime+schedule._slicePeriod <= block.timestamp,\"No Token vested yet\") */\n      tag_93\n      jumpi\n      mload(0x40)\n      0x08c379a000000000000000000000000000000000000000000000000000000000\n      dup2\n      mstore\n      0x04\n      add\n      tag_94\n      swap1\n      tag_95\n      jump\t// in\n    tag_94:\n      mload(0x40)\n      dup1\n      swap2\n      sub\n      swap1\n      revert\n    tag_93:\n        /* \"Vesting.sol\":2465:2482  uint256 intervals */\n      0x00\n        /* \"Vesting.sol\":2514:2522  schedule */\n      dup2\n        /* \"Vesting.sol\":2514:2535  schedule._slicePeriod */\n      0x04\n      add\n      sload\n        /* \"Vesting.sol\":2486:2494  schedule */\n      dup3\n        /* \"Vesting.sol\":2486:2509  schedule._vestingPeriod */\n      0x03\n      add\n      sload\n        /* \"Vesting.sol\":2485:2536  (schedule._vestingPeriod) / (schedule._slicePeriod) */\n      tag_96\n      swap2\n      swap1\n      tag_97\n      jump\t// in\n    tag_96:\n        /* \"Vesting.sol\":2465:2536  uint256 intervals = (schedule._vestingPeriod) / (schedule._slicePeriod) */\n      swap1\n      pop\n        /* \"Vesting.sol\":2546:2570  uint256 tokensInInterval */\n      0x00\n        /* \"Vesting.sol\":2596:2605  intervals */\n      dup2\n        /* \"Vesting.sol\":2573:2581  schedule */\n      dup4\n        /* \"Vesting.sol\":2573:2594  schedule._totalTokens */\n      0x05\n      add\n      sload\n        /* \"Vesting.sol\":2573:2605  schedule._totalTokens /intervals */\n      tag_98\n      swap2\n      swap1\n      tag_97\n      jump\t// in\n    tag_98:\n        /* \"Vesting.sol\":2546:2605  uint256 tokensInInterval = schedule._totalTokens /intervals */\n      swap1\n      pop\n        /* \"Vesting.sol\":2616:2635  uint256 currentTime */\n      0x00\n        /* \"Vesting.sol\":2638:2653  block.timestamp */\n      timestamp\n        /* \"Vesting.sol\":2616:2653  uint256 currentTime = block.timestamp */\n      swap1\n      pop\n        /* \"Vesting.sol\":2707:2715  schedule */\n      dup4\n        /* \"Vesting.sol\":2707:2730  schedule._vestingPeriod */\n      0x03\n      add\n      sload\n        /* \"Vesting.sol\":2685:2693  schedule */\n      dup5\n        /* \"Vesting.sol\":2685:2704  schedule._startTime */\n      0x01\n      add\n      sload\n        /* \"Vesting.sol\":2684:2731  (schedule._startTime)+(schedule._vestingPeriod) */\n      tag_99\n      swap2\n      swap1\n      tag_57\n      jump\t// in\n    tag_99:\n        /* \"Vesting.sol\":2669:2680  currentTime */\n      dup2\n        /* \"Vesting.sol\":2669:2731  currentTime >= (schedule._startTime)+(schedule._vestingPeriod) */\n      lt\n        /* \"Vesting.sol\":2666:2818  if(currentTime >= (schedule._startTime)+(schedule._vestingPeriod)){... */\n      tag_100\n      jumpi\n        /* \"Vesting.sol\":2783:2791  schedule */\n      dup4\n        /* \"Vesting.sol\":2783:2806  schedule._vestingPeriod */\n      0x03\n      add\n      sload\n        /* \"Vesting.sol\":2761:2769  schedule */\n      dup5\n        /* \"Vesting.sol\":2761:2780  schedule._startTime */\n      0x01\n      add\n      sload\n        /* \"Vesting.sol\":2760:2807  (schedule._startTime)+(schedule._vestingPeriod) */\n      tag_101\n      swap2\n      swap1\n      tag_57\n      jump\t// in\n    tag_101:\n        /* \"Vesting.sol\":2746:2807  currentTime = (schedule._startTime)+(schedule._vestingPeriod) */\n      swap1\n      pop\n        /* \"Vesting.sol\":2666:2818  if(currentTime >= (schedule._startTime)+(schedule._vestingPeriod)){... */\n    tag_100:\n        /* \"Vesting.sol\":2880:2888  schedule */\n      dup4\n        /* \"Vesting.sol\":2880:2899  schedule._startTime */\n      0x01\n      add\n      sload\n        /* \"Vesting.sol\":2866:2877  currentTime */\n      dup2\n        /* \"Vesting.sol\":2866:2899  currentTime - schedule._startTime */\n      tag_102\n      swap2\n      swap1\n      tag_85\n      jump\t// in\n    tag_102:\n        /* \"Vesting.sol\":2844:2852  schedule */\n      dup5\n        /* \"Vesting.sol\":2844:2863  schedule._elaspTime */\n      0x08\n      add\n        /* \"Vesting.sol\":2844:2899  schedule._elaspTime = currentTime - schedule._startTime */\n      dup2\n      swap1\n      sstore\n      pop\n        /* \"Vesting.sol\":2909:2932  uint256 intervalElasped */\n      0x00\n        /* \"Vesting.sol\":2956:2964  schedule */\n      dup5\n        /* \"Vesting.sol\":2956:2977  schedule._slicePeriod */\n      0x04\n      add\n      sload\n        /* \"Vesting.sol\":2935:2943  schedule */\n      dup6\n        /* \"Vesting.sol\":2935:2954  schedule._elaspTime */\n      0x08\n      add\n      sload\n        /* \"Vesting.sol\":2935:2977  schedule._elaspTime/ schedule._slicePeriod */\n      tag_103\n      swap2\n      swap1\n      tag_97\n      jump\t// in\n    tag_103:\n        /* \"Vesting.sol\":2909:2977  uint256 intervalElasped = schedule._elaspTime/ schedule._slicePeriod */\n      swap1\n      pop\n        /* \"Vesting.sol\":3058:3066  schedule */\n      dup5\n        /* \"Vesting.sol\":3058:3082  schedule._releasedTokens */\n      0x06\n      add\n      sload\n        /* \"Vesting.sol\":3040:3056  tokensInInterval */\n      dup4\n        /* \"Vesting.sol\":3022:3037  intervalElasped */\n      dup3\n        /* \"Vesting.sol\":3022:3056  intervalElasped * tokensInInterval */\n      tag_104\n      swap2\n      swap1\n      tag_105\n      jump\t// in\n    tag_104:\n        /* \"Vesting.sol\":3021:3082  (intervalElasped * tokensInInterval)-schedule._releasedTokens */\n      tag_106\n      swap2\n      swap1\n      tag_85\n      jump\t// in\n    tag_106:\n        /* \"Vesting.sol\":2996:3004  schedule */\n      dup6\n        /* \"Vesting.sol\":2996:3018  schedule._vestedTokens */\n      0x07\n      add\n        /* \"Vesting.sol\":2996:3082  schedule._vestedTokens = (intervalElasped * tokensInInterval)-schedule._releasedTokens */\n      dup2\n      swap1\n      sstore\n      pop\n        /* \"Vesting.sol\":3120:3128  schedule */\n      dup5\n        /* \"Vesting.sol\":3120:3142  schedule._vestedTokens */\n      0x07\n      add\n      sload\n        /* \"Vesting.sol\":3092:3100  schedule */\n      dup6\n        /* \"Vesting.sol\":3092:3116  schedule._releasedTokens */\n      0x06\n      add\n      0x00\n        /* \"Vesting.sol\":3092:3142  schedule._releasedTokens += schedule._vestedTokens */\n      dup3\n      dup3\n      sload\n      tag_107\n      swap2\n      swap1\n      tag_57\n      jump\t// in\n    tag_107:\n      swap3\n      pop\n      pop\n      dup2\n      swap1\n      sstore\n      pop\n        /* \"Vesting.sol\":3181:3190  intervals */\n      dup4\n        /* \"Vesting.sol\":3164:3179  intervalElasped */\n      dup2\n        /* \"Vesting.sol\":3164:3190  intervalElasped>=intervals */\n      lt\n        /* \"Vesting.sol\":3161:3290  if(intervalElasped>=intervals){... */\n      tag_108\n      jumpi\n        /* \"Vesting.sol\":3255:3263  schedule */\n      dup5\n        /* \"Vesting.sol\":3255:3279  schedule._releasedTokens */\n      0x06\n      add\n      sload\n        /* \"Vesting.sol\":3231:3239  schedule */\n      dup6\n        /* \"Vesting.sol\":3231:3252  schedule._totalTokens */\n      0x05\n      add\n      sload\n        /* \"Vesting.sol\":3231:3279  schedule._totalTokens - schedule._releasedTokens */\n      tag_109\n      swap2\n      swap1\n      tag_85\n      jump\t// in\n    tag_109:\n        /* \"Vesting.sol\":3205:3213  schedule */\n      dup6\n        /* \"Vesting.sol\":3205:3227  schedule._vestedTokens */\n      0x07\n      add\n      0x00\n        /* \"Vesting.sol\":3205:3279  schedule._vestedTokens += schedule._totalTokens - schedule._releasedTokens */\n      dup3\n      dup3\n      sload\n      tag_110\n      swap2\n      swap1\n      tag_57\n      jump\t// in\n    tag_110:\n      swap3\n      pop\n      pop\n      dup2\n      swap1\n      sstore\n      pop\n        /* \"Vesting.sol\":3161:3290  if(intervalElasped>=intervals){... */\n    tag_108:\n        /* \"Vesting.sol\":3334:3342  schedule */\n      dup5\n        /* \"Vesting.sol\":3334:3356  schedule._vestedTokens */\n      0x07\n      add\n      sload\n        /* \"Vesting.sol\":3308:3320  vestedAmount */\n      0x01\n        /* \"Vesting.sol\":3308:3333  vestedAmount[benificiary] */\n      0x00\n        /* \"Vesting.sol\":3321:3332  benificiary */\n      dup10\n        /* \"Vesting.sol\":3308:3333  vestedAmount[benificiary] */\n      0xffffffffffffffffffffffffffffffffffffffff\n      and\n      0xffffffffffffffffffffffffffffffffffffffff\n      and\n      dup2\n      mstore\n      0x20\n      add\n      swap1\n      dup2\n      mstore\n      0x20\n      add\n      0x00\n      keccak256\n        /* \"Vesting.sol\":3308:3356  vestedAmount[benificiary]=schedule._vestedTokens */\n      dup2\n      swap1\n      sstore\n      pop\n        /* \"Vesting.sol\":3372:3420  VestedTokens(benificiary,schedule._vestedTokens) */\n      0xf91178d1be119af5729bcbbceec49bbc2bb69207997394e7c9be1cf3f1ca9ca0\n        /* \"Vesting.sol\":3385:3396  benificiary */\n      dup8\n        /* \"Vesting.sol\":3397:3405  schedule */\n      dup7\n        /* \"Vesting.sol\":3397:3419  schedule._vestedTokens */\n      0x07\n      add\n      sload\n        /* \"Vesting.sol\":3372:3420  VestedTokens(benificiary,schedule._vestedTokens) */\n      mload(0x40)\n      tag_111\n      swap3\n      swap2\n      swap1\n      tag_63\n      jump\t// in\n    tag_111:\n      mload(0x40)\n      dup1\n      swap2\n      sub\n      swap1\n      log1\n        /* \"Vesting.sol\":3437:3445  schedule */\n      dup5\n        /* \"Vesting.sol\":3437:3459  schedule._vestedTokens */\n      0x07\n      add\n      sload\n        /* \"Vesting.sol\":3430:3459  return schedule._vestedTokens */\n      swap6\n      pop\n      pop\n      pop\n      pop\n      pop\n      pop\n        /* \"Vesting.sol\":2194:3466  function calculateVestedAmount(address benificiary) public returns(uint256) {... */\n      swap2\n      swap1\n      pop\n      jump\t// out\n        /* \"#utility.yul\":88:205   */\n    tag_113:\n        /* \"#utility.yul\":197:198   */\n      0x00\n        /* \"#utility.yul\":194:195   */\n      dup1\n        /* \"#utility.yul\":187:199   */\n      revert\n        /* \"#utility.yul\":334:460   */\n    tag_115:\n        /* \"#utility.yul\":371:378   */\n      0x00\n        /* \"#utility.yul\":411:453   */\n      0xffffffffffffffffffffffffffffffffffffffff\n        /* \"#utility.yul\":404:409   */\n      dup3\n        /* \"#utility.yul\":400:454   */\n      and\n        /* \"#utility.yul\":389:454   */\n      swap1\n      pop\n        /* \"#utility.yul\":334:460   */\n      swap2\n      swap1\n      pop\n      jump\t// out\n        /* \"#utility.yul\":466:562   */\n    tag_116:\n        /* \"#utility.yul\":503:510   */\n      0x00\n        /* \"#utility.yul\":532:556   */\n      tag_154\n        /* \"#utility.yul\":550:555   */\n      dup3\n        /* \"#utility.yul\":532:556   */\n      tag_115\n      jump\t// in\n    tag_154:\n        /* \"#utility.yul\":521:556   */\n      swap1\n      pop\n        /* \"#utility.yul\":466:562   */\n      swap2\n      swap1\n      pop\n      jump\t// out\n        /* \"#utility.yul\":568:690   */\n    tag_117:\n        /* \"#utility.yul\":641:665   */\n      tag_156\n        /* \"#utility.yul\":659:664   */\n      dup2\n        /* \"#utility.yul\":641:665   */\n      tag_116\n      jump\t// in\n    tag_156:\n        /* \"#utility.yul\":634:639   */\n      dup2\n        /* \"#utility.yul\":631:666   */\n      eq\n        /* \"#utility.yul\":621:684   */\n      tag_157\n      jumpi\n        /* \"#utility.yul\":680:681   */\n      0x00\n        /* \"#utility.yul\":677:678   */\n      dup1\n        /* \"#utility.yul\":670:682   */\n      revert\n        /* \"#utility.yul\":621:684   */\n    tag_157:\n        /* \"#utility.yul\":568:690   */\n      pop\n      jump\t// out\n        /* \"#utility.yul\":696:835   */\n    tag_118:\n        /* \"#utility.yul\":742:747   */\n      0x00\n        /* \"#utility.yul\":780:786   */\n      dup2\n        /* \"#utility.yul\":767:787   */\n      calldataload\n        /* \"#utility.yul\":758:787   */\n      swap1\n      pop\n        /* \"#utility.yul\":796:829   */\n      tag_159\n        /* \"#utility.yul\":823:828   */\n      dup2\n        /* \"#utility.yul\":796:829   */\n      tag_117\n      jump\t// in\n    tag_159:\n        /* \"#utility.yul\":696:835   */\n      swap3\n      swap2\n      pop\n      pop\n      jump\t// out\n        /* \"#utility.yul\":841:1315   */\n    tag_13:\n        /* \"#utility.yul\":909:915   */\n      0x00\n        /* \"#utility.yul\":917:923   */\n      dup1\n        /* \"#utility.yul\":966:968   */\n      0x40\n        /* \"#utility.yul\":954:963   */\n      dup4\n        /* \"#utility.yul\":945:952   */\n      dup6\n        /* \"#utility.yul\":941:964   */\n      sub\n        /* \"#utility.yul\":937:969   */\n      slt\n        /* \"#utility.yul\":934:1053   */\n      iszero\n      tag_161\n      jumpi\n        /* \"#utility.yul\":972:1051   */\n      tag_162\n      tag_113\n      jump\t// in\n    tag_162:\n        /* \"#utility.yul\":934:1053   */\n    tag_161:\n        /* \"#utility.yul\":1092:1093   */\n      0x00\n        /* \"#utility.yul\":1117:1170   */\n      tag_163\n        /* \"#utility.yul\":1162:1169   */\n      dup6\n        /* \"#utility.yul\":1153:1159   */\n      dup3\n        /* \"#utility.yul\":1142:1151   */\n      dup7\n        /* \"#utility.yul\":1138:1160   */\n      add\n        /* \"#utility.yul\":1117:1170   */\n      tag_118\n      jump\t// in\n    tag_163:\n        /* \"#utility.yul\":1107:1170   */\n      swap3\n      pop\n        /* \"#utility.yul\":1063:1180   */\n      pop\n        /* \"#utility.yul\":1219:1221   */\n      0x20\n        /* \"#utility.yul\":1245:1298   */\n      tag_164\n        /* \"#utility.yul\":1290:1297   */\n      dup6\n        /* \"#utility.yul\":1281:1287   */\n      dup3\n        /* \"#utility.yul\":1270:1279   */\n      dup7\n        /* \"#utility.yul\":1266:1288   */\n      add\n        /* \"#utility.yul\":1245:1298   */\n      tag_118\n      jump\t// in\n    tag_164:\n        /* \"#utility.yul\":1235:1298   */\n      swap2\n      pop\n        /* \"#utility.yul\":1190:1308   */\n      pop\n        /* \"#utility.yul\":841:1315   */\n      swap3\n      pop\n      swap3\n      swap1\n      pop\n      jump\t// out\n        /* \"#utility.yul\":1321:1398   */\n    tag_119:\n        /* \"#utility.yul\":1358:1365   */\n      0x00\n        /* \"#utility.yul\":1387:1392   */\n      dup2\n        /* \"#utility.yul\":1376:1392   */\n      swap1\n      pop\n        /* \"#utility.yul\":1321:1398   */\n      swap2\n      swap1\n      pop\n      jump\t// out\n        /* \"#utility.yul\":1404:1522   */\n    tag_120:\n        /* \"#utility.yul\":1491:1515   */\n      tag_167\n        /* \"#utility.yul\":1509:1514   */\n      dup2\n        /* \"#utility.yul\":1491:1515   */\n      tag_119\n      jump\t// in\n    tag_167:\n        /* \"#utility.yul\":1486:1489   */\n      dup3\n        /* \"#utility.yul\":1479:1516   */\n      mstore\n        /* \"#utility.yul\":1404:1522   */\n      pop\n      pop\n      jump\t// out\n        /* \"#utility.yul\":1528:1750   */\n    tag_16:\n        /* \"#utility.yul\":1621:1625   */\n      0x00\n        /* \"#utility.yul\":1659:1661   */\n      0x20\n        /* \"#utility.yul\":1648:1657   */\n      dup3\n        /* \"#utility.yul\":1644:1662   */\n      add\n        /* \"#utility.yul\":1636:1662   */\n      swap1\n      pop\n        /* \"#utility.yul\":1672:1743   */\n      tag_169\n        /* \"#utility.yul\":1740:1741   */\n      0x00\n        /* \"#utility.yul\":1729:1738   */\n      dup4\n        /* \"#utility.yul\":1725:1742   */\n      add\n        /* \"#utility.yul\":1716:1722   */\n      dup5\n        /* \"#utility.yul\":1672:1743   */\n      tag_120\n      jump\t// in\n    tag_169:\n        /* \"#utility.yul\":1528:1750   */\n      swap3\n      swap2\n      pop\n      pop\n      jump\t// out\n        /* \"#utility.yul\":1756:2085   */\n    tag_19:\n        /* \"#utility.yul\":1815:1821   */\n      0x00\n        /* \"#utility.yul\":1864:1866   */\n      0x20\n        /* \"#utility.yul\":1852:1861   */\n      dup3\n        /* \"#utility.yul\":1843:1850   */\n      dup5\n        /* \"#utility.yul\":1839:1862   */\n      sub\n        /* \"#utility.yul\":1835:1867   */\n      slt\n        /* \"#utility.yul\":1832:1951   */\n      iszero\n      tag_171\n      jumpi\n        /* \"#utility.yul\":1870:1949   */\n      tag_172\n      tag_113\n      jump\t// in\n    tag_172:\n        /* \"#utility.yul\":1832:1951   */\n    tag_171:\n        /* \"#utility.yul\":1990:1991   */\n      0x00\n        /* \"#utility.yul\":2015:2068   */\n      tag_173\n        /* \"#utility.yul\":2060:2067   */\n      dup5\n        /* \"#utility.yul\":2051:2057   */\n      dup3\n        /* \"#utility.yul\":2040:2049   */\n      dup6\n        /* \"#utility.yul\":2036:2058   */\n      add\n        /* \"#utility.yul\":2015:2068   */\n      tag_118\n      jump\t// in\n    tag_173:\n        /* \"#utility.yul\":2005:2068   */\n      swap2\n      pop\n        /* \"#utility.yul\":1961:2078   */\n      pop\n        /* \"#utility.yul\":1756:2085   */\n      swap3\n      swap2\n      pop\n      pop\n      jump\t// out\n        /* \"#utility.yul\":2091:2213   */\n    tag_121:\n        /* \"#utility.yul\":2164:2188   */\n      tag_175\n        /* \"#utility.yul\":2182:2187   */\n      dup2\n        /* \"#utility.yul\":2164:2188   */\n      tag_119\n      jump\t// in\n    tag_175:\n        /* \"#utility.yul\":2157:2162   */\n      dup2\n        /* \"#utility.yul\":2154:2189   */\n      eq\n        /* \"#utility.yul\":2144:2207   */\n      tag_176\n      jumpi\n        /* \"#utility.yul\":2203:2204   */\n      0x00\n        /* \"#utility.yul\":2200:2201   */\n      dup1\n        /* \"#utility.yul\":2193:2205   */\n      revert\n        /* \"#utility.yul\":2144:2207   */\n    tag_176:\n        /* \"#utility.yul\":2091:2213   */\n      pop\n      jump\t// out\n        /* \"#utility.yul\":2219:2358   */\n    tag_122:\n        /* \"#utility.yul\":2265:2270   */\n      0x00\n        /* \"#utility.yul\":2303:2309   */\n      dup2\n        /* \"#utility.yul\":2290:2310   */\n      calldataload\n        /* \"#utility.yul\":2281:2310   */\n      swap1\n      pop\n        /* \"#utility.yul\":2319:2352   */\n      tag_178\n        /* \"#utility.yul\":2346:2351   */\n      dup2\n        /* \"#utility.yul\":2319:2352   */\n      tag_121\n      jump\t// in\n    tag_178:\n        /* \"#utility.yul\":2219:2358   */\n      swap3\n      swap2\n      pop\n      pop\n      jump\t// out\n        /* \"#utility.yul\":2364:3567   */\n    tag_24:\n        /* \"#utility.yul\":2477:2483   */\n      0x00\n        /* \"#utility.yul\":2485:2491   */\n      dup1\n        /* \"#utility.yul\":2493:2499   */\n      0x00\n        /* \"#utility.yul\":2501:2507   */\n      dup1\n        /* \"#utility.yul\":2509:2515   */\n      0x00\n        /* \"#utility.yul\":2517:2523   */\n      dup1\n        /* \"#utility.yul\":2525:2531   */\n      0x00\n        /* \"#utility.yul\":2574:2577   */\n      0xe0\n        /* \"#utility.yul\":2562:2571   */\n      dup9\n        /* \"#utility.yul\":2553:2560   */\n      dup11\n        /* \"#utility.yul\":2549:2572   */\n      sub\n        /* \"#utility.yul\":2545:2578   */\n      slt\n        /* \"#utility.yul\":2542:2662   */\n      iszero\n      tag_180\n      jumpi\n        /* \"#utility.yul\":2581:2660   */\n      tag_181\n      tag_113\n      jump\t// in\n    tag_181:\n        /* \"#utility.yul\":2542:2662   */\n    tag_180:\n        /* \"#utility.yul\":2701:2702   */\n      0x00\n        /* \"#utility.yul\":2726:2779   */\n      tag_182\n        /* \"#utility.yul\":2771:2778   */\n      dup11\n        /* \"#utility.yul\":2762:2768   */\n      dup3\n        /* \"#utility.yul\":2751:2760   */\n      dup12\n        /* \"#utility.yul\":2747:2769   */\n      add\n        /* \"#utility.yul\":2726:2779   */\n      tag_118\n      jump\t// in\n    tag_182:\n        /* \"#utility.yul\":2716:2779   */\n      swap8\n      pop\n        /* \"#utility.yul\":2672:2789   */\n      pop\n        /* \"#utility.yul\":2828:2830   */\n      0x20\n        /* \"#utility.yul\":2854:2907   */\n      tag_183\n        /* \"#utility.yul\":2899:2906   */\n      dup11\n        /* \"#utility.yul\":2890:2896   */\n      dup3\n        /* \"#utility.yul\":2879:2888   */\n      dup12\n        /* \"#utility.yul\":2875:2897   */\n      add\n        /* \"#utility.yul\":2854:2907   */\n      tag_118\n      jump\t// in\n    tag_183:\n        /* \"#utility.yul\":2844:2907   */\n      swap7\n      pop\n        /* \"#utility.yul\":2799:2917   */\n      pop\n        /* \"#utility.yul\":2956:2958   */\n      0x40\n        /* \"#utility.yul\":2982:3035   */\n      tag_184\n        /* \"#utility.yul\":3027:3034   */\n      dup11\n        /* \"#utility.yul\":3018:3024   */\n      dup3\n        /* \"#utility.yul\":3007:3016   */\n      dup12\n        /* \"#utility.yul\":3003:3025   */\n      add\n        /* \"#utility.yul\":2982:3035   */\n      tag_122\n      jump\t// in\n    tag_184:\n        /* \"#utility.yul\":2972:3035   */\n      swap6\n      pop\n        /* \"#utility.yul\":2927:3045   */\n      pop\n        /* \"#utility.yul\":3084:3086   */\n      0x60\n        /* \"#utility.yul\":3110:3163   */\n      tag_185\n        /* \"#utility.yul\":3155:3162   */\n      dup11\n        /* \"#utility.yul\":3146:3152   */\n      dup3\n        /* \"#utility.yul\":3135:3144   */\n      dup12\n        /* \"#utility.yul\":3131:3153   */\n      add\n        /* \"#utility.yul\":3110:3163   */\n      tag_122\n      jump\t// in\n    tag_185:\n        /* \"#utility.yul\":3100:3163   */\n      swap5\n      pop\n        /* \"#utility.yul\":3055:3173   */\n      pop\n        /* \"#utility.yul\":3212:3215   */\n      0x80\n        /* \"#utility.yul\":3239:3292   */\n      tag_186\n        /* \"#utility.yul\":3284:3291   */\n      dup11\n        /* \"#utility.yul\":3275:3281   */\n      dup3\n        /* \"#utility.yul\":3264:3273   */\n      dup12\n        /* \"#utility.yul\":3260:3282   */\n      add\n        /* \"#utility.yul\":3239:3292   */\n      tag_122\n      jump\t// in\n    tag_186:\n        /* \"#utility.yul\":3229:3292   */\n      swap4\n      pop\n        /* \"#utility.yul\":3183:3302   */\n      pop\n        /* \"#utility.yul\":3341:3344   */\n      0xa0\n        /* \"#utility.yul\":3368:3421   */\n      tag_187\n        /* \"#utility.yul\":3413:3420   */\n      dup11\n        /* \"#utility.yul\":3404:3410   */\n      dup3\n        /* \"#utility.yul\":3393:3402   */\n      dup12\n        /* \"#utility.yul\":3389:3411   */\n      add\n        /* \"#utility.yul\":3368:3421   */\n      tag_122\n      jump\t// in\n    tag_187:\n        /* \"#utility.yul\":3358:3421   */\n      swap3\n      pop\n        /* \"#utility.yul\":3312:3431   */\n      pop\n        /* \"#utility.yul\":3470:3473   */\n      0xc0\n        /* \"#utility.yul\":3497:3550   */\n      tag_188\n        /* \"#utility.yul\":3542:3549   */\n      dup11\n        /* \"#utility.yul\":3533:3539   */\n      dup3\n        /* \"#utility.yul\":3522:3531   */\n      dup12\n        /* \"#utility.yul\":3518:3540   */\n      add\n        /* \"#utility.yul\":3497:3550   */\n      tag_122\n      jump\t// in\n    tag_188:\n        /* \"#utility.yul\":3487:3550   */\n      swap2\n      pop\n        /* \"#utility.yul\":3441:3560   */\n      pop\n        /* \"#utility.yul\":2364:3567   */\n      swap3\n      swap6\n      swap9\n      swap2\n      swap5\n      swap8\n      pop\n      swap3\n      swap6\n      pop\n      jump\t// out\n        /* \"#utility.yul\":3573:4047   */\n    tag_32:\n        /* \"#utility.yul\":3641:3647   */\n      0x00\n        /* \"#utility.yul\":3649:3655   */\n      dup1\n        /* \"#utility.yul\":3698:3700   */\n      0x40\n        /* \"#utility.yul\":3686:3695   */\n      dup4\n        /* \"#utility.yul\":3677:3684   */\n      dup6\n        /* \"#utility.yul\":3673:3696   */\n      sub\n        /* \"#utility.yul\":3669:3701   */\n      slt\n        /* \"#utility.yul\":3666:3785   */\n      iszero\n      tag_190\n      jumpi\n        /* \"#utility.yul\":3704:3783   */\n      tag_191\n      tag_113\n      jump\t// in\n    tag_191:\n        /* \"#utility.yul\":3666:3785   */\n    tag_190:\n        /* \"#utility.yul\":3824:3825   */\n      0x00\n        /* \"#utility.yul\":3849:3902   */\n      tag_192\n        /* \"#utility.yul\":3894:3901   */\n      dup6\n        /* \"#utility.yul\":3885:3891   */\n      dup3\n        /* \"#utility.yul\":3874:3883   */\n      dup7\n        /* \"#utility.yul\":3870:3892   */\n      add\n        /* \"#utility.yul\":3849:3902   */\n      tag_118\n      jump\t// in\n    tag_192:\n        /* \"#utility.yul\":3839:3902   */\n      swap3\n      pop\n        /* \"#utility.yul\":3795:3912   */\n      pop\n        /* \"#utility.yul\":3951:3953   */\n      0x20\n        /* \"#utility.yul\":3977:4030   */\n      tag_193\n        /* \"#utility.yul\":4022:4029   */\n      dup6\n        /* \"#utility.yul\":4013:4019   */\n      dup3\n        /* \"#utility.yul\":4002:4011   */\n      dup7\n        /* \"#utility.yul\":3998:4020   */\n      add\n        /* \"#utility.yul\":3977:4030   */\n      tag_122\n      jump\t// in\n    tag_193:\n        /* \"#utility.yul\":3967:4030   */\n      swap2\n      pop\n        /* \"#utility.yul\":3922:4040   */\n      pop\n        /* \"#utility.yul\":3573:4047   */\n      swap3\n      pop\n      swap3\n      swap1\n      pop\n      jump\t// out\n        /* \"#utility.yul\":4053:4113   */\n    tag_123:\n        /* \"#utility.yul\":4081:4084   */\n      0x00\n        /* \"#utility.yul\":4102:4107   */\n      dup2\n        /* \"#utility.yul\":4095:4107   */\n      swap1\n      pop\n        /* \"#utility.yul\":4053:4113   */\n      swap2\n      swap1\n      pop\n      jump\t// out\n        /* \"#utility.yul\":4119:4261   */\n    tag_124:\n        /* \"#utility.yul\":4169:4178   */\n      0x00\n        /* \"#utility.yul\":4202:4255   */\n      tag_196\n        /* \"#utility.yul\":4220:4254   */\n      tag_197\n        /* \"#utility.yul\":4229:4253   */\n      tag_198\n        /* \"#utility.yul\":4247:4252   */\n      dup5\n        /* \"#utility.yul\":4229:4253   */\n      tag_115\n      jump\t// in\n    tag_198:\n        /* \"#utility.yul\":4220:4254   */\n      tag_123\n      jump\t// in\n    tag_197:\n        /* \"#utility.yul\":4202:4255   */\n      tag_115\n      jump\t// in\n    tag_196:\n        /* \"#utility.yul\":4189:4255   */\n      swap1\n      pop\n        /* \"#utility.yul\":4119:4261   */\n      swap2\n      swap1\n      pop\n      jump\t// out\n        /* \"#utility.yul\":4267:4393   */\n    tag_125:\n        /* \"#utility.yul\":4317:4326   */\n      0x00\n        /* \"#utility.yul\":4350:4387   */\n      tag_200\n        /* \"#utility.yul\":4381:4386   */\n      dup3\n        /* \"#utility.yul\":4350:4387   */\n      tag_124\n      jump\t// in\n    tag_200:\n        /* \"#utility.yul\":4337:4387   */\n      swap1\n      pop\n        /* \"#utility.yul\":4267:4393   */\n      swap2\n      swap1\n      pop\n      jump\t// out\n        /* \"#utility.yul\":4399:4538   */\n    tag_126:\n        /* \"#utility.yul\":4462:4471   */\n      0x00\n        /* \"#utility.yul\":4495:4532   */\n      tag_202\n        /* \"#utility.yul\":4526:4531   */\n      dup3\n        /* \"#utility.yul\":4495:4532   */\n      tag_125\n      jump\t// in\n    tag_202:\n        /* \"#utility.yul\":4482:4532   */\n      swap1\n      pop\n        /* \"#utility.yul\":4399:4538   */\n      swap2\n      swap1\n      pop\n      jump\t// out\n        /* \"#utility.yul\":4544:4701   */\n    tag_127:\n        /* \"#utility.yul\":4644:4694   */\n      tag_204\n        /* \"#utility.yul\":4688:4693   */\n      dup2\n        /* \"#utility.yul\":4644:4694   */\n      tag_126\n      jump\t// in\n    tag_204:\n        /* \"#utility.yul\":4639:4642   */\n      dup3\n        /* \"#utility.yul\":4632:4695   */\n      mstore\n        /* \"#utility.yul\":4544:4701   */\n      pop\n      pop\n      jump\t// out\n        /* \"#utility.yul\":4707:5841   */\n    tag_38:\n        /* \"#utility.yul\":5037:5041   */\n      0x00\n        /* \"#utility.yul\":5075:5078   */\n      0x0120\n        /* \"#utility.yul\":5064:5073   */\n      dup3\n        /* \"#utility.yul\":5060:5079   */\n      add\n        /* \"#utility.yul\":5052:5079   */\n      swap1\n      pop\n        /* \"#utility.yul\":5089:5173   */\n      tag_206\n        /* \"#utility.yul\":5170:5171   */\n      0x00\n        /* \"#utility.yul\":5159:5168   */\n      dup4\n        /* \"#utility.yul\":5155:5172   */\n      add\n        /* \"#utility.yul\":5146:5152   */\n      dup13\n        /* \"#utility.yul\":5089:5173   */\n      tag_127\n      jump\t// in\n    tag_206:\n        /* \"#utility.yul\":5183:5255   */\n      tag_207\n        /* \"#utility.yul\":5251:5253   */\n      0x20\n        /* \"#utility.yul\":5240:5249   */\n      dup4\n        /* \"#utility.yul\":5236:5254   */\n      add\n        /* \"#utility.yul\":5227:5233   */\n      dup12\n        /* \"#utility.yul\":5183:5255   */\n      tag_120\n      jump\t// in\n    tag_207:\n        /* \"#utility.yul\":5265:5337   */\n      tag_208\n        /* \"#utility.yul\":5333:5335   */\n      0x40\n        /* \"#utility.yul\":5322:5331   */\n      dup4\n        /* \"#utility.yul\":5318:5336   */\n      add\n        /* \"#utility.yul\":5309:5315   */\n      dup11\n        /* \"#utility.yul\":5265:5337   */\n      tag_120\n      jump\t// in\n    tag_208:\n        /* \"#utility.yul\":5347:5419   */\n      tag_209\n        /* \"#utility.yul\":5415:5417   */\n      0x60\n        /* \"#utility.yul\":5404:5413   */\n      dup4\n        /* \"#utility.yul\":5400:5418   */\n      add\n        /* \"#utility.yul\":5391:5397   */\n      dup10\n        /* \"#utility.yul\":5347:5419   */\n      tag_120\n      jump\t// in\n    tag_209:\n        /* \"#utility.yul\":5429:5502   */\n      tag_210\n        /* \"#utility.yul\":5497:5500   */\n      0x80\n        /* \"#utility.yul\":5486:5495   */\n      dup4\n        /* \"#utility.yul\":5482:5501   */\n      add\n        /* \"#utility.yul\":5473:5479   */\n      dup9\n        /* \"#utility.yul\":5429:5502   */\n      tag_120\n      jump\t// in\n    tag_210:\n        /* \"#utility.yul\":5512:5585   */\n      tag_211\n        /* \"#utility.yul\":5580:5583   */\n      0xa0\n        /* \"#utility.yul\":5569:5578   */\n      dup4\n        /* \"#utility.yul\":5565:5584   */\n      add\n        /* \"#utility.yul\":5556:5562   */\n      dup8\n        /* \"#utility.yul\":5512:5585   */\n      tag_120\n      jump\t// in\n    tag_211:\n        /* \"#utility.yul\":5595:5668   */\n      tag_212\n        /* \"#utility.yul\":5663:5666   */\n      0xc0\n        /* \"#utility.yul\":5652:5661   */\n      dup4\n        /* \"#utility.yul\":5648:5667   */\n      add\n        /* \"#utility.yul\":5639:5645   */\n      dup7\n        /* \"#utility.yul\":5595:5668   */\n      tag_120\n      jump\t// in\n    tag_212:\n        /* \"#utility.yul\":5678:5751   */\n      tag_213\n        /* \"#utility.yul\":5746:5749   */\n      0xe0\n        /* \"#utility.yul\":5735:5744   */\n      dup4\n        /* \"#utility.yul\":5731:5750   */\n      add\n        /* \"#utility.yul\":5722:5728   */\n      dup6\n        /* \"#utility.yul\":5678:5751   */\n      tag_120\n      jump\t// in\n    tag_213:\n        /* \"#utility.yul\":5761:5834   */\n      tag_214\n        /* \"#utility.yul\":5829:5832   */\n      0x0100\n        /* \"#utility.yul\":5818:5827   */\n      dup4\n        /* \"#utility.yul\":5814:5833   */\n      add\n        /* \"#utility.yul\":5805:5811   */\n      dup5\n        /* \"#utility.yul\":5761:5834   */\n      tag_120\n      jump\t// in\n    tag_214:\n        /* \"#utility.yul\":4707:5841   */\n      swap11\n      swap10\n      pop\n      pop\n      pop\n      pop\n      pop\n      pop\n      pop\n      pop\n      pop\n      pop\n      jump\t// out\n        /* \"#utility.yul\":5847:5965   */\n    tag_128:\n        /* \"#utility.yul\":5934:5958   */\n      tag_216\n        /* \"#utility.yul\":5952:5957   */\n      dup2\n        /* \"#utility.yul\":5934:5958   */\n      tag_116\n      jump\t// in\n    tag_216:\n        /* \"#utility.yul\":5929:5932   */\n      dup3\n        /* \"#utility.yul\":5922:5959   */\n      mstore\n        /* \"#utility.yul\":5847:5965   */\n      pop\n      pop\n      jump\t// out\n        /* \"#utility.yul\":5971:6193   */\n    tag_45:\n        /* \"#utility.yul\":6064:6068   */\n      0x00\n        /* \"#utility.yul\":6102:6104   */\n      0x20\n        /* \"#utility.yul\":6091:6100   */\n      dup3\n        /* \"#utility.yul\":6087:6105   */\n      add\n        /* \"#utility.yul\":6079:6105   */\n      swap1\n      pop\n        /* \"#utility.yul\":6115:6186   */\n      tag_218\n        /* \"#utility.yul\":6183:6184   */\n      0x00\n        /* \"#utility.yul\":6172:6181   */\n      dup4\n        /* \"#utility.yul\":6168:6185   */\n      add\n        /* \"#utility.yul\":6159:6165   */\n      dup5\n        /* \"#utility.yul\":6115:6186   */\n      tag_128\n      jump\t// in\n    tag_218:\n        /* \"#utility.yul\":5971:6193   */\n      swap3\n      swap2\n      pop\n      pop\n      jump\t// out\n        /* \"#utility.yul\":6199:6342   */\n    tag_129:\n        /* \"#utility.yul\":6256:6261   */\n      0x00\n        /* \"#utility.yul\":6287:6293   */\n      dup2\n        /* \"#utility.yul\":6281:6294   */\n      mload\n        /* \"#utility.yul\":6272:6294   */\n      swap1\n      pop\n        /* \"#utility.yul\":6303:6336   */\n      tag_220\n        /* \"#utility.yul\":6330:6335   */\n      dup2\n        /* \"#utility.yul\":6303:6336   */\n      tag_121\n      jump\t// in\n    tag_220:\n        /* \"#utility.yul\":6199:6342   */\n      swap3\n      swap2\n      pop\n      pop\n      jump\t// out\n        /* \"#utility.yul\":6348:6699   */\n    tag_49:\n        /* \"#utility.yul\":6418:6424   */\n      0x00\n        /* \"#utility.yul\":6467:6469   */\n      0x20\n        /* \"#utility.yul\":6455:6464   */\n      dup3\n        /* \"#utility.yul\":6446:6453   */\n      dup5\n        /* \"#utility.yul\":6442:6465   */\n      sub\n        /* \"#utility.yul\":6438:6470   */\n      slt\n        /* \"#utility.yul\":6435:6554   */\n      iszero\n      tag_222\n      jumpi\n        /* \"#utility.yul\":6473:6552   */\n      tag_223\n      tag_113\n      jump\t// in\n    tag_223:\n        /* \"#utility.yul\":6435:6554   */\n    tag_222:\n        /* \"#utility.yul\":6593:6594   */\n      0x00\n        /* \"#utility.yul\":6618:6682   */\n      tag_224\n        /* \"#utility.yul\":6674:6681   */\n      dup5\n        /* \"#utility.yul\":6665:6671   */\n      dup3\n        /* \"#utility.yul\":6654:6663   */\n      dup6\n        /* \"#utility.yul\":6650:6672   */\n      add\n        /* \"#utility.yul\":6618:6682   */\n      tag_129\n      jump\t// in\n    tag_224:\n        /* \"#utility.yul\":6608:6682   */\n      swap2\n      pop\n        /* \"#utility.yul\":6564:6692   */\n      pop\n        /* \"#utility.yul\":6348:6699   */\n      swap3\n      swap2\n      pop\n      pop\n      jump\t// out\n        /* \"#utility.yul\":6705:6874   */\n    tag_130:\n        /* \"#utility.yul\":6789:6800   */\n      0x00\n        /* \"#utility.yul\":6823:6829   */\n      dup3\n        /* \"#utility.yul\":6818:6821   */\n      dup3\n        /* \"#utility.yul\":6811:6830   */\n      mstore\n        /* \"#utility.yul\":6863:6867   */\n      0x20\n        /* \"#utility.yul\":6858:6861   */\n      dup3\n        /* \"#utility.yul\":6854:6868   */\n      add\n        /* \"#utility.yul\":6839:6868   */\n      swap1\n      pop\n        /* \"#utility.yul\":6705:6874   */\n      swap3\n      swap2\n      pop\n      pop\n      jump\t// out\n        /* \"#utility.yul\":6880:7051   */\n    tag_131:\n        /* \"#utility.yul\":7020:7043   */\n      0x4f6e6c79204f776e65722063616e206163636573730000000000000000000000\n        /* \"#utility.yul\":7016:7017   */\n      0x00\n        /* \"#utility.yul\":7008:7014   */\n      dup3\n        /* \"#utility.yul\":7004:7018   */\n      add\n        /* \"#utility.yul\":6997:7044   */\n      mstore\n        /* \"#utility.yul\":6880:7051   */\n      pop\n      jump\t// out\n        /* \"#utility.yul\":7057:7423   */\n    tag_132:\n        /* \"#utility.yul\":7199:7202   */\n      0x00\n        /* \"#utility.yul\":7220:7287   */\n      tag_228\n        /* \"#utility.yul\":7284:7286   */\n      0x15\n        /* \"#utility.yul\":7279:7282   */\n      dup4\n        /* \"#utility.yul\":7220:7287   */\n      tag_130\n      jump\t// in\n    tag_228:\n        /* \"#utility.yul\":7213:7287   */\n      swap2\n      pop\n        /* \"#utility.yul\":7296:7389   */\n      tag_229\n        /* \"#utility.yul\":7385:7388   */\n      dup3\n        /* \"#utility.yul\":7296:7389   */\n      tag_131\n      jump\t// in\n    tag_229:\n        /* \"#utility.yul\":7414:7416   */\n      0x20\n        /* \"#utility.yul\":7409:7412   */\n      dup3\n        /* \"#utility.yul\":7405:7417   */\n      add\n        /* \"#utility.yul\":7398:7417   */\n      swap1\n      pop\n        /* \"#utility.yul\":7057:7423   */\n      swap2\n      swap1\n      pop\n      jump\t// out\n        /* \"#utility.yul\":7429:7848   */\n    tag_53:\n        /* \"#utility.yul\":7595:7599   */\n      0x00\n        /* \"#utility.yul\":7633:7635   */\n      0x20\n        /* \"#utility.yul\":7622:7631   */\n      dup3\n        /* \"#utility.yul\":7618:7636   */\n      add\n        /* \"#utility.yul\":7610:7636   */\n      swap1\n      pop\n        /* \"#utility.yul\":7682:7691   */\n      dup2\n        /* \"#utility.yul\":7676:7680   */\n      dup2\n        /* \"#utility.yul\":7672:7692   */\n      sub\n        /* \"#utility.yul\":7668:7669   */\n      0x00\n        /* \"#utility.yul\":7657:7666   */\n      dup4\n        /* \"#utility.yul\":7653:7670   */\n      add\n        /* \"#utility.yul\":7646:7693   */\n      mstore\n        /* \"#utility.yul\":7710:7841   */\n      tag_231\n        /* \"#utility.yul\":7836:7840   */\n      dup2\n        /* \"#utility.yul\":7710:7841   */\n      tag_132\n      jump\t// in\n    tag_231:\n        /* \"#utility.yul\":7702:7841   */\n      swap1\n      pop\n        /* \"#utility.yul\":7429:7848   */\n      swap2\n      swap1\n      pop\n      jump\t// out\n        /* \"#utility.yul\":7854:8034   */\n    tag_133:\n        /* \"#utility.yul\":7902:7979   */\n      0x4e487b7100000000000000000000000000000000000000000000000000000000\n        /* \"#utility.yul\":7899:7900   */\n      0x00\n        /* \"#utility.yul\":7892:7980   */\n      mstore\n        /* \"#utility.yul\":7999:8003   */\n      0x11\n        /* \"#utility.yul\":7996:7997   */\n      0x04\n        /* \"#utility.yul\":7989:8004   */\n      mstore\n        /* \"#utility.yul\":8023:8027   */\n      0x24\n        /* \"#utility.yul\":8020:8021   */\n      0x00\n        /* \"#utility.yul\":8013:8028   */\n      revert\n        /* \"#utility.yul\":8040:8231   */\n    tag_57:\n        /* \"#utility.yul\":8080:8083   */\n      0x00\n        /* \"#utility.yul\":8099:8119   */\n      tag_234\n        /* \"#utility.yul\":8117:8118   */\n      dup3\n        /* \"#utility.yul\":8099:8119   */\n      tag_119\n      jump\t// in\n    tag_234:\n        /* \"#utility.yul\":8094:8119   */\n      swap2\n      pop\n        /* \"#utility.yul\":8133:8153   */\n      tag_235\n        /* \"#utility.yul\":8151:8152   */\n      dup4\n        /* \"#utility.yul\":8133:8153   */\n      tag_119\n      jump\t// in\n    tag_235:\n        /* \"#utility.yul\":8128:8153   */\n      swap3\n      pop\n        /* \"#utility.yul\":8176:8177   */\n      dup3\n        /* \"#utility.yul\":8173:8174   */\n      dup3\n        /* \"#utility.yul\":8169:8178   */\n      add\n        /* \"#utility.yul\":8162:8178   */\n      swap1\n      pop\n        /* \"#utility.yul\":8197:8200   */\n      dup1\n        /* \"#utility.yul\":8194:8195   */\n      dup3\n        /* \"#utility.yul\":8191:8201   */\n      gt\n        /* \"#utility.yul\":8188:8224   */\n      iszero\n      tag_236\n      jumpi\n        /* \"#utility.yul\":8204:8222   */\n      tag_237\n      tag_133\n      jump\t// in\n    tag_237:\n        /* \"#utility.yul\":8188:8224   */\n    tag_236:\n        /* \"#utility.yul\":8040:8231   */\n      swap3\n      swap2\n      pop\n      pop\n      jump\t// out\n        /* \"#utility.yul\":8237:8402   */\n    tag_134:\n        /* \"#utility.yul\":8377:8394   */\n      0x41646420736f6d6520746f6b656e730000000000000000000000000000000000\n        /* \"#utility.yul\":8373:8374   */\n      0x00\n        /* \"#utility.yul\":8365:8371   */\n      dup3\n        /* \"#utility.yul\":8361:8375   */\n      add\n        /* \"#utility.yul\":8354:8395   */\n      mstore\n        /* \"#utility.yul\":8237:8402   */\n      pop\n      jump\t// out\n        /* \"#utility.yul\":8408:8774   */\n    tag_135:\n        /* \"#utility.yul\":8550:8553   */\n      0x00\n        /* \"#utility.yul\":8571:8638   */\n      tag_240\n        /* \"#utility.yul\":8635:8637   */\n      0x0f\n        /* \"#utility.yul\":8630:8633   */\n      dup4\n        /* \"#utility.yul\":8571:8638   */\n      tag_130\n      jump\t// in\n    tag_240:\n        /* \"#utility.yul\":8564:8638   */\n      swap2\n      pop\n        /* \"#utility.yul\":8647:8740   */\n      tag_241\n        /* \"#utility.yul\":8736:8739   */\n      dup3\n        /* \"#utility.yul\":8647:8740   */\n      tag_134\n      jump\t// in\n    tag_241:\n        /* \"#utility.yul\":8765:8767   */\n      0x20\n        /* \"#utility.yul\":8760:8763   */\n      dup3\n        /* \"#utility.yul\":8756:8768   */\n      add\n        /* \"#utility.yul\":8749:8768   */\n      swap1\n      pop\n        /* \"#utility.yul\":8408:8774   */\n      swap2\n      swap1\n      pop\n      jump\t// out\n        /* \"#utility.yul\":8780:9199   */\n    tag_61:\n        /* \"#utility.yul\":8946:8950   */\n      0x00\n        /* \"#utility.yul\":8984:8986   */\n      0x20\n        /* \"#utility.yul\":8973:8982   */\n      dup3\n        /* \"#utility.yul\":8969:8987   */\n      add\n        /* \"#utility.yul\":8961:8987   */\n      swap1\n      pop\n        /* \"#utility.yul\":9033:9042   */\n      dup2\n        /* \"#utility.yul\":9027:9031   */\n      dup2\n        /* \"#utility.yul\":9023:9043   */\n      sub\n        /* \"#utility.yul\":9019:9020   */\n      0x00\n        /* \"#utility.yul\":9008:9017   */\n      dup4\n        /* \"#utility.yul\":9004:9021   */\n      add\n        /* \"#utility.yul\":8997:9044   */\n      mstore\n        /* \"#utility.yul\":9061:9192   */\n      tag_243\n        /* \"#utility.yul\":9187:9191   */\n      dup2\n        /* \"#utility.yul\":9061:9192   */\n      tag_135\n      jump\t// in\n    tag_243:\n        /* \"#utility.yul\":9053:9192   */\n      swap1\n      pop\n        /* \"#utility.yul\":8780:9199   */\n      swap2\n      swap1\n      pop\n      jump\t// out\n        /* \"#utility.yul\":9205:9537   */\n    tag_63:\n        /* \"#utility.yul\":9326:9330   */\n      0x00\n        /* \"#utility.yul\":9364:9366   */\n      0x40\n        /* \"#utility.yul\":9353:9362   */\n      dup3\n        /* \"#utility.yul\":9349:9367   */\n      add\n        /* \"#utility.yul\":9341:9367   */\n      swap1\n      pop\n        /* \"#utility.yul\":9377:9448   */\n      tag_245\n        /* \"#utility.yul\":9445:9446   */\n      0x00\n        /* \"#utility.yul\":9434:9443   */\n      dup4\n        /* \"#utility.yul\":9430:9447   */\n      add\n        /* \"#utility.yul\":9421:9427   */\n      dup6\n        /* \"#utility.yul\":9377:9448   */\n      tag_128\n      jump\t// in\n    tag_245:\n        /* \"#utility.yul\":9458:9530   */\n      tag_246\n        /* \"#utility.yul\":9526:9528   */\n      0x20\n        /* \"#utility.yul\":9515:9524   */\n      dup4\n        /* \"#utility.yul\":9511:9529   */\n      add\n        /* \"#utility.yul\":9502:9508   */\n      dup5\n        /* \"#utility.yul\":9458:9530   */\n      tag_120\n      jump\t// in\n    tag_246:\n        /* \"#utility.yul\":9205:9537   */\n      swap4\n      swap3\n      pop\n      pop\n      pop\n      jump\t// out\n        /* \"#utility.yul\":9543:9633   */\n    tag_136:\n        /* \"#utility.yul\":9577:9584   */\n      0x00\n        /* \"#utility.yul\":9620:9625   */\n      dup2\n        /* \"#utility.yul\":9613:9626   */\n      iszero\n        /* \"#utility.yul\":9606:9627   */\n      iszero\n        /* \"#utility.yul\":9595:9627   */\n      swap1\n      pop\n        /* \"#utility.yul\":9543:9633   */\n      swap2\n      swap1\n      pop\n      jump\t// out\n        /* \"#utility.yul\":9639:9755   */\n    tag_137:\n        /* \"#utility.yul\":9709:9730   */\n      tag_249\n        /* \"#utility.yul\":9724:9729   */\n      dup2\n        /* \"#utility.yul\":9709:9730   */\n      tag_136\n      jump\t// in\n    tag_249:\n        /* \"#utility.yul\":9702:9707   */\n      dup2\n        /* \"#utility.yul\":9699:9731   */\n      eq\n        /* \"#utility.yul\":9689:9749   */\n      tag_250\n      jumpi\n        /* \"#utility.yul\":9745:9746   */\n      0x00\n        /* \"#utility.yul\":9742:9743   */\n      dup1\n        /* \"#utility.yul\":9735:9747   */\n      revert\n        /* \"#utility.yul\":9689:9749   */\n    tag_250:\n        /* \"#utility.yul\":9639:9755   */\n      pop\n      jump\t// out\n        /* \"#utility.yul\":9761:9898   */\n    tag_138:\n        /* \"#utility.yul\":9815:9820   */\n      0x00\n        /* \"#utility.yul\":9846:9852   */\n      dup2\n        /* \"#utility.yul\":9840:9853   */\n      mload\n        /* \"#utility.yul\":9831:9853   */\n      swap1\n      pop\n        /* \"#utility.yul\":9862:9892   */\n      tag_252\n        /* \"#utility.yul\":9886:9891   */\n      dup2\n        /* \"#utility.yul\":9862:9892   */\n      tag_137\n      jump\t// in\n    tag_252:\n        /* \"#utility.yul\":9761:9898   */\n      swap3\n      swap2\n      pop\n      pop\n      jump\t// out\n        /* \"#utility.yul\":9904:10249   */\n    tag_67:\n        /* \"#utility.yul\":9971:9977   */\n      0x00\n        /* \"#utility.yul\":10020:10022   */\n      0x20\n        /* \"#utility.yul\":10008:10017   */\n      dup3\n        /* \"#utility.yul\":9999:10006   */\n      dup5\n        /* \"#utility.yul\":9995:10018   */\n      sub\n        /* \"#utility.yul\":9991:10023   */\n      slt\n        /* \"#utility.yul\":9988:10107   */\n      iszero\n      tag_254\n      jumpi\n        /* \"#utility.yul\":10026:10105   */\n      tag_255\n      tag_113\n      jump\t// in\n    tag_255:\n        /* \"#utility.yul\":9988:10107   */\n    tag_254:\n        /* \"#utility.yul\":10146:10147   */\n      0x00\n        /* \"#utility.yul\":10171:10232   */\n      tag_256\n        /* \"#utility.yul\":10224:10231   */\n      dup5\n        /* \"#utility.yul\":10215:10221   */\n      dup3\n        /* \"#utility.yul\":10204:10213   */\n      dup6\n        /* \"#utility.yul\":10200:10222   */\n      add\n        /* \"#utility.yul\":10171:10232   */\n      tag_138\n      jump\t// in\n    tag_256:\n        /* \"#utility.yul\":10161:10232   */\n      swap2\n      pop\n        /* \"#utility.yul\":10117:10242   */\n      pop\n        /* \"#utility.yul\":9904:10249   */\n      swap3\n      swap2\n      pop\n      pop\n      jump\t// out\n        /* \"#utility.yul\":10255:10420   */\n    tag_139:\n        /* \"#utility.yul\":10395:10412   */\n      0x417070726f76616c206661696c65640000000000000000000000000000000000\n        /* \"#utility.yul\":10391:10392   */\n      0x00\n        /* \"#utility.yul\":10383:10389   */\n      dup3\n        /* \"#utility.yul\":10379:10393   */\n      add\n        /* \"#utility.yul\":10372:10413   */\n      mstore\n        /* \"#utility.yul\":10255:10420   */\n      pop\n      jump\t// out\n        /* \"#utility.yul\":10426:10792   */\n    tag_140:\n        /* \"#utility.yul\":10568:10571   */\n      0x00\n        /* \"#utility.yul\":10589:10656   */\n      tag_259\n        /* \"#utility.yul\":10653:10655   */\n      0x0f\n        /* \"#utility.yul\":10648:10651   */\n      dup4\n        /* \"#utility.yul\":10589:10656   */\n      tag_130\n      jump\t// in\n    tag_259:\n        /* \"#utility.yul\":10582:10656   */\n      swap2\n      pop\n        /* \"#utility.yul\":10665:10758   */\n      tag_260\n        /* \"#utility.yul\":10754:10757   */\n      dup3\n        /* \"#utility.yul\":10665:10758   */\n      tag_139\n      jump\t// in\n    tag_260:\n        /* \"#utility.yul\":10783:10785   */\n      0x20\n        /* \"#utility.yul\":10778:10781   */\n      dup3\n        /* \"#utility.yul\":10774:10786   */\n      add\n        /* \"#utility.yul\":10767:10786   */\n      swap1\n      pop\n        /* \"#utility.yul\":10426:10792   */\n      swap2\n      swap1\n      pop\n      jump\t// out\n        /* \"#utility.yul\":10798:11217   */\n    tag_70:\n        /* \"#utility.yul\":10964:10968   */\n      0x00\n        /* \"#utility.yul\":11002:11004   */\n      0x20\n        /* \"#utility.yul\":10991:11000   */\n      dup3\n        /* \"#utility.yul\":10987:11005   */\n      add\n        /* \"#utility.yul\":10979:11005   */\n      swap1\n      pop\n        /* \"#utility.yul\":11051:11060   */\n      dup2\n        /* \"#utility.yul\":11045:11049   */\n      dup2\n        /* \"#utility.yul\":11041:11061   */\n      sub\n        /* \"#utility.yul\":11037:11038   */\n      0x00\n        /* \"#utility.yul\":11026:11035   */\n      dup4\n        /* \"#utility.yul\":11022:11039   */\n      add\n        /* \"#utility.yul\":11015:11062   */\n      mstore\n        /* \"#utility.yul\":11079:11210   */\n      tag_262\n        /* \"#utility.yul\":11205:11209   */\n      dup2\n        /* \"#utility.yul\":11079:11210   */\n      tag_140\n      jump\t// in\n    tag_262:\n        /* \"#utility.yul\":11071:11210   */\n      swap1\n      pop\n        /* \"#utility.yul\":10798:11217   */\n      swap2\n      swap1\n      pop\n      jump\t// out\n        /* \"#utility.yul\":11223:11665   */\n    tag_72:\n        /* \"#utility.yul\":11372:11376   */\n      0x00\n        /* \"#utility.yul\":11410:11412   */\n      0x60\n        /* \"#utility.yul\":11399:11408   */\n      dup3\n        /* \"#utility.yul\":11395:11413   */\n      add\n        /* \"#utility.yul\":11387:11413   */\n      swap1\n      pop\n        /* \"#utility.yul\":11423:11494   */\n      tag_264\n        /* \"#utility.yul\":11491:11492   */\n      0x00\n        /* \"#utility.yul\":11480:11489   */\n      dup4\n        /* \"#utility.yul\":11476:11493   */\n      add\n        /* \"#utility.yul\":11467:11473   */\n      dup7\n        /* \"#utility.yul\":11423:11494   */\n      tag_128\n      jump\t// in\n    tag_264:\n        /* \"#utility.yul\":11504:11576   */\n      tag_265\n        /* \"#utility.yul\":11572:11574   */\n      0x20\n        /* \"#utility.yul\":11561:11570   */\n      dup4\n        /* \"#utility.yul\":11557:11575   */\n      add\n        /* \"#utility.yul\":11548:11554   */\n      dup6\n        /* \"#utility.yul\":11504:11576   */\n      tag_128\n      jump\t// in\n    tag_265:\n        /* \"#utility.yul\":11586:11658   */\n      tag_266\n        /* \"#utility.yul\":11654:11656   */\n      0x40\n        /* \"#utility.yul\":11643:11652   */\n      dup4\n        /* \"#utility.yul\":11639:11657   */\n      add\n        /* \"#utility.yul\":11630:11636   */\n      dup5\n        /* \"#utility.yul\":11586:11658   */\n      tag_120\n      jump\t// in\n    tag_266:\n        /* \"#utility.yul\":11223:11665   */\n      swap5\n      swap4\n      pop\n      pop\n      pop\n      pop\n      jump\t// out\n        /* \"#utility.yul\":11671:11849   */\n    tag_141:\n        /* \"#utility.yul\":11811:11841   */\n      0x4f6e6c792062656e696669636961722063616e20776974686472617700000000\n        /* \"#utility.yul\":11807:11808   */\n      0x00\n        /* \"#utility.yul\":11799:11805   */\n      dup3\n        /* \"#utility.yul\":11795:11809   */\n      add\n        /* \"#utility.yul\":11788:11842   */\n      mstore\n        /* \"#utility.yul\":11671:11849   */\n      pop\n      jump\t// out\n        /* \"#utility.yul\":11855:12221   */\n    tag_142:\n        /* \"#utility.yul\":11997:12000   */\n      0x00\n        /* \"#utility.yul\":12018:12085   */\n      tag_269\n        /* \"#utility.yul\":12082:12084   */\n      0x1c\n        /* \"#utility.yul\":12077:12080   */\n      dup4\n        /* \"#utility.yul\":12018:12085   */\n      tag_130\n      jump\t// in\n    tag_269:\n        /* \"#utility.yul\":12011:12085   */\n      swap2\n      pop\n        /* \"#utility.yul\":12094:12187   */\n      tag_270\n        /* \"#utility.yul\":12183:12186   */\n      dup3\n        /* \"#utility.yul\":12094:12187   */\n      tag_141\n      jump\t// in\n    tag_270:\n        /* \"#utility.yul\":12212:12214   */\n      0x20\n        /* \"#utility.yul\":12207:12210   */\n      dup3\n        /* \"#utility.yul\":12203:12215   */\n      add\n        /* \"#utility.yul\":12196:12215   */\n      swap1\n      pop\n        /* \"#utility.yul\":11855:12221   */\n      swap2\n      swap1\n      pop\n      jump\t// out\n        /* \"#utility.yul\":12227:12646   */\n    tag_80:\n        /* \"#utility.yul\":12393:12397   */\n      0x00\n        /* \"#utility.yul\":12431:12433   */\n      0x20\n        /* \"#utility.yul\":12420:12429   */\n      dup3\n        /* \"#utility.yul\":12416:12434   */\n      add\n        /* \"#utility.yul\":12408:12434   */\n      swap1\n      pop\n        /* \"#utility.yul\":12480:12489   */\n      dup2\n        /* \"#utility.yul\":12474:12478   */\n      dup2\n        /* \"#utility.yul\":12470:12490   */\n      sub\n        /* \"#utility.yul\":12466:12467   */\n      0x00\n        /* \"#utility.yul\":12455:12464   */\n      dup4\n        /* \"#utility.yul\":12451:12468   */\n      add\n        /* \"#utility.yul\":12444:12491   */\n      mstore\n        /* \"#utility.yul\":12508:12639   */\n      tag_272\n        /* \"#utility.yul\":12634:12638   */\n      dup2\n        /* \"#utility.yul\":12508:12639   */\n      tag_142\n      jump\t// in\n    tag_272:\n        /* \"#utility.yul\":12500:12639   */\n      swap1\n      pop\n        /* \"#utility.yul\":12227:12646   */\n      swap2\n      swap1\n      pop\n      jump\t// out\n        /* \"#utility.yul\":12652:12827   */\n    tag_143:\n        /* \"#utility.yul\":12792:12819   */\n      0x4e6f20616d6f756e7420746f2062652077697468647261776e00000000000000\n        /* \"#utility.yul\":12788:12789   */\n      0x00\n        /* \"#utility.yul\":12780:12786   */\n      dup3\n        /* \"#utility.yul\":12776:12790   */\n      add\n        /* \"#utility.yul\":12769:12820   */\n      mstore\n        /* \"#utility.yul\":12652:12827   */\n      pop\n      jump\t// out\n        /* \"#utility.yul\":12833:13199   */\n    tag_144:\n        /* \"#utility.yul\":12975:12978   */\n      0x00\n        /* \"#utility.yul\":12996:13063   */\n      tag_275\n        /* \"#utility.yul\":13060:13062   */\n      0x19\n        /* \"#utility.yul\":13055:13058   */\n      dup4\n        /* \"#utility.yul\":12996:13063   */\n      tag_130\n      jump\t// in\n    tag_275:\n        /* \"#utility.yul\":12989:13063   */\n      swap2\n      pop\n        /* \"#utility.yul\":13072:13165   */\n      tag_276\n        /* \"#utility.yul\":13161:13164   */\n      dup3\n        /* \"#utility.yul\":13072:13165   */\n      tag_143\n      jump\t// in\n    tag_276:\n        /* \"#utility.yul\":13190:13192   */\n      0x20\n        /* \"#utility.yul\":13185:13188   */\n      dup3\n        /* \"#utility.yul\":13181:13193   */\n      add\n        /* \"#utility.yul\":13174:13193   */\n      swap1\n      pop\n        /* \"#utility.yul\":12833:13199   */\n      swap2\n      swap1\n      pop\n      jump\t// out\n        /* \"#utility.yul\":13205:13624   */\n    tag_83:\n        /* \"#utility.yul\":13371:13375   */\n      0x00\n        /* \"#utility.yul\":13409:13411   */\n      0x20\n        /* \"#utility.yul\":13398:13407   */\n      dup3\n        /* \"#utility.yul\":13394:13412   */\n      add\n        /* \"#utility.yul\":13386:13412   */\n      swap1\n      pop\n        /* \"#utility.yul\":13458:13467   */\n      dup2\n        /* \"#utility.yul\":13452:13456   */\n      dup2\n        /* \"#utility.yul\":13448:13468   */\n      sub\n        /* \"#utility.yul\":13444:13445   */\n      0x00\n        /* \"#utility.yul\":13433:13442   */\n      dup4\n        /* \"#utility.yul\":13429:13446   */\n      add\n        /* \"#utility.yul\":13422:13469   */\n      mstore\n        /* \"#utility.yul\":13486:13617   */\n      tag_278\n        /* \"#utility.yul\":13612:13616   */\n      dup2\n        /* \"#utility.yul\":13486:13617   */\n      tag_144\n      jump\t// in\n    tag_278:\n        /* \"#utility.yul\":13478:13617   */\n      swap1\n      pop\n        /* \"#utility.yul\":13205:13624   */\n      swap2\n      swap1\n      pop\n      jump\t// out\n        /* \"#utility.yul\":13630:13824   */\n    tag_85:\n        /* \"#utility.yul\":13670:13674   */\n      0x00\n        /* \"#utility.yul\":13690:13710   */\n      tag_280\n        /* \"#utility.yul\":13708:13709   */\n      dup3\n        /* \"#utility.yul\":13690:13710   */\n      tag_119\n      jump\t// in\n    tag_280:\n        /* \"#utility.yul\":13685:13710   */\n      swap2\n      pop\n        /* \"#utility.yul\":13724:13744   */\n      tag_281\n        /* \"#utility.yul\":13742:13743   */\n      dup4\n        /* \"#utility.yul\":13724:13744   */\n      tag_119\n      jump\t// in\n    tag_281:\n        /* \"#utility.yul\":13719:13744   */\n      swap3\n      pop\n        /* \"#utility.yul\":13768:13769   */\n      dup3\n        /* \"#utility.yul\":13765:13766   */\n      dup3\n        /* \"#utility.yul\":13761:13770   */\n      sub\n        /* \"#utility.yul\":13753:13770   */\n      swap1\n      pop\n        /* \"#utility.yul\":13792:13793   */\n      dup2\n        /* \"#utility.yul\":13786:13790   */\n      dup2\n        /* \"#utility.yul\":13783:13794   */\n      gt\n        /* \"#utility.yul\":13780:13817   */\n      iszero\n      tag_282\n      jumpi\n        /* \"#utility.yul\":13797:13815   */\n      tag_283\n      tag_133\n      jump\t// in\n    tag_283:\n        /* \"#utility.yul\":13780:13817   */\n    tag_282:\n        /* \"#utility.yul\":13630:13824   */\n      swap3\n      swap2\n      pop\n      pop\n      jump\t// out\n        /* \"#utility.yul\":13830:13999   */\n    tag_145:\n        /* \"#utility.yul\":13970:13991   */\n      0x4e6f20546f6b656e207665737465642079657400000000000000000000000000\n        /* \"#utility.yul\":13966:13967   */\n      0x00\n        /* \"#utility.yul\":13958:13964   */\n      dup3\n        /* \"#utility.yul\":13954:13968   */\n      add\n        /* \"#utility.yul\":13947:13992   */\n      mstore\n        /* \"#utility.yul\":13830:13999   */\n      pop\n      jump\t// out\n        /* \"#utility.yul\":14005:14371   */\n    tag_146:\n        /* \"#utility.yul\":14147:14150   */\n      0x00\n        /* \"#utility.yul\":14168:14235   */\n      tag_286\n        /* \"#utility.yul\":14232:14234   */\n      0x13\n        /* \"#utility.yul\":14227:14230   */\n      dup4\n        /* \"#utility.yul\":14168:14235   */\n      tag_130\n      jump\t// in\n    tag_286:\n        /* \"#utility.yul\":14161:14235   */\n      swap2\n      pop\n        /* \"#utility.yul\":14244:14337   */\n      tag_287\n        /* \"#utility.yul\":14333:14336   */\n      dup3\n        /* \"#utility.yul\":14244:14337   */\n      tag_145\n      jump\t// in\n    tag_287:\n        /* \"#utility.yul\":14362:14364   */\n      0x20\n        /* \"#utility.yul\":14357:14360   */\n      dup3\n        /* \"#utility.yul\":14353:14365   */\n      add\n        /* \"#utility.yul\":14346:14365   */\n      swap1\n      pop\n        /* \"#utility.yul\":14005:14371   */\n      swap2\n      swap1\n      pop\n      jump\t// out\n        /* \"#utility.yul\":14377:14796   */\n    tag_95:\n        /* \"#utility.yul\":14543:14547   */\n      0x00\n        /* \"#utility.yul\":14581:14583   */\n      0x20\n        /* \"#utility.yul\":14570:14579   */\n      dup3\n        /* \"#utility.yul\":14566:14584   */\n      add\n        /* \"#utility.yul\":14558:14584   */\n      swap1\n      pop\n        /* \"#utility.yul\":14630:14639   */\n      dup2\n        /* \"#utility.yul\":14624:14628   */\n      dup2\n        /* \"#utility.yul\":14620:14640   */\n      sub\n        /* \"#utility.yul\":14616:14617   */\n      0x00\n        /* \"#utility.yul\":14605:14614   */\n      dup4\n        /* \"#utility.yul\":14601:14618   */\n      add\n        /* \"#utility.yul\":14594:14641   */\n      mstore\n        /* \"#utility.yul\":14658:14789   */\n      tag_289\n        /* \"#utility.yul\":14784:14788   */\n      dup2\n        /* \"#utility.yul\":14658:14789   */\n      tag_146\n      jump\t// in\n    tag_289:\n        /* \"#utility.yul\":14650:14789   */\n      swap1\n      pop\n        /* \"#utility.yul\":14377:14796   */\n      swap2\n      swap1\n      pop\n      jump\t// out\n        /* \"#utility.yul\":14802:14982   */\n    tag_147:\n        /* \"#utility.yul\":14850:14927   */\n      0x4e487b7100000000000000000000000000000000000000000000000000000000\n        /* \"#utility.yul\":14847:14848   */\n      0x00\n        /* \"#utility.yul\":14840:14928   */\n      mstore\n        /* \"#utility.yul\":14947:14951   */\n      0x12\n        /* \"#utility.yul\":14944:14945   */\n      0x04\n        /* \"#utility.yul\":14937:14952   */\n      mstore\n        /* \"#utility.yul\":14971:14975   */\n      0x24\n        /* \"#utility.yul\":14968:14969   */\n      0x00\n        /* \"#utility.yul\":14961:14976   */\n      revert\n        /* \"#utility.yul\":14988:15173   */\n    tag_97:\n        /* \"#utility.yul\":15028:15029   */\n      0x00\n        /* \"#utility.yul\":15045:15065   */\n      tag_292\n        /* \"#utility.yul\":15063:15064   */\n      dup3\n        /* \"#utility.yul\":15045:15065   */\n      tag_119\n      jump\t// in\n    tag_292:\n        /* \"#utility.yul\":15040:15065   */\n      swap2\n      pop\n        /* \"#utility.yul\":15079:15099   */\n      tag_293\n        /* \"#utility.yul\":15097:15098   */\n      dup4\n        /* \"#utility.yul\":15079:15099   */\n      tag_119\n      jump\t// in\n    tag_293:\n        /* \"#utility.yul\":15074:15099   */\n      swap3\n      pop\n        /* \"#utility.yul\":15118:15119   */\n      dup3\n        /* \"#utility.yul\":15108:15143   */\n      tag_294\n      jumpi\n        /* \"#utility.yul\":15123:15141   */\n      tag_295\n      tag_147\n      jump\t// in\n    tag_295:\n        /* \"#utility.yul\":15108:15143   */\n    tag_294:\n        /* \"#utility.yul\":15165:15166   */\n      dup3\n        /* \"#utility.yul\":15162:15163   */\n      dup3\n        /* \"#utility.yul\":15158:15167   */\n      div\n        /* \"#utility.yul\":15153:15167   */\n      swap1\n      pop\n        /* \"#utility.yul\":14988:15173   */\n      swap3\n      swap2\n      pop\n      pop\n      jump\t// out\n        /* \"#utility.yul\":15179:15589   */\n    tag_105:\n        /* \"#utility.yul\":15219:15226   */\n      0x00\n        /* \"#utility.yul\":15242:15262   */\n      tag_297\n        /* \"#utility.yul\":15260:15261   */\n      dup3\n        /* \"#utility.yul\":15242:15262   */\n      tag_119\n      jump\t// in\n    tag_297:\n        /* \"#utility.yul\":15237:15262   */\n      swap2\n      pop\n        /* \"#utility.yul\":15276:15296   */\n      tag_298\n        /* \"#utility.yul\":15294:15295   */\n      dup4\n        /* \"#utility.yul\":15276:15296   */\n      tag_119\n      jump\t// in\n    tag_298:\n        /* \"#utility.yul\":15271:15296   */\n      swap3\n      pop\n        /* \"#utility.yul\":15331:15332   */\n      dup3\n        /* \"#utility.yul\":15328:15329   */\n      dup3\n        /* \"#utility.yul\":15324:15333   */\n      mul\n        /* \"#utility.yul\":15353:15383   */\n      tag_299\n        /* \"#utility.yul\":15371:15382   */\n      dup2\n        /* \"#utility.yul\":15353:15383   */\n      tag_119\n      jump\t// in\n    tag_299:\n        /* \"#utility.yul\":15342:15383   */\n      swap2\n      pop\n        /* \"#utility.yul\":15532:15533   */\n      dup3\n        /* \"#utility.yul\":15523:15530   */\n      dup3\n        /* \"#utility.yul\":15519:15534   */\n      div\n        /* \"#utility.yul\":15516:15517   */\n      dup5\n        /* \"#utility.yul\":15513:15535   */\n      eq\n        /* \"#utility.yul\":15493:15494   */\n      dup4\n        /* \"#utility.yul\":15486:15495   */\n      iszero\n        /* \"#utility.yul\":15466:15549   */\n      or\n        /* \"#utility.yul\":15443:15582   */\n      tag_300\n      jumpi\n        /* \"#utility.yul\":15562:15580   */\n      tag_301\n      tag_133\n      jump\t// in\n    tag_301:\n        /* \"#utility.yul\":15443:15582   */\n    tag_300:\n        /* \"#utility.yul\":15227:15589   */\n      pop\n        /* \"#utility.yul\":15179:15589   */\n      swap3\n      swap2\n      pop\n      pop\n      jump\t// out\n\n    auxdata: 0xa26469706673582212200ed9daafe2f41edc6c24852e7f19828f465fa5d56866fe8f41c64cbf361d3ea964736f6c63430008120033\n}\n",
				"bytecode": {
					"linkReferences": {},
					"object": "608060405234801561001057600080fd5b50336000806101000a81548173ffffffffffffffffffffffffffffffffffffffff021916908373ffffffffffffffffffffffffffffffffffffffff160217905550611483806100606000396000f3fe608060405234801561001057600080fd5b506004361061007d5760003560e01c8063be7ab51b1161005b578063be7ab51b146100fe578063f3fef3a31461012e578063fdb20ccb1461014a578063ffa06b2a146101825761007d565b806377b76ec31461008257806387b0be48146100b2578063bba4e631146100e2575b600080fd5b61009c60048036038101906100979190610caf565b6101b2565b6040516100a99190610d08565b60405180910390f35b6100cc60048036038101906100c79190610d23565b610236565b6040516100d99190610d08565b60405180910390f35b6100fc60048036038101906100f79190610d7c565b61036c565b005b61011860048036038101906101139190610d23565b610728565b6040516101259190610d08565b60405180910390f35b61014860048036038101906101439190610e1e565b610740565b005b610164600480360381019061015f9190610d23565b6109a4565b60405161017999989796959493929190610ebd565b60405180910390f35b61019c60048036038101906101979190610d23565b610a12565b6040516101a99190610d08565b60405180910390f35b60008273ffffffffffffffffffffffffffffffffffffffff166370a08231836040518263ffffffff1660e01b81526004016101ed9190610f59565b602060405180830381865afa15801561020a573d6000803e3d6000fd5b505050506040513d601f19601f8201168201806040525081019061022e9190610f89565b905092915050565b60008060009054906101000a900473ffffffffffffffffffffffffffffffffffffffff1673ffffffffffffffffffffffffffffffffffffffff163373ffffffffffffffffffffffffffffffffffffffff16146102c7576040517f08c379a00000000000000000000000000000000000000000000000000000000081526004016102be90611013565b60405180910390fd5b6102d082610a12565b600260008473ffffffffffffffffffffffffffffffffffffffff1673ffffffffffffffffffffffffffffffffffffffff168152602001908152602001600020600082825461031e9190611062565b92505081905550600260008373ffffffffffffffffffffffffffffffffffffffff1673ffffffffffffffffffffffffffffffffffffffff168152602001908152602001600020549050919050565b6040518061012001604052808873ffffffffffffffffffffffffffffffffffffffff16815260200185815260200184815260200183815260200182815260200186815260200160008152602001600081526020016000815250600360008873ffffffffffffffffffffffffffffffffffffffff1673ffffffffffffffffffffffffffffffffffffffff16815260200190815260200160002060008201518160000160006101000a81548173ffffffffffffffffffffffffffffffffffffffff021916908373ffffffffffffffffffffffffffffffffffffffff1602179055506020820151816001015560408201518160020155606082015181600301556080820151816004015560a0820151816005015560c0820151816006015560e082015181600701556101008201518160080155905050600085116104e2576040517f08c379a00000000000000000000000000000000000000000000000000000000081526004016104d9906110e2565b60405180910390fd5b600360008773ffffffffffffffffffffffffffffffffffffffff1673ffffffffffffffffffffffffffffffffffffffff16815260200190815260200160002060000160009054906101000a900473ffffffffffffffffffffffffffffffffffffffff1673ffffffffffffffffffffffffffffffffffffffff1663095ea7b330876040518363ffffffff1660e01b815260040161057f929190611102565b6020604051808303816000875af115801561059e573d6000803e3d6000fd5b505050506040513d601f19601f820116820180604052508101906105c29190611163565b610601576040517f08c379a00000000000000000000000000000000000000000000000000000000081526004016105f8906111dc565b60405180910390fd5b600360008773ffffffffffffffffffffffffffffffffffffffff1673ffffffffffffffffffffffffffffffffffffffff16815260200190815260200160002060000160009054906101000a900473ffffffffffffffffffffffffffffffffffffffff1673ffffffffffffffffffffffffffffffffffffffff166323b872dd8730886040518463ffffffff1660e01b81526004016106a0939291906111fc565b6020604051808303816000875af11580156106bf573d6000803e3d6000fd5b505050506040513d601f19601f820116820180604052508101906106e39190611163565b507f5b2c363c4205d12f22a6dc6a35136117f80f8cd6897d7a05e7e2987883b05004863087604051610717939291906111fc565b60405180910390a150505050505050565b60026020528060005260406000206000915090505481565b3373ffffffffffffffffffffffffffffffffffffffff168273ffffffffffffffffffffffffffffffffffffffff16146107ae576040517f08c379a00000000000000000000000000000000000000000000000000000000081526004016107a59061127f565b60405180910390fd5b6000600260008473ffffffffffffffffffffffffffffffffffffffff1673ffffffffffffffffffffffffffffffffffffffff1681526020019081526020016000205411610830576040517f08c379a0000000000000000000000000000000000000000000000000000000008152600401610827906112eb565b60405180910390fd5b80600260008473ffffffffffffffffffffffffffffffffffffffff1673ffffffffffffffffffffffffffffffffffffffff168152602001908152602001600020600082825461087f919061130b565b92505081905550600360008373ffffffffffffffffffffffffffffffffffffffff1673ffffffffffffffffffffffffffffffffffffffff16815260200190815260200160002060000160009054906101000a900473ffffffffffffffffffffffffffffffffffffffff1673ffffffffffffffffffffffffffffffffffffffff1663a9059cbb83836040518363ffffffff1660e01b8152600401610923929190611102565b6020604051808303816000875af1158015610942573d6000803e3d6000fd5b505050506040513d601f19601f820116820180604052508101906109669190611163565b507f680f2e4f4032ebf1774e8cdbaddcb1b617a5a606411c8ca96257ada338d3833c8282604051610998929190611102565b60405180910390a15050565b60036020528060005260406000206000915090508060000160009054906101000a900473ffffffffffffffffffffffffffffffffffffffff16908060010154908060020154908060030154908060040154908060050154908060060154908060070154908060080154905089565b600080600360008473ffffffffffffffffffffffffffffffffffffffff1673ffffffffffffffffffffffffffffffffffffffff16815260200190815260200160002090504281600401548260010154610a6b9190611062565b1115610aac576040517f08c379a0000000000000000000000000000000000000000000000000000000008152600401610aa39061138b565b60405180910390fd5b600081600401548260030154610ac291906113da565b90506000818360050154610ad691906113da565b9050600042905083600301548460010154610af19190611062565b8110610b0e5783600301548460010154610b0b9190611062565b90505b836001015481610b1e919061130b565b8460080181905550600084600401548560080154610b3c91906113da565b905084600601548382610b4f919061140b565b610b59919061130b565b85600701819055508460070154856006016000828254610b799190611062565b92505081905550838110610bb65784600601548560050154610b9b919061130b565b856007016000828254610bae9190611062565b925050819055505b8460070154600160008973ffffffffffffffffffffffffffffffffffffffff1673ffffffffffffffffffffffffffffffffffffffff168152602001908152602001600020819055507ff91178d1be119af5729bcbbceec49bbc2bb69207997394e7c9be1cf3f1ca9ca0878660070154604051610c33929190611102565b60405180910390a1846007015495505050505050919050565b600080fd5b600073ffffffffffffffffffffffffffffffffffffffff82169050919050565b6000610c7c82610c51565b9050919050565b610c8c81610c71565b8114610c9757600080fd5b50565b600081359050610ca981610c83565b92915050565b60008060408385031215610cc657610cc5610c4c565b5b6000610cd485828601610c9a565b9250506020610ce585828601610c9a565b9150509250929050565b6000819050919050565b610d0281610cef565b82525050565b6000602082019050610d1d6000830184610cf9565b92915050565b600060208284031215610d3957610d38610c4c565b5b6000610d4784828501610c9a565b91505092915050565b610d5981610cef565b8114610d6457600080fd5b50565b600081359050610d7681610d50565b92915050565b600080600080600080600060e0888a031215610d9b57610d9a610c4c565b5b6000610da98a828b01610c9a565b9750506020610dba8a828b01610c9a565b9650506040610dcb8a828b01610d67565b9550506060610ddc8a828b01610d67565b9450506080610ded8a828b01610d67565b93505060a0610dfe8a828b01610d67565b92505060c0610e0f8a828b01610d67565b91505092959891949750929550565b60008060408385031215610e3557610e34610c4c565b5b6000610e4385828601610c9a565b9250506020610e5485828601610d67565b9150509250929050565b6000819050919050565b6000610e83610e7e610e7984610c51565b610e5e565b610c51565b9050919050565b6000610e9582610e68565b9050919050565b6000610ea782610e8a565b9050919050565b610eb781610e9c565b82525050565b600061012082019050610ed3600083018c610eae565b610ee0602083018b610cf9565b610eed604083018a610cf9565b610efa6060830189610cf9565b610f076080830188610cf9565b610f1460a0830187610cf9565b610f2160c0830186610cf9565b610f2e60e0830185610cf9565b610f3c610100830184610cf9565b9a9950505050505050505050565b610f5381610c71565b82525050565b6000602082019050610f6e6000830184610f4a565b92915050565b600081519050610f8381610d50565b92915050565b600060208284031215610f9f57610f9e610c4c565b5b6000610fad84828501610f74565b91505092915050565b600082825260208201905092915050565b7f4f6e6c79204f776e65722063616e206163636573730000000000000000000000600082015250565b6000610ffd601583610fb6565b915061100882610fc7565b602082019050919050565b6000602082019050818103600083015261102c81610ff0565b9050919050565b7f4e487b7100000000000000000000000000000000000000000000000000000000600052601160045260246000fd5b600061106d82610cef565b915061107883610cef565b92508282019050808211156110905761108f611033565b5b92915050565b7f41646420736f6d6520746f6b656e730000000000000000000000000000000000600082015250565b60006110cc600f83610fb6565b91506110d782611096565b602082019050919050565b600060208201905081810360008301526110fb816110bf565b9050919050565b60006040820190506111176000830185610f4a565b6111246020830184610cf9565b9392505050565b60008115159050919050565b6111408161112b565b811461114b57600080fd5b50565b60008151905061115d81611137565b92915050565b60006020828403121561117957611178610c4c565b5b60006111878482850161114e565b91505092915050565b7f417070726f76616c206661696c65640000000000000000000000000000000000600082015250565b60006111c6600f83610fb6565b91506111d182611190565b602082019050919050565b600060208201905081810360008301526111f5816111b9565b9050919050565b60006060820190506112116000830186610f4a565b61121e6020830185610f4a565b61122b6040830184610cf9565b949350505050565b7f4f6e6c792062656e696669636961722063616e20776974686472617700000000600082015250565b6000611269601c83610fb6565b915061127482611233565b602082019050919050565b600060208201905081810360008301526112988161125c565b9050919050565b7f4e6f20616d6f756e7420746f2062652077697468647261776e00000000000000600082015250565b60006112d5601983610fb6565b91506112e08261129f565b602082019050919050565b60006020820190508181036000830152611304816112c8565b9050919050565b600061131682610cef565b915061132183610cef565b925082820390508181111561133957611338611033565b5b92915050565b7f4e6f20546f6b656e207665737465642079657400000000000000000000000000600082015250565b6000611375601383610fb6565b91506113808261133f565b602082019050919050565b600060208201905081810360008301526113a481611368565b9050919050565b7f4e487b7100000000000000000000000000000000000000000000000000000000600052601260045260246000fd5b60006113e582610cef565b91506113f083610cef565b925082611400576113ff6113ab565b5b828204905092915050565b600061141682610cef565b915061142183610cef565b925082820261142f81610cef565b9150828204841483151761144657611445611033565b5b509291505056fea26469706673582212200ed9daafe2f41edc6c24852e7f19828f465fa5d56866fe8f41c64cbf361d3ea964736f6c63430008120033",
					"opcodes": "PUSH1 0x80 PUSH1 0x40 MSTORE CALLVALUE DUP1 ISZERO PUSH2 0x10 JUMPI PUSH1 0x0 DUP1 REVERT JUMPDEST POP CALLER PUSH1 0x0 DUP1 PUSH2 0x100 EXP DUP2 SLOAD DUP2 PUSH20 0xFFFFFFFFFFFFFFFFFFFFFFFFFFFFFFFFFFFFFFFF MUL NOT AND SWAP1 DUP4 PUSH20 0xFFFFFFFFFFFFFFFFFFFFFFFFFFFFFFFFFFFFFFFF AND MUL OR SWAP1 SSTORE POP PUSH2 0x1483 DUP1 PUSH2 0x60 PUSH1 0x0 CODECOPY PUSH1 0x0 RETURN INVALID PUSH1 0x80 PUSH1 0x40 MSTORE CALLVALUE DUP1 ISZERO PUSH2 0x10 JUMPI PUSH1 0x0 DUP1 REVERT JUMPDEST POP PUSH1 0x4 CALLDATASIZE LT PUSH2 0x7D JUMPI PUSH1 0x0 CALLDATALOAD PUSH1 0xE0 SHR DUP1 PUSH4 0xBE7AB51B GT PUSH2 0x5B JUMPI DUP1 PUSH4 0xBE7AB51B EQ PUSH2 0xFE JUMPI DUP1 PUSH4 0xF3FEF3A3 EQ PUSH2 0x12E JUMPI DUP1 PUSH4 0xFDB20CCB EQ PUSH2 0x14A JUMPI DUP1 PUSH4 0xFFA06B2A EQ PUSH2 0x182 JUMPI PUSH2 0x7D JUMP JUMPDEST DUP1 PUSH4 0x77B76EC3 EQ PUSH2 0x82 JUMPI DUP1 PUSH4 0x87B0BE48 EQ PUSH2 0xB2 JUMPI DUP1 PUSH4 0xBBA4E631 EQ PUSH2 0xE2 JUMPI JUMPDEST PUSH1 0x0 DUP1 REVERT JUMPDEST PUSH2 0x9C PUSH1 0x4 DUP1 CALLDATASIZE SUB DUP2 ADD SWAP1 PUSH2 0x97 SWAP2 SWAP1 PUSH2 0xCAF JUMP JUMPDEST PUSH2 0x1B2 JUMP JUMPDEST PUSH1 0x40 MLOAD PUSH2 0xA9 SWAP2 SWAP1 PUSH2 0xD08 JUMP JUMPDEST PUSH1 0x40 MLOAD DUP1 SWAP2 SUB SWAP1 RETURN JUMPDEST PUSH2 0xCC PUSH1 0x4 DUP1 CALLDATASIZE SUB DUP2 ADD SWAP1 PUSH2 0xC7 SWAP2 SWAP1 PUSH2 0xD23 JUMP JUMPDEST PUSH2 0x236 JUMP JUMPDEST PUSH1 0x40 MLOAD PUSH2 0xD9 SWAP2 SWAP1 PUSH2 0xD08 JUMP JUMPDEST PUSH1 0x40 MLOAD DUP1 SWAP2 SUB SWAP1 RETURN JUMPDEST PUSH2 0xFC PUSH1 0x4 DUP1 CALLDATASIZE SUB DUP2 ADD SWAP1 PUSH2 0xF7 SWAP2 SWAP1 PUSH2 0xD7C JUMP JUMPDEST PUSH2 0x36C JUMP JUMPDEST STOP JUMPDEST PUSH2 0x118 PUSH1 0x4 DUP1 CALLDATASIZE SUB DUP2 ADD SWAP1 PUSH2 0x113 SWAP2 SWAP1 PUSH2 0xD23 JUMP JUMPDEST PUSH2 0x728 JUMP JUMPDEST PUSH1 0x40 MLOAD PUSH2 0x125 SWAP2 SWAP1 PUSH2 0xD08 JUMP JUMPDEST PUSH1 0x40 MLOAD DUP1 SWAP2 SUB SWAP1 RETURN JUMPDEST PUSH2 0x148 PUSH1 0x4 DUP1 CALLDATASIZE SUB DUP2 ADD SWAP1 PUSH2 0x143 SWAP2 SWAP1 PUSH2 0xE1E JUMP JUMPDEST PUSH2 0x740 JUMP JUMPDEST STOP JUMPDEST PUSH2 0x164 PUSH1 0x4 DUP1 CALLDATASIZE SUB DUP2 ADD SWAP1 PUSH2 0x15F SWAP2 SWAP1 PUSH2 0xD23 JUMP JUMPDEST PUSH2 0x9A4 JUMP JUMPDEST PUSH1 0x40 MLOAD PUSH2 0x179 SWAP10 SWAP9 SWAP8 SWAP7 SWAP6 SWAP5 SWAP4 SWAP3 SWAP2 SWAP1 PUSH2 0xEBD JUMP JUMPDEST PUSH1 0x40 MLOAD DUP1 SWAP2 SUB SWAP1 RETURN JUMPDEST PUSH2 0x19C PUSH1 0x4 DUP1 CALLDATASIZE SUB DUP2 ADD SWAP1 PUSH2 0x197 SWAP2 SWAP1 PUSH2 0xD23 JUMP JUMPDEST PUSH2 0xA12 JUMP JUMPDEST PUSH1 0x40 MLOAD PUSH2 0x1A9 SWAP2 SWAP1 PUSH2 0xD08 JUMP JUMPDEST PUSH1 0x40 MLOAD DUP1 SWAP2 SUB SWAP1 RETURN JUMPDEST PUSH1 0x0 DUP3 PUSH20 0xFFFFFFFFFFFFFFFFFFFFFFFFFFFFFFFFFFFFFFFF AND PUSH4 0x70A08231 DUP4 PUSH1 0x40 MLOAD DUP3 PUSH4 0xFFFFFFFF AND PUSH1 0xE0 SHL DUP2 MSTORE PUSH1 0x4 ADD PUSH2 0x1ED SWAP2 SWAP1 PUSH2 0xF59 JUMP JUMPDEST PUSH1 0x20 PUSH1 0x40 MLOAD DUP1 DUP4 SUB DUP2 DUP7 GAS STATICCALL ISZERO DUP1 ISZERO PUSH2 0x20A JUMPI RETURNDATASIZE PUSH1 0x0 DUP1 RETURNDATACOPY RETURNDATASIZE PUSH1 0x0 REVERT JUMPDEST POP POP POP POP PUSH1 0x40 MLOAD RETURNDATASIZE PUSH1 0x1F NOT PUSH1 0x1F DUP3 ADD AND DUP3 ADD DUP1 PUSH1 0x40 MSTORE POP DUP2 ADD SWAP1 PUSH2 0x22E SWAP2 SWAP1 PUSH2 0xF89 JUMP JUMPDEST SWAP1 POP SWAP3 SWAP2 POP POP JUMP JUMPDEST PUSH1 0x0 DUP1 PUSH1 0x0 SWAP1 SLOAD SWAP1 PUSH2 0x100 EXP SWAP1 DIV PUSH20 0xFFFFFFFFFFFFFFFFFFFFFFFFFFFFFFFFFFFFFFFF AND PUSH20 0xFFFFFFFFFFFFFFFFFFFFFFFFFFFFFFFFFFFFFFFF AND CALLER PUSH20 0xFFFFFFFFFFFFFFFFFFFFFFFFFFFFFFFFFFFFFFFF AND EQ PUSH2 0x2C7 JUMPI PUSH1 0x40 MLOAD PUSH32 0x8C379A000000000000000000000000000000000000000000000000000000000 DUP2 MSTORE PUSH1 0x4 ADD PUSH2 0x2BE SWAP1 PUSH2 0x1013 JUMP JUMPDEST PUSH1 0x40 MLOAD DUP1 SWAP2 SUB SWAP1 REVERT JUMPDEST PUSH2 0x2D0 DUP3 PUSH2 0xA12 JUMP JUMPDEST PUSH1 0x2 PUSH1 0x0 DUP5 PUSH20 0xFFFFFFFFFFFFFFFFFFFFFFFFFFFFFFFFFFFFFFFF AND PUSH20 0xFFFFFFFFFFFFFFFFFFFFFFFFFFFFFFFFFFFFFFFF AND DUP2 MSTORE PUSH1 0x20 ADD SWAP1 DUP2 MSTORE PUSH1 0x20 ADD PUSH1 0x0 KECCAK256 PUSH1 0x0 DUP3 DUP3 SLOAD PUSH2 0x31E SWAP2 SWAP1 PUSH2 0x1062 JUMP JUMPDEST SWAP3 POP POP DUP2 SWAP1 SSTORE POP PUSH1 0x2 PUSH1 0x0 DUP4 PUSH20 0xFFFFFFFFFFFFFFFFFFFFFFFFFFFFFFFFFFFFFFFF AND PUSH20 0xFFFFFFFFFFFFFFFFFFFFFFFFFFFFFFFFFFFFFFFF AND DUP2 MSTORE PUSH1 0x20 ADD SWAP1 DUP2 MSTORE PUSH1 0x20 ADD PUSH1 0x0 KECCAK256 SLOAD SWAP1 POP SWAP2 SWAP1 POP JUMP JUMPDEST PUSH1 0x40 MLOAD DUP1 PUSH2 0x120 ADD PUSH1 0x40 MSTORE DUP1 DUP9 PUSH20 0xFFFFFFFFFFFFFFFFFFFFFFFFFFFFFFFFFFFFFFFF AND DUP2 MSTORE PUSH1 0x20 ADD DUP6 DUP2 MSTORE PUSH1 0x20 ADD DUP5 DUP2 MSTORE PUSH1 0x20 ADD DUP4 DUP2 MSTORE PUSH1 0x20 ADD DUP3 DUP2 MSTORE PUSH1 0x20 ADD DUP7 DUP2 MSTORE PUSH1 0x20 ADD PUSH1 0x0 DUP2 MSTORE PUSH1 0x20 ADD PUSH1 0x0 DUP2 MSTORE PUSH1 0x20 ADD PUSH1 0x0 DUP2 MSTORE POP PUSH1 0x3 PUSH1 0x0 DUP9 PUSH20 0xFFFFFFFFFFFFFFFFFFFFFFFFFFFFFFFFFFFFFFFF AND PUSH20 0xFFFFFFFFFFFFFFFFFFFFFFFFFFFFFFFFFFFFFFFF AND DUP2 MSTORE PUSH1 0x20 ADD SWAP1 DUP2 MSTORE PUSH1 0x20 ADD PUSH1 0x0 KECCAK256 PUSH1 0x0 DUP3 ADD MLOAD DUP2 PUSH1 0x0 ADD PUSH1 0x0 PUSH2 0x100 EXP DUP2 SLOAD DUP2 PUSH20 0xFFFFFFFFFFFFFFFFFFFFFFFFFFFFFFFFFFFFFFFF MUL NOT AND SWAP1 DUP4 PUSH20 0xFFFFFFFFFFFFFFFFFFFFFFFFFFFFFFFFFFFFFFFF AND MUL OR SWAP1 SSTORE POP PUSH1 0x20 DUP3 ADD MLOAD DUP2 PUSH1 0x1 ADD SSTORE PUSH1 0x40 DUP3 ADD MLOAD DUP2 PUSH1 0x2 ADD SSTORE PUSH1 0x60 DUP3 ADD MLOAD DUP2 PUSH1 0x3 ADD SSTORE PUSH1 0x80 DUP3 ADD MLOAD DUP2 PUSH1 0x4 ADD SSTORE PUSH1 0xA0 DUP3 ADD MLOAD DUP2 PUSH1 0x5 ADD SSTORE PUSH1 0xC0 DUP3 ADD MLOAD DUP2 PUSH1 0x6 ADD SSTORE PUSH1 0xE0 DUP3 ADD MLOAD DUP2 PUSH1 0x7 ADD SSTORE PUSH2 0x100 DUP3 ADD MLOAD DUP2 PUSH1 0x8 ADD SSTORE SWAP1 POP POP PUSH1 0x0 DUP6 GT PUSH2 0x4E2 JUMPI PUSH1 0x40 MLOAD PUSH32 0x8C379A000000000000000000000000000000000000000000000000000000000 DUP2 MSTORE PUSH1 0x4 ADD PUSH2 0x4D9 SWAP1 PUSH2 0x10E2 JUMP JUMPDEST PUSH1 0x40 MLOAD DUP1 SWAP2 SUB SWAP1 REVERT JUMPDEST PUSH1 0x3 PUSH1 0x0 DUP8 PUSH20 0xFFFFFFFFFFFFFFFFFFFFFFFFFFFFFFFFFFFFFFFF AND PUSH20 0xFFFFFFFFFFFFFFFFFFFFFFFFFFFFFFFFFFFFFFFF AND DUP2 MSTORE PUSH1 0x20 ADD SWAP1 DUP2 MSTORE PUSH1 0x20 ADD PUSH1 0x0 KECCAK256 PUSH1 0x0 ADD PUSH1 0x0 SWAP1 SLOAD SWAP1 PUSH2 0x100 EXP SWAP1 DIV PUSH20 0xFFFFFFFFFFFFFFFFFFFFFFFFFFFFFFFFFFFFFFFF AND PUSH20 0xFFFFFFFFFFFFFFFFFFFFFFFFFFFFFFFFFFFFFFFF AND PUSH4 0x95EA7B3 ADDRESS DUP8 PUSH1 0x40 MLOAD DUP4 PUSH4 0xFFFFFFFF AND PUSH1 0xE0 SHL DUP2 MSTORE PUSH1 0x4 ADD PUSH2 0x57F SWAP3 SWAP2 SWAP1 PUSH2 0x1102 JUMP JUMPDEST PUSH1 0x20 PUSH1 0x40 MLOAD DUP1 DUP4 SUB DUP2 PUSH1 0x0 DUP8 GAS CALL ISZERO DUP1 ISZERO PUSH2 0x59E JUMPI RETURNDATASIZE PUSH1 0x0 DUP1 RETURNDATACOPY RETURNDATASIZE PUSH1 0x0 REVERT JUMPDEST POP POP POP POP PUSH1 0x40 MLOAD RETURNDATASIZE PUSH1 0x1F NOT PUSH1 0x1F DUP3 ADD AND DUP3 ADD DUP1 PUSH1 0x40 MSTORE POP DUP2 ADD SWAP1 PUSH2 0x5C2 SWAP2 SWAP1 PUSH2 0x1163 JUMP JUMPDEST PUSH2 0x601 JUMPI PUSH1 0x40 MLOAD PUSH32 0x8C379A000000000000000000000000000000000000000000000000000000000 DUP2 MSTORE PUSH1 0x4 ADD PUSH2 0x5F8 SWAP1 PUSH2 0x11DC JUMP JUMPDEST PUSH1 0x40 MLOAD DUP1 SWAP2 SUB SWAP1 REVERT JUMPDEST PUSH1 0x3 PUSH1 0x0 DUP8 PUSH20 0xFFFFFFFFFFFFFFFFFFFFFFFFFFFFFFFFFFFFFFFF AND PUSH20 0xFFFFFFFFFFFFFFFFFFFFFFFFFFFFFFFFFFFFFFFF AND DUP2 MSTORE PUSH1 0x20 ADD SWAP1 DUP2 MSTORE PUSH1 0x20 ADD PUSH1 0x0 KECCAK256 PUSH1 0x0 ADD PUSH1 0x0 SWAP1 SLOAD SWAP1 PUSH2 0x100 EXP SWAP1 DIV PUSH20 0xFFFFFFFFFFFFFFFFFFFFFFFFFFFFFFFFFFFFFFFF AND PUSH20 0xFFFFFFFFFFFFFFFFFFFFFFFFFFFFFFFFFFFFFFFF AND PUSH4 0x23B872DD DUP8 ADDRESS DUP9 PUSH1 0x40 MLOAD DUP5 PUSH4 0xFFFFFFFF AND PUSH1 0xE0 SHL DUP2 MSTORE PUSH1 0x4 ADD PUSH2 0x6A0 SWAP4 SWAP3 SWAP2 SWAP1 PUSH2 0x11FC JUMP JUMPDEST PUSH1 0x20 PUSH1 0x40 MLOAD DUP1 DUP4 SUB DUP2 PUSH1 0x0 DUP8 GAS CALL ISZERO DUP1 ISZERO PUSH2 0x6BF JUMPI RETURNDATASIZE PUSH1 0x0 DUP1 RETURNDATACOPY RETURNDATASIZE PUSH1 0x0 REVERT JUMPDEST POP POP POP POP PUSH1 0x40 MLOAD RETURNDATASIZE PUSH1 0x1F NOT PUSH1 0x1F DUP3 ADD AND DUP3 ADD DUP1 PUSH1 0x40 MSTORE POP DUP2 ADD SWAP1 PUSH2 0x6E3 SWAP2 SWAP1 PUSH2 0x1163 JUMP JUMPDEST POP PUSH32 0x5B2C363C4205D12F22A6DC6A35136117F80F8CD6897D7A05E7E2987883B05004 DUP7 ADDRESS DUP8 PUSH1 0x40 MLOAD PUSH2 0x717 SWAP4 SWAP3 SWAP2 SWAP1 PUSH2 0x11FC JUMP JUMPDEST PUSH1 0x40 MLOAD DUP1 SWAP2 SUB SWAP1 LOG1 POP POP POP POP POP POP POP JUMP JUMPDEST PUSH1 0x2 PUSH1 0x20 MSTORE DUP1 PUSH1 0x0 MSTORE PUSH1 0x40 PUSH1 0x0 KECCAK256 PUSH1 0x0 SWAP2 POP SWAP1 POP SLOAD DUP2 JUMP JUMPDEST CALLER PUSH20 0xFFFFFFFFFFFFFFFFFFFFFFFFFFFFFFFFFFFFFFFF AND DUP3 PUSH20 0xFFFFFFFFFFFFFFFFFFFFFFFFFFFFFFFFFFFFFFFF AND EQ PUSH2 0x7AE JUMPI PUSH1 0x40 MLOAD PUSH32 0x8C379A000000000000000000000000000000000000000000000000000000000 DUP2 MSTORE PUSH1 0x4 ADD PUSH2 0x7A5 SWAP1 PUSH2 0x127F JUMP JUMPDEST PUSH1 0x40 MLOAD DUP1 SWAP2 SUB SWAP1 REVERT JUMPDEST PUSH1 0x0 PUSH1 0x2 PUSH1 0x0 DUP5 PUSH20 0xFFFFFFFFFFFFFFFFFFFFFFFFFFFFFFFFFFFFFFFF AND PUSH20 0xFFFFFFFFFFFFFFFFFFFFFFFFFFFFFFFFFFFFFFFF AND DUP2 MSTORE PUSH1 0x20 ADD SWAP1 DUP2 MSTORE PUSH1 0x20 ADD PUSH1 0x0 KECCAK256 SLOAD GT PUSH2 0x830 JUMPI PUSH1 0x40 MLOAD PUSH32 0x8C379A000000000000000000000000000000000000000000000000000000000 DUP2 MSTORE PUSH1 0x4 ADD PUSH2 0x827 SWAP1 PUSH2 0x12EB JUMP JUMPDEST PUSH1 0x40 MLOAD DUP1 SWAP2 SUB SWAP1 REVERT JUMPDEST DUP1 PUSH1 0x2 PUSH1 0x0 DUP5 PUSH20 0xFFFFFFFFFFFFFFFFFFFFFFFFFFFFFFFFFFFFFFFF AND PUSH20 0xFFFFFFFFFFFFFFFFFFFFFFFFFFFFFFFFFFFFFFFF AND DUP2 MSTORE PUSH1 0x20 ADD SWAP1 DUP2 MSTORE PUSH1 0x20 ADD PUSH1 0x0 KECCAK256 PUSH1 0x0 DUP3 DUP3 SLOAD PUSH2 0x87F SWAP2 SWAP1 PUSH2 0x130B JUMP JUMPDEST SWAP3 POP POP DUP2 SWAP1 SSTORE POP PUSH1 0x3 PUSH1 0x0 DUP4 PUSH20 0xFFFFFFFFFFFFFFFFFFFFFFFFFFFFFFFFFFFFFFFF AND PUSH20 0xFFFFFFFFFFFFFFFFFFFFFFFFFFFFFFFFFFFFFFFF AND DUP2 MSTORE PUSH1 0x20 ADD SWAP1 DUP2 MSTORE PUSH1 0x20 ADD PUSH1 0x0 KECCAK256 PUSH1 0x0 ADD PUSH1 0x0 SWAP1 SLOAD SWAP1 PUSH2 0x100 EXP SWAP1 DIV PUSH20 0xFFFFFFFFFFFFFFFFFFFFFFFFFFFFFFFFFFFFFFFF AND PUSH20 0xFFFFFFFFFFFFFFFFFFFFFFFFFFFFFFFFFFFFFFFF AND PUSH4 0xA9059CBB DUP4 DUP4 PUSH1 0x40 MLOAD DUP4 PUSH4 0xFFFFFFFF AND PUSH1 0xE0 SHL DUP2 MSTORE PUSH1 0x4 ADD PUSH2 0x923 SWAP3 SWAP2 SWAP1 PUSH2 0x1102 JUMP JUMPDEST PUSH1 0x20 PUSH1 0x40 MLOAD DUP1 DUP4 SUB DUP2 PUSH1 0x0 DUP8 GAS CALL ISZERO DUP1 ISZERO PUSH2 0x942 JUMPI RETURNDATASIZE PUSH1 0x0 DUP1 RETURNDATACOPY RETURNDATASIZE PUSH1 0x0 REVERT JUMPDEST POP POP POP POP PUSH1 0x40 MLOAD RETURNDATASIZE PUSH1 0x1F NOT PUSH1 0x1F DUP3 ADD AND DUP3 ADD DUP1 PUSH1 0x40 MSTORE POP DUP2 ADD SWAP1 PUSH2 0x966 SWAP2 SWAP1 PUSH2 0x1163 JUMP JUMPDEST POP PUSH32 0x680F2E4F4032EBF1774E8CDBADDCB1B617A5A606411C8CA96257ADA338D3833C DUP3 DUP3 PUSH1 0x40 MLOAD PUSH2 0x998 SWAP3 SWAP2 SWAP1 PUSH2 0x1102 JUMP JUMPDEST PUSH1 0x40 MLOAD DUP1 SWAP2 SUB SWAP1 LOG1 POP POP JUMP JUMPDEST PUSH1 0x3 PUSH1 0x20 MSTORE DUP1 PUSH1 0x0 MSTORE PUSH1 0x40 PUSH1 0x0 KECCAK256 PUSH1 0x0 SWAP2 POP SWAP1 POP DUP1 PUSH1 0x0 ADD PUSH1 0x0 SWAP1 SLOAD SWAP1 PUSH2 0x100 EXP SWAP1 DIV PUSH20 0xFFFFFFFFFFFFFFFFFFFFFFFFFFFFFFFFFFFFFFFF AND SWAP1 DUP1 PUSH1 0x1 ADD SLOAD SWAP1 DUP1 PUSH1 0x2 ADD SLOAD SWAP1 DUP1 PUSH1 0x3 ADD SLOAD SWAP1 DUP1 PUSH1 0x4 ADD SLOAD SWAP1 DUP1 PUSH1 0x5 ADD SLOAD SWAP1 DUP1 PUSH1 0x6 ADD SLOAD SWAP1 DUP1 PUSH1 0x7 ADD SLOAD SWAP1 DUP1 PUSH1 0x8 ADD SLOAD SWAP1 POP DUP10 JUMP JUMPDEST PUSH1 0x0 DUP1 PUSH1 0x3 PUSH1 0x0 DUP5 PUSH20 0xFFFFFFFFFFFFFFFFFFFFFFFFFFFFFFFFFFFFFFFF AND PUSH20 0xFFFFFFFFFFFFFFFFFFFFFFFFFFFFFFFFFFFFFFFF AND DUP2 MSTORE PUSH1 0x20 ADD SWAP1 DUP2 MSTORE PUSH1 0x20 ADD PUSH1 0x0 KECCAK256 SWAP1 POP TIMESTAMP DUP2 PUSH1 0x4 ADD SLOAD DUP3 PUSH1 0x1 ADD SLOAD PUSH2 0xA6B SWAP2 SWAP1 PUSH2 0x1062 JUMP JUMPDEST GT ISZERO PUSH2 0xAAC JUMPI PUSH1 0x40 MLOAD PUSH32 0x8C379A000000000000000000000000000000000000000000000000000000000 DUP2 MSTORE PUSH1 0x4 ADD PUSH2 0xAA3 SWAP1 PUSH2 0x138B JUMP JUMPDEST PUSH1 0x40 MLOAD DUP1 SWAP2 SUB SWAP1 REVERT JUMPDEST PUSH1 0x0 DUP2 PUSH1 0x4 ADD SLOAD DUP3 PUSH1 0x3 ADD SLOAD PUSH2 0xAC2 SWAP2 SWAP1 PUSH2 0x13DA JUMP JUMPDEST SWAP1 POP PUSH1 0x0 DUP2 DUP4 PUSH1 0x5 ADD SLOAD PUSH2 0xAD6 SWAP2 SWAP1 PUSH2 0x13DA JUMP JUMPDEST SWAP1 POP PUSH1 0x0 TIMESTAMP SWAP1 POP DUP4 PUSH1 0x3 ADD SLOAD DUP5 PUSH1 0x1 ADD SLOAD PUSH2 0xAF1 SWAP2 SWAP1 PUSH2 0x1062 JUMP JUMPDEST DUP2 LT PUSH2 0xB0E JUMPI DUP4 PUSH1 0x3 ADD SLOAD DUP5 PUSH1 0x1 ADD SLOAD PUSH2 0xB0B SWAP2 SWAP1 PUSH2 0x1062 JUMP JUMPDEST SWAP1 POP JUMPDEST DUP4 PUSH1 0x1 ADD SLOAD DUP2 PUSH2 0xB1E SWAP2 SWAP1 PUSH2 0x130B JUMP JUMPDEST DUP5 PUSH1 0x8 ADD DUP2 SWAP1 SSTORE POP PUSH1 0x0 DUP5 PUSH1 0x4 ADD SLOAD DUP6 PUSH1 0x8 ADD SLOAD PUSH2 0xB3C SWAP2 SWAP1 PUSH2 0x13DA JUMP JUMPDEST SWAP1 POP DUP5 PUSH1 0x6 ADD SLOAD DUP4 DUP3 PUSH2 0xB4F SWAP2 SWAP1 PUSH2 0x140B JUMP JUMPDEST PUSH2 0xB59 SWAP2 SWAP1 PUSH2 0x130B JUMP JUMPDEST DUP6 PUSH1 0x7 ADD DUP2 SWAP1 SSTORE POP DUP5 PUSH1 0x7 ADD SLOAD DUP6 PUSH1 0x6 ADD PUSH1 0x0 DUP3 DUP3 SLOAD PUSH2 0xB79 SWAP2 SWAP1 PUSH2 0x1062 JUMP JUMPDEST SWAP3 POP POP DUP2 SWAP1 SSTORE POP DUP4 DUP2 LT PUSH2 0xBB6 JUMPI DUP5 PUSH1 0x6 ADD SLOAD DUP6 PUSH1 0x5 ADD SLOAD PUSH2 0xB9B SWAP2 SWAP1 PUSH2 0x130B JUMP JUMPDEST DUP6 PUSH1 0x7 ADD PUSH1 0x0 DUP3 DUP3 SLOAD PUSH2 0xBAE SWAP2 SWAP1 PUSH2 0x1062 JUMP JUMPDEST SWAP3 POP POP DUP2 SWAP1 SSTORE POP JUMPDEST DUP5 PUSH1 0x7 ADD SLOAD PUSH1 0x1 PUSH1 0x0 DUP10 PUSH20 0xFFFFFFFFFFFFFFFFFFFFFFFFFFFFFFFFFFFFFFFF AND PUSH20 0xFFFFFFFFFFFFFFFFFFFFFFFFFFFFFFFFFFFFFFFF AND DUP2 MSTORE PUSH1 0x20 ADD SWAP1 DUP2 MSTORE PUSH1 0x20 ADD PUSH1 0x0 KECCAK256 DUP2 SWAP1 SSTORE POP PUSH32 0xF91178D1BE119AF5729BCBBCEEC49BBC2BB69207997394E7C9BE1CF3F1CA9CA0 DUP8 DUP7 PUSH1 0x7 ADD SLOAD PUSH1 0x40 MLOAD PUSH2 0xC33 SWAP3 SWAP2 SWAP1 PUSH2 0x1102 JUMP JUMPDEST PUSH1 0x40 MLOAD DUP1 SWAP2 SUB SWAP1 LOG1 DUP5 PUSH1 0x7 ADD SLOAD SWAP6 POP POP POP POP POP POP SWAP2 SWAP1 POP JUMP JUMPDEST PUSH1 0x0 DUP1 REVERT JUMPDEST PUSH1 0x0 PUSH20 0xFFFFFFFFFFFFFFFFFFFFFFFFFFFFFFFFFFFFFFFF DUP3 AND SWAP1 POP SWAP2 SWAP1 POP JUMP JUMPDEST PUSH1 0x0 PUSH2 0xC7C DUP3 PUSH2 0xC51 JUMP JUMPDEST SWAP1 POP SWAP2 SWAP1 POP JUMP JUMPDEST PUSH2 0xC8C DUP2 PUSH2 0xC71 JUMP JUMPDEST DUP2 EQ PUSH2 0xC97 JUMPI PUSH1 0x0 DUP1 REVERT JUMPDEST POP JUMP JUMPDEST PUSH1 0x0 DUP2 CALLDATALOAD SWAP1 POP PUSH2 0xCA9 DUP2 PUSH2 0xC83 JUMP JUMPDEST SWAP3 SWAP2 POP POP JUMP JUMPDEST PUSH1 0x0 DUP1 PUSH1 0x40 DUP4 DUP6 SUB SLT ISZERO PUSH2 0xCC6 JUMPI PUSH2 0xCC5 PUSH2 0xC4C JUMP JUMPDEST JUMPDEST PUSH1 0x0 PUSH2 0xCD4 DUP6 DUP3 DUP7 ADD PUSH2 0xC9A JUMP JUMPDEST SWAP3 POP POP PUSH1 0x20 PUSH2 0xCE5 DUP6 DUP3 DUP7 ADD PUSH2 0xC9A JUMP JUMPDEST SWAP2 POP POP SWAP3 POP SWAP3 SWAP1 POP JUMP JUMPDEST PUSH1 0x0 DUP2 SWAP1 POP SWAP2 SWAP1 POP JUMP JUMPDEST PUSH2 0xD02 DUP2 PUSH2 0xCEF JUMP JUMPDEST DUP3 MSTORE POP POP JUMP JUMPDEST PUSH1 0x0 PUSH1 0x20 DUP3 ADD SWAP1 POP PUSH2 0xD1D PUSH1 0x0 DUP4 ADD DUP5 PUSH2 0xCF9 JUMP JUMPDEST SWAP3 SWAP2 POP POP JUMP JUMPDEST PUSH1 0x0 PUSH1 0x20 DUP3 DUP5 SUB SLT ISZERO PUSH2 0xD39 JUMPI PUSH2 0xD38 PUSH2 0xC4C JUMP JUMPDEST JUMPDEST PUSH1 0x0 PUSH2 0xD47 DUP5 DUP3 DUP6 ADD PUSH2 0xC9A JUMP JUMPDEST SWAP2 POP POP SWAP3 SWAP2 POP POP JUMP JUMPDEST PUSH2 0xD59 DUP2 PUSH2 0xCEF JUMP JUMPDEST DUP2 EQ PUSH2 0xD64 JUMPI PUSH1 0x0 DUP1 REVERT JUMPDEST POP JUMP JUMPDEST PUSH1 0x0 DUP2 CALLDATALOAD SWAP1 POP PUSH2 0xD76 DUP2 PUSH2 0xD50 JUMP JUMPDEST SWAP3 SWAP2 POP POP JUMP JUMPDEST PUSH1 0x0 DUP1 PUSH1 0x0 DUP1 PUSH1 0x0 DUP1 PUSH1 0x0 PUSH1 0xE0 DUP9 DUP11 SUB SLT ISZERO PUSH2 0xD9B JUMPI PUSH2 0xD9A PUSH2 0xC4C JUMP JUMPDEST JUMPDEST PUSH1 0x0 PUSH2 0xDA9 DUP11 DUP3 DUP12 ADD PUSH2 0xC9A JUMP JUMPDEST SWAP8 POP POP PUSH1 0x20 PUSH2 0xDBA DUP11 DUP3 DUP12 ADD PUSH2 0xC9A JUMP JUMPDEST SWAP7 POP POP PUSH1 0x40 PUSH2 0xDCB DUP11 DUP3 DUP12 ADD PUSH2 0xD67 JUMP JUMPDEST SWAP6 POP POP PUSH1 0x60 PUSH2 0xDDC DUP11 DUP3 DUP12 ADD PUSH2 0xD67 JUMP JUMPDEST SWAP5 POP POP PUSH1 0x80 PUSH2 0xDED DUP11 DUP3 DUP12 ADD PUSH2 0xD67 JUMP JUMPDEST SWAP4 POP POP PUSH1 0xA0 PUSH2 0xDFE DUP11 DUP3 DUP12 ADD PUSH2 0xD67 JUMP JUMPDEST SWAP3 POP POP PUSH1 0xC0 PUSH2 0xE0F DUP11 DUP3 DUP12 ADD PUSH2 0xD67 JUMP JUMPDEST SWAP2 POP POP SWAP3 SWAP6 SWAP9 SWAP2 SWAP5 SWAP8 POP SWAP3 SWAP6 POP JUMP JUMPDEST PUSH1 0x0 DUP1 PUSH1 0x40 DUP4 DUP6 SUB SLT ISZERO PUSH2 0xE35 JUMPI PUSH2 0xE34 PUSH2 0xC4C JUMP JUMPDEST JUMPDEST PUSH1 0x0 PUSH2 0xE43 DUP6 DUP3 DUP7 ADD PUSH2 0xC9A JUMP JUMPDEST SWAP3 POP POP PUSH1 0x20 PUSH2 0xE54 DUP6 DUP3 DUP7 ADD PUSH2 0xD67 JUMP JUMPDEST SWAP2 POP POP SWAP3 POP SWAP3 SWAP1 POP JUMP JUMPDEST PUSH1 0x0 DUP2 SWAP1 POP SWAP2 SWAP1 POP JUMP JUMPDEST PUSH1 0x0 PUSH2 0xE83 PUSH2 0xE7E PUSH2 0xE79 DUP5 PUSH2 0xC51 JUMP JUMPDEST PUSH2 0xE5E JUMP JUMPDEST PUSH2 0xC51 JUMP JUMPDEST SWAP1 POP SWAP2 SWAP1 POP JUMP JUMPDEST PUSH1 0x0 PUSH2 0xE95 DUP3 PUSH2 0xE68 JUMP JUMPDEST SWAP1 POP SWAP2 SWAP1 POP JUMP JUMPDEST PUSH1 0x0 PUSH2 0xEA7 DUP3 PUSH2 0xE8A JUMP JUMPDEST SWAP1 POP SWAP2 SWAP1 POP JUMP JUMPDEST PUSH2 0xEB7 DUP2 PUSH2 0xE9C JUMP JUMPDEST DUP3 MSTORE POP POP JUMP JUMPDEST PUSH1 0x0 PUSH2 0x120 DUP3 ADD SWAP1 POP PUSH2 0xED3 PUSH1 0x0 DUP4 ADD DUP13 PUSH2 0xEAE JUMP JUMPDEST PUSH2 0xEE0 PUSH1 0x20 DUP4 ADD DUP12 PUSH2 0xCF9 JUMP JUMPDEST PUSH2 0xEED PUSH1 0x40 DUP4 ADD DUP11 PUSH2 0xCF9 JUMP JUMPDEST PUSH2 0xEFA PUSH1 0x60 DUP4 ADD DUP10 PUSH2 0xCF9 JUMP JUMPDEST PUSH2 0xF07 PUSH1 0x80 DUP4 ADD DUP9 PUSH2 0xCF9 JUMP JUMPDEST PUSH2 0xF14 PUSH1 0xA0 DUP4 ADD DUP8 PUSH2 0xCF9 JUMP JUMPDEST PUSH2 0xF21 PUSH1 0xC0 DUP4 ADD DUP7 PUSH2 0xCF9 JUMP JUMPDEST PUSH2 0xF2E PUSH1 0xE0 DUP4 ADD DUP6 PUSH2 0xCF9 JUMP JUMPDEST PUSH2 0xF3C PUSH2 0x100 DUP4 ADD DUP5 PUSH2 0xCF9 JUMP JUMPDEST SWAP11 SWAP10 POP POP POP POP POP POP POP POP POP POP JUMP JUMPDEST PUSH2 0xF53 DUP2 PUSH2 0xC71 JUMP JUMPDEST DUP3 MSTORE POP POP JUMP JUMPDEST PUSH1 0x0 PUSH1 0x20 DUP3 ADD SWAP1 POP PUSH2 0xF6E PUSH1 0x0 DUP4 ADD DUP5 PUSH2 0xF4A JUMP JUMPDEST SWAP3 SWAP2 POP POP JUMP JUMPDEST PUSH1 0x0 DUP2 MLOAD SWAP1 POP PUSH2 0xF83 DUP2 PUSH2 0xD50 JUMP JUMPDEST SWAP3 SWAP2 POP POP JUMP JUMPDEST PUSH1 0x0 PUSH1 0x20 DUP3 DUP5 SUB SLT ISZERO PUSH2 0xF9F JUMPI PUSH2 0xF9E PUSH2 0xC4C JUMP JUMPDEST JUMPDEST PUSH1 0x0 PUSH2 0xFAD DUP5 DUP3 DUP6 ADD PUSH2 0xF74 JUMP JUMPDEST SWAP2 POP POP SWAP3 SWAP2 POP POP JUMP JUMPDEST PUSH1 0x0 DUP3 DUP3 MSTORE PUSH1 0x20 DUP3 ADD SWAP1 POP SWAP3 SWAP2 POP POP JUMP JUMPDEST PUSH32 0x4F6E6C79204F776E65722063616E206163636573730000000000000000000000 PUSH1 0x0 DUP3 ADD MSTORE POP JUMP JUMPDEST PUSH1 0x0 PUSH2 0xFFD PUSH1 0x15 DUP4 PUSH2 0xFB6 JUMP JUMPDEST SWAP2 POP PUSH2 0x1008 DUP3 PUSH2 0xFC7 JUMP JUMPDEST PUSH1 0x20 DUP3 ADD SWAP1 POP SWAP2 SWAP1 POP JUMP JUMPDEST PUSH1 0x0 PUSH1 0x20 DUP3 ADD SWAP1 POP DUP2 DUP2 SUB PUSH1 0x0 DUP4 ADD MSTORE PUSH2 0x102C DUP2 PUSH2 0xFF0 JUMP JUMPDEST SWAP1 POP SWAP2 SWAP1 POP JUMP JUMPDEST PUSH32 0x4E487B7100000000000000000000000000000000000000000000000000000000 PUSH1 0x0 MSTORE PUSH1 0x11 PUSH1 0x4 MSTORE PUSH1 0x24 PUSH1 0x0 REVERT JUMPDEST PUSH1 0x0 PUSH2 0x106D DUP3 PUSH2 0xCEF JUMP JUMPDEST SWAP2 POP PUSH2 0x1078 DUP4 PUSH2 0xCEF JUMP JUMPDEST SWAP3 POP DUP3 DUP3 ADD SWAP1 POP DUP1 DUP3 GT ISZERO PUSH2 0x1090 JUMPI PUSH2 0x108F PUSH2 0x1033 JUMP JUMPDEST JUMPDEST SWAP3 SWAP2 POP POP JUMP JUMPDEST PUSH32 0x41646420736F6D6520746F6B656E730000000000000000000000000000000000 PUSH1 0x0 DUP3 ADD MSTORE POP JUMP JUMPDEST PUSH1 0x0 PUSH2 0x10CC PUSH1 0xF DUP4 PUSH2 0xFB6 JUMP JUMPDEST SWAP2 POP PUSH2 0x10D7 DUP3 PUSH2 0x1096 JUMP JUMPDEST PUSH1 0x20 DUP3 ADD SWAP1 POP SWAP2 SWAP1 POP JUMP JUMPDEST PUSH1 0x0 PUSH1 0x20 DUP3 ADD SWAP1 POP DUP2 DUP2 SUB PUSH1 0x0 DUP4 ADD MSTORE PUSH2 0x10FB DUP2 PUSH2 0x10BF JUMP JUMPDEST SWAP1 POP SWAP2 SWAP1 POP JUMP JUMPDEST PUSH1 0x0 PUSH1 0x40 DUP3 ADD SWAP1 POP PUSH2 0x1117 PUSH1 0x0 DUP4 ADD DUP6 PUSH2 0xF4A JUMP JUMPDEST PUSH2 0x1124 PUSH1 0x20 DUP4 ADD DUP5 PUSH2 0xCF9 JUMP JUMPDEST SWAP4 SWAP3 POP POP POP JUMP JUMPDEST PUSH1 0x0 DUP2 ISZERO ISZERO SWAP1 POP SWAP2 SWAP1 POP JUMP JUMPDEST PUSH2 0x1140 DUP2 PUSH2 0x112B JUMP JUMPDEST DUP2 EQ PUSH2 0x114B JUMPI PUSH1 0x0 DUP1 REVERT JUMPDEST POP JUMP JUMPDEST PUSH1 0x0 DUP2 MLOAD SWAP1 POP PUSH2 0x115D DUP2 PUSH2 0x1137 JUMP JUMPDEST SWAP3 SWAP2 POP POP JUMP JUMPDEST PUSH1 0x0 PUSH1 0x20 DUP3 DUP5 SUB SLT ISZERO PUSH2 0x1179 JUMPI PUSH2 0x1178 PUSH2 0xC4C JUMP JUMPDEST JUMPDEST PUSH1 0x0 PUSH2 0x1187 DUP5 DUP3 DUP6 ADD PUSH2 0x114E JUMP JUMPDEST SWAP2 POP POP SWAP3 SWAP2 POP POP JUMP JUMPDEST PUSH32 0x417070726F76616C206661696C65640000000000000000000000000000000000 PUSH1 0x0 DUP3 ADD MSTORE POP JUMP JUMPDEST PUSH1 0x0 PUSH2 0x11C6 PUSH1 0xF DUP4 PUSH2 0xFB6 JUMP JUMPDEST SWAP2 POP PUSH2 0x11D1 DUP3 PUSH2 0x1190 JUMP JUMPDEST PUSH1 0x20 DUP3 ADD SWAP1 POP SWAP2 SWAP1 POP JUMP JUMPDEST PUSH1 0x0 PUSH1 0x20 DUP3 ADD SWAP1 POP DUP2 DUP2 SUB PUSH1 0x0 DUP4 ADD MSTORE PUSH2 0x11F5 DUP2 PUSH2 0x11B9 JUMP JUMPDEST SWAP1 POP SWAP2 SWAP1 POP JUMP JUMPDEST PUSH1 0x0 PUSH1 0x60 DUP3 ADD SWAP1 POP PUSH2 0x1211 PUSH1 0x0 DUP4 ADD DUP7 PUSH2 0xF4A JUMP JUMPDEST PUSH2 0x121E PUSH1 0x20 DUP4 ADD DUP6 PUSH2 0xF4A JUMP JUMPDEST PUSH2 0x122B PUSH1 0x40 DUP4 ADD DUP5 PUSH2 0xCF9 JUMP JUMPDEST SWAP5 SWAP4 POP POP POP POP JUMP JUMPDEST PUSH32 0x4F6E6C792062656E696669636961722063616E20776974686472617700000000 PUSH1 0x0 DUP3 ADD MSTORE POP JUMP JUMPDEST PUSH1 0x0 PUSH2 0x1269 PUSH1 0x1C DUP4 PUSH2 0xFB6 JUMP JUMPDEST SWAP2 POP PUSH2 0x1274 DUP3 PUSH2 0x1233 JUMP JUMPDEST PUSH1 0x20 DUP3 ADD SWAP1 POP SWAP2 SWAP1 POP JUMP JUMPDEST PUSH1 0x0 PUSH1 0x20 DUP3 ADD SWAP1 POP DUP2 DUP2 SUB PUSH1 0x0 DUP4 ADD MSTORE PUSH2 0x1298 DUP2 PUSH2 0x125C JUMP JUMPDEST SWAP1 POP SWAP2 SWAP1 POP JUMP JUMPDEST PUSH32 0x4E6F20616D6F756E7420746F2062652077697468647261776E00000000000000 PUSH1 0x0 DUP3 ADD MSTORE POP JUMP JUMPDEST PUSH1 0x0 PUSH2 0x12D5 PUSH1 0x19 DUP4 PUSH2 0xFB6 JUMP JUMPDEST SWAP2 POP PUSH2 0x12E0 DUP3 PUSH2 0x129F JUMP JUMPDEST PUSH1 0x20 DUP3 ADD SWAP1 POP SWAP2 SWAP1 POP JUMP JUMPDEST PUSH1 0x0 PUSH1 0x20 DUP3 ADD SWAP1 POP DUP2 DUP2 SUB PUSH1 0x0 DUP4 ADD MSTORE PUSH2 0x1304 DUP2 PUSH2 0x12C8 JUMP JUMPDEST SWAP1 POP SWAP2 SWAP1 POP JUMP JUMPDEST PUSH1 0x0 PUSH2 0x1316 DUP3 PUSH2 0xCEF JUMP JUMPDEST SWAP2 POP PUSH2 0x1321 DUP4 PUSH2 0xCEF JUMP JUMPDEST SWAP3 POP DUP3 DUP3 SUB SWAP1 POP DUP2 DUP2 GT ISZERO PUSH2 0x1339 JUMPI PUSH2 0x1338 PUSH2 0x1033 JUMP JUMPDEST JUMPDEST SWAP3 SWAP2 POP POP JUMP JUMPDEST PUSH32 0x4E6F20546F6B656E207665737465642079657400000000000000000000000000 PUSH1 0x0 DUP3 ADD MSTORE POP JUMP JUMPDEST PUSH1 0x0 PUSH2 0x1375 PUSH1 0x13 DUP4 PUSH2 0xFB6 JUMP JUMPDEST SWAP2 POP PUSH2 0x1380 DUP3 PUSH2 0x133F JUMP JUMPDEST PUSH1 0x20 DUP3 ADD SWAP1 POP SWAP2 SWAP1 POP JUMP JUMPDEST PUSH1 0x0 PUSH1 0x20 DUP3 ADD SWAP1 POP DUP2 DUP2 SUB PUSH1 0x0 DUP4 ADD MSTORE PUSH2 0x13A4 DUP2 PUSH2 0x1368 JUMP JUMPDEST SWAP1 POP SWAP2 SWAP1 POP JUMP JUMPDEST PUSH32 0x4E487B7100000000000000000000000000000000000000000000000000000000 PUSH1 0x0 MSTORE PUSH1 0x12 PUSH1 0x4 MSTORE PUSH1 0x24 PUSH1 0x0 REVERT JUMPDEST PUSH1 0x0 PUSH2 0x13E5 DUP3 PUSH2 0xCEF JUMP JUMPDEST SWAP2 POP PUSH2 0x13F0 DUP4 PUSH2 0xCEF JUMP JUMPDEST SWAP3 POP DUP3 PUSH2 0x1400 JUMPI PUSH2 0x13FF PUSH2 0x13AB JUMP JUMPDEST JUMPDEST DUP3 DUP3 DIV SWAP1 POP SWAP3 SWAP2 POP POP JUMP JUMPDEST PUSH1 0x0 PUSH2 0x1416 DUP3 PUSH2 0xCEF JUMP JUMPDEST SWAP2 POP PUSH2 0x1421 DUP4 PUSH2 0xCEF JUMP JUMPDEST SWAP3 POP DUP3 DUP3 MUL PUSH2 0x142F DUP2 PUSH2 0xCEF JUMP JUMPDEST SWAP2 POP DUP3 DUP3 DIV DUP5 EQ DUP4 ISZERO OR PUSH2 0x1446 JUMPI PUSH2 0x1445 PUSH2 0x1033 JUMP JUMPDEST JUMPDEST POP SWAP3 SWAP2 POP POP JUMP INVALID LOG2 PUSH5 0x6970667358 0x22 SLT KECCAK256 0xE 0xD9 0xDA 0xAF 0xE2 DELEGATECALL 0x1E 0xDC PUSH13 0x24852E7F19828F465FA5D56866 INVALID DUP16 COINBASE 0xC6 0x4C 0xBF CALLDATASIZE SAR RETURNDATACOPY 0xA9 PUSH5 0x736F6C6343 STOP ADDMOD SLT STOP CALLER "
				},
				"gasEstimates": {
					"creation": {
						"codeDepositCost": "1050200",
						"executionCost": "25360",
						"totalCost": "1075560"
					},
					"external": {
						"addAmount(address,address,uint256,uint256,uint256,uint256,uint256)": "infinite",
						"calculateVestedAmount(address)": "infinite",
						"checkBalance(address,address)": "infinite",
						"releaseTokens(address)": "infinite",
						"vestingSchedules(address)": "infinite",
						"withdraw(address,uint256)": "infinite",
						"withdrawableAmount(address)": "2814"
					}
				},
				"methodIdentifiers": {
					"addAmount(address,address,uint256,uint256,uint256,uint256,uint256)": "bba4e631",
					"calculateVestedAmount(address)": "ffa06b2a",
					"checkBalance(address,address)": "77b76ec3",
					"releaseTokens(address)": "87b0be48",
					"vestingSchedules(address)": "fdb20ccb",
					"withdraw(address,uint256)": "f3fef3a3",
					"withdrawableAmount(address)": "be7ab51b"
				}
			},
			"storageLayout": {
				"storage": [
					{
						"astId": 82,
						"contract": "Vesting.sol:Vesting",
						"label": "owner",
						"offset": 0,
						"slot": "0",
						"type": "t_address"
					},
					{
						"astId": 86,
						"contract": "Vesting.sol:Vesting",
						"label": "vestedAmount",
						"offset": 0,
						"slot": "1",
						"type": "t_mapping(t_address,t_uint256)"
					},
					{
						"astId": 90,
						"contract": "Vesting.sol:Vesting",
						"label": "withdrawableAmount",
						"offset": 0,
						"slot": "2",
						"type": "t_mapping(t_address,t_uint256)"
					},
					{
						"astId": 95,
						"contract": "Vesting.sol:Vesting",
						"label": "vestingSchedules",
						"offset": 0,
						"slot": "3",
						"type": "t_mapping(t_address,t_struct(VestingSchedule)156_storage)"
					}
				],
				"types": {
					"t_address": {
						"encoding": "inplace",
						"label": "address",
						"numberOfBytes": "20"
					},
					"t_contract(IERC20)77": {
						"encoding": "inplace",
						"label": "contract IERC20",
						"numberOfBytes": "20"
					},
					"t_mapping(t_address,t_struct(VestingSchedule)156_storage)": {
						"encoding": "mapping",
						"key": "t_address",
						"label": "mapping(address => struct Vesting.VestingSchedule)",
						"numberOfBytes": "32",
						"value": "t_struct(VestingSchedule)156_storage"
					},
					"t_mapping(t_address,t_uint256)": {
						"encoding": "mapping",
						"key": "t_address",
						"label": "mapping(address => uint256)",
						"numberOfBytes": "32",
						"value": "t_uint256"
					},
					"t_struct(VestingSchedule)156_storage": {
						"encoding": "inplace",
						"label": "struct Vesting.VestingSchedule",
						"members": [
							{
								"astId": 139,
								"contract": "Vesting.sol:Vesting",
								"label": "_token",
								"offset": 0,
								"slot": "0",
								"type": "t_contract(IERC20)77"
							},
							{
								"astId": 141,
								"contract": "Vesting.sol:Vesting",
								"label": "_startTime",
								"offset": 0,
								"slot": "1",
								"type": "t_uint256"
							},
							{
								"astId": 143,
								"contract": "Vesting.sol:Vesting",
								"label": "_cliff",
								"offset": 0,
								"slot": "2",
								"type": "t_uint256"
							},
							{
								"astId": 145,
								"contract": "Vesting.sol:Vesting",
								"label": "_vestingPeriod",
								"offset": 0,
								"slot": "3",
								"type": "t_uint256"
							},
							{
								"astId": 147,
								"contract": "Vesting.sol:Vesting",
								"label": "_slicePeriod",
								"offset": 0,
								"slot": "4",
								"type": "t_uint256"
							},
							{
								"astId": 149,
								"contract": "Vesting.sol:Vesting",
								"label": "_totalTokens",
								"offset": 0,
								"slot": "5",
								"type": "t_uint256"
							},
							{
								"astId": 151,
								"contract": "Vesting.sol:Vesting",
								"label": "_releasedTokens",
								"offset": 0,
								"slot": "6",
								"type": "t_uint256"
							},
							{
								"astId": 153,
								"contract": "Vesting.sol:Vesting",
								"label": "_vestedTokens",
								"offset": 0,
								"slot": "7",
								"type": "t_uint256"
							},
							{
								"astId": 155,
								"contract": "Vesting.sol:Vesting",
								"label": "_elaspTime",
								"offset": 0,
								"slot": "8",
								"type": "t_uint256"
							}
						],
						"numberOfBytes": "288"
					},
					"t_uint256": {
						"encoding": "inplace",
						"label": "uint256",
						"numberOfBytes": "32"
					}
				}
			},
			"userdoc": {
				"kind": "user",
				"methods": {},
				"version": 1
			}
		}
	}
}