{
	"Vesting.sol": {
		"Vesting": {
			"abi": [
				{
					"inputs": [],
					"stateMutability": "nonpayable",
					"type": "constructor"
				},
				{
					"anonymous": false,
					"inputs": [
						{
							"indexed": false,
							"internalType": "address",
							"name": "_from",
							"type": "address"
						},
						{
							"indexed": false,
							"internalType": "address",
							"name": "_to",
							"type": "address"
						},
						{
							"indexed": false,
							"internalType": "uint256",
							"name": "totalTokens",
							"type": "uint256"
						}
					],
					"name": "DepositTokens",
					"type": "event"
				},
				{
					"anonymous": false,
					"inputs": [
						{
							"indexed": false,
							"internalType": "address",
							"name": "_benificiary",
							"type": "address"
						},
						{
							"indexed": false,
							"internalType": "uint256",
							"name": "vestedTopkens",
							"type": "uint256"
						}
					],
					"name": "VestedTokens",
					"type": "event"
				},
				{
					"anonymous": false,
					"inputs": [
						{
							"indexed": false,
							"internalType": "address",
							"name": "_to",
							"type": "address"
						},
						{
							"indexed": false,
							"internalType": "uint256",
							"name": "amount",
							"type": "uint256"
						}
					],
					"name": "WithdrawTokens",
					"type": "event"
				},
				{
					"inputs": [
						{
							"internalType": "address",
							"name": "token",
							"type": "address"
						},
						{
							"internalType": "address",
							"name": "benificiary",
							"type": "address"
						},
						{
							"internalType": "uint256",
							"name": "totalTokens",
							"type": "uint256"
						},
						{
							"internalType": "uint256",
							"name": "startTime",
							"type": "uint256"
						},
						{
							"internalType": "uint256",
							"name": "cliff",
							"type": "uint256"
						},
						{
							"internalType": "uint256",
							"name": "vestingPeriod",
							"type": "uint256"
						},
						{
							"internalType": "uint256",
							"name": "slicePeriod",
							"type": "uint256"
						}
					],
					"name": "addAmount",
					"outputs": [],
					"stateMutability": "nonpayable",
					"type": "function"
				},
				{
					"inputs": [
						{
							"internalType": "address",
							"name": "benificiary",
							"type": "address"
						},
						{
							"internalType": "uint256",
							"name": "vestingID",
							"type": "uint256"
						}
					],
					"name": "calculateVestedAmount",
					"outputs": [
						{
							"internalType": "uint256",
							"name": "",
							"type": "uint256"
						}
					],
					"stateMutability": "nonpayable",
					"type": "function"
				},
				{
					"inputs": [
						{
							"internalType": "address",
							"name": "token",
							"type": "address"
						},
						{
							"internalType": "address",
							"name": "account",
							"type": "address"
						}
					],
					"name": "checkBalance",
					"outputs": [
						{
							"internalType": "uint256",
							"name": "",
							"type": "uint256"
						}
					],
					"stateMutability": "view",
					"type": "function"
				},
				{
					"inputs": [
						{
							"internalType": "address",
							"name": "benificiary",
							"type": "address"
						},
						{
							"internalType": "uint256",
							"name": "vestingID",
							"type": "uint256"
						}
					],
					"name": "releaseTokens",
					"outputs": [
						{
							"internalType": "uint256",
							"name": "",
							"type": "uint256"
						}
					],
					"stateMutability": "nonpayable",
					"type": "function"
				},
				{
					"inputs": [
						{
							"internalType": "address",
							"name": "",
							"type": "address"
						},
						{
							"internalType": "uint256",
							"name": "",
							"type": "uint256"
						}
					],
					"name": "vestingSchedules",
					"outputs": [
						{
							"internalType": "contract IERC20",
							"name": "_token",
							"type": "address"
						},
						{
							"internalType": "uint256",
							"name": "_startTime",
							"type": "uint256"
						},
						{
							"internalType": "uint256",
							"name": "_cliff",
							"type": "uint256"
						},
						{
							"internalType": "uint256",
							"name": "_vestingPeriod",
							"type": "uint256"
						},
						{
							"internalType": "uint256",
							"name": "_slicePeriod",
							"type": "uint256"
						},
						{
							"internalType": "uint256",
							"name": "_totalTokens",
							"type": "uint256"
						},
						{
							"internalType": "uint256",
							"name": "_releasedTokens",
							"type": "uint256"
						},
						{
							"internalType": "uint256",
							"name": "_vestedTokens",
							"type": "uint256"
						},
						{
							"internalType": "uint256",
							"name": "_elaspTime",
							"type": "uint256"
						},
						{
							"internalType": "uint256",
							"name": "_vestingID",
							"type": "uint256"
						}
					],
					"stateMutability": "view",
					"type": "function"
				},
				{
					"inputs": [
						{
							"internalType": "address",
							"name": "benificiary",
							"type": "address"
						},
						{
							"internalType": "uint256",
							"name": "withdrawAmount",
							"type": "uint256"
						},
						{
							"internalType": "uint256",
							"name": "vestingID",
							"type": "uint256"
						}
					],
					"name": "withdraw",
					"outputs": [],
					"stateMutability": "nonpayable",
					"type": "function"
				},
				{
					"inputs": [
						{
							"internalType": "address",
							"name": "",
							"type": "address"
						},
						{
							"internalType": "uint256",
							"name": "",
							"type": "uint256"
						}
					],
					"name": "withdrawableAmount",
					"outputs": [
						{
							"internalType": "uint256",
							"name": "",
							"type": "uint256"
						}
					],
					"stateMutability": "view",
					"type": "function"
				}
			],
			"devdoc": {
				"kind": "dev",
				"methods": {},
				"version": 1
			},
			"evm": {
				"assembly": "    /* \"Vesting.sol\":112:4331  contract Vesting {... */\n  mstore(0x40, 0x80)\n    /* \"Vesting.sol\":600:649  constructor() {... */\n  callvalue\n  dup1\n  iszero\n  tag_1\n  jumpi\n  0x00\n  dup1\n  revert\ntag_1:\n  pop\n    /* \"Vesting.sol\":632:642  msg.sender */\n  caller\n    /* \"Vesting.sol\":624:629  owner */\n  0x00\n  dup1\n    /* \"Vesting.sol\":624:642  owner = msg.sender */\n  0x0100\n  exp\n  dup2\n  sload\n  dup2\n  0xffffffffffffffffffffffffffffffffffffffff\n  mul\n  not\n  and\n  swap1\n  dup4\n  0xffffffffffffffffffffffffffffffffffffffff\n  and\n  mul\n  or\n  swap1\n  sstore\n  pop\n    /* \"Vesting.sol\":112:4331  contract Vesting {... */\n  dataSize(sub_0)\n  dup1\n  dataOffset(sub_0)\n  0x00\n  codecopy\n  0x00\n  return\nstop\n\nsub_0: assembly {\n        /* \"Vesting.sol\":112:4331  contract Vesting {... */\n      mstore(0x40, 0x80)\n      callvalue\n      dup1\n      iszero\n      tag_1\n      jumpi\n      0x00\n      dup1\n      revert\n    tag_1:\n      pop\n      jumpi(tag_2, lt(calldatasize, 0x04))\n      shr(0xe0, calldataload(0x00))\n      dup1\n      0x8ce4081a\n      gt\n      tag_10\n      jumpi\n      dup1\n      0x8ce4081a\n      eq\n      tag_6\n      jumpi\n      dup1\n      0xb5c5f672\n      eq\n      tag_7\n      jumpi\n      dup1\n      0xbba4e631\n      eq\n      tag_8\n      jumpi\n      dup1\n      0xf40d71f1\n      eq\n      tag_9\n      jumpi\n      jump(tag_2)\n    tag_10:\n      dup1\n      0x45626bd6\n      eq\n      tag_3\n      jumpi\n      dup1\n      0x4dc12d7f\n      eq\n      tag_4\n      jumpi\n      dup1\n      0x77b76ec3\n      eq\n      tag_5\n      jumpi\n    tag_2:\n      0x00\n      dup1\n      revert\n        /* \"Vesting.sol\":274:352  mapping(address => mapping(uint256=> VestingSchedule)) public vestingSchedules */\n    tag_3:\n      tag_11\n      0x04\n      dup1\n      calldatasize\n      sub\n      dup2\n      add\n      swap1\n      tag_12\n      swap2\n      swap1\n      tag_13\n      jump\t// in\n    tag_12:\n      tag_14\n      jump\t// in\n    tag_11:\n      mload(0x40)\n      tag_15\n      swap11\n      swap10\n      swap9\n      swap8\n      swap7\n      swap6\n      swap5\n      swap4\n      swap3\n      swap2\n      swap1\n      tag_16\n      jump\t// in\n    tag_15:\n      mload(0x40)\n      dup1\n      swap2\n      sub\n      swap1\n      return\n        /* \"Vesting.sol\":198:268  mapping(address=>mapping(uint256=> uint256)) public withdrawableAmount */\n    tag_4:\n      tag_17\n      0x04\n      dup1\n      calldatasize\n      sub\n      dup2\n      add\n      swap1\n      tag_18\n      swap2\n      swap1\n      tag_13\n      jump\t// in\n    tag_18:\n      tag_19\n      jump\t// in\n    tag_17:\n      mload(0x40)\n      tag_20\n      swap2\n      swap1\n      tag_21\n      jump\t// in\n    tag_20:\n      mload(0x40)\n      dup1\n      swap2\n      sub\n      swap1\n      return\n        /* \"Vesting.sol\":2111:2248  function checkBalance(address token,address account) view public returns(uint256){... */\n    tag_5:\n      tag_22\n      0x04\n      dup1\n      calldatasize\n      sub\n      dup2\n      add\n      swap1\n      tag_23\n      swap2\n      swap1\n      tag_24\n      jump\t// in\n    tag_23:\n      tag_25\n      jump\t// in\n    tag_22:\n      mload(0x40)\n      tag_26\n      swap2\n      swap1\n      tag_21\n      jump\t// in\n    tag_26:\n      mload(0x40)\n      dup1\n      swap2\n      sub\n      swap1\n      return\n        /* \"Vesting.sol\":2520:3830  function calculateVestedAmount(address benificiary,uint256 vestingID) public returns(uint256) {... */\n    tag_6:\n      tag_27\n      0x04\n      dup1\n      calldatasize\n      sub\n      dup2\n      add\n      swap1\n      tag_28\n      swap2\n      swap1\n      tag_13\n      jump\t// in\n    tag_28:\n      tag_29\n      jump\t// in\n    tag_27:\n      mload(0x40)\n      tag_30\n      swap2\n      swap1\n      tag_21\n      jump\t// in\n    tag_30:\n      mload(0x40)\n      dup1\n      swap2\n      sub\n      swap1\n      return\n        /* \"Vesting.sol\":3836:4329  function withdraw(address benificiary,uint256 withdrawAmount,uint256 vestingID ) public {... */\n    tag_7:\n      tag_31\n      0x04\n      dup1\n      calldatasize\n      sub\n      dup2\n      add\n      swap1\n      tag_32\n      swap2\n      swap1\n      tag_33\n      jump\t// in\n    tag_32:\n      tag_34\n      jump\t// in\n    tag_31:\n      stop\n        /* \"Vesting.sol\":1088:2104  function addAmount(address token,address benificiary,uint256 totalTokens, uint256 startTime,uint256 cliff,uint256 vestingPeriod,uint256 slicePeriod) public {... */\n    tag_8:\n      tag_35\n      0x04\n      dup1\n      calldatasize\n      sub\n      dup2\n      add\n      swap1\n      tag_36\n      swap2\n      swap1\n      tag_37\n      jump\t// in\n    tag_36:\n      tag_38\n      jump\t// in\n    tag_35:\n      stop\n        /* \"Vesting.sol\":2254:2514  function releaseTokens(address benificiary,uint256 vestingID) public onlyOwner returns(uint256) {... */\n    tag_9:\n      tag_39\n      0x04\n      dup1\n      calldatasize\n      sub\n      dup2\n      add\n      swap1\n      tag_40\n      swap2\n      swap1\n      tag_13\n      jump\t// in\n    tag_40:\n      tag_41\n      jump\t// in\n    tag_39:\n      mload(0x40)\n      tag_42\n      swap2\n      swap1\n      tag_21\n      jump\t// in\n    tag_42:\n      mload(0x40)\n      dup1\n      swap2\n      sub\n      swap1\n      return\n        /* \"Vesting.sol\":274:352  mapping(address => mapping(uint256=> VestingSchedule)) public vestingSchedules */\n    tag_14:\n      mstore(0x20, 0x03)\n      dup2\n      0x00\n      mstore\n      mstore(0x20, keccak256(0x00, 0x40))\n      dup1\n      0x00\n      mstore\n      keccak256(0x00, 0x40)\n      0x00\n      swap2\n      pop\n      swap2\n      pop\n      pop\n      dup1\n      0x00\n      add\n      0x00\n      swap1\n      sload\n      swap1\n      0x0100\n      exp\n      swap1\n      div\n      0xffffffffffffffffffffffffffffffffffffffff\n      and\n      swap1\n      dup1\n      0x01\n      add\n      sload\n      swap1\n      dup1\n      0x02\n      add\n      sload\n      swap1\n      dup1\n      0x03\n      add\n      sload\n      swap1\n      dup1\n      0x04\n      add\n      sload\n      swap1\n      dup1\n      0x05\n      add\n      sload\n      swap1\n      dup1\n      0x06\n      add\n      sload\n      swap1\n      dup1\n      0x07\n      add\n      sload\n      swap1\n      dup1\n      0x08\n      add\n      sload\n      swap1\n      dup1\n      0x09\n      add\n      sload\n      swap1\n      pop\n      dup11\n      jump\t// out\n        /* \"Vesting.sol\":198:268  mapping(address=>mapping(uint256=> uint256)) public withdrawableAmount */\n    tag_19:\n      mstore(0x20, 0x02)\n      dup2\n      0x00\n      mstore\n      mstore(0x20, keccak256(0x00, 0x40))\n      dup1\n      0x00\n      mstore\n      keccak256(0x00, 0x40)\n      0x00\n      swap2\n      pop\n      swap2\n      pop\n      pop\n      sload\n      dup2\n      jump\t// out\n        /* \"Vesting.sol\":2111:2248  function checkBalance(address token,address account) view public returns(uint256){... */\n    tag_25:\n        /* \"Vesting.sol\":2184:2191  uint256 */\n      0x00\n        /* \"Vesting.sol\":2216:2221  token */\n      dup3\n        /* \"Vesting.sol\":2209:2232  IERC20(token).balanceOf */\n      0xffffffffffffffffffffffffffffffffffffffff\n      and\n      0x70a08231\n        /* \"Vesting.sol\":2233:2240  account */\n      dup4\n        /* \"Vesting.sol\":2209:2241  IERC20(token).balanceOf(account) */\n      mload(0x40)\n      dup3\n      0xffffffff\n      and\n      0xe0\n      shl\n      dup2\n      mstore\n      0x04\n      add\n      tag_44\n      swap2\n      swap1\n      tag_45\n      jump\t// in\n    tag_44:\n      0x20\n      mload(0x40)\n      dup1\n      dup4\n      sub\n      dup2\n      dup7\n      gas\n      staticcall\n      iszero\n      dup1\n      iszero\n      tag_47\n      jumpi\n      returndatasize\n      0x00\n      dup1\n      returndatacopy\n      revert(0x00, returndatasize)\n    tag_47:\n      pop\n      pop\n      pop\n      pop\n      mload(0x40)\n      returndatasize\n      not(0x1f)\n      0x1f\n      dup3\n      add\n      and\n      dup3\n      add\n      dup1\n      0x40\n      mstore\n      pop\n      dup2\n      add\n      swap1\n      tag_48\n      swap2\n      swap1\n      tag_49\n      jump\t// in\n    tag_48:\n        /* \"Vesting.sol\":2202:2241  return IERC20(token).balanceOf(account) */\n      swap1\n      pop\n        /* \"Vesting.sol\":2111:2248  function checkBalance(address token,address account) view public returns(uint256){... */\n      swap3\n      swap2\n      pop\n      pop\n      jump\t// out\n        /* \"Vesting.sol\":2520:3830  function calculateVestedAmount(address benificiary,uint256 vestingID) public returns(uint256) {... */\n    tag_29:\n        /* \"Vesting.sol\":2605:2612  uint256 */\n      0x00\n        /* \"Vesting.sol\":2624:2656  VestingSchedule storage schedule */\n      dup1\n        /* \"Vesting.sol\":2659:2675  vestingSchedules */\n      0x03\n        /* \"Vesting.sol\":2659:2688  vestingSchedules[benificiary] */\n      0x00\n        /* \"Vesting.sol\":2676:2687  benificiary */\n      dup6\n        /* \"Vesting.sol\":2659:2688  vestingSchedules[benificiary] */\n      0xffffffffffffffffffffffffffffffffffffffff\n      and\n      0xffffffffffffffffffffffffffffffffffffffff\n      and\n      dup2\n      mstore\n      0x20\n      add\n      swap1\n      dup2\n      mstore\n      0x20\n      add\n      0x00\n      keccak256\n        /* \"Vesting.sol\":2659:2699  vestingSchedules[benificiary][vestingID] */\n      0x00\n        /* \"Vesting.sol\":2689:2698  vestingID */\n      dup5\n        /* \"Vesting.sol\":2659:2699  vestingSchedules[benificiary][vestingID] */\n      dup2\n      mstore\n      0x20\n      add\n      swap1\n      dup2\n      mstore\n      0x20\n      add\n      0x00\n      keccak256\n        /* \"Vesting.sol\":2624:2699  VestingSchedule storage schedule = vestingSchedules[benificiary][vestingID] */\n      swap1\n      pop\n        /* \"Vesting.sol\":2763:2778  block.timestamp */\n      timestamp\n        /* \"Vesting.sol\":2738:2746  schedule */\n      dup2\n        /* \"Vesting.sol\":2738:2759  schedule._slicePeriod */\n      0x04\n      add\n      sload\n        /* \"Vesting.sol\":2718:2726  schedule */\n      dup3\n        /* \"Vesting.sol\":2718:2737  schedule._startTime */\n      0x01\n      add\n      sload\n        /* \"Vesting.sol\":2718:2759  schedule._startTime+schedule._slicePeriod */\n      tag_51\n      swap2\n      swap1\n      tag_52\n      jump\t// in\n    tag_51:\n        /* \"Vesting.sol\":2718:2778  schedule._startTime+schedule._slicePeriod <= block.timestamp */\n      gt\n      iszero\n        /* \"Vesting.sol\":2710:2801  require(schedule._startTime+schedule._slicePeriod <= block.timestamp,\"No Token vested yet\") */\n      tag_53\n      jumpi\n      mload(0x40)\n      0x08c379a000000000000000000000000000000000000000000000000000000000\n      dup2\n      mstore\n      0x04\n      add\n      tag_54\n      swap1\n      tag_55\n      jump\t// in\n    tag_54:\n      mload(0x40)\n      dup1\n      swap2\n      sub\n      swap1\n      revert\n    tag_53:\n        /* \"Vesting.sol\":2820:2837  uint256 intervals */\n      0x00\n        /* \"Vesting.sol\":2869:2877  schedule */\n      dup2\n        /* \"Vesting.sol\":2869:2890  schedule._slicePeriod */\n      0x04\n      add\n      sload\n        /* \"Vesting.sol\":2841:2849  schedule */\n      dup3\n        /* \"Vesting.sol\":2841:2864  schedule._vestingPeriod */\n      0x03\n      add\n      sload\n        /* \"Vesting.sol\":2840:2891  (schedule._vestingPeriod) / (schedule._slicePeriod) */\n      tag_56\n      swap2\n      swap1\n      tag_57\n      jump\t// in\n    tag_56:\n        /* \"Vesting.sol\":2820:2891  uint256 intervals = (schedule._vestingPeriod) / (schedule._slicePeriod) */\n      swap1\n      pop\n        /* \"Vesting.sol\":2901:2925  uint256 tokensInInterval */\n      0x00\n        /* \"Vesting.sol\":2951:2960  intervals */\n      dup2\n        /* \"Vesting.sol\":2928:2936  schedule */\n      dup4\n        /* \"Vesting.sol\":2928:2949  schedule._totalTokens */\n      0x05\n      add\n      sload\n        /* \"Vesting.sol\":2928:2960  schedule._totalTokens /intervals */\n      tag_58\n      swap2\n      swap1\n      tag_57\n      jump\t// in\n    tag_58:\n        /* \"Vesting.sol\":2901:2960  uint256 tokensInInterval = schedule._totalTokens /intervals */\n      swap1\n      pop\n        /* \"Vesting.sol\":2971:2990  uint256 currentTime */\n      0x00\n        /* \"Vesting.sol\":2993:3008  block.timestamp */\n      timestamp\n        /* \"Vesting.sol\":2971:3008  uint256 currentTime = block.timestamp */\n      swap1\n      pop\n        /* \"Vesting.sol\":3062:3070  schedule */\n      dup4\n        /* \"Vesting.sol\":3062:3085  schedule._vestingPeriod */\n      0x03\n      add\n      sload\n        /* \"Vesting.sol\":3040:3048  schedule */\n      dup5\n        /* \"Vesting.sol\":3040:3059  schedule._startTime */\n      0x01\n      add\n      sload\n        /* \"Vesting.sol\":3039:3086  (schedule._startTime)+(schedule._vestingPeriod) */\n      tag_59\n      swap2\n      swap1\n      tag_52\n      jump\t// in\n    tag_59:\n        /* \"Vesting.sol\":3024:3035  currentTime */\n      dup2\n        /* \"Vesting.sol\":3024:3086  currentTime >= (schedule._startTime)+(schedule._vestingPeriod) */\n      lt\n        /* \"Vesting.sol\":3021:3173  if(currentTime >= (schedule._startTime)+(schedule._vestingPeriod)){... */\n      tag_60\n      jumpi\n        /* \"Vesting.sol\":3138:3146  schedule */\n      dup4\n        /* \"Vesting.sol\":3138:3161  schedule._vestingPeriod */\n      0x03\n      add\n      sload\n        /* \"Vesting.sol\":3116:3124  schedule */\n      dup5\n        /* \"Vesting.sol\":3116:3135  schedule._startTime */\n      0x01\n      add\n      sload\n        /* \"Vesting.sol\":3115:3162  (schedule._startTime)+(schedule._vestingPeriod) */\n      tag_61\n      swap2\n      swap1\n      tag_52\n      jump\t// in\n    tag_61:\n        /* \"Vesting.sol\":3101:3162  currentTime = (schedule._startTime)+(schedule._vestingPeriod) */\n      swap1\n      pop\n        /* \"Vesting.sol\":3021:3173  if(currentTime >= (schedule._startTime)+(schedule._vestingPeriod)){... */\n    tag_60:\n        /* \"Vesting.sol\":3235:3243  schedule */\n      dup4\n        /* \"Vesting.sol\":3235:3254  schedule._startTime */\n      0x01\n      add\n      sload\n        /* \"Vesting.sol\":3221:3232  currentTime */\n      dup2\n        /* \"Vesting.sol\":3221:3254  currentTime - schedule._startTime */\n      tag_62\n      swap2\n      swap1\n      tag_63\n      jump\t// in\n    tag_62:\n        /* \"Vesting.sol\":3199:3207  schedule */\n      dup5\n        /* \"Vesting.sol\":3199:3218  schedule._elaspTime */\n      0x08\n      add\n        /* \"Vesting.sol\":3199:3254  schedule._elaspTime = currentTime - schedule._startTime */\n      dup2\n      swap1\n      sstore\n      pop\n        /* \"Vesting.sol\":3264:3287  uint256 intervalElasped */\n      0x00\n        /* \"Vesting.sol\":3311:3319  schedule */\n      dup5\n        /* \"Vesting.sol\":3311:3332  schedule._slicePeriod */\n      0x04\n      add\n      sload\n        /* \"Vesting.sol\":3290:3298  schedule */\n      dup6\n        /* \"Vesting.sol\":3290:3309  schedule._elaspTime */\n      0x08\n      add\n      sload\n        /* \"Vesting.sol\":3290:3332  schedule._elaspTime/ schedule._slicePeriod */\n      tag_64\n      swap2\n      swap1\n      tag_57\n      jump\t// in\n    tag_64:\n        /* \"Vesting.sol\":3264:3332  uint256 intervalElasped = schedule._elaspTime/ schedule._slicePeriod */\n      swap1\n      pop\n        /* \"Vesting.sol\":3413:3421  schedule */\n      dup5\n        /* \"Vesting.sol\":3413:3437  schedule._releasedTokens */\n      0x06\n      add\n      sload\n        /* \"Vesting.sol\":3395:3411  tokensInInterval */\n      dup4\n        /* \"Vesting.sol\":3377:3392  intervalElasped */\n      dup3\n        /* \"Vesting.sol\":3377:3411  intervalElasped * tokensInInterval */\n      tag_65\n      swap2\n      swap1\n      tag_66\n      jump\t// in\n    tag_65:\n        /* \"Vesting.sol\":3376:3437  (intervalElasped * tokensInInterval)-schedule._releasedTokens */\n      tag_67\n      swap2\n      swap1\n      tag_63\n      jump\t// in\n    tag_67:\n        /* \"Vesting.sol\":3351:3359  schedule */\n      dup6\n        /* \"Vesting.sol\":3351:3373  schedule._vestedTokens */\n      0x07\n      add\n        /* \"Vesting.sol\":3351:3437  schedule._vestedTokens = (intervalElasped * tokensInInterval)-schedule._releasedTokens */\n      dup2\n      swap1\n      sstore\n      pop\n        /* \"Vesting.sol\":3475:3483  schedule */\n      dup5\n        /* \"Vesting.sol\":3475:3497  schedule._vestedTokens */\n      0x07\n      add\n      sload\n        /* \"Vesting.sol\":3447:3455  schedule */\n      dup6\n        /* \"Vesting.sol\":3447:3471  schedule._releasedTokens */\n      0x06\n      add\n      0x00\n        /* \"Vesting.sol\":3447:3497  schedule._releasedTokens += schedule._vestedTokens */\n      dup3\n      dup3\n      sload\n      tag_68\n      swap2\n      swap1\n      tag_52\n      jump\t// in\n    tag_68:\n      swap3\n      pop\n      pop\n      dup2\n      swap1\n      sstore\n      pop\n        /* \"Vesting.sol\":3536:3545  intervals */\n      dup4\n        /* \"Vesting.sol\":3519:3534  intervalElasped */\n      dup2\n        /* \"Vesting.sol\":3519:3545  intervalElasped>=intervals */\n      lt\n        /* \"Vesting.sol\":3516:3645  if(intervalElasped>=intervals){... */\n      tag_69\n      jumpi\n        /* \"Vesting.sol\":3610:3618  schedule */\n      dup5\n        /* \"Vesting.sol\":3610:3634  schedule._releasedTokens */\n      0x06\n      add\n      sload\n        /* \"Vesting.sol\":3586:3594  schedule */\n      dup6\n        /* \"Vesting.sol\":3586:3607  schedule._totalTokens */\n      0x05\n      add\n      sload\n        /* \"Vesting.sol\":3586:3634  schedule._totalTokens - schedule._releasedTokens */\n      tag_70\n      swap2\n      swap1\n      tag_63\n      jump\t// in\n    tag_70:\n        /* \"Vesting.sol\":3560:3568  schedule */\n      dup6\n        /* \"Vesting.sol\":3560:3582  schedule._vestedTokens */\n      0x07\n      add\n      0x00\n        /* \"Vesting.sol\":3560:3634  schedule._vestedTokens += schedule._totalTokens - schedule._releasedTokens */\n      dup3\n      dup3\n      sload\n      tag_71\n      swap2\n      swap1\n      tag_52\n      jump\t// in\n    tag_71:\n      swap3\n      pop\n      pop\n      dup2\n      swap1\n      sstore\n      pop\n        /* \"Vesting.sol\":3516:3645  if(intervalElasped>=intervals){... */\n    tag_69:\n        /* \"Vesting.sol\":3689:3697  schedule */\n      dup5\n        /* \"Vesting.sol\":3689:3711  schedule._vestedTokens */\n      0x07\n      add\n      sload\n        /* \"Vesting.sol\":3663:3675  vestedAmount */\n      0x01\n        /* \"Vesting.sol\":3663:3688  vestedAmount[benificiary] */\n      0x00\n        /* \"Vesting.sol\":3676:3687  benificiary */\n      dup11\n        /* \"Vesting.sol\":3663:3688  vestedAmount[benificiary] */\n      0xffffffffffffffffffffffffffffffffffffffff\n      and\n      0xffffffffffffffffffffffffffffffffffffffff\n      and\n      dup2\n      mstore\n      0x20\n      add\n      swap1\n      dup2\n      mstore\n      0x20\n      add\n      0x00\n      keccak256\n        /* \"Vesting.sol\":3663:3711  vestedAmount[benificiary]=schedule._vestedTokens */\n      dup2\n      swap1\n      sstore\n      pop\n        /* \"Vesting.sol\":3736:3784  VestedTokens(benificiary,schedule._vestedTokens) */\n      0xf91178d1be119af5729bcbbceec49bbc2bb69207997394e7c9be1cf3f1ca9ca0\n        /* \"Vesting.sol\":3749:3760  benificiary */\n      dup9\n        /* \"Vesting.sol\":3761:3769  schedule */\n      dup7\n        /* \"Vesting.sol\":3761:3783  schedule._vestedTokens */\n      0x07\n      add\n      sload\n        /* \"Vesting.sol\":3736:3784  VestedTokens(benificiary,schedule._vestedTokens) */\n      mload(0x40)\n      tag_72\n      swap3\n      swap2\n      swap1\n      tag_73\n      jump\t// in\n    tag_72:\n      mload(0x40)\n      dup1\n      swap2\n      sub\n      swap1\n      log1\n        /* \"Vesting.sol\":3801:3809  schedule */\n      dup5\n        /* \"Vesting.sol\":3801:3823  schedule._vestedTokens */\n      0x07\n      add\n      sload\n        /* \"Vesting.sol\":3794:3823  return schedule._vestedTokens */\n      swap6\n      pop\n      pop\n      pop\n      pop\n      pop\n      pop\n        /* \"Vesting.sol\":2520:3830  function calculateVestedAmount(address benificiary,uint256 vestingID) public returns(uint256) {... */\n      swap3\n      swap2\n      pop\n      pop\n      jump\t// out\n        /* \"Vesting.sol\":3836:4329  function withdraw(address benificiary,uint256 withdrawAmount,uint256 vestingID ) public {... */\n    tag_34:\n        /* \"Vesting.sol\":3957:3967  msg.sender */\n      caller\n        /* \"Vesting.sol\":3942:3967  benificiary == msg.sender */\n      0xffffffffffffffffffffffffffffffffffffffff\n      and\n        /* \"Vesting.sol\":3942:3953  benificiary */\n      dup4\n        /* \"Vesting.sol\":3942:3967  benificiary == msg.sender */\n      0xffffffffffffffffffffffffffffffffffffffff\n      and\n      eq\n        /* \"Vesting.sol\":3934:3999  require(benificiary == msg.sender,\"Only benificiar can withdraw\") */\n      tag_75\n      jumpi\n      mload(0x40)\n      0x08c379a000000000000000000000000000000000000000000000000000000000\n      dup2\n      mstore\n      0x04\n      add\n      tag_76\n      swap1\n      tag_77\n      jump\t// in\n    tag_76:\n      mload(0x40)\n      dup1\n      swap2\n      sub\n      swap1\n      revert\n    tag_75:\n        /* \"Vesting.sol\":4060:4061  0 */\n      0x00\n        /* \"Vesting.sol\":4017:4035  withdrawableAmount */\n      0x02\n        /* \"Vesting.sol\":4017:4048  withdrawableAmount[benificiary] */\n      0x00\n        /* \"Vesting.sol\":4036:4047  benificiary */\n      dup6\n        /* \"Vesting.sol\":4017:4048  withdrawableAmount[benificiary] */\n      0xffffffffffffffffffffffffffffffffffffffff\n      and\n      0xffffffffffffffffffffffffffffffffffffffff\n      and\n      dup2\n      mstore\n      0x20\n      add\n      swap1\n      dup2\n      mstore\n      0x20\n      add\n      0x00\n      keccak256\n        /* \"Vesting.sol\":4017:4059  withdrawableAmount[benificiary][vestingID] */\n      0x00\n        /* \"Vesting.sol\":4049:4058  vestingID */\n      dup4\n        /* \"Vesting.sol\":4017:4059  withdrawableAmount[benificiary][vestingID] */\n      dup2\n      mstore\n      0x20\n      add\n      swap1\n      dup2\n      mstore\n      0x20\n      add\n      0x00\n      keccak256\n      sload\n        /* \"Vesting.sol\":4017:4061  withdrawableAmount[benificiary][vestingID]>0 */\n      gt\n        /* \"Vesting.sol\":4009:4090  require(withdrawableAmount[benificiary][vestingID]>0,\"No amount to be withdrawn\") */\n      tag_78\n      jumpi\n      mload(0x40)\n      0x08c379a000000000000000000000000000000000000000000000000000000000\n      dup2\n      mstore\n      0x04\n      add\n      tag_79\n      swap1\n      tag_80\n      jump\t// in\n    tag_79:\n      mload(0x40)\n      dup1\n      swap2\n      sub\n      swap1\n      revert\n    tag_78:\n        /* \"Vesting.sol\":4144:4158  withdrawAmount */\n      dup2\n        /* \"Vesting.sol\":4100:4118  withdrawableAmount */\n      0x02\n        /* \"Vesting.sol\":4100:4131  withdrawableAmount[benificiary] */\n      0x00\n        /* \"Vesting.sol\":4119:4130  benificiary */\n      dup6\n        /* \"Vesting.sol\":4100:4131  withdrawableAmount[benificiary] */\n      0xffffffffffffffffffffffffffffffffffffffff\n      and\n      0xffffffffffffffffffffffffffffffffffffffff\n      and\n      dup2\n      mstore\n      0x20\n      add\n      swap1\n      dup2\n      mstore\n      0x20\n      add\n      0x00\n      keccak256\n        /* \"Vesting.sol\":4100:4142  withdrawableAmount[benificiary][vestingID] */\n      0x00\n        /* \"Vesting.sol\":4132:4141  vestingID */\n      dup4\n        /* \"Vesting.sol\":4100:4142  withdrawableAmount[benificiary][vestingID] */\n      dup2\n      mstore\n      0x20\n      add\n      swap1\n      dup2\n      mstore\n      0x20\n      add\n      0x00\n      keccak256\n      0x00\n        /* \"Vesting.sol\":4100:4158  withdrawableAmount[benificiary][vestingID]-=withdrawAmount */\n      dup3\n      dup3\n      sload\n      tag_81\n      swap2\n      swap1\n      tag_63\n      jump\t// in\n    tag_81:\n      swap3\n      pop\n      pop\n      dup2\n      swap1\n      sstore\n      pop\n        /* \"Vesting.sol\":4176:4192  vestingSchedules */\n      0x03\n        /* \"Vesting.sol\":4176:4205  vestingSchedules[benificiary] */\n      0x00\n        /* \"Vesting.sol\":4193:4204  benificiary */\n      dup5\n        /* \"Vesting.sol\":4176:4205  vestingSchedules[benificiary] */\n      0xffffffffffffffffffffffffffffffffffffffff\n      and\n      0xffffffffffffffffffffffffffffffffffffffff\n      and\n      dup2\n      mstore\n      0x20\n      add\n      swap1\n      dup2\n      mstore\n      0x20\n      add\n      0x00\n      keccak256\n        /* \"Vesting.sol\":4176:4216  vestingSchedules[benificiary][vestingID] */\n      0x00\n        /* \"Vesting.sol\":4206:4215  vestingID */\n      dup3\n        /* \"Vesting.sol\":4176:4216  vestingSchedules[benificiary][vestingID] */\n      dup2\n      mstore\n      0x20\n      add\n      swap1\n      dup2\n      mstore\n      0x20\n      add\n      0x00\n      keccak256\n        /* \"Vesting.sol\":4176:4223  vestingSchedules[benificiary][vestingID]._token */\n      0x00\n      add\n      0x00\n      swap1\n      sload\n      swap1\n      0x0100\n      exp\n      swap1\n      div\n      0xffffffffffffffffffffffffffffffffffffffff\n      and\n        /* \"Vesting.sol\":4176:4232  vestingSchedules[benificiary][vestingID]._token.transfer */\n      0xffffffffffffffffffffffffffffffffffffffff\n      and\n      0xa9059cbb\n        /* \"Vesting.sol\":4233:4244  benificiary */\n      dup5\n        /* \"Vesting.sol\":4245:4259  withdrawAmount */\n      dup5\n        /* \"Vesting.sol\":4176:4260  vestingSchedules[benificiary][vestingID]._token.transfer(benificiary,withdrawAmount) */\n      mload(0x40)\n      dup4\n      0xffffffff\n      and\n      0xe0\n      shl\n      dup2\n      mstore\n      0x04\n      add\n      tag_82\n      swap3\n      swap2\n      swap1\n      tag_73\n      jump\t// in\n    tag_82:\n      0x20\n      mload(0x40)\n      dup1\n      dup4\n      sub\n      dup2\n      0x00\n      dup8\n      gas\n      call\n      iszero\n      dup1\n      iszero\n      tag_84\n      jumpi\n      returndatasize\n      0x00\n      dup1\n      returndatacopy\n      revert(0x00, returndatasize)\n    tag_84:\n      pop\n      pop\n      pop\n      pop\n      mload(0x40)\n      returndatasize\n      not(0x1f)\n      0x1f\n      dup3\n      add\n      and\n      dup3\n      add\n      dup1\n      0x40\n      mstore\n      pop\n      dup2\n      add\n      swap1\n      tag_85\n      swap2\n      swap1\n      tag_86\n      jump\t// in\n    tag_85:\n      pop\n        /* \"Vesting.sol\":4280:4322  WithdrawTokens(benificiary,withdrawAmount) */\n      0x680f2e4f4032ebf1774e8cdbaddcb1b617a5a606411c8ca96257ada338d3833c\n        /* \"Vesting.sol\":4295:4306  benificiary */\n      dup4\n        /* \"Vesting.sol\":4307:4321  withdrawAmount */\n      dup4\n        /* \"Vesting.sol\":4280:4322  WithdrawTokens(benificiary,withdrawAmount) */\n      mload(0x40)\n      tag_87\n      swap3\n      swap2\n      swap1\n      tag_73\n      jump\t// in\n    tag_87:\n      mload(0x40)\n      dup1\n      swap2\n      sub\n      swap1\n      log1\n        /* \"Vesting.sol\":3836:4329  function withdraw(address benificiary,uint256 withdrawAmount,uint256 vestingID ) public {... */\n      pop\n      pop\n      pop\n      jump\t// out\n        /* \"Vesting.sol\":1088:2104  function addAmount(address token,address benificiary,uint256 totalTokens, uint256 startTime,uint256 cliff,uint256 vestingPeriod,uint256 slicePeriod) public {... */\n    tag_38:\n        /* \"Vesting.sol\":1313:1673  VestingSchedule({... */\n      mload(0x40)\n      dup1\n      0x0140\n      add\n      0x40\n      mstore\n      dup1\n        /* \"Vesting.sol\":1355:1360  token */\n      dup9\n        /* \"Vesting.sol\":1313:1673  VestingSchedule({... */\n      0xffffffffffffffffffffffffffffffffffffffff\n      and\n      dup2\n      mstore\n      0x20\n      add\n        /* \"Vesting.sol\":1384:1393  startTime */\n      dup6\n        /* \"Vesting.sol\":1313:1673  VestingSchedule({... */\n      dup2\n      mstore\n      0x20\n      add\n        /* \"Vesting.sol\":1412:1417  cliff */\n      dup5\n        /* \"Vesting.sol\":1313:1673  VestingSchedule({... */\n      dup2\n      mstore\n      0x20\n      add\n        /* \"Vesting.sol\":1445:1458  vestingPeriod */\n      dup4\n        /* \"Vesting.sol\":1313:1673  VestingSchedule({... */\n      dup2\n      mstore\n      0x20\n      add\n        /* \"Vesting.sol\":1483:1494  slicePeriod */\n      dup3\n        /* \"Vesting.sol\":1313:1673  VestingSchedule({... */\n      dup2\n      mstore\n      0x20\n      add\n        /* \"Vesting.sol\":1519:1530  totalTokens */\n      dup7\n        /* \"Vesting.sol\":1313:1673  VestingSchedule({... */\n      dup2\n      mstore\n      0x20\n      add\n        /* \"Vesting.sol\":1561:1562  0 */\n      0x00\n        /* \"Vesting.sol\":1313:1673  VestingSchedule({... */\n      dup2\n      mstore\n      0x20\n      add\n        /* \"Vesting.sol\":1588:1589  0 */\n      0x00\n        /* \"Vesting.sol\":1313:1673  VestingSchedule({... */\n      dup2\n      mstore\n      0x20\n      add\n        /* \"Vesting.sol\":1613:1614  0 */\n      0x00\n        /* \"Vesting.sol\":1313:1673  VestingSchedule({... */\n      dup2\n      mstore\n      0x20\n      add\n        /* \"Vesting.sol\":1637:1649  totalVesting */\n      0x04\n        /* \"Vesting.sol\":1637:1662  totalVesting[benificiary] */\n      0x00\n        /* \"Vesting.sol\":1650:1661  benificiary */\n      dup10\n        /* \"Vesting.sol\":1637:1662  totalVesting[benificiary] */\n      0xffffffffffffffffffffffffffffffffffffffff\n      and\n      0xffffffffffffffffffffffffffffffffffffffff\n      and\n      dup2\n      mstore\n      0x20\n      add\n      swap1\n      dup2\n      mstore\n      0x20\n      add\n      0x00\n      keccak256\n      sload\n        /* \"Vesting.sol\":1313:1673  VestingSchedule({... */\n      dup2\n      mstore\n      pop\n        /* \"Vesting.sol\":1254:1270  vestingSchedules */\n      0x03\n        /* \"Vesting.sol\":1254:1283  vestingSchedules[benificiary] */\n      0x00\n        /* \"Vesting.sol\":1271:1282  benificiary */\n      dup9\n        /* \"Vesting.sol\":1254:1283  vestingSchedules[benificiary] */\n      0xffffffffffffffffffffffffffffffffffffffff\n      and\n      0xffffffffffffffffffffffffffffffffffffffff\n      and\n      dup2\n      mstore\n      0x20\n      add\n      swap1\n      dup2\n      mstore\n      0x20\n      add\n      0x00\n      keccak256\n        /* \"Vesting.sol\":1254:1310  vestingSchedules[benificiary][totalVesting[benificiary]] */\n      0x00\n        /* \"Vesting.sol\":1284:1296  totalVesting */\n      0x04\n        /* \"Vesting.sol\":1284:1309  totalVesting[benificiary] */\n      0x00\n        /* \"Vesting.sol\":1297:1308  benificiary */\n      dup11\n        /* \"Vesting.sol\":1284:1309  totalVesting[benificiary] */\n      0xffffffffffffffffffffffffffffffffffffffff\n      and\n      0xffffffffffffffffffffffffffffffffffffffff\n      and\n      dup2\n      mstore\n      0x20\n      add\n      swap1\n      dup2\n      mstore\n      0x20\n      add\n      0x00\n      keccak256\n      sload\n        /* \"Vesting.sol\":1254:1310  vestingSchedules[benificiary][totalVesting[benificiary]] */\n      dup2\n      mstore\n      0x20\n      add\n      swap1\n      dup2\n      mstore\n      0x20\n      add\n      0x00\n      keccak256\n        /* \"Vesting.sol\":1254:1673  vestingSchedules[benificiary][totalVesting[benificiary]] = VestingSchedule({... */\n      0x00\n      dup3\n      add\n      mload\n      dup2\n      0x00\n      add\n      exp(0x0100, 0x00)\n      dup2\n      sload\n      dup2\n      0xffffffffffffffffffffffffffffffffffffffff\n      mul\n      not\n      and\n      swap1\n      dup4\n      0xffffffffffffffffffffffffffffffffffffffff\n      and\n      mul\n      or\n      swap1\n      sstore\n      pop\n      0x20\n      dup3\n      add\n      mload\n      dup2\n      0x01\n      add\n      sstore\n      0x40\n      dup3\n      add\n      mload\n      dup2\n      0x02\n      add\n      sstore\n      0x60\n      dup3\n      add\n      mload\n      dup2\n      0x03\n      add\n      sstore\n      0x80\n      dup3\n      add\n      mload\n      dup2\n      0x04\n      add\n      sstore\n      0xa0\n      dup3\n      add\n      mload\n      dup2\n      0x05\n      add\n      sstore\n      0xc0\n      dup3\n      add\n      mload\n      dup2\n      0x06\n      add\n      sstore\n      0xe0\n      dup3\n      add\n      mload\n      dup2\n      0x07\n      add\n      sstore\n      0x0100\n      dup3\n      add\n      mload\n      dup2\n      0x08\n      add\n      sstore\n      0x0120\n      dup3\n      add\n      mload\n      dup2\n      0x09\n      add\n      sstore\n      swap1\n      pop\n      pop\n        /* \"Vesting.sol\":1711:1712  0 */\n      0x00\n        /* \"Vesting.sol\":1699:1710  totalTokens */\n      dup6\n        /* \"Vesting.sol\":1699:1712  totalTokens>0 */\n      gt\n        /* \"Vesting.sol\":1691:1731  require(totalTokens>0,\"Add some tokens\") */\n      tag_89\n      jumpi\n      mload(0x40)\n      0x08c379a000000000000000000000000000000000000000000000000000000000\n      dup2\n      mstore\n      0x04\n      add\n      tag_90\n      swap1\n      tag_91\n      jump\t// in\n    tag_90:\n      mload(0x40)\n      dup1\n      swap2\n      sub\n      swap1\n      revert\n    tag_89:\n        /* \"Vesting.sol\":1749:1765  vestingSchedules */\n      0x03\n        /* \"Vesting.sol\":1749:1778  vestingSchedules[benificiary] */\n      0x00\n        /* \"Vesting.sol\":1766:1777  benificiary */\n      dup8\n        /* \"Vesting.sol\":1749:1778  vestingSchedules[benificiary] */\n      0xffffffffffffffffffffffffffffffffffffffff\n      and\n      0xffffffffffffffffffffffffffffffffffffffff\n      and\n      dup2\n      mstore\n      0x20\n      add\n      swap1\n      dup2\n      mstore\n      0x20\n      add\n      0x00\n      keccak256\n        /* \"Vesting.sol\":1749:1805  vestingSchedules[benificiary][totalVesting[benificiary]] */\n      0x00\n        /* \"Vesting.sol\":1779:1791  totalVesting */\n      0x04\n        /* \"Vesting.sol\":1779:1804  totalVesting[benificiary] */\n      0x00\n        /* \"Vesting.sol\":1792:1803  benificiary */\n      dup10\n        /* \"Vesting.sol\":1779:1804  totalVesting[benificiary] */\n      0xffffffffffffffffffffffffffffffffffffffff\n      and\n      0xffffffffffffffffffffffffffffffffffffffff\n      and\n      dup2\n      mstore\n      0x20\n      add\n      swap1\n      dup2\n      mstore\n      0x20\n      add\n      0x00\n      keccak256\n      sload\n        /* \"Vesting.sol\":1749:1805  vestingSchedules[benificiary][totalVesting[benificiary]] */\n      dup2\n      mstore\n      0x20\n      add\n      swap1\n      dup2\n      mstore\n      0x20\n      add\n      0x00\n      keccak256\n        /* \"Vesting.sol\":1749:1812  vestingSchedules[benificiary][totalVesting[benificiary]]._token */\n      0x00\n      add\n      0x00\n      swap1\n      sload\n      swap1\n      0x0100\n      exp\n      swap1\n      div\n      0xffffffffffffffffffffffffffffffffffffffff\n      and\n        /* \"Vesting.sol\":1749:1820  vestingSchedules[benificiary][totalVesting[benificiary]]._token.approve */\n      0xffffffffffffffffffffffffffffffffffffffff\n      and\n      0x095ea7b3\n        /* \"Vesting.sol\":1829:1833  this */\n      address\n        /* \"Vesting.sol\":1835:1846  totalTokens */\n      dup8\n        /* \"Vesting.sol\":1749:1847  vestingSchedules[benificiary][totalVesting[benificiary]]._token.approve(address(this),totalTokens) */\n      mload(0x40)\n      dup4\n      0xffffffff\n      and\n      0xe0\n      shl\n      dup2\n      mstore\n      0x04\n      add\n      tag_92\n      swap3\n      swap2\n      swap1\n      tag_73\n      jump\t// in\n    tag_92:\n      0x20\n      mload(0x40)\n      dup1\n      dup4\n      sub\n      dup2\n      0x00\n      dup8\n      gas\n      call\n      iszero\n      dup1\n      iszero\n      tag_94\n      jumpi\n      returndatasize\n      0x00\n      dup1\n      returndatacopy\n      revert(0x00, returndatasize)\n    tag_94:\n      pop\n      pop\n      pop\n      pop\n      mload(0x40)\n      returndatasize\n      not(0x1f)\n      0x1f\n      dup3\n      add\n      and\n      dup3\n      add\n      dup1\n      0x40\n      mstore\n      pop\n      dup2\n      add\n      swap1\n      tag_95\n      swap2\n      swap1\n      tag_86\n      jump\t// in\n    tag_95:\n        /* \"Vesting.sol\":1741:1867  require(vestingSchedules[benificiary][totalVesting[benificiary]]._token.approve(address(this),totalTokens), \"Approval failed\") */\n      tag_96\n      jumpi\n      mload(0x40)\n      0x08c379a000000000000000000000000000000000000000000000000000000000\n      dup2\n      mstore\n      0x04\n      add\n      tag_97\n      swap1\n      tag_98\n      jump\t// in\n    tag_97:\n      mload(0x40)\n      dup1\n      swap2\n      sub\n      swap1\n      revert\n    tag_96:\n        /* \"Vesting.sol\":1877:1893  vestingSchedules */\n      0x03\n        /* \"Vesting.sol\":1877:1906  vestingSchedules[benificiary] */\n      0x00\n        /* \"Vesting.sol\":1894:1905  benificiary */\n      dup8\n        /* \"Vesting.sol\":1877:1906  vestingSchedules[benificiary] */\n      0xffffffffffffffffffffffffffffffffffffffff\n      and\n      0xffffffffffffffffffffffffffffffffffffffff\n      and\n      dup2\n      mstore\n      0x20\n      add\n      swap1\n      dup2\n      mstore\n      0x20\n      add\n      0x00\n      keccak256\n        /* \"Vesting.sol\":1877:1933  vestingSchedules[benificiary][totalVesting[benificiary]] */\n      0x00\n        /* \"Vesting.sol\":1907:1919  totalVesting */\n      0x04\n        /* \"Vesting.sol\":1907:1932  totalVesting[benificiary] */\n      0x00\n        /* \"Vesting.sol\":1920:1931  benificiary */\n      dup10\n        /* \"Vesting.sol\":1907:1932  totalVesting[benificiary] */\n      0xffffffffffffffffffffffffffffffffffffffff\n      and\n      0xffffffffffffffffffffffffffffffffffffffff\n      and\n      dup2\n      mstore\n      0x20\n      add\n      swap1\n      dup2\n      mstore\n      0x20\n      add\n      0x00\n      keccak256\n      sload\n        /* \"Vesting.sol\":1877:1933  vestingSchedules[benificiary][totalVesting[benificiary]] */\n      dup2\n      mstore\n      0x20\n      add\n      swap1\n      dup2\n      mstore\n      0x20\n      add\n      0x00\n      keccak256\n        /* \"Vesting.sol\":1877:1940  vestingSchedules[benificiary][totalVesting[benificiary]]._token */\n      0x00\n      add\n      0x00\n      swap1\n      sload\n      swap1\n      0x0100\n      exp\n      swap1\n      div\n      0xffffffffffffffffffffffffffffffffffffffff\n      and\n        /* \"Vesting.sol\":1877:1953  vestingSchedules[benificiary][totalVesting[benificiary]]._token.transferFrom */\n      0xffffffffffffffffffffffffffffffffffffffff\n      and\n      0x23b872dd\n        /* \"Vesting.sol\":1954:1965  benificiary */\n      dup8\n        /* \"Vesting.sol\":1974:1978  this */\n      address\n        /* \"Vesting.sol\":1980:1991  totalTokens */\n      dup9\n        /* \"Vesting.sol\":1877:1992  vestingSchedules[benificiary][totalVesting[benificiary]]._token.transferFrom(benificiary,address(this),totalTokens) */\n      mload(0x40)\n      dup5\n      0xffffffff\n      and\n      0xe0\n      shl\n      dup2\n      mstore\n      0x04\n      add\n      tag_99\n      swap4\n      swap3\n      swap2\n      swap1\n      tag_100\n      jump\t// in\n    tag_99:\n      0x20\n      mload(0x40)\n      dup1\n      dup4\n      sub\n      dup2\n      0x00\n      dup8\n      gas\n      call\n      iszero\n      dup1\n      iszero\n      tag_102\n      jumpi\n      returndatasize\n      0x00\n      dup1\n      returndatacopy\n      revert(0x00, returndatasize)\n    tag_102:\n      pop\n      pop\n      pop\n      pop\n      mload(0x40)\n      returndatasize\n      not(0x1f)\n      0x1f\n      dup3\n      add\n      and\n      dup3\n      add\n      dup1\n      0x40\n      mstore\n      pop\n      dup2\n      add\n      swap1\n      tag_103\n      swap2\n      swap1\n      tag_86\n      jump\t// in\n    tag_103:\n      pop\n        /* \"Vesting.sol\":2002:2014  totalVesting */\n      0x04\n        /* \"Vesting.sol\":2002:2027  totalVesting[benificiary] */\n      0x00\n        /* \"Vesting.sol\":2015:2026  benificiary */\n      dup8\n        /* \"Vesting.sol\":2002:2027  totalVesting[benificiary] */\n      0xffffffffffffffffffffffffffffffffffffffff\n      and\n      0xffffffffffffffffffffffffffffffffffffffff\n      and\n      dup2\n      mstore\n      0x20\n      add\n      swap1\n      dup2\n      mstore\n      0x20\n      add\n      0x00\n      keccak256\n      0x00\n        /* \"Vesting.sol\":2002:2029  totalVesting[benificiary]++ */\n      dup2\n      sload\n      dup1\n      swap3\n      swap2\n      swap1\n      tag_104\n      swap1\n      tag_105\n      jump\t// in\n    tag_104:\n      swap2\n      swap1\n      pop\n      sstore\n      pop\n        /* \"Vesting.sol\":2044:2096  DepositTokens(benificiary,address(this),totalTokens) */\n      0x5b2c363c4205d12f22a6dc6a35136117f80f8cd6897d7a05e7e2987883b05004\n        /* \"Vesting.sol\":2058:2069  benificiary */\n      dup7\n        /* \"Vesting.sol\":2078:2082  this */\n      address\n        /* \"Vesting.sol\":2084:2095  totalTokens */\n      dup8\n        /* \"Vesting.sol\":2044:2096  DepositTokens(benificiary,address(this),totalTokens) */\n      mload(0x40)\n      tag_106\n      swap4\n      swap3\n      swap2\n      swap1\n      tag_100\n      jump\t// in\n    tag_106:\n      mload(0x40)\n      dup1\n      swap2\n      sub\n      swap1\n      log1\n        /* \"Vesting.sol\":1088:2104  function addAmount(address token,address benificiary,uint256 totalTokens, uint256 startTime,uint256 cliff,uint256 vestingPeriod,uint256 slicePeriod) public {... */\n      pop\n      pop\n      pop\n      pop\n      pop\n      pop\n      pop\n      jump\t// out\n        /* \"Vesting.sol\":2254:2514  function releaseTokens(address benificiary,uint256 vestingID) public onlyOwner returns(uint256) {... */\n    tag_41:\n        /* \"Vesting.sol\":2341:2348  uint256 */\n      0x00\n        /* \"Vesting.sol\":707:712  owner */\n      dup1\n      0x00\n      swap1\n      sload\n      swap1\n      0x0100\n      exp\n      swap1\n      div\n      0xffffffffffffffffffffffffffffffffffffffff\n      and\n        /* \"Vesting.sol\":693:712  msg.sender == owner */\n      0xffffffffffffffffffffffffffffffffffffffff\n      and\n        /* \"Vesting.sol\":693:703  msg.sender */\n      caller\n        /* \"Vesting.sol\":693:712  msg.sender == owner */\n      0xffffffffffffffffffffffffffffffffffffffff\n      and\n      eq\n        /* \"Vesting.sol\":685:737  require(msg.sender == owner,\"Only Owner can access\") */\n      tag_108\n      jumpi\n      mload(0x40)\n      0x08c379a000000000000000000000000000000000000000000000000000000000\n      dup2\n      mstore\n      0x04\n      add\n      tag_109\n      swap1\n      tag_110\n      jump\t// in\n    tag_109:\n      mload(0x40)\n      dup1\n      swap2\n      sub\n      swap1\n      revert\n    tag_108:\n        /* \"Vesting.sol\":2404:2448  calculateVestedAmount(benificiary,vestingID) */\n      tag_112\n        /* \"Vesting.sol\":2426:2437  benificiary */\n      dup4\n        /* \"Vesting.sol\":2438:2447  vestingID */\n      dup4\n        /* \"Vesting.sol\":2404:2425  calculateVestedAmount */\n      tag_29\n        /* \"Vesting.sol\":2404:2448  calculateVestedAmount(benificiary,vestingID) */\n      jump\t// in\n    tag_112:\n        /* \"Vesting.sol\":2360:2378  withdrawableAmount */\n      0x02\n        /* \"Vesting.sol\":2360:2391  withdrawableAmount[benificiary] */\n      0x00\n        /* \"Vesting.sol\":2379:2390  benificiary */\n      dup6\n        /* \"Vesting.sol\":2360:2391  withdrawableAmount[benificiary] */\n      0xffffffffffffffffffffffffffffffffffffffff\n      and\n      0xffffffffffffffffffffffffffffffffffffffff\n      and\n      dup2\n      mstore\n      0x20\n      add\n      swap1\n      dup2\n      mstore\n      0x20\n      add\n      0x00\n      keccak256\n        /* \"Vesting.sol\":2360:2402  withdrawableAmount[benificiary][vestingID] */\n      0x00\n        /* \"Vesting.sol\":2392:2401  vestingID */\n      dup5\n        /* \"Vesting.sol\":2360:2402  withdrawableAmount[benificiary][vestingID] */\n      dup2\n      mstore\n      0x20\n      add\n      swap1\n      dup2\n      mstore\n      0x20\n      add\n      0x00\n      keccak256\n      0x00\n        /* \"Vesting.sol\":2360:2448  withdrawableAmount[benificiary][vestingID]+=calculateVestedAmount(benificiary,vestingID) */\n      dup3\n      dup3\n      sload\n      tag_113\n      swap2\n      swap1\n      tag_52\n      jump\t// in\n    tag_113:\n      swap3\n      pop\n      pop\n      dup2\n      swap1\n      sstore\n      pop\n        /* \"Vesting.sol\":2465:2483  withdrawableAmount */\n      0x02\n        /* \"Vesting.sol\":2465:2496  withdrawableAmount[benificiary] */\n      0x00\n        /* \"Vesting.sol\":2484:2495  benificiary */\n      dup5\n        /* \"Vesting.sol\":2465:2496  withdrawableAmount[benificiary] */\n      0xffffffffffffffffffffffffffffffffffffffff\n      and\n      0xffffffffffffffffffffffffffffffffffffffff\n      and\n      dup2\n      mstore\n      0x20\n      add\n      swap1\n      dup2\n      mstore\n      0x20\n      add\n      0x00\n      keccak256\n        /* \"Vesting.sol\":2465:2507  withdrawableAmount[benificiary][vestingID] */\n      0x00\n        /* \"Vesting.sol\":2497:2506  vestingID */\n      dup4\n        /* \"Vesting.sol\":2465:2507  withdrawableAmount[benificiary][vestingID] */\n      dup2\n      mstore\n      0x20\n      add\n      swap1\n      dup2\n      mstore\n      0x20\n      add\n      0x00\n      keccak256\n      sload\n        /* \"Vesting.sol\":2458:2507  return withdrawableAmount[benificiary][vestingID] */\n      swap1\n      pop\n        /* \"Vesting.sol\":2254:2514  function releaseTokens(address benificiary,uint256 vestingID) public onlyOwner returns(uint256) {... */\n      swap3\n      swap2\n      pop\n      pop\n      jump\t// out\n        /* \"#utility.yul\":88:205   */\n    tag_115:\n        /* \"#utility.yul\":197:198   */\n      0x00\n        /* \"#utility.yul\":194:195   */\n      dup1\n        /* \"#utility.yul\":187:199   */\n      revert\n        /* \"#utility.yul\":334:460   */\n    tag_117:\n        /* \"#utility.yul\":371:378   */\n      0x00\n        /* \"#utility.yul\":411:453   */\n      0xffffffffffffffffffffffffffffffffffffffff\n        /* \"#utility.yul\":404:409   */\n      dup3\n        /* \"#utility.yul\":400:454   */\n      and\n        /* \"#utility.yul\":389:454   */\n      swap1\n      pop\n        /* \"#utility.yul\":334:460   */\n      swap2\n      swap1\n      pop\n      jump\t// out\n        /* \"#utility.yul\":466:562   */\n    tag_118:\n        /* \"#utility.yul\":503:510   */\n      0x00\n        /* \"#utility.yul\":532:556   */\n      tag_156\n        /* \"#utility.yul\":550:555   */\n      dup3\n        /* \"#utility.yul\":532:556   */\n      tag_117\n      jump\t// in\n    tag_156:\n        /* \"#utility.yul\":521:556   */\n      swap1\n      pop\n        /* \"#utility.yul\":466:562   */\n      swap2\n      swap1\n      pop\n      jump\t// out\n        /* \"#utility.yul\":568:690   */\n    tag_119:\n        /* \"#utility.yul\":641:665   */\n      tag_158\n        /* \"#utility.yul\":659:664   */\n      dup2\n        /* \"#utility.yul\":641:665   */\n      tag_118\n      jump\t// in\n    tag_158:\n        /* \"#utility.yul\":634:639   */\n      dup2\n        /* \"#utility.yul\":631:666   */\n      eq\n        /* \"#utility.yul\":621:684   */\n      tag_159\n      jumpi\n        /* \"#utility.yul\":680:681   */\n      0x00\n        /* \"#utility.yul\":677:678   */\n      dup1\n        /* \"#utility.yul\":670:682   */\n      revert\n        /* \"#utility.yul\":621:684   */\n    tag_159:\n        /* \"#utility.yul\":568:690   */\n      pop\n      jump\t// out\n        /* \"#utility.yul\":696:835   */\n    tag_120:\n        /* \"#utility.yul\":742:747   */\n      0x00\n        /* \"#utility.yul\":780:786   */\n      dup2\n        /* \"#utility.yul\":767:787   */\n      calldataload\n        /* \"#utility.yul\":758:787   */\n      swap1\n      pop\n        /* \"#utility.yul\":796:829   */\n      tag_161\n        /* \"#utility.yul\":823:828   */\n      dup2\n        /* \"#utility.yul\":796:829   */\n      tag_119\n      jump\t// in\n    tag_161:\n        /* \"#utility.yul\":696:835   */\n      swap3\n      swap2\n      pop\n      pop\n      jump\t// out\n        /* \"#utility.yul\":841:918   */\n    tag_121:\n        /* \"#utility.yul\":878:885   */\n      0x00\n        /* \"#utility.yul\":907:912   */\n      dup2\n        /* \"#utility.yul\":896:912   */\n      swap1\n      pop\n        /* \"#utility.yul\":841:918   */\n      swap2\n      swap1\n      pop\n      jump\t// out\n        /* \"#utility.yul\":924:1046   */\n    tag_122:\n        /* \"#utility.yul\":997:1021   */\n      tag_164\n        /* \"#utility.yul\":1015:1020   */\n      dup2\n        /* \"#utility.yul\":997:1021   */\n      tag_121\n      jump\t// in\n    tag_164:\n        /* \"#utility.yul\":990:995   */\n      dup2\n        /* \"#utility.yul\":987:1022   */\n      eq\n        /* \"#utility.yul\":977:1040   */\n      tag_165\n      jumpi\n        /* \"#utility.yul\":1036:1037   */\n      0x00\n        /* \"#utility.yul\":1033:1034   */\n      dup1\n        /* \"#utility.yul\":1026:1038   */\n      revert\n        /* \"#utility.yul\":977:1040   */\n    tag_165:\n        /* \"#utility.yul\":924:1046   */\n      pop\n      jump\t// out\n        /* \"#utility.yul\":1052:1191   */\n    tag_123:\n        /* \"#utility.yul\":1098:1103   */\n      0x00\n        /* \"#utility.yul\":1136:1142   */\n      dup2\n        /* \"#utility.yul\":1123:1143   */\n      calldataload\n        /* \"#utility.yul\":1114:1143   */\n      swap1\n      pop\n        /* \"#utility.yul\":1152:1185   */\n      tag_167\n        /* \"#utility.yul\":1179:1184   */\n      dup2\n        /* \"#utility.yul\":1152:1185   */\n      tag_122\n      jump\t// in\n    tag_167:\n        /* \"#utility.yul\":1052:1191   */\n      swap3\n      swap2\n      pop\n      pop\n      jump\t// out\n        /* \"#utility.yul\":1197:1671   */\n    tag_13:\n        /* \"#utility.yul\":1265:1271   */\n      0x00\n        /* \"#utility.yul\":1273:1279   */\n      dup1\n        /* \"#utility.yul\":1322:1324   */\n      0x40\n        /* \"#utility.yul\":1310:1319   */\n      dup4\n        /* \"#utility.yul\":1301:1308   */\n      dup6\n        /* \"#utility.yul\":1297:1320   */\n      sub\n        /* \"#utility.yul\":1293:1325   */\n      slt\n        /* \"#utility.yul\":1290:1409   */\n      iszero\n      tag_169\n      jumpi\n        /* \"#utility.yul\":1328:1407   */\n      tag_170\n      tag_115\n      jump\t// in\n    tag_170:\n        /* \"#utility.yul\":1290:1409   */\n    tag_169:\n        /* \"#utility.yul\":1448:1449   */\n      0x00\n        /* \"#utility.yul\":1473:1526   */\n      tag_171\n        /* \"#utility.yul\":1518:1525   */\n      dup6\n        /* \"#utility.yul\":1509:1515   */\n      dup3\n        /* \"#utility.yul\":1498:1507   */\n      dup7\n        /* \"#utility.yul\":1494:1516   */\n      add\n        /* \"#utility.yul\":1473:1526   */\n      tag_120\n      jump\t// in\n    tag_171:\n        /* \"#utility.yul\":1463:1526   */\n      swap3\n      pop\n        /* \"#utility.yul\":1419:1536   */\n      pop\n        /* \"#utility.yul\":1575:1577   */\n      0x20\n        /* \"#utility.yul\":1601:1654   */\n      tag_172\n        /* \"#utility.yul\":1646:1653   */\n      dup6\n        /* \"#utility.yul\":1637:1643   */\n      dup3\n        /* \"#utility.yul\":1626:1635   */\n      dup7\n        /* \"#utility.yul\":1622:1644   */\n      add\n        /* \"#utility.yul\":1601:1654   */\n      tag_123\n      jump\t// in\n    tag_172:\n        /* \"#utility.yul\":1591:1654   */\n      swap2\n      pop\n        /* \"#utility.yul\":1546:1664   */\n      pop\n        /* \"#utility.yul\":1197:1671   */\n      swap3\n      pop\n      swap3\n      swap1\n      pop\n      jump\t// out\n        /* \"#utility.yul\":1677:1737   */\n    tag_124:\n        /* \"#utility.yul\":1705:1708   */\n      0x00\n        /* \"#utility.yul\":1726:1731   */\n      dup2\n        /* \"#utility.yul\":1719:1731   */\n      swap1\n      pop\n        /* \"#utility.yul\":1677:1737   */\n      swap2\n      swap1\n      pop\n      jump\t// out\n        /* \"#utility.yul\":1743:1885   */\n    tag_125:\n        /* \"#utility.yul\":1793:1802   */\n      0x00\n        /* \"#utility.yul\":1826:1879   */\n      tag_175\n        /* \"#utility.yul\":1844:1878   */\n      tag_176\n        /* \"#utility.yul\":1853:1877   */\n      tag_177\n        /* \"#utility.yul\":1871:1876   */\n      dup5\n        /* \"#utility.yul\":1853:1877   */\n      tag_117\n      jump\t// in\n    tag_177:\n        /* \"#utility.yul\":1844:1878   */\n      tag_124\n      jump\t// in\n    tag_176:\n        /* \"#utility.yul\":1826:1879   */\n      tag_117\n      jump\t// in\n    tag_175:\n        /* \"#utility.yul\":1813:1879   */\n      swap1\n      pop\n        /* \"#utility.yul\":1743:1885   */\n      swap2\n      swap1\n      pop\n      jump\t// out\n        /* \"#utility.yul\":1891:2017   */\n    tag_126:\n        /* \"#utility.yul\":1941:1950   */\n      0x00\n        /* \"#utility.yul\":1974:2011   */\n      tag_179\n        /* \"#utility.yul\":2005:2010   */\n      dup3\n        /* \"#utility.yul\":1974:2011   */\n      tag_125\n      jump\t// in\n    tag_179:\n        /* \"#utility.yul\":1961:2011   */\n      swap1\n      pop\n        /* \"#utility.yul\":1891:2017   */\n      swap2\n      swap1\n      pop\n      jump\t// out\n        /* \"#utility.yul\":2023:2162   */\n    tag_127:\n        /* \"#utility.yul\":2086:2095   */\n      0x00\n        /* \"#utility.yul\":2119:2156   */\n      tag_181\n        /* \"#utility.yul\":2150:2155   */\n      dup3\n        /* \"#utility.yul\":2119:2156   */\n      tag_126\n      jump\t// in\n    tag_181:\n        /* \"#utility.yul\":2106:2156   */\n      swap1\n      pop\n        /* \"#utility.yul\":2023:2162   */\n      swap2\n      swap1\n      pop\n      jump\t// out\n        /* \"#utility.yul\":2168:2325   */\n    tag_128:\n        /* \"#utility.yul\":2268:2318   */\n      tag_183\n        /* \"#utility.yul\":2312:2317   */\n      dup2\n        /* \"#utility.yul\":2268:2318   */\n      tag_127\n      jump\t// in\n    tag_183:\n        /* \"#utility.yul\":2263:2266   */\n      dup3\n        /* \"#utility.yul\":2256:2319   */\n      mstore\n        /* \"#utility.yul\":2168:2325   */\n      pop\n      pop\n      jump\t// out\n        /* \"#utility.yul\":2331:2449   */\n    tag_129:\n        /* \"#utility.yul\":2418:2442   */\n      tag_185\n        /* \"#utility.yul\":2436:2441   */\n      dup2\n        /* \"#utility.yul\":2418:2442   */\n      tag_121\n      jump\t// in\n    tag_185:\n        /* \"#utility.yul\":2413:2416   */\n      dup3\n        /* \"#utility.yul\":2406:2443   */\n      mstore\n        /* \"#utility.yul\":2331:2449   */\n      pop\n      pop\n      jump\t// out\n        /* \"#utility.yul\":2455:3700   */\n    tag_16:\n        /* \"#utility.yul\":2813:2817   */\n      0x00\n        /* \"#utility.yul\":2851:2854   */\n      0x0140\n        /* \"#utility.yul\":2840:2849   */\n      dup3\n        /* \"#utility.yul\":2836:2855   */\n      add\n        /* \"#utility.yul\":2828:2855   */\n      swap1\n      pop\n        /* \"#utility.yul\":2865:2949   */\n      tag_187\n        /* \"#utility.yul\":2946:2947   */\n      0x00\n        /* \"#utility.yul\":2935:2944   */\n      dup4\n        /* \"#utility.yul\":2931:2948   */\n      add\n        /* \"#utility.yul\":2922:2928   */\n      dup14\n        /* \"#utility.yul\":2865:2949   */\n      tag_128\n      jump\t// in\n    tag_187:\n        /* \"#utility.yul\":2959:3031   */\n      tag_188\n        /* \"#utility.yul\":3027:3029   */\n      0x20\n        /* \"#utility.yul\":3016:3025   */\n      dup4\n        /* \"#utility.yul\":3012:3030   */\n      add\n        /* \"#utility.yul\":3003:3009   */\n      dup13\n        /* \"#utility.yul\":2959:3031   */\n      tag_129\n      jump\t// in\n    tag_188:\n        /* \"#utility.yul\":3041:3113   */\n      tag_189\n        /* \"#utility.yul\":3109:3111   */\n      0x40\n        /* \"#utility.yul\":3098:3107   */\n      dup4\n        /* \"#utility.yul\":3094:3112   */\n      add\n        /* \"#utility.yul\":3085:3091   */\n      dup12\n        /* \"#utility.yul\":3041:3113   */\n      tag_129\n      jump\t// in\n    tag_189:\n        /* \"#utility.yul\":3123:3195   */\n      tag_190\n        /* \"#utility.yul\":3191:3193   */\n      0x60\n        /* \"#utility.yul\":3180:3189   */\n      dup4\n        /* \"#utility.yul\":3176:3194   */\n      add\n        /* \"#utility.yul\":3167:3173   */\n      dup11\n        /* \"#utility.yul\":3123:3195   */\n      tag_129\n      jump\t// in\n    tag_190:\n        /* \"#utility.yul\":3205:3278   */\n      tag_191\n        /* \"#utility.yul\":3273:3276   */\n      0x80\n        /* \"#utility.yul\":3262:3271   */\n      dup4\n        /* \"#utility.yul\":3258:3277   */\n      add\n        /* \"#utility.yul\":3249:3255   */\n      dup10\n        /* \"#utility.yul\":3205:3278   */\n      tag_129\n      jump\t// in\n    tag_191:\n        /* \"#utility.yul\":3288:3361   */\n      tag_192\n        /* \"#utility.yul\":3356:3359   */\n      0xa0\n        /* \"#utility.yul\":3345:3354   */\n      dup4\n        /* \"#utility.yul\":3341:3360   */\n      add\n        /* \"#utility.yul\":3332:3338   */\n      dup9\n        /* \"#utility.yul\":3288:3361   */\n      tag_129\n      jump\t// in\n    tag_192:\n        /* \"#utility.yul\":3371:3444   */\n      tag_193\n        /* \"#utility.yul\":3439:3442   */\n      0xc0\n        /* \"#utility.yul\":3428:3437   */\n      dup4\n        /* \"#utility.yul\":3424:3443   */\n      add\n        /* \"#utility.yul\":3415:3421   */\n      dup8\n        /* \"#utility.yul\":3371:3444   */\n      tag_129\n      jump\t// in\n    tag_193:\n        /* \"#utility.yul\":3454:3527   */\n      tag_194\n        /* \"#utility.yul\":3522:3525   */\n      0xe0\n        /* \"#utility.yul\":3511:3520   */\n      dup4\n        /* \"#utility.yul\":3507:3526   */\n      add\n        /* \"#utility.yul\":3498:3504   */\n      dup7\n        /* \"#utility.yul\":3454:3527   */\n      tag_129\n      jump\t// in\n    tag_194:\n        /* \"#utility.yul\":3537:3610   */\n      tag_195\n        /* \"#utility.yul\":3605:3608   */\n      0x0100\n        /* \"#utility.yul\":3594:3603   */\n      dup4\n        /* \"#utility.yul\":3590:3609   */\n      add\n        /* \"#utility.yul\":3581:3587   */\n      dup6\n        /* \"#utility.yul\":3537:3610   */\n      tag_129\n      jump\t// in\n    tag_195:\n        /* \"#utility.yul\":3620:3693   */\n      tag_196\n        /* \"#utility.yul\":3688:3691   */\n      0x0120\n        /* \"#utility.yul\":3677:3686   */\n      dup4\n        /* \"#utility.yul\":3673:3692   */\n      add\n        /* \"#utility.yul\":3664:3670   */\n      dup5\n        /* \"#utility.yul\":3620:3693   */\n      tag_129\n      jump\t// in\n    tag_196:\n        /* \"#utility.yul\":2455:3700   */\n      swap12\n      swap11\n      pop\n      pop\n      pop\n      pop\n      pop\n      pop\n      pop\n      pop\n      pop\n      pop\n      pop\n      jump\t// out\n        /* \"#utility.yul\":3706:3928   */\n    tag_21:\n        /* \"#utility.yul\":3799:3803   */\n      0x00\n        /* \"#utility.yul\":3837:3839   */\n      0x20\n        /* \"#utility.yul\":3826:3835   */\n      dup3\n        /* \"#utility.yul\":3822:3840   */\n      add\n        /* \"#utility.yul\":3814:3840   */\n      swap1\n      pop\n        /* \"#utility.yul\":3850:3921   */\n      tag_198\n        /* \"#utility.yul\":3918:3919   */\n      0x00\n        /* \"#utility.yul\":3907:3916   */\n      dup4\n        /* \"#utility.yul\":3903:3920   */\n      add\n        /* \"#utility.yul\":3894:3900   */\n      dup5\n        /* \"#utility.yul\":3850:3921   */\n      tag_129\n      jump\t// in\n    tag_198:\n        /* \"#utility.yul\":3706:3928   */\n      swap3\n      swap2\n      pop\n      pop\n      jump\t// out\n        /* \"#utility.yul\":3934:4408   */\n    tag_24:\n        /* \"#utility.yul\":4002:4008   */\n      0x00\n        /* \"#utility.yul\":4010:4016   */\n      dup1\n        /* \"#utility.yul\":4059:4061   */\n      0x40\n        /* \"#utility.yul\":4047:4056   */\n      dup4\n        /* \"#utility.yul\":4038:4045   */\n      dup6\n        /* \"#utility.yul\":4034:4057   */\n      sub\n        /* \"#utility.yul\":4030:4062   */\n      slt\n        /* \"#utility.yul\":4027:4146   */\n      iszero\n      tag_200\n      jumpi\n        /* \"#utility.yul\":4065:4144   */\n      tag_201\n      tag_115\n      jump\t// in\n    tag_201:\n        /* \"#utility.yul\":4027:4146   */\n    tag_200:\n        /* \"#utility.yul\":4185:4186   */\n      0x00\n        /* \"#utility.yul\":4210:4263   */\n      tag_202\n        /* \"#utility.yul\":4255:4262   */\n      dup6\n        /* \"#utility.yul\":4246:4252   */\n      dup3\n        /* \"#utility.yul\":4235:4244   */\n      dup7\n        /* \"#utility.yul\":4231:4253   */\n      add\n        /* \"#utility.yul\":4210:4263   */\n      tag_120\n      jump\t// in\n    tag_202:\n        /* \"#utility.yul\":4200:4263   */\n      swap3\n      pop\n        /* \"#utility.yul\":4156:4273   */\n      pop\n        /* \"#utility.yul\":4312:4314   */\n      0x20\n        /* \"#utility.yul\":4338:4391   */\n      tag_203\n        /* \"#utility.yul\":4383:4390   */\n      dup6\n        /* \"#utility.yul\":4374:4380   */\n      dup3\n        /* \"#utility.yul\":4363:4372   */\n      dup7\n        /* \"#utility.yul\":4359:4381   */\n      add\n        /* \"#utility.yul\":4338:4391   */\n      tag_120\n      jump\t// in\n    tag_203:\n        /* \"#utility.yul\":4328:4391   */\n      swap2\n      pop\n        /* \"#utility.yul\":4283:4401   */\n      pop\n        /* \"#utility.yul\":3934:4408   */\n      swap3\n      pop\n      swap3\n      swap1\n      pop\n      jump\t// out\n        /* \"#utility.yul\":4414:5033   */\n    tag_33:\n        /* \"#utility.yul\":4491:4497   */\n      0x00\n        /* \"#utility.yul\":4499:4505   */\n      dup1\n        /* \"#utility.yul\":4507:4513   */\n      0x00\n        /* \"#utility.yul\":4556:4558   */\n      0x60\n        /* \"#utility.yul\":4544:4553   */\n      dup5\n        /* \"#utility.yul\":4535:4542   */\n      dup7\n        /* \"#utility.yul\":4531:4554   */\n      sub\n        /* \"#utility.yul\":4527:4559   */\n      slt\n        /* \"#utility.yul\":4524:4643   */\n      iszero\n      tag_205\n      jumpi\n        /* \"#utility.yul\":4562:4641   */\n      tag_206\n      tag_115\n      jump\t// in\n    tag_206:\n        /* \"#utility.yul\":4524:4643   */\n    tag_205:\n        /* \"#utility.yul\":4682:4683   */\n      0x00\n        /* \"#utility.yul\":4707:4760   */\n      tag_207\n        /* \"#utility.yul\":4752:4759   */\n      dup7\n        /* \"#utility.yul\":4743:4749   */\n      dup3\n        /* \"#utility.yul\":4732:4741   */\n      dup8\n        /* \"#utility.yul\":4728:4750   */\n      add\n        /* \"#utility.yul\":4707:4760   */\n      tag_120\n      jump\t// in\n    tag_207:\n        /* \"#utility.yul\":4697:4760   */\n      swap4\n      pop\n        /* \"#utility.yul\":4653:4770   */\n      pop\n        /* \"#utility.yul\":4809:4811   */\n      0x20\n        /* \"#utility.yul\":4835:4888   */\n      tag_208\n        /* \"#utility.yul\":4880:4887   */\n      dup7\n        /* \"#utility.yul\":4871:4877   */\n      dup3\n        /* \"#utility.yul\":4860:4869   */\n      dup8\n        /* \"#utility.yul\":4856:4878   */\n      add\n        /* \"#utility.yul\":4835:4888   */\n      tag_123\n      jump\t// in\n    tag_208:\n        /* \"#utility.yul\":4825:4888   */\n      swap3\n      pop\n        /* \"#utility.yul\":4780:4898   */\n      pop\n        /* \"#utility.yul\":4937:4939   */\n      0x40\n        /* \"#utility.yul\":4963:5016   */\n      tag_209\n        /* \"#utility.yul\":5008:5015   */\n      dup7\n        /* \"#utility.yul\":4999:5005   */\n      dup3\n        /* \"#utility.yul\":4988:4997   */\n      dup8\n        /* \"#utility.yul\":4984:5006   */\n      add\n        /* \"#utility.yul\":4963:5016   */\n      tag_123\n      jump\t// in\n    tag_209:\n        /* \"#utility.yul\":4953:5016   */\n      swap2\n      pop\n        /* \"#utility.yul\":4908:5026   */\n      pop\n        /* \"#utility.yul\":4414:5033   */\n      swap3\n      pop\n      swap3\n      pop\n      swap3\n      jump\t// out\n        /* \"#utility.yul\":5039:6242   */\n    tag_37:\n        /* \"#utility.yul\":5152:5158   */\n      0x00\n        /* \"#utility.yul\":5160:5166   */\n      dup1\n        /* \"#utility.yul\":5168:5174   */\n      0x00\n        /* \"#utility.yul\":5176:5182   */\n      dup1\n        /* \"#utility.yul\":5184:5190   */\n      0x00\n        /* \"#utility.yul\":5192:5198   */\n      dup1\n        /* \"#utility.yul\":5200:5206   */\n      0x00\n        /* \"#utility.yul\":5249:5252   */\n      0xe0\n        /* \"#utility.yul\":5237:5246   */\n      dup9\n        /* \"#utility.yul\":5228:5235   */\n      dup11\n        /* \"#utility.yul\":5224:5247   */\n      sub\n        /* \"#utility.yul\":5220:5253   */\n      slt\n        /* \"#utility.yul\":5217:5337   */\n      iszero\n      tag_211\n      jumpi\n        /* \"#utility.yul\":5256:5335   */\n      tag_212\n      tag_115\n      jump\t// in\n    tag_212:\n        /* \"#utility.yul\":5217:5337   */\n    tag_211:\n        /* \"#utility.yul\":5376:5377   */\n      0x00\n        /* \"#utility.yul\":5401:5454   */\n      tag_213\n        /* \"#utility.yul\":5446:5453   */\n      dup11\n        /* \"#utility.yul\":5437:5443   */\n      dup3\n        /* \"#utility.yul\":5426:5435   */\n      dup12\n        /* \"#utility.yul\":5422:5444   */\n      add\n        /* \"#utility.yul\":5401:5454   */\n      tag_120\n      jump\t// in\n    tag_213:\n        /* \"#utility.yul\":5391:5454   */\n      swap8\n      pop\n        /* \"#utility.yul\":5347:5464   */\n      pop\n        /* \"#utility.yul\":5503:5505   */\n      0x20\n        /* \"#utility.yul\":5529:5582   */\n      tag_214\n        /* \"#utility.yul\":5574:5581   */\n      dup11\n        /* \"#utility.yul\":5565:5571   */\n      dup3\n        /* \"#utility.yul\":5554:5563   */\n      dup12\n        /* \"#utility.yul\":5550:5572   */\n      add\n        /* \"#utility.yul\":5529:5582   */\n      tag_120\n      jump\t// in\n    tag_214:\n        /* \"#utility.yul\":5519:5582   */\n      swap7\n      pop\n        /* \"#utility.yul\":5474:5592   */\n      pop\n        /* \"#utility.yul\":5631:5633   */\n      0x40\n        /* \"#utility.yul\":5657:5710   */\n      tag_215\n        /* \"#utility.yul\":5702:5709   */\n      dup11\n        /* \"#utility.yul\":5693:5699   */\n      dup3\n        /* \"#utility.yul\":5682:5691   */\n      dup12\n        /* \"#utility.yul\":5678:5700   */\n      add\n        /* \"#utility.yul\":5657:5710   */\n      tag_123\n      jump\t// in\n    tag_215:\n        /* \"#utility.yul\":5647:5710   */\n      swap6\n      pop\n        /* \"#utility.yul\":5602:5720   */\n      pop\n        /* \"#utility.yul\":5759:5761   */\n      0x60\n        /* \"#utility.yul\":5785:5838   */\n      tag_216\n        /* \"#utility.yul\":5830:5837   */\n      dup11\n        /* \"#utility.yul\":5821:5827   */\n      dup3\n        /* \"#utility.yul\":5810:5819   */\n      dup12\n        /* \"#utility.yul\":5806:5828   */\n      add\n        /* \"#utility.yul\":5785:5838   */\n      tag_123\n      jump\t// in\n    tag_216:\n        /* \"#utility.yul\":5775:5838   */\n      swap5\n      pop\n        /* \"#utility.yul\":5730:5848   */\n      pop\n        /* \"#utility.yul\":5887:5890   */\n      0x80\n        /* \"#utility.yul\":5914:5967   */\n      tag_217\n        /* \"#utility.yul\":5959:5966   */\n      dup11\n        /* \"#utility.yul\":5950:5956   */\n      dup3\n        /* \"#utility.yul\":5939:5948   */\n      dup12\n        /* \"#utility.yul\":5935:5957   */\n      add\n        /* \"#utility.yul\":5914:5967   */\n      tag_123\n      jump\t// in\n    tag_217:\n        /* \"#utility.yul\":5904:5967   */\n      swap4\n      pop\n        /* \"#utility.yul\":5858:5977   */\n      pop\n        /* \"#utility.yul\":6016:6019   */\n      0xa0\n        /* \"#utility.yul\":6043:6096   */\n      tag_218\n        /* \"#utility.yul\":6088:6095   */\n      dup11\n        /* \"#utility.yul\":6079:6085   */\n      dup3\n        /* \"#utility.yul\":6068:6077   */\n      dup12\n        /* \"#utility.yul\":6064:6086   */\n      add\n        /* \"#utility.yul\":6043:6096   */\n      tag_123\n      jump\t// in\n    tag_218:\n        /* \"#utility.yul\":6033:6096   */\n      swap3\n      pop\n        /* \"#utility.yul\":5987:6106   */\n      pop\n        /* \"#utility.yul\":6145:6148   */\n      0xc0\n        /* \"#utility.yul\":6172:6225   */\n      tag_219\n        /* \"#utility.yul\":6217:6224   */\n      dup11\n        /* \"#utility.yul\":6208:6214   */\n      dup3\n        /* \"#utility.yul\":6197:6206   */\n      dup12\n        /* \"#utility.yul\":6193:6215   */\n      add\n        /* \"#utility.yul\":6172:6225   */\n      tag_123\n      jump\t// in\n    tag_219:\n        /* \"#utility.yul\":6162:6225   */\n      swap2\n      pop\n        /* \"#utility.yul\":6116:6235   */\n      pop\n        /* \"#utility.yul\":5039:6242   */\n      swap3\n      swap6\n      swap9\n      swap2\n      swap5\n      swap8\n      pop\n      swap3\n      swap6\n      pop\n      jump\t// out\n        /* \"#utility.yul\":6248:6366   */\n    tag_130:\n        /* \"#utility.yul\":6335:6359   */\n      tag_221\n        /* \"#utility.yul\":6353:6358   */\n      dup2\n        /* \"#utility.yul\":6335:6359   */\n      tag_118\n      jump\t// in\n    tag_221:\n        /* \"#utility.yul\":6330:6333   */\n      dup3\n        /* \"#utility.yul\":6323:6360   */\n      mstore\n        /* \"#utility.yul\":6248:6366   */\n      pop\n      pop\n      jump\t// out\n        /* \"#utility.yul\":6372:6594   */\n    tag_45:\n        /* \"#utility.yul\":6465:6469   */\n      0x00\n        /* \"#utility.yul\":6503:6505   */\n      0x20\n        /* \"#utility.yul\":6492:6501   */\n      dup3\n        /* \"#utility.yul\":6488:6506   */\n      add\n        /* \"#utility.yul\":6480:6506   */\n      swap1\n      pop\n        /* \"#utility.yul\":6516:6587   */\n      tag_223\n        /* \"#utility.yul\":6584:6585   */\n      0x00\n        /* \"#utility.yul\":6573:6582   */\n      dup4\n        /* \"#utility.yul\":6569:6586   */\n      add\n        /* \"#utility.yul\":6560:6566   */\n      dup5\n        /* \"#utility.yul\":6516:6587   */\n      tag_130\n      jump\t// in\n    tag_223:\n        /* \"#utility.yul\":6372:6594   */\n      swap3\n      swap2\n      pop\n      pop\n      jump\t// out\n        /* \"#utility.yul\":6600:6743   */\n    tag_131:\n        /* \"#utility.yul\":6657:6662   */\n      0x00\n        /* \"#utility.yul\":6688:6694   */\n      dup2\n        /* \"#utility.yul\":6682:6695   */\n      mload\n        /* \"#utility.yul\":6673:6695   */\n      swap1\n      pop\n        /* \"#utility.yul\":6704:6737   */\n      tag_225\n        /* \"#utility.yul\":6731:6736   */\n      dup2\n        /* \"#utility.yul\":6704:6737   */\n      tag_122\n      jump\t// in\n    tag_225:\n        /* \"#utility.yul\":6600:6743   */\n      swap3\n      swap2\n      pop\n      pop\n      jump\t// out\n        /* \"#utility.yul\":6749:7100   */\n    tag_49:\n        /* \"#utility.yul\":6819:6825   */\n      0x00\n        /* \"#utility.yul\":6868:6870   */\n      0x20\n        /* \"#utility.yul\":6856:6865   */\n      dup3\n        /* \"#utility.yul\":6847:6854   */\n      dup5\n        /* \"#utility.yul\":6843:6866   */\n      sub\n        /* \"#utility.yul\":6839:6871   */\n      slt\n        /* \"#utility.yul\":6836:6955   */\n      iszero\n      tag_227\n      jumpi\n        /* \"#utility.yul\":6874:6953   */\n      tag_228\n      tag_115\n      jump\t// in\n    tag_228:\n        /* \"#utility.yul\":6836:6955   */\n    tag_227:\n        /* \"#utility.yul\":6994:6995   */\n      0x00\n        /* \"#utility.yul\":7019:7083   */\n      tag_229\n        /* \"#utility.yul\":7075:7082   */\n      dup5\n        /* \"#utility.yul\":7066:7072   */\n      dup3\n        /* \"#utility.yul\":7055:7064   */\n      dup6\n        /* \"#utility.yul\":7051:7073   */\n      add\n        /* \"#utility.yul\":7019:7083   */\n      tag_131\n      jump\t// in\n    tag_229:\n        /* \"#utility.yul\":7009:7083   */\n      swap2\n      pop\n        /* \"#utility.yul\":6965:7093   */\n      pop\n        /* \"#utility.yul\":6749:7100   */\n      swap3\n      swap2\n      pop\n      pop\n      jump\t// out\n        /* \"#utility.yul\":7106:7286   */\n    tag_132:\n        /* \"#utility.yul\":7154:7231   */\n      0x4e487b7100000000000000000000000000000000000000000000000000000000\n        /* \"#utility.yul\":7151:7152   */\n      0x00\n        /* \"#utility.yul\":7144:7232   */\n      mstore\n        /* \"#utility.yul\":7251:7255   */\n      0x11\n        /* \"#utility.yul\":7248:7249   */\n      0x04\n        /* \"#utility.yul\":7241:7256   */\n      mstore\n        /* \"#utility.yul\":7275:7279   */\n      0x24\n        /* \"#utility.yul\":7272:7273   */\n      0x00\n        /* \"#utility.yul\":7265:7280   */\n      revert\n        /* \"#utility.yul\":7292:7483   */\n    tag_52:\n        /* \"#utility.yul\":7332:7335   */\n      0x00\n        /* \"#utility.yul\":7351:7371   */\n      tag_232\n        /* \"#utility.yul\":7369:7370   */\n      dup3\n        /* \"#utility.yul\":7351:7371   */\n      tag_121\n      jump\t// in\n    tag_232:\n        /* \"#utility.yul\":7346:7371   */\n      swap2\n      pop\n        /* \"#utility.yul\":7385:7405   */\n      tag_233\n        /* \"#utility.yul\":7403:7404   */\n      dup4\n        /* \"#utility.yul\":7385:7405   */\n      tag_121\n      jump\t// in\n    tag_233:\n        /* \"#utility.yul\":7380:7405   */\n      swap3\n      pop\n        /* \"#utility.yul\":7428:7429   */\n      dup3\n        /* \"#utility.yul\":7425:7426   */\n      dup3\n        /* \"#utility.yul\":7421:7430   */\n      add\n        /* \"#utility.yul\":7414:7430   */\n      swap1\n      pop\n        /* \"#utility.yul\":7449:7452   */\n      dup1\n        /* \"#utility.yul\":7446:7447   */\n      dup3\n        /* \"#utility.yul\":7443:7453   */\n      gt\n        /* \"#utility.yul\":7440:7476   */\n      iszero\n      tag_234\n      jumpi\n        /* \"#utility.yul\":7456:7474   */\n      tag_235\n      tag_132\n      jump\t// in\n    tag_235:\n        /* \"#utility.yul\":7440:7476   */\n    tag_234:\n        /* \"#utility.yul\":7292:7483   */\n      swap3\n      swap2\n      pop\n      pop\n      jump\t// out\n        /* \"#utility.yul\":7489:7658   */\n    tag_133:\n        /* \"#utility.yul\":7573:7584   */\n      0x00\n        /* \"#utility.yul\":7607:7613   */\n      dup3\n        /* \"#utility.yul\":7602:7605   */\n      dup3\n        /* \"#utility.yul\":7595:7614   */\n      mstore\n        /* \"#utility.yul\":7647:7651   */\n      0x20\n        /* \"#utility.yul\":7642:7645   */\n      dup3\n        /* \"#utility.yul\":7638:7652   */\n      add\n        /* \"#utility.yul\":7623:7652   */\n      swap1\n      pop\n        /* \"#utility.yul\":7489:7658   */\n      swap3\n      swap2\n      pop\n      pop\n      jump\t// out\n        /* \"#utility.yul\":7664:7833   */\n    tag_134:\n        /* \"#utility.yul\":7804:7825   */\n      0x4e6f20546f6b656e207665737465642079657400000000000000000000000000\n        /* \"#utility.yul\":7800:7801   */\n      0x00\n        /* \"#utility.yul\":7792:7798   */\n      dup3\n        /* \"#utility.yul\":7788:7802   */\n      add\n        /* \"#utility.yul\":7781:7826   */\n      mstore\n        /* \"#utility.yul\":7664:7833   */\n      pop\n      jump\t// out\n        /* \"#utility.yul\":7839:8205   */\n    tag_135:\n        /* \"#utility.yul\":7981:7984   */\n      0x00\n        /* \"#utility.yul\":8002:8069   */\n      tag_239\n        /* \"#utility.yul\":8066:8068   */\n      0x13\n        /* \"#utility.yul\":8061:8064   */\n      dup4\n        /* \"#utility.yul\":8002:8069   */\n      tag_133\n      jump\t// in\n    tag_239:\n        /* \"#utility.yul\":7995:8069   */\n      swap2\n      pop\n        /* \"#utility.yul\":8078:8171   */\n      tag_240\n        /* \"#utility.yul\":8167:8170   */\n      dup3\n        /* \"#utility.yul\":8078:8171   */\n      tag_134\n      jump\t// in\n    tag_240:\n        /* \"#utility.yul\":8196:8198   */\n      0x20\n        /* \"#utility.yul\":8191:8194   */\n      dup3\n        /* \"#utility.yul\":8187:8199   */\n      add\n        /* \"#utility.yul\":8180:8199   */\n      swap1\n      pop\n        /* \"#utility.yul\":7839:8205   */\n      swap2\n      swap1\n      pop\n      jump\t// out\n        /* \"#utility.yul\":8211:8630   */\n    tag_55:\n        /* \"#utility.yul\":8377:8381   */\n      0x00\n        /* \"#utility.yul\":8415:8417   */\n      0x20\n        /* \"#utility.yul\":8404:8413   */\n      dup3\n        /* \"#utility.yul\":8400:8418   */\n      add\n        /* \"#utility.yul\":8392:8418   */\n      swap1\n      pop\n        /* \"#utility.yul\":8464:8473   */\n      dup2\n        /* \"#utility.yul\":8458:8462   */\n      dup2\n        /* \"#utility.yul\":8454:8474   */\n      sub\n        /* \"#utility.yul\":8450:8451   */\n      0x00\n        /* \"#utility.yul\":8439:8448   */\n      dup4\n        /* \"#utility.yul\":8435:8452   */\n      add\n        /* \"#utility.yul\":8428:8475   */\n      mstore\n        /* \"#utility.yul\":8492:8623   */\n      tag_242\n        /* \"#utility.yul\":8618:8622   */\n      dup2\n        /* \"#utility.yul\":8492:8623   */\n      tag_135\n      jump\t// in\n    tag_242:\n        /* \"#utility.yul\":8484:8623   */\n      swap1\n      pop\n        /* \"#utility.yul\":8211:8630   */\n      swap2\n      swap1\n      pop\n      jump\t// out\n        /* \"#utility.yul\":8636:8816   */\n    tag_136:\n        /* \"#utility.yul\":8684:8761   */\n      0x4e487b7100000000000000000000000000000000000000000000000000000000\n        /* \"#utility.yul\":8681:8682   */\n      0x00\n        /* \"#utility.yul\":8674:8762   */\n      mstore\n        /* \"#utility.yul\":8781:8785   */\n      0x12\n        /* \"#utility.yul\":8778:8779   */\n      0x04\n        /* \"#utility.yul\":8771:8786   */\n      mstore\n        /* \"#utility.yul\":8805:8809   */\n      0x24\n        /* \"#utility.yul\":8802:8803   */\n      0x00\n        /* \"#utility.yul\":8795:8810   */\n      revert\n        /* \"#utility.yul\":8822:9007   */\n    tag_57:\n        /* \"#utility.yul\":8862:8863   */\n      0x00\n        /* \"#utility.yul\":8879:8899   */\n      tag_245\n        /* \"#utility.yul\":8897:8898   */\n      dup3\n        /* \"#utility.yul\":8879:8899   */\n      tag_121\n      jump\t// in\n    tag_245:\n        /* \"#utility.yul\":8874:8899   */\n      swap2\n      pop\n        /* \"#utility.yul\":8913:8933   */\n      tag_246\n        /* \"#utility.yul\":8931:8932   */\n      dup4\n        /* \"#utility.yul\":8913:8933   */\n      tag_121\n      jump\t// in\n    tag_246:\n        /* \"#utility.yul\":8908:8933   */\n      swap3\n      pop\n        /* \"#utility.yul\":8952:8953   */\n      dup3\n        /* \"#utility.yul\":8942:8977   */\n      tag_247\n      jumpi\n        /* \"#utility.yul\":8957:8975   */\n      tag_248\n      tag_136\n      jump\t// in\n    tag_248:\n        /* \"#utility.yul\":8942:8977   */\n    tag_247:\n        /* \"#utility.yul\":8999:9000   */\n      dup3\n        /* \"#utility.yul\":8996:8997   */\n      dup3\n        /* \"#utility.yul\":8992:9001   */\n      div\n        /* \"#utility.yul\":8987:9001   */\n      swap1\n      pop\n        /* \"#utility.yul\":8822:9007   */\n      swap3\n      swap2\n      pop\n      pop\n      jump\t// out\n        /* \"#utility.yul\":9013:9207   */\n    tag_63:\n        /* \"#utility.yul\":9053:9057   */\n      0x00\n        /* \"#utility.yul\":9073:9093   */\n      tag_250\n        /* \"#utility.yul\":9091:9092   */\n      dup3\n        /* \"#utility.yul\":9073:9093   */\n      tag_121\n      jump\t// in\n    tag_250:\n        /* \"#utility.yul\":9068:9093   */\n      swap2\n      pop\n        /* \"#utility.yul\":9107:9127   */\n      tag_251\n        /* \"#utility.yul\":9125:9126   */\n      dup4\n        /* \"#utility.yul\":9107:9127   */\n      tag_121\n      jump\t// in\n    tag_251:\n        /* \"#utility.yul\":9102:9127   */\n      swap3\n      pop\n        /* \"#utility.yul\":9151:9152   */\n      dup3\n        /* \"#utility.yul\":9148:9149   */\n      dup3\n        /* \"#utility.yul\":9144:9153   */\n      sub\n        /* \"#utility.yul\":9136:9153   */\n      swap1\n      pop\n        /* \"#utility.yul\":9175:9176   */\n      dup2\n        /* \"#utility.yul\":9169:9173   */\n      dup2\n        /* \"#utility.yul\":9166:9177   */\n      gt\n        /* \"#utility.yul\":9163:9200   */\n      iszero\n      tag_252\n      jumpi\n        /* \"#utility.yul\":9180:9198   */\n      tag_253\n      tag_132\n      jump\t// in\n    tag_253:\n        /* \"#utility.yul\":9163:9200   */\n    tag_252:\n        /* \"#utility.yul\":9013:9207   */\n      swap3\n      swap2\n      pop\n      pop\n      jump\t// out\n        /* \"#utility.yul\":9213:9623   */\n    tag_66:\n        /* \"#utility.yul\":9253:9260   */\n      0x00\n        /* \"#utility.yul\":9276:9296   */\n      tag_255\n        /* \"#utility.yul\":9294:9295   */\n      dup3\n        /* \"#utility.yul\":9276:9296   */\n      tag_121\n      jump\t// in\n    tag_255:\n        /* \"#utility.yul\":9271:9296   */\n      swap2\n      pop\n        /* \"#utility.yul\":9310:9330   */\n      tag_256\n        /* \"#utility.yul\":9328:9329   */\n      dup4\n        /* \"#utility.yul\":9310:9330   */\n      tag_121\n      jump\t// in\n    tag_256:\n        /* \"#utility.yul\":9305:9330   */\n      swap3\n      pop\n        /* \"#utility.yul\":9365:9366   */\n      dup3\n        /* \"#utility.yul\":9362:9363   */\n      dup3\n        /* \"#utility.yul\":9358:9367   */\n      mul\n        /* \"#utility.yul\":9387:9417   */\n      tag_257\n        /* \"#utility.yul\":9405:9416   */\n      dup2\n        /* \"#utility.yul\":9387:9417   */\n      tag_121\n      jump\t// in\n    tag_257:\n        /* \"#utility.yul\":9376:9417   */\n      swap2\n      pop\n        /* \"#utility.yul\":9566:9567   */\n      dup3\n        /* \"#utility.yul\":9557:9564   */\n      dup3\n        /* \"#utility.yul\":9553:9568   */\n      div\n        /* \"#utility.yul\":9550:9551   */\n      dup5\n        /* \"#utility.yul\":9547:9569   */\n      eq\n        /* \"#utility.yul\":9527:9528   */\n      dup4\n        /* \"#utility.yul\":9520:9529   */\n      iszero\n        /* \"#utility.yul\":9500:9583   */\n      or\n        /* \"#utility.yul\":9477:9616   */\n      tag_258\n      jumpi\n        /* \"#utility.yul\":9596:9614   */\n      tag_259\n      tag_132\n      jump\t// in\n    tag_259:\n        /* \"#utility.yul\":9477:9616   */\n    tag_258:\n        /* \"#utility.yul\":9261:9623   */\n      pop\n        /* \"#utility.yul\":9213:9623   */\n      swap3\n      swap2\n      pop\n      pop\n      jump\t// out\n        /* \"#utility.yul\":9629:9961   */\n    tag_73:\n        /* \"#utility.yul\":9750:9754   */\n      0x00\n        /* \"#utility.yul\":9788:9790   */\n      0x40\n        /* \"#utility.yul\":9777:9786   */\n      dup3\n        /* \"#utility.yul\":9773:9791   */\n      add\n        /* \"#utility.yul\":9765:9791   */\n      swap1\n      pop\n        /* \"#utility.yul\":9801:9872   */\n      tag_261\n        /* \"#utility.yul\":9869:9870   */\n      0x00\n        /* \"#utility.yul\":9858:9867   */\n      dup4\n        /* \"#utility.yul\":9854:9871   */\n      add\n        /* \"#utility.yul\":9845:9851   */\n      dup6\n        /* \"#utility.yul\":9801:9872   */\n      tag_130\n      jump\t// in\n    tag_261:\n        /* \"#utility.yul\":9882:9954   */\n      tag_262\n        /* \"#utility.yul\":9950:9952   */\n      0x20\n        /* \"#utility.yul\":9939:9948   */\n      dup4\n        /* \"#utility.yul\":9935:9953   */\n      add\n        /* \"#utility.yul\":9926:9932   */\n      dup5\n        /* \"#utility.yul\":9882:9954   */\n      tag_129\n      jump\t// in\n    tag_262:\n        /* \"#utility.yul\":9629:9961   */\n      swap4\n      swap3\n      pop\n      pop\n      pop\n      jump\t// out\n        /* \"#utility.yul\":9967:10145   */\n    tag_137:\n        /* \"#utility.yul\":10107:10137   */\n      0x4f6e6c792062656e696669636961722063616e20776974686472617700000000\n        /* \"#utility.yul\":10103:10104   */\n      0x00\n        /* \"#utility.yul\":10095:10101   */\n      dup3\n        /* \"#utility.yul\":10091:10105   */\n      add\n        /* \"#utility.yul\":10084:10138   */\n      mstore\n        /* \"#utility.yul\":9967:10145   */\n      pop\n      jump\t// out\n        /* \"#utility.yul\":10151:10517   */\n    tag_138:\n        /* \"#utility.yul\":10293:10296   */\n      0x00\n        /* \"#utility.yul\":10314:10381   */\n      tag_265\n        /* \"#utility.yul\":10378:10380   */\n      0x1c\n        /* \"#utility.yul\":10373:10376   */\n      dup4\n        /* \"#utility.yul\":10314:10381   */\n      tag_133\n      jump\t// in\n    tag_265:\n        /* \"#utility.yul\":10307:10381   */\n      swap2\n      pop\n        /* \"#utility.yul\":10390:10483   */\n      tag_266\n        /* \"#utility.yul\":10479:10482   */\n      dup3\n        /* \"#utility.yul\":10390:10483   */\n      tag_137\n      jump\t// in\n    tag_266:\n        /* \"#utility.yul\":10508:10510   */\n      0x20\n        /* \"#utility.yul\":10503:10506   */\n      dup3\n        /* \"#utility.yul\":10499:10511   */\n      add\n        /* \"#utility.yul\":10492:10511   */\n      swap1\n      pop\n        /* \"#utility.yul\":10151:10517   */\n      swap2\n      swap1\n      pop\n      jump\t// out\n        /* \"#utility.yul\":10523:10942   */\n    tag_77:\n        /* \"#utility.yul\":10689:10693   */\n      0x00\n        /* \"#utility.yul\":10727:10729   */\n      0x20\n        /* \"#utility.yul\":10716:10725   */\n      dup3\n        /* \"#utility.yul\":10712:10730   */\n      add\n        /* \"#utility.yul\":10704:10730   */\n      swap1\n      pop\n        /* \"#utility.yul\":10776:10785   */\n      dup2\n        /* \"#utility.yul\":10770:10774   */\n      dup2\n        /* \"#utility.yul\":10766:10786   */\n      sub\n        /* \"#utility.yul\":10762:10763   */\n      0x00\n        /* \"#utility.yul\":10751:10760   */\n      dup4\n        /* \"#utility.yul\":10747:10764   */\n      add\n        /* \"#utility.yul\":10740:10787   */\n      mstore\n        /* \"#utility.yul\":10804:10935   */\n      tag_268\n        /* \"#utility.yul\":10930:10934   */\n      dup2\n        /* \"#utility.yul\":10804:10935   */\n      tag_138\n      jump\t// in\n    tag_268:\n        /* \"#utility.yul\":10796:10935   */\n      swap1\n      pop\n        /* \"#utility.yul\":10523:10942   */\n      swap2\n      swap1\n      pop\n      jump\t// out\n        /* \"#utility.yul\":10948:11123   */\n    tag_139:\n        /* \"#utility.yul\":11088:11115   */\n      0x4e6f20616d6f756e7420746f2062652077697468647261776e00000000000000\n        /* \"#utility.yul\":11084:11085   */\n      0x00\n        /* \"#utility.yul\":11076:11082   */\n      dup3\n        /* \"#utility.yul\":11072:11086   */\n      add\n        /* \"#utility.yul\":11065:11116   */\n      mstore\n        /* \"#utility.yul\":10948:11123   */\n      pop\n      jump\t// out\n        /* \"#utility.yul\":11129:11495   */\n    tag_140:\n        /* \"#utility.yul\":11271:11274   */\n      0x00\n        /* \"#utility.yul\":11292:11359   */\n      tag_271\n        /* \"#utility.yul\":11356:11358   */\n      0x19\n        /* \"#utility.yul\":11351:11354   */\n      dup4\n        /* \"#utility.yul\":11292:11359   */\n      tag_133\n      jump\t// in\n    tag_271:\n        /* \"#utility.yul\":11285:11359   */\n      swap2\n      pop\n        /* \"#utility.yul\":11368:11461   */\n      tag_272\n        /* \"#utility.yul\":11457:11460   */\n      dup3\n        /* \"#utility.yul\":11368:11461   */\n      tag_139\n      jump\t// in\n    tag_272:\n        /* \"#utility.yul\":11486:11488   */\n      0x20\n        /* \"#utility.yul\":11481:11484   */\n      dup3\n        /* \"#utility.yul\":11477:11489   */\n      add\n        /* \"#utility.yul\":11470:11489   */\n      swap1\n      pop\n        /* \"#utility.yul\":11129:11495   */\n      swap2\n      swap1\n      pop\n      jump\t// out\n        /* \"#utility.yul\":11501:11920   */\n    tag_80:\n        /* \"#utility.yul\":11667:11671   */\n      0x00\n        /* \"#utility.yul\":11705:11707   */\n      0x20\n        /* \"#utility.yul\":11694:11703   */\n      dup3\n        /* \"#utility.yul\":11690:11708   */\n      add\n        /* \"#utility.yul\":11682:11708   */\n      swap1\n      pop\n        /* \"#utility.yul\":11754:11763   */\n      dup2\n        /* \"#utility.yul\":11748:11752   */\n      dup2\n        /* \"#utility.yul\":11744:11764   */\n      sub\n        /* \"#utility.yul\":11740:11741   */\n      0x00\n        /* \"#utility.yul\":11729:11738   */\n      dup4\n        /* \"#utility.yul\":11725:11742   */\n      add\n        /* \"#utility.yul\":11718:11765   */\n      mstore\n        /* \"#utility.yul\":11782:11913   */\n      tag_274\n        /* \"#utility.yul\":11908:11912   */\n      dup2\n        /* \"#utility.yul\":11782:11913   */\n      tag_140\n      jump\t// in\n    tag_274:\n        /* \"#utility.yul\":11774:11913   */\n      swap1\n      pop\n        /* \"#utility.yul\":11501:11920   */\n      swap2\n      swap1\n      pop\n      jump\t// out\n        /* \"#utility.yul\":11926:12016   */\n    tag_141:\n        /* \"#utility.yul\":11960:11967   */\n      0x00\n        /* \"#utility.yul\":12003:12008   */\n      dup2\n        /* \"#utility.yul\":11996:12009   */\n      iszero\n        /* \"#utility.yul\":11989:12010   */\n      iszero\n        /* \"#utility.yul\":11978:12010   */\n      swap1\n      pop\n        /* \"#utility.yul\":11926:12016   */\n      swap2\n      swap1\n      pop\n      jump\t// out\n        /* \"#utility.yul\":12022:12138   */\n    tag_142:\n        /* \"#utility.yul\":12092:12113   */\n      tag_277\n        /* \"#utility.yul\":12107:12112   */\n      dup2\n        /* \"#utility.yul\":12092:12113   */\n      tag_141\n      jump\t// in\n    tag_277:\n        /* \"#utility.yul\":12085:12090   */\n      dup2\n        /* \"#utility.yul\":12082:12114   */\n      eq\n        /* \"#utility.yul\":12072:12132   */\n      tag_278\n      jumpi\n        /* \"#utility.yul\":12128:12129   */\n      0x00\n        /* \"#utility.yul\":12125:12126   */\n      dup1\n        /* \"#utility.yul\":12118:12130   */\n      revert\n        /* \"#utility.yul\":12072:12132   */\n    tag_278:\n        /* \"#utility.yul\":12022:12138   */\n      pop\n      jump\t// out\n        /* \"#utility.yul\":12144:12281   */\n    tag_143:\n        /* \"#utility.yul\":12198:12203   */\n      0x00\n        /* \"#utility.yul\":12229:12235   */\n      dup2\n        /* \"#utility.yul\":12223:12236   */\n      mload\n        /* \"#utility.yul\":12214:12236   */\n      swap1\n      pop\n        /* \"#utility.yul\":12245:12275   */\n      tag_280\n        /* \"#utility.yul\":12269:12274   */\n      dup2\n        /* \"#utility.yul\":12245:12275   */\n      tag_142\n      jump\t// in\n    tag_280:\n        /* \"#utility.yul\":12144:12281   */\n      swap3\n      swap2\n      pop\n      pop\n      jump\t// out\n        /* \"#utility.yul\":12287:12632   */\n    tag_86:\n        /* \"#utility.yul\":12354:12360   */\n      0x00\n        /* \"#utility.yul\":12403:12405   */\n      0x20\n        /* \"#utility.yul\":12391:12400   */\n      dup3\n        /* \"#utility.yul\":12382:12389   */\n      dup5\n        /* \"#utility.yul\":12378:12401   */\n      sub\n        /* \"#utility.yul\":12374:12406   */\n      slt\n        /* \"#utility.yul\":12371:12490   */\n      iszero\n      tag_282\n      jumpi\n        /* \"#utility.yul\":12409:12488   */\n      tag_283\n      tag_115\n      jump\t// in\n    tag_283:\n        /* \"#utility.yul\":12371:12490   */\n    tag_282:\n        /* \"#utility.yul\":12529:12530   */\n      0x00\n        /* \"#utility.yul\":12554:12615   */\n      tag_284\n        /* \"#utility.yul\":12607:12614   */\n      dup5\n        /* \"#utility.yul\":12598:12604   */\n      dup3\n        /* \"#utility.yul\":12587:12596   */\n      dup6\n        /* \"#utility.yul\":12583:12605   */\n      add\n        /* \"#utility.yul\":12554:12615   */\n      tag_143\n      jump\t// in\n    tag_284:\n        /* \"#utility.yul\":12544:12615   */\n      swap2\n      pop\n        /* \"#utility.yul\":12500:12625   */\n      pop\n        /* \"#utility.yul\":12287:12632   */\n      swap3\n      swap2\n      pop\n      pop\n      jump\t// out\n        /* \"#utility.yul\":12638:12803   */\n    tag_144:\n        /* \"#utility.yul\":12778:12795   */\n      0x41646420736f6d6520746f6b656e730000000000000000000000000000000000\n        /* \"#utility.yul\":12774:12775   */\n      0x00\n        /* \"#utility.yul\":12766:12772   */\n      dup3\n        /* \"#utility.yul\":12762:12776   */\n      add\n        /* \"#utility.yul\":12755:12796   */\n      mstore\n        /* \"#utility.yul\":12638:12803   */\n      pop\n      jump\t// out\n        /* \"#utility.yul\":12809:13175   */\n    tag_145:\n        /* \"#utility.yul\":12951:12954   */\n      0x00\n        /* \"#utility.yul\":12972:13039   */\n      tag_287\n        /* \"#utility.yul\":13036:13038   */\n      0x0f\n        /* \"#utility.yul\":13031:13034   */\n      dup4\n        /* \"#utility.yul\":12972:13039   */\n      tag_133\n      jump\t// in\n    tag_287:\n        /* \"#utility.yul\":12965:13039   */\n      swap2\n      pop\n        /* \"#utility.yul\":13048:13141   */\n      tag_288\n        /* \"#utility.yul\":13137:13140   */\n      dup3\n        /* \"#utility.yul\":13048:13141   */\n      tag_144\n      jump\t// in\n    tag_288:\n        /* \"#utility.yul\":13166:13168   */\n      0x20\n        /* \"#utility.yul\":13161:13164   */\n      dup3\n        /* \"#utility.yul\":13157:13169   */\n      add\n        /* \"#utility.yul\":13150:13169   */\n      swap1\n      pop\n        /* \"#utility.yul\":12809:13175   */\n      swap2\n      swap1\n      pop\n      jump\t// out\n        /* \"#utility.yul\":13181:13600   */\n    tag_91:\n        /* \"#utility.yul\":13347:13351   */\n      0x00\n        /* \"#utility.yul\":13385:13387   */\n      0x20\n        /* \"#utility.yul\":13374:13383   */\n      dup3\n        /* \"#utility.yul\":13370:13388   */\n      add\n        /* \"#utility.yul\":13362:13388   */\n      swap1\n      pop\n        /* \"#utility.yul\":13434:13443   */\n      dup2\n        /* \"#utility.yul\":13428:13432   */\n      dup2\n        /* \"#utility.yul\":13424:13444   */\n      sub\n        /* \"#utility.yul\":13420:13421   */\n      0x00\n        /* \"#utility.yul\":13409:13418   */\n      dup4\n        /* \"#utility.yul\":13405:13422   */\n      add\n        /* \"#utility.yul\":13398:13445   */\n      mstore\n        /* \"#utility.yul\":13462:13593   */\n      tag_290\n        /* \"#utility.yul\":13588:13592   */\n      dup2\n        /* \"#utility.yul\":13462:13593   */\n      tag_145\n      jump\t// in\n    tag_290:\n        /* \"#utility.yul\":13454:13593   */\n      swap1\n      pop\n        /* \"#utility.yul\":13181:13600   */\n      swap2\n      swap1\n      pop\n      jump\t// out\n        /* \"#utility.yul\":13606:13771   */\n    tag_146:\n        /* \"#utility.yul\":13746:13763   */\n      0x417070726f76616c206661696c65640000000000000000000000000000000000\n        /* \"#utility.yul\":13742:13743   */\n      0x00\n        /* \"#utility.yul\":13734:13740   */\n      dup3\n        /* \"#utility.yul\":13730:13744   */\n      add\n        /* \"#utility.yul\":13723:13764   */\n      mstore\n        /* \"#utility.yul\":13606:13771   */\n      pop\n      jump\t// out\n        /* \"#utility.yul\":13777:14143   */\n    tag_147:\n        /* \"#utility.yul\":13919:13922   */\n      0x00\n        /* \"#utility.yul\":13940:14007   */\n      tag_293\n        /* \"#utility.yul\":14004:14006   */\n      0x0f\n        /* \"#utility.yul\":13999:14002   */\n      dup4\n        /* \"#utility.yul\":13940:14007   */\n      tag_133\n      jump\t// in\n    tag_293:\n        /* \"#utility.yul\":13933:14007   */\n      swap2\n      pop\n        /* \"#utility.yul\":14016:14109   */\n      tag_294\n        /* \"#utility.yul\":14105:14108   */\n      dup3\n        /* \"#utility.yul\":14016:14109   */\n      tag_146\n      jump\t// in\n    tag_294:\n        /* \"#utility.yul\":14134:14136   */\n      0x20\n        /* \"#utility.yul\":14129:14132   */\n      dup3\n        /* \"#utility.yul\":14125:14137   */\n      add\n        /* \"#utility.yul\":14118:14137   */\n      swap1\n      pop\n        /* \"#utility.yul\":13777:14143   */\n      swap2\n      swap1\n      pop\n      jump\t// out\n        /* \"#utility.yul\":14149:14568   */\n    tag_98:\n        /* \"#utility.yul\":14315:14319   */\n      0x00\n        /* \"#utility.yul\":14353:14355   */\n      0x20\n        /* \"#utility.yul\":14342:14351   */\n      dup3\n        /* \"#utility.yul\":14338:14356   */\n      add\n        /* \"#utility.yul\":14330:14356   */\n      swap1\n      pop\n        /* \"#utility.yul\":14402:14411   */\n      dup2\n        /* \"#utility.yul\":14396:14400   */\n      dup2\n        /* \"#utility.yul\":14392:14412   */\n      sub\n        /* \"#utility.yul\":14388:14389   */\n      0x00\n        /* \"#utility.yul\":14377:14386   */\n      dup4\n        /* \"#utility.yul\":14373:14390   */\n      add\n        /* \"#utility.yul\":14366:14413   */\n      mstore\n        /* \"#utility.yul\":14430:14561   */\n      tag_296\n        /* \"#utility.yul\":14556:14560   */\n      dup2\n        /* \"#utility.yul\":14430:14561   */\n      tag_147\n      jump\t// in\n    tag_296:\n        /* \"#utility.yul\":14422:14561   */\n      swap1\n      pop\n        /* \"#utility.yul\":14149:14568   */\n      swap2\n      swap1\n      pop\n      jump\t// out\n        /* \"#utility.yul\":14574:15016   */\n    tag_100:\n        /* \"#utility.yul\":14723:14727   */\n      0x00\n        /* \"#utility.yul\":14761:14763   */\n      0x60\n        /* \"#utility.yul\":14750:14759   */\n      dup3\n        /* \"#utility.yul\":14746:14764   */\n      add\n        /* \"#utility.yul\":14738:14764   */\n      swap1\n      pop\n        /* \"#utility.yul\":14774:14845   */\n      tag_298\n        /* \"#utility.yul\":14842:14843   */\n      0x00\n        /* \"#utility.yul\":14831:14840   */\n      dup4\n        /* \"#utility.yul\":14827:14844   */\n      add\n        /* \"#utility.yul\":14818:14824   */\n      dup7\n        /* \"#utility.yul\":14774:14845   */\n      tag_130\n      jump\t// in\n    tag_298:\n        /* \"#utility.yul\":14855:14927   */\n      tag_299\n        /* \"#utility.yul\":14923:14925   */\n      0x20\n        /* \"#utility.yul\":14912:14921   */\n      dup4\n        /* \"#utility.yul\":14908:14926   */\n      add\n        /* \"#utility.yul\":14899:14905   */\n      dup6\n        /* \"#utility.yul\":14855:14927   */\n      tag_130\n      jump\t// in\n    tag_299:\n        /* \"#utility.yul\":14937:15009   */\n      tag_300\n        /* \"#utility.yul\":15005:15007   */\n      0x40\n        /* \"#utility.yul\":14994:15003   */\n      dup4\n        /* \"#utility.yul\":14990:15008   */\n      add\n        /* \"#utility.yul\":14981:14987   */\n      dup5\n        /* \"#utility.yul\":14937:15009   */\n      tag_129\n      jump\t// in\n    tag_300:\n        /* \"#utility.yul\":14574:15016   */\n      swap5\n      swap4\n      pop\n      pop\n      pop\n      pop\n      jump\t// out\n        /* \"#utility.yul\":15022:15255   */\n    tag_105:\n        /* \"#utility.yul\":15061:15064   */\n      0x00\n        /* \"#utility.yul\":15084:15108   */\n      tag_302\n        /* \"#utility.yul\":15102:15107   */\n      dup3\n        /* \"#utility.yul\":15084:15108   */\n      tag_121\n      jump\t// in\n    tag_302:\n        /* \"#utility.yul\":15075:15108   */\n      swap2\n      pop\n        /* \"#utility.yul\":15130:15196   */\n      0xffffffffffffffffffffffffffffffffffffffffffffffffffffffffffffffff\n        /* \"#utility.yul\":15123:15128   */\n      dup3\n        /* \"#utility.yul\":15120:15197   */\n      sub\n        /* \"#utility.yul\":15117:15220   */\n      tag_303\n      jumpi\n        /* \"#utility.yul\":15200:15218   */\n      tag_304\n      tag_132\n      jump\t// in\n    tag_304:\n        /* \"#utility.yul\":15117:15220   */\n    tag_303:\n        /* \"#utility.yul\":15247:15248   */\n      0x01\n        /* \"#utility.yul\":15240:15245   */\n      dup3\n        /* \"#utility.yul\":15236:15249   */\n      add\n        /* \"#utility.yul\":15229:15249   */\n      swap1\n      pop\n        /* \"#utility.yul\":15022:15255   */\n      swap2\n      swap1\n      pop\n      jump\t// out\n        /* \"#utility.yul\":15261:15432   */\n    tag_148:\n        /* \"#utility.yul\":15401:15424   */\n      0x4f6e6c79204f776e65722063616e206163636573730000000000000000000000\n        /* \"#utility.yul\":15397:15398   */\n      0x00\n        /* \"#utility.yul\":15389:15395   */\n      dup3\n        /* \"#utility.yul\":15385:15399   */\n      add\n        /* \"#utility.yul\":15378:15425   */\n      mstore\n        /* \"#utility.yul\":15261:15432   */\n      pop\n      jump\t// out\n        /* \"#utility.yul\":15438:15804   */\n    tag_149:\n        /* \"#utility.yul\":15580:15583   */\n      0x00\n        /* \"#utility.yul\":15601:15668   */\n      tag_307\n        /* \"#utility.yul\":15665:15667   */\n      0x15\n        /* \"#utility.yul\":15660:15663   */\n      dup4\n        /* \"#utility.yul\":15601:15668   */\n      tag_133\n      jump\t// in\n    tag_307:\n        /* \"#utility.yul\":15594:15668   */\n      swap2\n      pop\n        /* \"#utility.yul\":15677:15770   */\n      tag_308\n        /* \"#utility.yul\":15766:15769   */\n      dup3\n        /* \"#utility.yul\":15677:15770   */\n      tag_148\n      jump\t// in\n    tag_308:\n        /* \"#utility.yul\":15795:15797   */\n      0x20\n        /* \"#utility.yul\":15790:15793   */\n      dup3\n        /* \"#utility.yul\":15786:15798   */\n      add\n        /* \"#utility.yul\":15779:15798   */\n      swap1\n      pop\n        /* \"#utility.yul\":15438:15804   */\n      swap2\n      swap1\n      pop\n      jump\t// out\n        /* \"#utility.yul\":15810:16229   */\n    tag_110:\n        /* \"#utility.yul\":15976:15980   */\n      0x00\n        /* \"#utility.yul\":16014:16016   */\n      0x20\n        /* \"#utility.yul\":16003:16012   */\n      dup3\n        /* \"#utility.yul\":15999:16017   */\n      add\n        /* \"#utility.yul\":15991:16017   */\n      swap1\n      pop\n        /* \"#utility.yul\":16063:16072   */\n      dup2\n        /* \"#utility.yul\":16057:16061   */\n      dup2\n        /* \"#utility.yul\":16053:16073   */\n      sub\n        /* \"#utility.yul\":16049:16050   */\n      0x00\n        /* \"#utility.yul\":16038:16047   */\n      dup4\n        /* \"#utility.yul\":16034:16051   */\n      add\n        /* \"#utility.yul\":16027:16074   */\n      mstore\n        /* \"#utility.yul\":16091:16222   */\n      tag_310\n        /* \"#utility.yul\":16217:16221   */\n      dup2\n        /* \"#utility.yul\":16091:16222   */\n      tag_149\n      jump\t// in\n    tag_310:\n        /* \"#utility.yul\":16083:16222   */\n      swap1\n      pop\n        /* \"#utility.yul\":15810:16229   */\n      swap2\n      swap1\n      pop\n      jump\t// out\n\n    auxdata: 0xa2646970667358221220588060ae00f93eec1d1b8b7a9148b80aadb2a1547d35b24d18340daa867157de64736f6c63430008120033\n}\n",
				"bytecode": {
					"linkReferences": {},
					"object": "608060405234801561001057600080fd5b50336000806101000a81548173ffffffffffffffffffffffffffffffffffffffff021916908373ffffffffffffffffffffffffffffffffffffffff160217905550611720806100606000396000f3fe608060405234801561001057600080fd5b506004361061007d5760003560e01c80638ce4081a1161005b5780638ce4081a1461011b578063b5c5f6721461014b578063bba4e63114610167578063f40d71f1146101835761007d565b806345626bd6146100825780634dc12d7f146100bb57806377b76ec3146100eb575b600080fd5b61009c60048036038101906100979190610f05565b6101b3565b6040516100b29a99989796959493929190610fb3565b60405180910390f35b6100d560048036038101906100d09190610f05565b610234565b6040516100e2919061104f565b60405180910390f35b6101056004803603810190610100919061106a565b610259565b604051610112919061104f565b60405180910390f35b61013560048036038101906101309190610f05565b6102dd565b604051610142919061104f565b60405180910390f35b610165600480360381019061016091906110aa565b610529565b005b610181600480360381019061017c91906110fd565b6107c1565b005b61019d60048036038101906101989190610f05565b610d12565b6040516101aa919061104f565b60405180910390f35b6003602052816000526040600020602052806000526040600020600091509150508060000160009054906101000a900473ffffffffffffffffffffffffffffffffffffffff1690806001015490806002015490806003015490806004015490806005015490806006015490806007015490806008015490806009015490508a565b6002602052816000526040600020602052806000526040600020600091509150505481565b60008273ffffffffffffffffffffffffffffffffffffffff166370a08231836040518263ffffffff1660e01b815260040161029491906111ae565b602060405180830381865afa1580156102b1573d6000803e3d6000fd5b505050506040513d601f19601f820116820180604052508101906102d591906111de565b905092915050565b600080600360008573ffffffffffffffffffffffffffffffffffffffff1673ffffffffffffffffffffffffffffffffffffffff168152602001908152602001600020600084815260200190815260200160002090504281600401548260010154610347919061123a565b1115610388576040517f08c379a000000000000000000000000000000000000000000000000000000000815260040161037f906112cb565b60405180910390fd5b60008160040154826003015461039e919061131a565b905060008183600501546103b2919061131a565b90506000429050836003015484600101546103cd919061123a565b81106103ea57836003015484600101546103e7919061123a565b90505b8360010154816103fa919061134b565b8460080181905550600084600401548560080154610418919061131a565b90508460060154838261042b919061137f565b610435919061134b565b85600701819055508460070154856006016000828254610455919061123a565b925050819055508381106104925784600601548560050154610477919061134b565b85600701600082825461048a919061123a565b925050819055505b8460070154600160008a73ffffffffffffffffffffffffffffffffffffffff1673ffffffffffffffffffffffffffffffffffffffff168152602001908152602001600020819055507ff91178d1be119af5729bcbbceec49bbc2bb69207997394e7c9be1cf3f1ca9ca088866007015460405161050f9291906113c1565b60405180910390a184600701549550505050505092915050565b3373ffffffffffffffffffffffffffffffffffffffff168373ffffffffffffffffffffffffffffffffffffffff1614610597576040517f08c379a000000000000000000000000000000000000000000000000000000000815260040161058e90611436565b60405180910390fd5b6000600260008573ffffffffffffffffffffffffffffffffffffffff1673ffffffffffffffffffffffffffffffffffffffff1681526020019081526020016000206000838152602001908152602001600020541161062a576040517f08c379a0000000000000000000000000000000000000000000000000000000008152600401610621906114a2565b60405180910390fd5b81600260008573ffffffffffffffffffffffffffffffffffffffff1673ffffffffffffffffffffffffffffffffffffffff1681526020019081526020016000206000838152602001908152602001600020600082825461068a919061134b565b92505081905550600360008473ffffffffffffffffffffffffffffffffffffffff1673ffffffffffffffffffffffffffffffffffffffff168152602001908152602001600020600082815260200190815260200160002060000160009054906101000a900473ffffffffffffffffffffffffffffffffffffffff1673ffffffffffffffffffffffffffffffffffffffff1663a9059cbb84846040518363ffffffff1660e01b815260040161073f9291906113c1565b6020604051808303816000875af115801561075e573d6000803e3d6000fd5b505050506040513d601f19601f8201168201806040525081019061078291906114fa565b507f680f2e4f4032ebf1774e8cdbaddcb1b617a5a606411c8ca96257ada338d3833c83836040516107b49291906113c1565b60405180910390a1505050565b6040518061014001604052808873ffffffffffffffffffffffffffffffffffffffff168152602001858152602001848152602001838152602001828152602001868152602001600081526020016000815260200160008152602001600460008973ffffffffffffffffffffffffffffffffffffffff1673ffffffffffffffffffffffffffffffffffffffff16815260200190815260200160002054815250600360008873ffffffffffffffffffffffffffffffffffffffff1673ffffffffffffffffffffffffffffffffffffffff1681526020019081526020016000206000600460008a73ffffffffffffffffffffffffffffffffffffffff1673ffffffffffffffffffffffffffffffffffffffff16815260200190815260200160002054815260200190815260200160002060008201518160000160006101000a81548173ffffffffffffffffffffffffffffffffffffffff021916908373ffffffffffffffffffffffffffffffffffffffff1602179055506020820151816001015560408201518160020155606082015181600301556080820151816004015560a0820151816005015560c0820151816006015560e0820151816007015561010082015181600801556101208201518160090155905050600085116109d7576040517f08c379a00000000000000000000000000000000000000000000000000000000081526004016109ce90611573565b60405180910390fd5b600360008773ffffffffffffffffffffffffffffffffffffffff1673ffffffffffffffffffffffffffffffffffffffff1681526020019081526020016000206000600460008973ffffffffffffffffffffffffffffffffffffffff1673ffffffffffffffffffffffffffffffffffffffff16815260200190815260200160002054815260200190815260200160002060000160009054906101000a900473ffffffffffffffffffffffffffffffffffffffff1673ffffffffffffffffffffffffffffffffffffffff1663095ea7b330876040518363ffffffff1660e01b8152600401610ac49291906113c1565b6020604051808303816000875af1158015610ae3573d6000803e3d6000fd5b505050506040513d601f19601f82011682018060405250810190610b0791906114fa565b610b46576040517f08c379a0000000000000000000000000000000000000000000000000000000008152600401610b3d906115df565b60405180910390fd5b600360008773ffffffffffffffffffffffffffffffffffffffff1673ffffffffffffffffffffffffffffffffffffffff1681526020019081526020016000206000600460008973ffffffffffffffffffffffffffffffffffffffff1673ffffffffffffffffffffffffffffffffffffffff16815260200190815260200160002054815260200190815260200160002060000160009054906101000a900473ffffffffffffffffffffffffffffffffffffffff1673ffffffffffffffffffffffffffffffffffffffff166323b872dd8730886040518463ffffffff1660e01b8152600401610c35939291906115ff565b6020604051808303816000875af1158015610c54573d6000803e3d6000fd5b505050506040513d601f19601f82011682018060405250810190610c7891906114fa565b50600460008773ffffffffffffffffffffffffffffffffffffffff1673ffffffffffffffffffffffffffffffffffffffff1681526020019081526020016000206000815480929190610cc990611636565b91905055507f5b2c363c4205d12f22a6dc6a35136117f80f8cd6897d7a05e7e2987883b05004863087604051610d01939291906115ff565b60405180910390a150505050505050565b60008060009054906101000a900473ffffffffffffffffffffffffffffffffffffffff1673ffffffffffffffffffffffffffffffffffffffff163373ffffffffffffffffffffffffffffffffffffffff1614610da3576040517f08c379a0000000000000000000000000000000000000000000000000000000008152600401610d9a906116ca565b60405180910390fd5b610dad83836102dd565b600260008573ffffffffffffffffffffffffffffffffffffffff1673ffffffffffffffffffffffffffffffffffffffff16815260200190815260200160002060008481526020019081526020016000206000828254610e0c919061123a565b92505081905550600260008473ffffffffffffffffffffffffffffffffffffffff1673ffffffffffffffffffffffffffffffffffffffff168152602001908152602001600020600083815260200190815260200160002054905092915050565b600080fd5b600073ffffffffffffffffffffffffffffffffffffffff82169050919050565b6000610e9c82610e71565b9050919050565b610eac81610e91565b8114610eb757600080fd5b50565b600081359050610ec981610ea3565b92915050565b6000819050919050565b610ee281610ecf565b8114610eed57600080fd5b50565b600081359050610eff81610ed9565b92915050565b60008060408385031215610f1c57610f1b610e6c565b5b6000610f2a85828601610eba565b9250506020610f3b85828601610ef0565b9150509250929050565b6000819050919050565b6000610f6a610f65610f6084610e71565b610f45565b610e71565b9050919050565b6000610f7c82610f4f565b9050919050565b6000610f8e82610f71565b9050919050565b610f9e81610f83565b82525050565b610fad81610ecf565b82525050565b600061014082019050610fc9600083018d610f95565b610fd6602083018c610fa4565b610fe3604083018b610fa4565b610ff0606083018a610fa4565b610ffd6080830189610fa4565b61100a60a0830188610fa4565b61101760c0830187610fa4565b61102460e0830186610fa4565b611032610100830185610fa4565b611040610120830184610fa4565b9b9a5050505050505050505050565b60006020820190506110646000830184610fa4565b92915050565b6000806040838503121561108157611080610e6c565b5b600061108f85828601610eba565b92505060206110a085828601610eba565b9150509250929050565b6000806000606084860312156110c3576110c2610e6c565b5b60006110d186828701610eba565b93505060206110e286828701610ef0565b92505060406110f386828701610ef0565b9150509250925092565b600080600080600080600060e0888a03121561111c5761111b610e6c565b5b600061112a8a828b01610eba565b975050602061113b8a828b01610eba565b965050604061114c8a828b01610ef0565b955050606061115d8a828b01610ef0565b945050608061116e8a828b01610ef0565b93505060a061117f8a828b01610ef0565b92505060c06111908a828b01610ef0565b91505092959891949750929550565b6111a881610e91565b82525050565b60006020820190506111c3600083018461119f565b92915050565b6000815190506111d881610ed9565b92915050565b6000602082840312156111f4576111f3610e6c565b5b6000611202848285016111c9565b91505092915050565b7f4e487b7100000000000000000000000000000000000000000000000000000000600052601160045260246000fd5b600061124582610ecf565b915061125083610ecf565b92508282019050808211156112685761126761120b565b5b92915050565b600082825260208201905092915050565b7f4e6f20546f6b656e207665737465642079657400000000000000000000000000600082015250565b60006112b560138361126e565b91506112c08261127f565b602082019050919050565b600060208201905081810360008301526112e4816112a8565b9050919050565b7f4e487b7100000000000000000000000000000000000000000000000000000000600052601260045260246000fd5b600061132582610ecf565b915061133083610ecf565b9250826113405761133f6112eb565b5b828204905092915050565b600061135682610ecf565b915061136183610ecf565b92508282039050818111156113795761137861120b565b5b92915050565b600061138a82610ecf565b915061139583610ecf565b92508282026113a381610ecf565b915082820484148315176113ba576113b961120b565b5b5092915050565b60006040820190506113d6600083018561119f565b6113e36020830184610fa4565b9392505050565b7f4f6e6c792062656e696669636961722063616e20776974686472617700000000600082015250565b6000611420601c8361126e565b915061142b826113ea565b602082019050919050565b6000602082019050818103600083015261144f81611413565b9050919050565b7f4e6f20616d6f756e7420746f2062652077697468647261776e00000000000000600082015250565b600061148c60198361126e565b915061149782611456565b602082019050919050565b600060208201905081810360008301526114bb8161147f565b9050919050565b60008115159050919050565b6114d7816114c2565b81146114e257600080fd5b50565b6000815190506114f4816114ce565b92915050565b6000602082840312156115105761150f610e6c565b5b600061151e848285016114e5565b91505092915050565b7f41646420736f6d6520746f6b656e730000000000000000000000000000000000600082015250565b600061155d600f8361126e565b915061156882611527565b602082019050919050565b6000602082019050818103600083015261158c81611550565b9050919050565b7f417070726f76616c206661696c65640000000000000000000000000000000000600082015250565b60006115c9600f8361126e565b91506115d482611593565b602082019050919050565b600060208201905081810360008301526115f8816115bc565b9050919050565b6000606082019050611614600083018661119f565b611621602083018561119f565b61162e6040830184610fa4565b949350505050565b600061164182610ecf565b91507fffffffffffffffffffffffffffffffffffffffffffffffffffffffffffffffff82036116735761167261120b565b5b600182019050919050565b7f4f6e6c79204f776e65722063616e206163636573730000000000000000000000600082015250565b60006116b460158361126e565b91506116bf8261167e565b602082019050919050565b600060208201905081810360008301526116e3816116a7565b905091905056fea2646970667358221220588060ae00f93eec1d1b8b7a9148b80aadb2a1547d35b24d18340daa867157de64736f6c63430008120033",
					"opcodes": "PUSH1 0x80 PUSH1 0x40 MSTORE CALLVALUE DUP1 ISZERO PUSH2 0x10 JUMPI PUSH1 0x0 DUP1 REVERT JUMPDEST POP CALLER PUSH1 0x0 DUP1 PUSH2 0x100 EXP DUP2 SLOAD DUP2 PUSH20 0xFFFFFFFFFFFFFFFFFFFFFFFFFFFFFFFFFFFFFFFF MUL NOT AND SWAP1 DUP4 PUSH20 0xFFFFFFFFFFFFFFFFFFFFFFFFFFFFFFFFFFFFFFFF AND MUL OR SWAP1 SSTORE POP PUSH2 0x1720 DUP1 PUSH2 0x60 PUSH1 0x0 CODECOPY PUSH1 0x0 RETURN INVALID PUSH1 0x80 PUSH1 0x40 MSTORE CALLVALUE DUP1 ISZERO PUSH2 0x10 JUMPI PUSH1 0x0 DUP1 REVERT JUMPDEST POP PUSH1 0x4 CALLDATASIZE LT PUSH2 0x7D JUMPI PUSH1 0x0 CALLDATALOAD PUSH1 0xE0 SHR DUP1 PUSH4 0x8CE4081A GT PUSH2 0x5B JUMPI DUP1 PUSH4 0x8CE4081A EQ PUSH2 0x11B JUMPI DUP1 PUSH4 0xB5C5F672 EQ PUSH2 0x14B JUMPI DUP1 PUSH4 0xBBA4E631 EQ PUSH2 0x167 JUMPI DUP1 PUSH4 0xF40D71F1 EQ PUSH2 0x183 JUMPI PUSH2 0x7D JUMP JUMPDEST DUP1 PUSH4 0x45626BD6 EQ PUSH2 0x82 JUMPI DUP1 PUSH4 0x4DC12D7F EQ PUSH2 0xBB JUMPI DUP1 PUSH4 0x77B76EC3 EQ PUSH2 0xEB JUMPI JUMPDEST PUSH1 0x0 DUP1 REVERT JUMPDEST PUSH2 0x9C PUSH1 0x4 DUP1 CALLDATASIZE SUB DUP2 ADD SWAP1 PUSH2 0x97 SWAP2 SWAP1 PUSH2 0xF05 JUMP JUMPDEST PUSH2 0x1B3 JUMP JUMPDEST PUSH1 0x40 MLOAD PUSH2 0xB2 SWAP11 SWAP10 SWAP9 SWAP8 SWAP7 SWAP6 SWAP5 SWAP4 SWAP3 SWAP2 SWAP1 PUSH2 0xFB3 JUMP JUMPDEST PUSH1 0x40 MLOAD DUP1 SWAP2 SUB SWAP1 RETURN JUMPDEST PUSH2 0xD5 PUSH1 0x4 DUP1 CALLDATASIZE SUB DUP2 ADD SWAP1 PUSH2 0xD0 SWAP2 SWAP1 PUSH2 0xF05 JUMP JUMPDEST PUSH2 0x234 JUMP JUMPDEST PUSH1 0x40 MLOAD PUSH2 0xE2 SWAP2 SWAP1 PUSH2 0x104F JUMP JUMPDEST PUSH1 0x40 MLOAD DUP1 SWAP2 SUB SWAP1 RETURN JUMPDEST PUSH2 0x105 PUSH1 0x4 DUP1 CALLDATASIZE SUB DUP2 ADD SWAP1 PUSH2 0x100 SWAP2 SWAP1 PUSH2 0x106A JUMP JUMPDEST PUSH2 0x259 JUMP JUMPDEST PUSH1 0x40 MLOAD PUSH2 0x112 SWAP2 SWAP1 PUSH2 0x104F JUMP JUMPDEST PUSH1 0x40 MLOAD DUP1 SWAP2 SUB SWAP1 RETURN JUMPDEST PUSH2 0x135 PUSH1 0x4 DUP1 CALLDATASIZE SUB DUP2 ADD SWAP1 PUSH2 0x130 SWAP2 SWAP1 PUSH2 0xF05 JUMP JUMPDEST PUSH2 0x2DD JUMP JUMPDEST PUSH1 0x40 MLOAD PUSH2 0x142 SWAP2 SWAP1 PUSH2 0x104F JUMP JUMPDEST PUSH1 0x40 MLOAD DUP1 SWAP2 SUB SWAP1 RETURN JUMPDEST PUSH2 0x165 PUSH1 0x4 DUP1 CALLDATASIZE SUB DUP2 ADD SWAP1 PUSH2 0x160 SWAP2 SWAP1 PUSH2 0x10AA JUMP JUMPDEST PUSH2 0x529 JUMP JUMPDEST STOP JUMPDEST PUSH2 0x181 PUSH1 0x4 DUP1 CALLDATASIZE SUB DUP2 ADD SWAP1 PUSH2 0x17C SWAP2 SWAP1 PUSH2 0x10FD JUMP JUMPDEST PUSH2 0x7C1 JUMP JUMPDEST STOP JUMPDEST PUSH2 0x19D PUSH1 0x4 DUP1 CALLDATASIZE SUB DUP2 ADD SWAP1 PUSH2 0x198 SWAP2 SWAP1 PUSH2 0xF05 JUMP JUMPDEST PUSH2 0xD12 JUMP JUMPDEST PUSH1 0x40 MLOAD PUSH2 0x1AA SWAP2 SWAP1 PUSH2 0x104F JUMP JUMPDEST PUSH1 0x40 MLOAD DUP1 SWAP2 SUB SWAP1 RETURN JUMPDEST PUSH1 0x3 PUSH1 0x20 MSTORE DUP2 PUSH1 0x0 MSTORE PUSH1 0x40 PUSH1 0x0 KECCAK256 PUSH1 0x20 MSTORE DUP1 PUSH1 0x0 MSTORE PUSH1 0x40 PUSH1 0x0 KECCAK256 PUSH1 0x0 SWAP2 POP SWAP2 POP POP DUP1 PUSH1 0x0 ADD PUSH1 0x0 SWAP1 SLOAD SWAP1 PUSH2 0x100 EXP SWAP1 DIV PUSH20 0xFFFFFFFFFFFFFFFFFFFFFFFFFFFFFFFFFFFFFFFF AND SWAP1 DUP1 PUSH1 0x1 ADD SLOAD SWAP1 DUP1 PUSH1 0x2 ADD SLOAD SWAP1 DUP1 PUSH1 0x3 ADD SLOAD SWAP1 DUP1 PUSH1 0x4 ADD SLOAD SWAP1 DUP1 PUSH1 0x5 ADD SLOAD SWAP1 DUP1 PUSH1 0x6 ADD SLOAD SWAP1 DUP1 PUSH1 0x7 ADD SLOAD SWAP1 DUP1 PUSH1 0x8 ADD SLOAD SWAP1 DUP1 PUSH1 0x9 ADD SLOAD SWAP1 POP DUP11 JUMP JUMPDEST PUSH1 0x2 PUSH1 0x20 MSTORE DUP2 PUSH1 0x0 MSTORE PUSH1 0x40 PUSH1 0x0 KECCAK256 PUSH1 0x20 MSTORE DUP1 PUSH1 0x0 MSTORE PUSH1 0x40 PUSH1 0x0 KECCAK256 PUSH1 0x0 SWAP2 POP SWAP2 POP POP SLOAD DUP2 JUMP JUMPDEST PUSH1 0x0 DUP3 PUSH20 0xFFFFFFFFFFFFFFFFFFFFFFFFFFFFFFFFFFFFFFFF AND PUSH4 0x70A08231 DUP4 PUSH1 0x40 MLOAD DUP3 PUSH4 0xFFFFFFFF AND PUSH1 0xE0 SHL DUP2 MSTORE PUSH1 0x4 ADD PUSH2 0x294 SWAP2 SWAP1 PUSH2 0x11AE JUMP JUMPDEST PUSH1 0x20 PUSH1 0x40 MLOAD DUP1 DUP4 SUB DUP2 DUP7 GAS STATICCALL ISZERO DUP1 ISZERO PUSH2 0x2B1 JUMPI RETURNDATASIZE PUSH1 0x0 DUP1 RETURNDATACOPY RETURNDATASIZE PUSH1 0x0 REVERT JUMPDEST POP POP POP POP PUSH1 0x40 MLOAD RETURNDATASIZE PUSH1 0x1F NOT PUSH1 0x1F DUP3 ADD AND DUP3 ADD DUP1 PUSH1 0x40 MSTORE POP DUP2 ADD SWAP1 PUSH2 0x2D5 SWAP2 SWAP1 PUSH2 0x11DE JUMP JUMPDEST SWAP1 POP SWAP3 SWAP2 POP POP JUMP JUMPDEST PUSH1 0x0 DUP1 PUSH1 0x3 PUSH1 0x0 DUP6 PUSH20 0xFFFFFFFFFFFFFFFFFFFFFFFFFFFFFFFFFFFFFFFF AND PUSH20 0xFFFFFFFFFFFFFFFFFFFFFFFFFFFFFFFFFFFFFFFF AND DUP2 MSTORE PUSH1 0x20 ADD SWAP1 DUP2 MSTORE PUSH1 0x20 ADD PUSH1 0x0 KECCAK256 PUSH1 0x0 DUP5 DUP2 MSTORE PUSH1 0x20 ADD SWAP1 DUP2 MSTORE PUSH1 0x20 ADD PUSH1 0x0 KECCAK256 SWAP1 POP TIMESTAMP DUP2 PUSH1 0x4 ADD SLOAD DUP3 PUSH1 0x1 ADD SLOAD PUSH2 0x347 SWAP2 SWAP1 PUSH2 0x123A JUMP JUMPDEST GT ISZERO PUSH2 0x388 JUMPI PUSH1 0x40 MLOAD PUSH32 0x8C379A000000000000000000000000000000000000000000000000000000000 DUP2 MSTORE PUSH1 0x4 ADD PUSH2 0x37F SWAP1 PUSH2 0x12CB JUMP JUMPDEST PUSH1 0x40 MLOAD DUP1 SWAP2 SUB SWAP1 REVERT JUMPDEST PUSH1 0x0 DUP2 PUSH1 0x4 ADD SLOAD DUP3 PUSH1 0x3 ADD SLOAD PUSH2 0x39E SWAP2 SWAP1 PUSH2 0x131A JUMP JUMPDEST SWAP1 POP PUSH1 0x0 DUP2 DUP4 PUSH1 0x5 ADD SLOAD PUSH2 0x3B2 SWAP2 SWAP1 PUSH2 0x131A JUMP JUMPDEST SWAP1 POP PUSH1 0x0 TIMESTAMP SWAP1 POP DUP4 PUSH1 0x3 ADD SLOAD DUP5 PUSH1 0x1 ADD SLOAD PUSH2 0x3CD SWAP2 SWAP1 PUSH2 0x123A JUMP JUMPDEST DUP2 LT PUSH2 0x3EA JUMPI DUP4 PUSH1 0x3 ADD SLOAD DUP5 PUSH1 0x1 ADD SLOAD PUSH2 0x3E7 SWAP2 SWAP1 PUSH2 0x123A JUMP JUMPDEST SWAP1 POP JUMPDEST DUP4 PUSH1 0x1 ADD SLOAD DUP2 PUSH2 0x3FA SWAP2 SWAP1 PUSH2 0x134B JUMP JUMPDEST DUP5 PUSH1 0x8 ADD DUP2 SWAP1 SSTORE POP PUSH1 0x0 DUP5 PUSH1 0x4 ADD SLOAD DUP6 PUSH1 0x8 ADD SLOAD PUSH2 0x418 SWAP2 SWAP1 PUSH2 0x131A JUMP JUMPDEST SWAP1 POP DUP5 PUSH1 0x6 ADD SLOAD DUP4 DUP3 PUSH2 0x42B SWAP2 SWAP1 PUSH2 0x137F JUMP JUMPDEST PUSH2 0x435 SWAP2 SWAP1 PUSH2 0x134B JUMP JUMPDEST DUP6 PUSH1 0x7 ADD DUP2 SWAP1 SSTORE POP DUP5 PUSH1 0x7 ADD SLOAD DUP6 PUSH1 0x6 ADD PUSH1 0x0 DUP3 DUP3 SLOAD PUSH2 0x455 SWAP2 SWAP1 PUSH2 0x123A JUMP JUMPDEST SWAP3 POP POP DUP2 SWAP1 SSTORE POP DUP4 DUP2 LT PUSH2 0x492 JUMPI DUP5 PUSH1 0x6 ADD SLOAD DUP6 PUSH1 0x5 ADD SLOAD PUSH2 0x477 SWAP2 SWAP1 PUSH2 0x134B JUMP JUMPDEST DUP6 PUSH1 0x7 ADD PUSH1 0x0 DUP3 DUP3 SLOAD PUSH2 0x48A SWAP2 SWAP1 PUSH2 0x123A JUMP JUMPDEST SWAP3 POP POP DUP2 SWAP1 SSTORE POP JUMPDEST DUP5 PUSH1 0x7 ADD SLOAD PUSH1 0x1 PUSH1 0x0 DUP11 PUSH20 0xFFFFFFFFFFFFFFFFFFFFFFFFFFFFFFFFFFFFFFFF AND PUSH20 0xFFFFFFFFFFFFFFFFFFFFFFFFFFFFFFFFFFFFFFFF AND DUP2 MSTORE PUSH1 0x20 ADD SWAP1 DUP2 MSTORE PUSH1 0x20 ADD PUSH1 0x0 KECCAK256 DUP2 SWAP1 SSTORE POP PUSH32 0xF91178D1BE119AF5729BCBBCEEC49BBC2BB69207997394E7C9BE1CF3F1CA9CA0 DUP9 DUP7 PUSH1 0x7 ADD SLOAD PUSH1 0x40 MLOAD PUSH2 0x50F SWAP3 SWAP2 SWAP1 PUSH2 0x13C1 JUMP JUMPDEST PUSH1 0x40 MLOAD DUP1 SWAP2 SUB SWAP1 LOG1 DUP5 PUSH1 0x7 ADD SLOAD SWAP6 POP POP POP POP POP POP SWAP3 SWAP2 POP POP JUMP JUMPDEST CALLER PUSH20 0xFFFFFFFFFFFFFFFFFFFFFFFFFFFFFFFFFFFFFFFF AND DUP4 PUSH20 0xFFFFFFFFFFFFFFFFFFFFFFFFFFFFFFFFFFFFFFFF AND EQ PUSH2 0x597 JUMPI PUSH1 0x40 MLOAD PUSH32 0x8C379A000000000000000000000000000000000000000000000000000000000 DUP2 MSTORE PUSH1 0x4 ADD PUSH2 0x58E SWAP1 PUSH2 0x1436 JUMP JUMPDEST PUSH1 0x40 MLOAD DUP1 SWAP2 SUB SWAP1 REVERT JUMPDEST PUSH1 0x0 PUSH1 0x2 PUSH1 0x0 DUP6 PUSH20 0xFFFFFFFFFFFFFFFFFFFFFFFFFFFFFFFFFFFFFFFF AND PUSH20 0xFFFFFFFFFFFFFFFFFFFFFFFFFFFFFFFFFFFFFFFF AND DUP2 MSTORE PUSH1 0x20 ADD SWAP1 DUP2 MSTORE PUSH1 0x20 ADD PUSH1 0x0 KECCAK256 PUSH1 0x0 DUP4 DUP2 MSTORE PUSH1 0x20 ADD SWAP1 DUP2 MSTORE PUSH1 0x20 ADD PUSH1 0x0 KECCAK256 SLOAD GT PUSH2 0x62A JUMPI PUSH1 0x40 MLOAD PUSH32 0x8C379A000000000000000000000000000000000000000000000000000000000 DUP2 MSTORE PUSH1 0x4 ADD PUSH2 0x621 SWAP1 PUSH2 0x14A2 JUMP JUMPDEST PUSH1 0x40 MLOAD DUP1 SWAP2 SUB SWAP1 REVERT JUMPDEST DUP2 PUSH1 0x2 PUSH1 0x0 DUP6 PUSH20 0xFFFFFFFFFFFFFFFFFFFFFFFFFFFFFFFFFFFFFFFF AND PUSH20 0xFFFFFFFFFFFFFFFFFFFFFFFFFFFFFFFFFFFFFFFF AND DUP2 MSTORE PUSH1 0x20 ADD SWAP1 DUP2 MSTORE PUSH1 0x20 ADD PUSH1 0x0 KECCAK256 PUSH1 0x0 DUP4 DUP2 MSTORE PUSH1 0x20 ADD SWAP1 DUP2 MSTORE PUSH1 0x20 ADD PUSH1 0x0 KECCAK256 PUSH1 0x0 DUP3 DUP3 SLOAD PUSH2 0x68A SWAP2 SWAP1 PUSH2 0x134B JUMP JUMPDEST SWAP3 POP POP DUP2 SWAP1 SSTORE POP PUSH1 0x3 PUSH1 0x0 DUP5 PUSH20 0xFFFFFFFFFFFFFFFFFFFFFFFFFFFFFFFFFFFFFFFF AND PUSH20 0xFFFFFFFFFFFFFFFFFFFFFFFFFFFFFFFFFFFFFFFF AND DUP2 MSTORE PUSH1 0x20 ADD SWAP1 DUP2 MSTORE PUSH1 0x20 ADD PUSH1 0x0 KECCAK256 PUSH1 0x0 DUP3 DUP2 MSTORE PUSH1 0x20 ADD SWAP1 DUP2 MSTORE PUSH1 0x20 ADD PUSH1 0x0 KECCAK256 PUSH1 0x0 ADD PUSH1 0x0 SWAP1 SLOAD SWAP1 PUSH2 0x100 EXP SWAP1 DIV PUSH20 0xFFFFFFFFFFFFFFFFFFFFFFFFFFFFFFFFFFFFFFFF AND PUSH20 0xFFFFFFFFFFFFFFFFFFFFFFFFFFFFFFFFFFFFFFFF AND PUSH4 0xA9059CBB DUP5 DUP5 PUSH1 0x40 MLOAD DUP4 PUSH4 0xFFFFFFFF AND PUSH1 0xE0 SHL DUP2 MSTORE PUSH1 0x4 ADD PUSH2 0x73F SWAP3 SWAP2 SWAP1 PUSH2 0x13C1 JUMP JUMPDEST PUSH1 0x20 PUSH1 0x40 MLOAD DUP1 DUP4 SUB DUP2 PUSH1 0x0 DUP8 GAS CALL ISZERO DUP1 ISZERO PUSH2 0x75E JUMPI RETURNDATASIZE PUSH1 0x0 DUP1 RETURNDATACOPY RETURNDATASIZE PUSH1 0x0 REVERT JUMPDEST POP POP POP POP PUSH1 0x40 MLOAD RETURNDATASIZE PUSH1 0x1F NOT PUSH1 0x1F DUP3 ADD AND DUP3 ADD DUP1 PUSH1 0x40 MSTORE POP DUP2 ADD SWAP1 PUSH2 0x782 SWAP2 SWAP1 PUSH2 0x14FA JUMP JUMPDEST POP PUSH32 0x680F2E4F4032EBF1774E8CDBADDCB1B617A5A606411C8CA96257ADA338D3833C DUP4 DUP4 PUSH1 0x40 MLOAD PUSH2 0x7B4 SWAP3 SWAP2 SWAP1 PUSH2 0x13C1 JUMP JUMPDEST PUSH1 0x40 MLOAD DUP1 SWAP2 SUB SWAP1 LOG1 POP POP POP JUMP JUMPDEST PUSH1 0x40 MLOAD DUP1 PUSH2 0x140 ADD PUSH1 0x40 MSTORE DUP1 DUP9 PUSH20 0xFFFFFFFFFFFFFFFFFFFFFFFFFFFFFFFFFFFFFFFF AND DUP2 MSTORE PUSH1 0x20 ADD DUP6 DUP2 MSTORE PUSH1 0x20 ADD DUP5 DUP2 MSTORE PUSH1 0x20 ADD DUP4 DUP2 MSTORE PUSH1 0x20 ADD DUP3 DUP2 MSTORE PUSH1 0x20 ADD DUP7 DUP2 MSTORE PUSH1 0x20 ADD PUSH1 0x0 DUP2 MSTORE PUSH1 0x20 ADD PUSH1 0x0 DUP2 MSTORE PUSH1 0x20 ADD PUSH1 0x0 DUP2 MSTORE PUSH1 0x20 ADD PUSH1 0x4 PUSH1 0x0 DUP10 PUSH20 0xFFFFFFFFFFFFFFFFFFFFFFFFFFFFFFFFFFFFFFFF AND PUSH20 0xFFFFFFFFFFFFFFFFFFFFFFFFFFFFFFFFFFFFFFFF AND DUP2 MSTORE PUSH1 0x20 ADD SWAP1 DUP2 MSTORE PUSH1 0x20 ADD PUSH1 0x0 KECCAK256 SLOAD DUP2 MSTORE POP PUSH1 0x3 PUSH1 0x0 DUP9 PUSH20 0xFFFFFFFFFFFFFFFFFFFFFFFFFFFFFFFFFFFFFFFF AND PUSH20 0xFFFFFFFFFFFFFFFFFFFFFFFFFFFFFFFFFFFFFFFF AND DUP2 MSTORE PUSH1 0x20 ADD SWAP1 DUP2 MSTORE PUSH1 0x20 ADD PUSH1 0x0 KECCAK256 PUSH1 0x0 PUSH1 0x4 PUSH1 0x0 DUP11 PUSH20 0xFFFFFFFFFFFFFFFFFFFFFFFFFFFFFFFFFFFFFFFF AND PUSH20 0xFFFFFFFFFFFFFFFFFFFFFFFFFFFFFFFFFFFFFFFF AND DUP2 MSTORE PUSH1 0x20 ADD SWAP1 DUP2 MSTORE PUSH1 0x20 ADD PUSH1 0x0 KECCAK256 SLOAD DUP2 MSTORE PUSH1 0x20 ADD SWAP1 DUP2 MSTORE PUSH1 0x20 ADD PUSH1 0x0 KECCAK256 PUSH1 0x0 DUP3 ADD MLOAD DUP2 PUSH1 0x0 ADD PUSH1 0x0 PUSH2 0x100 EXP DUP2 SLOAD DUP2 PUSH20 0xFFFFFFFFFFFFFFFFFFFFFFFFFFFFFFFFFFFFFFFF MUL NOT AND SWAP1 DUP4 PUSH20 0xFFFFFFFFFFFFFFFFFFFFFFFFFFFFFFFFFFFFFFFF AND MUL OR SWAP1 SSTORE POP PUSH1 0x20 DUP3 ADD MLOAD DUP2 PUSH1 0x1 ADD SSTORE PUSH1 0x40 DUP3 ADD MLOAD DUP2 PUSH1 0x2 ADD SSTORE PUSH1 0x60 DUP3 ADD MLOAD DUP2 PUSH1 0x3 ADD SSTORE PUSH1 0x80 DUP3 ADD MLOAD DUP2 PUSH1 0x4 ADD SSTORE PUSH1 0xA0 DUP3 ADD MLOAD DUP2 PUSH1 0x5 ADD SSTORE PUSH1 0xC0 DUP3 ADD MLOAD DUP2 PUSH1 0x6 ADD SSTORE PUSH1 0xE0 DUP3 ADD MLOAD DUP2 PUSH1 0x7 ADD SSTORE PUSH2 0x100 DUP3 ADD MLOAD DUP2 PUSH1 0x8 ADD SSTORE PUSH2 0x120 DUP3 ADD MLOAD DUP2 PUSH1 0x9 ADD SSTORE SWAP1 POP POP PUSH1 0x0 DUP6 GT PUSH2 0x9D7 JUMPI PUSH1 0x40 MLOAD PUSH32 0x8C379A000000000000000000000000000000000000000000000000000000000 DUP2 MSTORE PUSH1 0x4 ADD PUSH2 0x9CE SWAP1 PUSH2 0x1573 JUMP JUMPDEST PUSH1 0x40 MLOAD DUP1 SWAP2 SUB SWAP1 REVERT JUMPDEST PUSH1 0x3 PUSH1 0x0 DUP8 PUSH20 0xFFFFFFFFFFFFFFFFFFFFFFFFFFFFFFFFFFFFFFFF AND PUSH20 0xFFFFFFFFFFFFFFFFFFFFFFFFFFFFFFFFFFFFFFFF AND DUP2 MSTORE PUSH1 0x20 ADD SWAP1 DUP2 MSTORE PUSH1 0x20 ADD PUSH1 0x0 KECCAK256 PUSH1 0x0 PUSH1 0x4 PUSH1 0x0 DUP10 PUSH20 0xFFFFFFFFFFFFFFFFFFFFFFFFFFFFFFFFFFFFFFFF AND PUSH20 0xFFFFFFFFFFFFFFFFFFFFFFFFFFFFFFFFFFFFFFFF AND DUP2 MSTORE PUSH1 0x20 ADD SWAP1 DUP2 MSTORE PUSH1 0x20 ADD PUSH1 0x0 KECCAK256 SLOAD DUP2 MSTORE PUSH1 0x20 ADD SWAP1 DUP2 MSTORE PUSH1 0x20 ADD PUSH1 0x0 KECCAK256 PUSH1 0x0 ADD PUSH1 0x0 SWAP1 SLOAD SWAP1 PUSH2 0x100 EXP SWAP1 DIV PUSH20 0xFFFFFFFFFFFFFFFFFFFFFFFFFFFFFFFFFFFFFFFF AND PUSH20 0xFFFFFFFFFFFFFFFFFFFFFFFFFFFFFFFFFFFFFFFF AND PUSH4 0x95EA7B3 ADDRESS DUP8 PUSH1 0x40 MLOAD DUP4 PUSH4 0xFFFFFFFF AND PUSH1 0xE0 SHL DUP2 MSTORE PUSH1 0x4 ADD PUSH2 0xAC4 SWAP3 SWAP2 SWAP1 PUSH2 0x13C1 JUMP JUMPDEST PUSH1 0x20 PUSH1 0x40 MLOAD DUP1 DUP4 SUB DUP2 PUSH1 0x0 DUP8 GAS CALL ISZERO DUP1 ISZERO PUSH2 0xAE3 JUMPI RETURNDATASIZE PUSH1 0x0 DUP1 RETURNDATACOPY RETURNDATASIZE PUSH1 0x0 REVERT JUMPDEST POP POP POP POP PUSH1 0x40 MLOAD RETURNDATASIZE PUSH1 0x1F NOT PUSH1 0x1F DUP3 ADD AND DUP3 ADD DUP1 PUSH1 0x40 MSTORE POP DUP2 ADD SWAP1 PUSH2 0xB07 SWAP2 SWAP1 PUSH2 0x14FA JUMP JUMPDEST PUSH2 0xB46 JUMPI PUSH1 0x40 MLOAD PUSH32 0x8C379A000000000000000000000000000000000000000000000000000000000 DUP2 MSTORE PUSH1 0x4 ADD PUSH2 0xB3D SWAP1 PUSH2 0x15DF JUMP JUMPDEST PUSH1 0x40 MLOAD DUP1 SWAP2 SUB SWAP1 REVERT JUMPDEST PUSH1 0x3 PUSH1 0x0 DUP8 PUSH20 0xFFFFFFFFFFFFFFFFFFFFFFFFFFFFFFFFFFFFFFFF AND PUSH20 0xFFFFFFFFFFFFFFFFFFFFFFFFFFFFFFFFFFFFFFFF AND DUP2 MSTORE PUSH1 0x20 ADD SWAP1 DUP2 MSTORE PUSH1 0x20 ADD PUSH1 0x0 KECCAK256 PUSH1 0x0 PUSH1 0x4 PUSH1 0x0 DUP10 PUSH20 0xFFFFFFFFFFFFFFFFFFFFFFFFFFFFFFFFFFFFFFFF AND PUSH20 0xFFFFFFFFFFFFFFFFFFFFFFFFFFFFFFFFFFFFFFFF AND DUP2 MSTORE PUSH1 0x20 ADD SWAP1 DUP2 MSTORE PUSH1 0x20 ADD PUSH1 0x0 KECCAK256 SLOAD DUP2 MSTORE PUSH1 0x20 ADD SWAP1 DUP2 MSTORE PUSH1 0x20 ADD PUSH1 0x0 KECCAK256 PUSH1 0x0 ADD PUSH1 0x0 SWAP1 SLOAD SWAP1 PUSH2 0x100 EXP SWAP1 DIV PUSH20 0xFFFFFFFFFFFFFFFFFFFFFFFFFFFFFFFFFFFFFFFF AND PUSH20 0xFFFFFFFFFFFFFFFFFFFFFFFFFFFFFFFFFFFFFFFF AND PUSH4 0x23B872DD DUP8 ADDRESS DUP9 PUSH1 0x40 MLOAD DUP5 PUSH4 0xFFFFFFFF AND PUSH1 0xE0 SHL DUP2 MSTORE PUSH1 0x4 ADD PUSH2 0xC35 SWAP4 SWAP3 SWAP2 SWAP1 PUSH2 0x15FF JUMP JUMPDEST PUSH1 0x20 PUSH1 0x40 MLOAD DUP1 DUP4 SUB DUP2 PUSH1 0x0 DUP8 GAS CALL ISZERO DUP1 ISZERO PUSH2 0xC54 JUMPI RETURNDATASIZE PUSH1 0x0 DUP1 RETURNDATACOPY RETURNDATASIZE PUSH1 0x0 REVERT JUMPDEST POP POP POP POP PUSH1 0x40 MLOAD RETURNDATASIZE PUSH1 0x1F NOT PUSH1 0x1F DUP3 ADD AND DUP3 ADD DUP1 PUSH1 0x40 MSTORE POP DUP2 ADD SWAP1 PUSH2 0xC78 SWAP2 SWAP1 PUSH2 0x14FA JUMP JUMPDEST POP PUSH1 0x4 PUSH1 0x0 DUP8 PUSH20 0xFFFFFFFFFFFFFFFFFFFFFFFFFFFFFFFFFFFFFFFF AND PUSH20 0xFFFFFFFFFFFFFFFFFFFFFFFFFFFFFFFFFFFFFFFF AND DUP2 MSTORE PUSH1 0x20 ADD SWAP1 DUP2 MSTORE PUSH1 0x20 ADD PUSH1 0x0 KECCAK256 PUSH1 0x0 DUP2 SLOAD DUP1 SWAP3 SWAP2 SWAP1 PUSH2 0xCC9 SWAP1 PUSH2 0x1636 JUMP JUMPDEST SWAP2 SWAP1 POP SSTORE POP PUSH32 0x5B2C363C4205D12F22A6DC6A35136117F80F8CD6897D7A05E7E2987883B05004 DUP7 ADDRESS DUP8 PUSH1 0x40 MLOAD PUSH2 0xD01 SWAP4 SWAP3 SWAP2 SWAP1 PUSH2 0x15FF JUMP JUMPDEST PUSH1 0x40 MLOAD DUP1 SWAP2 SUB SWAP1 LOG1 POP POP POP POP POP POP POP JUMP JUMPDEST PUSH1 0x0 DUP1 PUSH1 0x0 SWAP1 SLOAD SWAP1 PUSH2 0x100 EXP SWAP1 DIV PUSH20 0xFFFFFFFFFFFFFFFFFFFFFFFFFFFFFFFFFFFFFFFF AND PUSH20 0xFFFFFFFFFFFFFFFFFFFFFFFFFFFFFFFFFFFFFFFF AND CALLER PUSH20 0xFFFFFFFFFFFFFFFFFFFFFFFFFFFFFFFFFFFFFFFF AND EQ PUSH2 0xDA3 JUMPI PUSH1 0x40 MLOAD PUSH32 0x8C379A000000000000000000000000000000000000000000000000000000000 DUP2 MSTORE PUSH1 0x4 ADD PUSH2 0xD9A SWAP1 PUSH2 0x16CA JUMP JUMPDEST PUSH1 0x40 MLOAD DUP1 SWAP2 SUB SWAP1 REVERT JUMPDEST PUSH2 0xDAD DUP4 DUP4 PUSH2 0x2DD JUMP JUMPDEST PUSH1 0x2 PUSH1 0x0 DUP6 PUSH20 0xFFFFFFFFFFFFFFFFFFFFFFFFFFFFFFFFFFFFFFFF AND PUSH20 0xFFFFFFFFFFFFFFFFFFFFFFFFFFFFFFFFFFFFFFFF AND DUP2 MSTORE PUSH1 0x20 ADD SWAP1 DUP2 MSTORE PUSH1 0x20 ADD PUSH1 0x0 KECCAK256 PUSH1 0x0 DUP5 DUP2 MSTORE PUSH1 0x20 ADD SWAP1 DUP2 MSTORE PUSH1 0x20 ADD PUSH1 0x0 KECCAK256 PUSH1 0x0 DUP3 DUP3 SLOAD PUSH2 0xE0C SWAP2 SWAP1 PUSH2 0x123A JUMP JUMPDEST SWAP3 POP POP DUP2 SWAP1 SSTORE POP PUSH1 0x2 PUSH1 0x0 DUP5 PUSH20 0xFFFFFFFFFFFFFFFFFFFFFFFFFFFFFFFFFFFFFFFF AND PUSH20 0xFFFFFFFFFFFFFFFFFFFFFFFFFFFFFFFFFFFFFFFF AND DUP2 MSTORE PUSH1 0x20 ADD SWAP1 DUP2 MSTORE PUSH1 0x20 ADD PUSH1 0x0 KECCAK256 PUSH1 0x0 DUP4 DUP2 MSTORE PUSH1 0x20 ADD SWAP1 DUP2 MSTORE PUSH1 0x20 ADD PUSH1 0x0 KECCAK256 SLOAD SWAP1 POP SWAP3 SWAP2 POP POP JUMP JUMPDEST PUSH1 0x0 DUP1 REVERT JUMPDEST PUSH1 0x0 PUSH20 0xFFFFFFFFFFFFFFFFFFFFFFFFFFFFFFFFFFFFFFFF DUP3 AND SWAP1 POP SWAP2 SWAP1 POP JUMP JUMPDEST PUSH1 0x0 PUSH2 0xE9C DUP3 PUSH2 0xE71 JUMP JUMPDEST SWAP1 POP SWAP2 SWAP1 POP JUMP JUMPDEST PUSH2 0xEAC DUP2 PUSH2 0xE91 JUMP JUMPDEST DUP2 EQ PUSH2 0xEB7 JUMPI PUSH1 0x0 DUP1 REVERT JUMPDEST POP JUMP JUMPDEST PUSH1 0x0 DUP2 CALLDATALOAD SWAP1 POP PUSH2 0xEC9 DUP2 PUSH2 0xEA3 JUMP JUMPDEST SWAP3 SWAP2 POP POP JUMP JUMPDEST PUSH1 0x0 DUP2 SWAP1 POP SWAP2 SWAP1 POP JUMP JUMPDEST PUSH2 0xEE2 DUP2 PUSH2 0xECF JUMP JUMPDEST DUP2 EQ PUSH2 0xEED JUMPI PUSH1 0x0 DUP1 REVERT JUMPDEST POP JUMP JUMPDEST PUSH1 0x0 DUP2 CALLDATALOAD SWAP1 POP PUSH2 0xEFF DUP2 PUSH2 0xED9 JUMP JUMPDEST SWAP3 SWAP2 POP POP JUMP JUMPDEST PUSH1 0x0 DUP1 PUSH1 0x40 DUP4 DUP6 SUB SLT ISZERO PUSH2 0xF1C JUMPI PUSH2 0xF1B PUSH2 0xE6C JUMP JUMPDEST JUMPDEST PUSH1 0x0 PUSH2 0xF2A DUP6 DUP3 DUP7 ADD PUSH2 0xEBA JUMP JUMPDEST SWAP3 POP POP PUSH1 0x20 PUSH2 0xF3B DUP6 DUP3 DUP7 ADD PUSH2 0xEF0 JUMP JUMPDEST SWAP2 POP POP SWAP3 POP SWAP3 SWAP1 POP JUMP JUMPDEST PUSH1 0x0 DUP2 SWAP1 POP SWAP2 SWAP1 POP JUMP JUMPDEST PUSH1 0x0 PUSH2 0xF6A PUSH2 0xF65 PUSH2 0xF60 DUP5 PUSH2 0xE71 JUMP JUMPDEST PUSH2 0xF45 JUMP JUMPDEST PUSH2 0xE71 JUMP JUMPDEST SWAP1 POP SWAP2 SWAP1 POP JUMP JUMPDEST PUSH1 0x0 PUSH2 0xF7C DUP3 PUSH2 0xF4F JUMP JUMPDEST SWAP1 POP SWAP2 SWAP1 POP JUMP JUMPDEST PUSH1 0x0 PUSH2 0xF8E DUP3 PUSH2 0xF71 JUMP JUMPDEST SWAP1 POP SWAP2 SWAP1 POP JUMP JUMPDEST PUSH2 0xF9E DUP2 PUSH2 0xF83 JUMP JUMPDEST DUP3 MSTORE POP POP JUMP JUMPDEST PUSH2 0xFAD DUP2 PUSH2 0xECF JUMP JUMPDEST DUP3 MSTORE POP POP JUMP JUMPDEST PUSH1 0x0 PUSH2 0x140 DUP3 ADD SWAP1 POP PUSH2 0xFC9 PUSH1 0x0 DUP4 ADD DUP14 PUSH2 0xF95 JUMP JUMPDEST PUSH2 0xFD6 PUSH1 0x20 DUP4 ADD DUP13 PUSH2 0xFA4 JUMP JUMPDEST PUSH2 0xFE3 PUSH1 0x40 DUP4 ADD DUP12 PUSH2 0xFA4 JUMP JUMPDEST PUSH2 0xFF0 PUSH1 0x60 DUP4 ADD DUP11 PUSH2 0xFA4 JUMP JUMPDEST PUSH2 0xFFD PUSH1 0x80 DUP4 ADD DUP10 PUSH2 0xFA4 JUMP JUMPDEST PUSH2 0x100A PUSH1 0xA0 DUP4 ADD DUP9 PUSH2 0xFA4 JUMP JUMPDEST PUSH2 0x1017 PUSH1 0xC0 DUP4 ADD DUP8 PUSH2 0xFA4 JUMP JUMPDEST PUSH2 0x1024 PUSH1 0xE0 DUP4 ADD DUP7 PUSH2 0xFA4 JUMP JUMPDEST PUSH2 0x1032 PUSH2 0x100 DUP4 ADD DUP6 PUSH2 0xFA4 JUMP JUMPDEST PUSH2 0x1040 PUSH2 0x120 DUP4 ADD DUP5 PUSH2 0xFA4 JUMP JUMPDEST SWAP12 SWAP11 POP POP POP POP POP POP POP POP POP POP POP JUMP JUMPDEST PUSH1 0x0 PUSH1 0x20 DUP3 ADD SWAP1 POP PUSH2 0x1064 PUSH1 0x0 DUP4 ADD DUP5 PUSH2 0xFA4 JUMP JUMPDEST SWAP3 SWAP2 POP POP JUMP JUMPDEST PUSH1 0x0 DUP1 PUSH1 0x40 DUP4 DUP6 SUB SLT ISZERO PUSH2 0x1081 JUMPI PUSH2 0x1080 PUSH2 0xE6C JUMP JUMPDEST JUMPDEST PUSH1 0x0 PUSH2 0x108F DUP6 DUP3 DUP7 ADD PUSH2 0xEBA JUMP JUMPDEST SWAP3 POP POP PUSH1 0x20 PUSH2 0x10A0 DUP6 DUP3 DUP7 ADD PUSH2 0xEBA JUMP JUMPDEST SWAP2 POP POP SWAP3 POP SWAP3 SWAP1 POP JUMP JUMPDEST PUSH1 0x0 DUP1 PUSH1 0x0 PUSH1 0x60 DUP5 DUP7 SUB SLT ISZERO PUSH2 0x10C3 JUMPI PUSH2 0x10C2 PUSH2 0xE6C JUMP JUMPDEST JUMPDEST PUSH1 0x0 PUSH2 0x10D1 DUP7 DUP3 DUP8 ADD PUSH2 0xEBA JUMP JUMPDEST SWAP4 POP POP PUSH1 0x20 PUSH2 0x10E2 DUP7 DUP3 DUP8 ADD PUSH2 0xEF0 JUMP JUMPDEST SWAP3 POP POP PUSH1 0x40 PUSH2 0x10F3 DUP7 DUP3 DUP8 ADD PUSH2 0xEF0 JUMP JUMPDEST SWAP2 POP POP SWAP3 POP SWAP3 POP SWAP3 JUMP JUMPDEST PUSH1 0x0 DUP1 PUSH1 0x0 DUP1 PUSH1 0x0 DUP1 PUSH1 0x0 PUSH1 0xE0 DUP9 DUP11 SUB SLT ISZERO PUSH2 0x111C JUMPI PUSH2 0x111B PUSH2 0xE6C JUMP JUMPDEST JUMPDEST PUSH1 0x0 PUSH2 0x112A DUP11 DUP3 DUP12 ADD PUSH2 0xEBA JUMP JUMPDEST SWAP8 POP POP PUSH1 0x20 PUSH2 0x113B DUP11 DUP3 DUP12 ADD PUSH2 0xEBA JUMP JUMPDEST SWAP7 POP POP PUSH1 0x40 PUSH2 0x114C DUP11 DUP3 DUP12 ADD PUSH2 0xEF0 JUMP JUMPDEST SWAP6 POP POP PUSH1 0x60 PUSH2 0x115D DUP11 DUP3 DUP12 ADD PUSH2 0xEF0 JUMP JUMPDEST SWAP5 POP POP PUSH1 0x80 PUSH2 0x116E DUP11 DUP3 DUP12 ADD PUSH2 0xEF0 JUMP JUMPDEST SWAP4 POP POP PUSH1 0xA0 PUSH2 0x117F DUP11 DUP3 DUP12 ADD PUSH2 0xEF0 JUMP JUMPDEST SWAP3 POP POP PUSH1 0xC0 PUSH2 0x1190 DUP11 DUP3 DUP12 ADD PUSH2 0xEF0 JUMP JUMPDEST SWAP2 POP POP SWAP3 SWAP6 SWAP9 SWAP2 SWAP5 SWAP8 POP SWAP3 SWAP6 POP JUMP JUMPDEST PUSH2 0x11A8 DUP2 PUSH2 0xE91 JUMP JUMPDEST DUP3 MSTORE POP POP JUMP JUMPDEST PUSH1 0x0 PUSH1 0x20 DUP3 ADD SWAP1 POP PUSH2 0x11C3 PUSH1 0x0 DUP4 ADD DUP5 PUSH2 0x119F JUMP JUMPDEST SWAP3 SWAP2 POP POP JUMP JUMPDEST PUSH1 0x0 DUP2 MLOAD SWAP1 POP PUSH2 0x11D8 DUP2 PUSH2 0xED9 JUMP JUMPDEST SWAP3 SWAP2 POP POP JUMP JUMPDEST PUSH1 0x0 PUSH1 0x20 DUP3 DUP5 SUB SLT ISZERO PUSH2 0x11F4 JUMPI PUSH2 0x11F3 PUSH2 0xE6C JUMP JUMPDEST JUMPDEST PUSH1 0x0 PUSH2 0x1202 DUP5 DUP3 DUP6 ADD PUSH2 0x11C9 JUMP JUMPDEST SWAP2 POP POP SWAP3 SWAP2 POP POP JUMP JUMPDEST PUSH32 0x4E487B7100000000000000000000000000000000000000000000000000000000 PUSH1 0x0 MSTORE PUSH1 0x11 PUSH1 0x4 MSTORE PUSH1 0x24 PUSH1 0x0 REVERT JUMPDEST PUSH1 0x0 PUSH2 0x1245 DUP3 PUSH2 0xECF JUMP JUMPDEST SWAP2 POP PUSH2 0x1250 DUP4 PUSH2 0xECF JUMP JUMPDEST SWAP3 POP DUP3 DUP3 ADD SWAP1 POP DUP1 DUP3 GT ISZERO PUSH2 0x1268 JUMPI PUSH2 0x1267 PUSH2 0x120B JUMP JUMPDEST JUMPDEST SWAP3 SWAP2 POP POP JUMP JUMPDEST PUSH1 0x0 DUP3 DUP3 MSTORE PUSH1 0x20 DUP3 ADD SWAP1 POP SWAP3 SWAP2 POP POP JUMP JUMPDEST PUSH32 0x4E6F20546F6B656E207665737465642079657400000000000000000000000000 PUSH1 0x0 DUP3 ADD MSTORE POP JUMP JUMPDEST PUSH1 0x0 PUSH2 0x12B5 PUSH1 0x13 DUP4 PUSH2 0x126E JUMP JUMPDEST SWAP2 POP PUSH2 0x12C0 DUP3 PUSH2 0x127F JUMP JUMPDEST PUSH1 0x20 DUP3 ADD SWAP1 POP SWAP2 SWAP1 POP JUMP JUMPDEST PUSH1 0x0 PUSH1 0x20 DUP3 ADD SWAP1 POP DUP2 DUP2 SUB PUSH1 0x0 DUP4 ADD MSTORE PUSH2 0x12E4 DUP2 PUSH2 0x12A8 JUMP JUMPDEST SWAP1 POP SWAP2 SWAP1 POP JUMP JUMPDEST PUSH32 0x4E487B7100000000000000000000000000000000000000000000000000000000 PUSH1 0x0 MSTORE PUSH1 0x12 PUSH1 0x4 MSTORE PUSH1 0x24 PUSH1 0x0 REVERT JUMPDEST PUSH1 0x0 PUSH2 0x1325 DUP3 PUSH2 0xECF JUMP JUMPDEST SWAP2 POP PUSH2 0x1330 DUP4 PUSH2 0xECF JUMP JUMPDEST SWAP3 POP DUP3 PUSH2 0x1340 JUMPI PUSH2 0x133F PUSH2 0x12EB JUMP JUMPDEST JUMPDEST DUP3 DUP3 DIV SWAP1 POP SWAP3 SWAP2 POP POP JUMP JUMPDEST PUSH1 0x0 PUSH2 0x1356 DUP3 PUSH2 0xECF JUMP JUMPDEST SWAP2 POP PUSH2 0x1361 DUP4 PUSH2 0xECF JUMP JUMPDEST SWAP3 POP DUP3 DUP3 SUB SWAP1 POP DUP2 DUP2 GT ISZERO PUSH2 0x1379 JUMPI PUSH2 0x1378 PUSH2 0x120B JUMP JUMPDEST JUMPDEST SWAP3 SWAP2 POP POP JUMP JUMPDEST PUSH1 0x0 PUSH2 0x138A DUP3 PUSH2 0xECF JUMP JUMPDEST SWAP2 POP PUSH2 0x1395 DUP4 PUSH2 0xECF JUMP JUMPDEST SWAP3 POP DUP3 DUP3 MUL PUSH2 0x13A3 DUP2 PUSH2 0xECF JUMP JUMPDEST SWAP2 POP DUP3 DUP3 DIV DUP5 EQ DUP4 ISZERO OR PUSH2 0x13BA JUMPI PUSH2 0x13B9 PUSH2 0x120B JUMP JUMPDEST JUMPDEST POP SWAP3 SWAP2 POP POP JUMP JUMPDEST PUSH1 0x0 PUSH1 0x40 DUP3 ADD SWAP1 POP PUSH2 0x13D6 PUSH1 0x0 DUP4 ADD DUP6 PUSH2 0x119F JUMP JUMPDEST PUSH2 0x13E3 PUSH1 0x20 DUP4 ADD DUP5 PUSH2 0xFA4 JUMP JUMPDEST SWAP4 SWAP3 POP POP POP JUMP JUMPDEST PUSH32 0x4F6E6C792062656E696669636961722063616E20776974686472617700000000 PUSH1 0x0 DUP3 ADD MSTORE POP JUMP JUMPDEST PUSH1 0x0 PUSH2 0x1420 PUSH1 0x1C DUP4 PUSH2 0x126E JUMP JUMPDEST SWAP2 POP PUSH2 0x142B DUP3 PUSH2 0x13EA JUMP JUMPDEST PUSH1 0x20 DUP3 ADD SWAP1 POP SWAP2 SWAP1 POP JUMP JUMPDEST PUSH1 0x0 PUSH1 0x20 DUP3 ADD SWAP1 POP DUP2 DUP2 SUB PUSH1 0x0 DUP4 ADD MSTORE PUSH2 0x144F DUP2 PUSH2 0x1413 JUMP JUMPDEST SWAP1 POP SWAP2 SWAP1 POP JUMP JUMPDEST PUSH32 0x4E6F20616D6F756E7420746F2062652077697468647261776E00000000000000 PUSH1 0x0 DUP3 ADD MSTORE POP JUMP JUMPDEST PUSH1 0x0 PUSH2 0x148C PUSH1 0x19 DUP4 PUSH2 0x126E JUMP JUMPDEST SWAP2 POP PUSH2 0x1497 DUP3 PUSH2 0x1456 JUMP JUMPDEST PUSH1 0x20 DUP3 ADD SWAP1 POP SWAP2 SWAP1 POP JUMP JUMPDEST PUSH1 0x0 PUSH1 0x20 DUP3 ADD SWAP1 POP DUP2 DUP2 SUB PUSH1 0x0 DUP4 ADD MSTORE PUSH2 0x14BB DUP2 PUSH2 0x147F JUMP JUMPDEST SWAP1 POP SWAP2 SWAP1 POP JUMP JUMPDEST PUSH1 0x0 DUP2 ISZERO ISZERO SWAP1 POP SWAP2 SWAP1 POP JUMP JUMPDEST PUSH2 0x14D7 DUP2 PUSH2 0x14C2 JUMP JUMPDEST DUP2 EQ PUSH2 0x14E2 JUMPI PUSH1 0x0 DUP1 REVERT JUMPDEST POP JUMP JUMPDEST PUSH1 0x0 DUP2 MLOAD SWAP1 POP PUSH2 0x14F4 DUP2 PUSH2 0x14CE JUMP JUMPDEST SWAP3 SWAP2 POP POP JUMP JUMPDEST PUSH1 0x0 PUSH1 0x20 DUP3 DUP5 SUB SLT ISZERO PUSH2 0x1510 JUMPI PUSH2 0x150F PUSH2 0xE6C JUMP JUMPDEST JUMPDEST PUSH1 0x0 PUSH2 0x151E DUP5 DUP3 DUP6 ADD PUSH2 0x14E5 JUMP JUMPDEST SWAP2 POP POP SWAP3 SWAP2 POP POP JUMP JUMPDEST PUSH32 0x41646420736F6D6520746F6B656E730000000000000000000000000000000000 PUSH1 0x0 DUP3 ADD MSTORE POP JUMP JUMPDEST PUSH1 0x0 PUSH2 0x155D PUSH1 0xF DUP4 PUSH2 0x126E JUMP JUMPDEST SWAP2 POP PUSH2 0x1568 DUP3 PUSH2 0x1527 JUMP JUMPDEST PUSH1 0x20 DUP3 ADD SWAP1 POP SWAP2 SWAP1 POP JUMP JUMPDEST PUSH1 0x0 PUSH1 0x20 DUP3 ADD SWAP1 POP DUP2 DUP2 SUB PUSH1 0x0 DUP4 ADD MSTORE PUSH2 0x158C DUP2 PUSH2 0x1550 JUMP JUMPDEST SWAP1 POP SWAP2 SWAP1 POP JUMP JUMPDEST PUSH32 0x417070726F76616C206661696C65640000000000000000000000000000000000 PUSH1 0x0 DUP3 ADD MSTORE POP JUMP JUMPDEST PUSH1 0x0 PUSH2 0x15C9 PUSH1 0xF DUP4 PUSH2 0x126E JUMP JUMPDEST SWAP2 POP PUSH2 0x15D4 DUP3 PUSH2 0x1593 JUMP JUMPDEST PUSH1 0x20 DUP3 ADD SWAP1 POP SWAP2 SWAP1 POP JUMP JUMPDEST PUSH1 0x0 PUSH1 0x20 DUP3 ADD SWAP1 POP DUP2 DUP2 SUB PUSH1 0x0 DUP4 ADD MSTORE PUSH2 0x15F8 DUP2 PUSH2 0x15BC JUMP JUMPDEST SWAP1 POP SWAP2 SWAP1 POP JUMP JUMPDEST PUSH1 0x0 PUSH1 0x60 DUP3 ADD SWAP1 POP PUSH2 0x1614 PUSH1 0x0 DUP4 ADD DUP7 PUSH2 0x119F JUMP JUMPDEST PUSH2 0x1621 PUSH1 0x20 DUP4 ADD DUP6 PUSH2 0x119F JUMP JUMPDEST PUSH2 0x162E PUSH1 0x40 DUP4 ADD DUP5 PUSH2 0xFA4 JUMP JUMPDEST SWAP5 SWAP4 POP POP POP POP JUMP JUMPDEST PUSH1 0x0 PUSH2 0x1641 DUP3 PUSH2 0xECF JUMP JUMPDEST SWAP2 POP PUSH32 0xFFFFFFFFFFFFFFFFFFFFFFFFFFFFFFFFFFFFFFFFFFFFFFFFFFFFFFFFFFFFFFFF DUP3 SUB PUSH2 0x1673 JUMPI PUSH2 0x1672 PUSH2 0x120B JUMP JUMPDEST JUMPDEST PUSH1 0x1 DUP3 ADD SWAP1 POP SWAP2 SWAP1 POP JUMP JUMPDEST PUSH32 0x4F6E6C79204F776E65722063616E206163636573730000000000000000000000 PUSH1 0x0 DUP3 ADD MSTORE POP JUMP JUMPDEST PUSH1 0x0 PUSH2 0x16B4 PUSH1 0x15 DUP4 PUSH2 0x126E JUMP JUMPDEST SWAP2 POP PUSH2 0x16BF DUP3 PUSH2 0x167E JUMP JUMPDEST PUSH1 0x20 DUP3 ADD SWAP1 POP SWAP2 SWAP1 POP JUMP JUMPDEST PUSH1 0x0 PUSH1 0x20 DUP3 ADD SWAP1 POP DUP2 DUP2 SUB PUSH1 0x0 DUP4 ADD MSTORE PUSH2 0x16E3 DUP2 PUSH2 0x16A7 JUMP JUMPDEST SWAP1 POP SWAP2 SWAP1 POP JUMP INVALID LOG2 PUSH5 0x6970667358 0x22 SLT KECCAK256 PC DUP1 PUSH1 0xAE STOP 0xF9 RETURNDATACOPY 0xEC SAR SHL DUP12 PUSH27 0x9148B80AADB2A1547D35B24D18340DAA867157DE64736F6C634300 ADDMOD SLT STOP CALLER "
				},
				"gasEstimates": {
					"creation": {
						"codeDepositCost": "1184000",
						"executionCost": "25493",
						"totalCost": "1209493"
					},
					"external": {
						"addAmount(address,address,uint256,uint256,uint256,uint256,uint256)": "infinite",
						"calculateVestedAmount(address,uint256)": "infinite",
						"checkBalance(address,address)": "infinite",
						"releaseTokens(address,uint256)": "infinite",
						"vestingSchedules(address,uint256)": "infinite",
						"withdraw(address,uint256,uint256)": "infinite",
						"withdrawableAmount(address,uint256)": "infinite"
					}
				},
				"methodIdentifiers": {
					"addAmount(address,address,uint256,uint256,uint256,uint256,uint256)": "bba4e631",
					"calculateVestedAmount(address,uint256)": "8ce4081a",
					"checkBalance(address,address)": "77b76ec3",
					"releaseTokens(address,uint256)": "f40d71f1",
					"vestingSchedules(address,uint256)": "45626bd6",
					"withdraw(address,uint256,uint256)": "b5c5f672",
					"withdrawableAmount(address,uint256)": "4dc12d7f"
				}
			},
			"storageLayout": {
				"storage": [
					{
						"astId": 82,
						"contract": "Vesting.sol:Vesting",
						"label": "owner",
						"offset": 0,
						"slot": "0",
						"type": "t_address"
					},
					{
						"astId": 86,
						"contract": "Vesting.sol:Vesting",
						"label": "vestedAmount",
						"offset": 0,
						"slot": "1",
						"type": "t_mapping(t_address,t_uint256)"
					},
					{
						"astId": 92,
						"contract": "Vesting.sol:Vesting",
						"label": "withdrawableAmount",
						"offset": 0,
						"slot": "2",
						"type": "t_mapping(t_address,t_mapping(t_uint256,t_uint256))"
					},
					{
						"astId": 99,
						"contract": "Vesting.sol:Vesting",
						"label": "vestingSchedules",
						"offset": 0,
						"slot": "3",
						"type": "t_mapping(t_address,t_mapping(t_uint256,t_struct(VestingSchedule)166_storage))"
					},
					{
						"astId": 123,
						"contract": "Vesting.sol:Vesting",
						"label": "totalVesting",
						"offset": 0,
						"slot": "4",
						"type": "t_mapping(t_address,t_uint256)"
					}
				],
				"types": {
					"t_address": {
						"encoding": "inplace",
						"label": "address",
						"numberOfBytes": "20"
					},
					"t_contract(IERC20)77": {
						"encoding": "inplace",
						"label": "contract IERC20",
						"numberOfBytes": "20"
					},
					"t_mapping(t_address,t_mapping(t_uint256,t_struct(VestingSchedule)166_storage))": {
						"encoding": "mapping",
						"key": "t_address",
						"label": "mapping(address => mapping(uint256 => struct Vesting.VestingSchedule))",
						"numberOfBytes": "32",
						"value": "t_mapping(t_uint256,t_struct(VestingSchedule)166_storage)"
					},
					"t_mapping(t_address,t_mapping(t_uint256,t_uint256))": {
						"encoding": "mapping",
						"key": "t_address",
						"label": "mapping(address => mapping(uint256 => uint256))",
						"numberOfBytes": "32",
						"value": "t_mapping(t_uint256,t_uint256)"
					},
					"t_mapping(t_address,t_uint256)": {
						"encoding": "mapping",
						"key": "t_address",
						"label": "mapping(address => uint256)",
						"numberOfBytes": "32",
						"value": "t_uint256"
					},
					"t_mapping(t_uint256,t_struct(VestingSchedule)166_storage)": {
						"encoding": "mapping",
						"key": "t_uint256",
						"label": "mapping(uint256 => struct Vesting.VestingSchedule)",
						"numberOfBytes": "32",
						"value": "t_struct(VestingSchedule)166_storage"
					},
					"t_mapping(t_uint256,t_uint256)": {
						"encoding": "mapping",
						"key": "t_uint256",
						"label": "mapping(uint256 => uint256)",
						"numberOfBytes": "32",
						"value": "t_uint256"
					},
					"t_struct(VestingSchedule)166_storage": {
						"encoding": "inplace",
						"label": "struct Vesting.VestingSchedule",
						"members": [
							{
								"astId": 147,
								"contract": "Vesting.sol:Vesting",
								"label": "_token",
								"offset": 0,
								"slot": "0",
								"type": "t_contract(IERC20)77"
							},
							{
								"astId": 149,
								"contract": "Vesting.sol:Vesting",
								"label": "_startTime",
								"offset": 0,
								"slot": "1",
								"type": "t_uint256"
							},
							{
								"astId": 151,
								"contract": "Vesting.sol:Vesting",
								"label": "_cliff",
								"offset": 0,
								"slot": "2",
								"type": "t_uint256"
							},
							{
								"astId": 153,
								"contract": "Vesting.sol:Vesting",
								"label": "_vestingPeriod",
								"offset": 0,
								"slot": "3",
								"type": "t_uint256"
							},
							{
								"astId": 155,
								"contract": "Vesting.sol:Vesting",
								"label": "_slicePeriod",
								"offset": 0,
								"slot": "4",
								"type": "t_uint256"
							},
							{
								"astId": 157,
								"contract": "Vesting.sol:Vesting",
								"label": "_totalTokens",
								"offset": 0,
								"slot": "5",
								"type": "t_uint256"
							},
							{
								"astId": 159,
								"contract": "Vesting.sol:Vesting",
								"label": "_releasedTokens",
								"offset": 0,
								"slot": "6",
								"type": "t_uint256"
							},
							{
								"astId": 161,
								"contract": "Vesting.sol:Vesting",
								"label": "_vestedTokens",
								"offset": 0,
								"slot": "7",
								"type": "t_uint256"
							},
							{
								"astId": 163,
								"contract": "Vesting.sol:Vesting",
								"label": "_elaspTime",
								"offset": 0,
								"slot": "8",
								"type": "t_uint256"
							},
							{
								"astId": 165,
								"contract": "Vesting.sol:Vesting",
								"label": "_vestingID",
								"offset": 0,
								"slot": "9",
								"type": "t_uint256"
							}
						],
						"numberOfBytes": "320"
					},
					"t_uint256": {
						"encoding": "inplace",
						"label": "uint256",
						"numberOfBytes": "32"
					}
				}
			},
			"userdoc": {
				"kind": "user",
				"methods": {},
				"version": 1
			}
		}
	}
}