{
	"data": {
		"bytecode": {
			"linkReferences": {},
			"object": "608060405234801561001057600080fd5b50336000806101000a81548173ffffffffffffffffffffffffffffffffffffffff021916908373ffffffffffffffffffffffffffffffffffffffff160217905550611720806100606000396000f3fe608060405234801561001057600080fd5b506004361061007d5760003560e01c80638ce4081a1161005b5780638ce4081a1461011b578063b5c5f6721461014b578063bba4e63114610167578063f40d71f1146101835761007d565b806345626bd6146100825780634dc12d7f146100bb57806377b76ec3146100eb575b600080fd5b61009c60048036038101906100979190610f05565b6101b3565b6040516100b29a99989796959493929190610fb3565b60405180910390f35b6100d560048036038101906100d09190610f05565b610234565b6040516100e2919061104f565b60405180910390f35b6101056004803603810190610100919061106a565b610259565b604051610112919061104f565b60405180910390f35b61013560048036038101906101309190610f05565b6102dd565b604051610142919061104f565b60405180910390f35b610165600480360381019061016091906110aa565b610529565b005b610181600480360381019061017c91906110fd565b6107c1565b005b61019d60048036038101906101989190610f05565b610d12565b6040516101aa919061104f565b60405180910390f35b6003602052816000526040600020602052806000526040600020600091509150508060000160009054906101000a900473ffffffffffffffffffffffffffffffffffffffff1690806001015490806002015490806003015490806004015490806005015490806006015490806007015490806008015490806009015490508a565b6002602052816000526040600020602052806000526040600020600091509150505481565b60008273ffffffffffffffffffffffffffffffffffffffff166370a08231836040518263ffffffff1660e01b815260040161029491906111ae565b602060405180830381865afa1580156102b1573d6000803e3d6000fd5b505050506040513d601f19601f820116820180604052508101906102d591906111de565b905092915050565b600080600360008573ffffffffffffffffffffffffffffffffffffffff1673ffffffffffffffffffffffffffffffffffffffff168152602001908152602001600020600084815260200190815260200160002090504281600401548260010154610347919061123a565b1115610388576040517f08c379a000000000000000000000000000000000000000000000000000000000815260040161037f906112cb565b60405180910390fd5b60008160040154826003015461039e919061131a565b905060008183600501546103b2919061131a565b90506000429050836003015484600101546103cd919061123a565b81106103ea57836003015484600101546103e7919061123a565b90505b8360010154816103fa919061134b565b8460080181905550600084600401548560080154610418919061131a565b90508460060154838261042b919061137f565b610435919061134b565b85600701819055508460070154856006016000828254610455919061123a565b925050819055508381106104925784600601548560050154610477919061134b565b85600701600082825461048a919061123a565b925050819055505b8460070154600160008a73ffffffffffffffffffffffffffffffffffffffff1673ffffffffffffffffffffffffffffffffffffffff168152602001908152602001600020819055507ff91178d1be119af5729bcbbceec49bbc2bb69207997394e7c9be1cf3f1ca9ca088866007015460405161050f9291906113c1565b60405180910390a184600701549550505050505092915050565b3373ffffffffffffffffffffffffffffffffffffffff168373ffffffffffffffffffffffffffffffffffffffff1614610597576040517f08c379a000000000000000000000000000000000000000000000000000000000815260040161058e90611436565b60405180910390fd5b6000600260008573ffffffffffffffffffffffffffffffffffffffff1673ffffffffffffffffffffffffffffffffffffffff1681526020019081526020016000206000838152602001908152602001600020541161062a576040517f08c379a0000000000000000000000000000000000000000000000000000000008152600401610621906114a2565b60405180910390fd5b81600260008573ffffffffffffffffffffffffffffffffffffffff1673ffffffffffffffffffffffffffffffffffffffff1681526020019081526020016000206000838152602001908152602001600020600082825461068a919061134b565b92505081905550600360008473ffffffffffffffffffffffffffffffffffffffff1673ffffffffffffffffffffffffffffffffffffffff168152602001908152602001600020600082815260200190815260200160002060000160009054906101000a900473ffffffffffffffffffffffffffffffffffffffff1673ffffffffffffffffffffffffffffffffffffffff1663a9059cbb84846040518363ffffffff1660e01b815260040161073f9291906113c1565b6020604051808303816000875af115801561075e573d6000803e3d6000fd5b505050506040513d601f19601f8201168201806040525081019061078291906114fa565b507f680f2e4f4032ebf1774e8cdbaddcb1b617a5a606411c8ca96257ada338d3833c83836040516107b49291906113c1565b60405180910390a1505050565b6040518061014001604052808873ffffffffffffffffffffffffffffffffffffffff168152602001858152602001848152602001838152602001828152602001868152602001600081526020016000815260200160008152602001600460008973ffffffffffffffffffffffffffffffffffffffff1673ffffffffffffffffffffffffffffffffffffffff16815260200190815260200160002054815250600360008873ffffffffffffffffffffffffffffffffffffffff1673ffffffffffffffffffffffffffffffffffffffff1681526020019081526020016000206000600460008a73ffffffffffffffffffffffffffffffffffffffff1673ffffffffffffffffffffffffffffffffffffffff16815260200190815260200160002054815260200190815260200160002060008201518160000160006101000a81548173ffffffffffffffffffffffffffffffffffffffff021916908373ffffffffffffffffffffffffffffffffffffffff1602179055506020820151816001015560408201518160020155606082015181600301556080820151816004015560a0820151816005015560c0820151816006015560e0820151816007015561010082015181600801556101208201518160090155905050600085116109d7576040517f08c379a00000000000000000000000000000000000000000000000000000000081526004016109ce90611573565b60405180910390fd5b600360008773ffffffffffffffffffffffffffffffffffffffff1673ffffffffffffffffffffffffffffffffffffffff1681526020019081526020016000206000600460008973ffffffffffffffffffffffffffffffffffffffff1673ffffffffffffffffffffffffffffffffffffffff16815260200190815260200160002054815260200190815260200160002060000160009054906101000a900473ffffffffffffffffffffffffffffffffffffffff1673ffffffffffffffffffffffffffffffffffffffff1663095ea7b330876040518363ffffffff1660e01b8152600401610ac49291906113c1565b6020604051808303816000875af1158015610ae3573d6000803e3d6000fd5b505050506040513d601f19601f82011682018060405250810190610b0791906114fa565b610b46576040517f08c379a0000000000000000000000000000000000000000000000000000000008152600401610b3d906115df565b60405180910390fd5b600360008773ffffffffffffffffffffffffffffffffffffffff1673ffffffffffffffffffffffffffffffffffffffff1681526020019081526020016000206000600460008973ffffffffffffffffffffffffffffffffffffffff1673ffffffffffffffffffffffffffffffffffffffff16815260200190815260200160002054815260200190815260200160002060000160009054906101000a900473ffffffffffffffffffffffffffffffffffffffff1673ffffffffffffffffffffffffffffffffffffffff166323b872dd8730886040518463ffffffff1660e01b8152600401610c35939291906115ff565b6020604051808303816000875af1158015610c54573d6000803e3d6000fd5b505050506040513d601f19601f82011682018060405250810190610c7891906114fa565b50600460008773ffffffffffffffffffffffffffffffffffffffff1673ffffffffffffffffffffffffffffffffffffffff1681526020019081526020016000206000815480929190610cc990611636565b91905055507f5b2c363c4205d12f22a6dc6a35136117f80f8cd6897d7a05e7e2987883b05004863087604051610d01939291906115ff565b60405180910390a150505050505050565b60008060009054906101000a900473ffffffffffffffffffffffffffffffffffffffff1673ffffffffffffffffffffffffffffffffffffffff163373ffffffffffffffffffffffffffffffffffffffff1614610da3576040517f08c379a0000000000000000000000000000000000000000000000000000000008152600401610d9a906116ca565b60405180910390fd5b610dad83836102dd565b600260008573ffffffffffffffffffffffffffffffffffffffff1673ffffffffffffffffffffffffffffffffffffffff16815260200190815260200160002060008481526020019081526020016000206000828254610e0c919061123a565b92505081905550600260008473ffffffffffffffffffffffffffffffffffffffff1673ffffffffffffffffffffffffffffffffffffffff168152602001908152602001600020600083815260200190815260200160002054905092915050565b600080fd5b600073ffffffffffffffffffffffffffffffffffffffff82169050919050565b6000610e9c82610e71565b9050919050565b610eac81610e91565b8114610eb757600080fd5b50565b600081359050610ec981610ea3565b92915050565b6000819050919050565b610ee281610ecf565b8114610eed57600080fd5b50565b600081359050610eff81610ed9565b92915050565b60008060408385031215610f1c57610f1b610e6c565b5b6000610f2a85828601610eba565b9250506020610f3b85828601610ef0565b9150509250929050565b6000819050919050565b6000610f6a610f65610f6084610e71565b610f45565b610e71565b9050919050565b6000610f7c82610f4f565b9050919050565b6000610f8e82610f71565b9050919050565b610f9e81610f83565b82525050565b610fad81610ecf565b82525050565b600061014082019050610fc9600083018d610f95565b610fd6602083018c610fa4565b610fe3604083018b610fa4565b610ff0606083018a610fa4565b610ffd6080830189610fa4565b61100a60a0830188610fa4565b61101760c0830187610fa4565b61102460e0830186610fa4565b611032610100830185610fa4565b611040610120830184610fa4565b9b9a5050505050505050505050565b60006020820190506110646000830184610fa4565b92915050565b6000806040838503121561108157611080610e6c565b5b600061108f85828601610eba565b92505060206110a085828601610eba565b9150509250929050565b6000806000606084860312156110c3576110c2610e6c565b5b60006110d186828701610eba565b93505060206110e286828701610ef0565b92505060406110f386828701610ef0565b9150509250925092565b600080600080600080600060e0888a03121561111c5761111b610e6c565b5b600061112a8a828b01610eba565b975050602061113b8a828b01610eba565b965050604061114c8a828b01610ef0565b955050606061115d8a828b01610ef0565b945050608061116e8a828b01610ef0565b93505060a061117f8a828b01610ef0565b92505060c06111908a828b01610ef0565b91505092959891949750929550565b6111a881610e91565b82525050565b60006020820190506111c3600083018461119f565b92915050565b6000815190506111d881610ed9565b92915050565b6000602082840312156111f4576111f3610e6c565b5b6000611202848285016111c9565b91505092915050565b7f4e487b7100000000000000000000000000000000000000000000000000000000600052601160045260246000fd5b600061124582610ecf565b915061125083610ecf565b92508282019050808211156112685761126761120b565b5b92915050565b600082825260208201905092915050565b7f4e6f20546f6b656e207665737465642079657400000000000000000000000000600082015250565b60006112b560138361126e565b91506112c08261127f565b602082019050919050565b600060208201905081810360008301526112e4816112a8565b9050919050565b7f4e487b7100000000000000000000000000000000000000000000000000000000600052601260045260246000fd5b600061132582610ecf565b915061133083610ecf565b9250826113405761133f6112eb565b5b828204905092915050565b600061135682610ecf565b915061136183610ecf565b92508282039050818111156113795761137861120b565b5b92915050565b600061138a82610ecf565b915061139583610ecf565b92508282026113a381610ecf565b915082820484148315176113ba576113b961120b565b5b5092915050565b60006040820190506113d6600083018561119f565b6113e36020830184610fa4565b9392505050565b7f4f6e6c792062656e696669636961722063616e20776974686472617700000000600082015250565b6000611420601c8361126e565b915061142b826113ea565b602082019050919050565b6000602082019050818103600083015261144f81611413565b9050919050565b7f4e6f20616d6f756e7420746f2062652077697468647261776e00000000000000600082015250565b600061148c60198361126e565b915061149782611456565b602082019050919050565b600060208201905081810360008301526114bb8161147f565b9050919050565b60008115159050919050565b6114d7816114c2565b81146114e257600080fd5b50565b6000815190506114f4816114ce565b92915050565b6000602082840312156115105761150f610e6c565b5b600061151e848285016114e5565b91505092915050565b7f41646420736f6d6520746f6b656e730000000000000000000000000000000000600082015250565b600061155d600f8361126e565b915061156882611527565b602082019050919050565b6000602082019050818103600083015261158c81611550565b9050919050565b7f417070726f76616c206661696c65640000000000000000000000000000000000600082015250565b60006115c9600f8361126e565b91506115d482611593565b602082019050919050565b600060208201905081810360008301526115f8816115bc565b9050919050565b6000606082019050611614600083018661119f565b611621602083018561119f565b61162e6040830184610fa4565b949350505050565b600061164182610ecf565b91507fffffffffffffffffffffffffffffffffffffffffffffffffffffffffffffffff82036116735761167261120b565b5b600182019050919050565b7f4f6e6c79204f776e65722063616e206163636573730000000000000000000000600082015250565b60006116b460158361126e565b91506116bf8261167e565b602082019050919050565b600060208201905081810360008301526116e3816116a7565b905091905056fea2646970667358221220588060ae00f93eec1d1b8b7a9148b80aadb2a1547d35b24d18340daa867157de64736f6c63430008120033",
			"opcodes": "PUSH1 0x80 PUSH1 0x40 MSTORE CALLVALUE DUP1 ISZERO PUSH2 0x10 JUMPI PUSH1 0x0 DUP1 REVERT JUMPDEST POP CALLER PUSH1 0x0 DUP1 PUSH2 0x100 EXP DUP2 SLOAD DUP2 PUSH20 0xFFFFFFFFFFFFFFFFFFFFFFFFFFFFFFFFFFFFFFFF MUL NOT AND SWAP1 DUP4 PUSH20 0xFFFFFFFFFFFFFFFFFFFFFFFFFFFFFFFFFFFFFFFF AND MUL OR SWAP1 SSTORE POP PUSH2 0x1720 DUP1 PUSH2 0x60 PUSH1 0x0 CODECOPY PUSH1 0x0 RETURN INVALID PUSH1 0x80 PUSH1 0x40 MSTORE CALLVALUE DUP1 ISZERO PUSH2 0x10 JUMPI PUSH1 0x0 DUP1 REVERT JUMPDEST POP PUSH1 0x4 CALLDATASIZE LT PUSH2 0x7D JUMPI PUSH1 0x0 CALLDATALOAD PUSH1 0xE0 SHR DUP1 PUSH4 0x8CE4081A GT PUSH2 0x5B JUMPI DUP1 PUSH4 0x8CE4081A EQ PUSH2 0x11B JUMPI DUP1 PUSH4 0xB5C5F672 EQ PUSH2 0x14B JUMPI DUP1 PUSH4 0xBBA4E631 EQ PUSH2 0x167 JUMPI DUP1 PUSH4 0xF40D71F1 EQ PUSH2 0x183 JUMPI PUSH2 0x7D JUMP JUMPDEST DUP1 PUSH4 0x45626BD6 EQ PUSH2 0x82 JUMPI DUP1 PUSH4 0x4DC12D7F EQ PUSH2 0xBB JUMPI DUP1 PUSH4 0x77B76EC3 EQ PUSH2 0xEB JUMPI JUMPDEST PUSH1 0x0 DUP1 REVERT JUMPDEST PUSH2 0x9C PUSH1 0x4 DUP1 CALLDATASIZE SUB DUP2 ADD SWAP1 PUSH2 0x97 SWAP2 SWAP1 PUSH2 0xF05 JUMP JUMPDEST PUSH2 0x1B3 JUMP JUMPDEST PUSH1 0x40 MLOAD PUSH2 0xB2 SWAP11 SWAP10 SWAP9 SWAP8 SWAP7 SWAP6 SWAP5 SWAP4 SWAP3 SWAP2 SWAP1 PUSH2 0xFB3 JUMP JUMPDEST PUSH1 0x40 MLOAD DUP1 SWAP2 SUB SWAP1 RETURN JUMPDEST PUSH2 0xD5 PUSH1 0x4 DUP1 CALLDATASIZE SUB DUP2 ADD SWAP1 PUSH2 0xD0 SWAP2 SWAP1 PUSH2 0xF05 JUMP JUMPDEST PUSH2 0x234 JUMP JUMPDEST PUSH1 0x40 MLOAD PUSH2 0xE2 SWAP2 SWAP1 PUSH2 0x104F JUMP JUMPDEST PUSH1 0x40 MLOAD DUP1 SWAP2 SUB SWAP1 RETURN JUMPDEST PUSH2 0x105 PUSH1 0x4 DUP1 CALLDATASIZE SUB DUP2 ADD SWAP1 PUSH2 0x100 SWAP2 SWAP1 PUSH2 0x106A JUMP JUMPDEST PUSH2 0x259 JUMP JUMPDEST PUSH1 0x40 MLOAD PUSH2 0x112 SWAP2 SWAP1 PUSH2 0x104F JUMP JUMPDEST PUSH1 0x40 MLOAD DUP1 SWAP2 SUB SWAP1 RETURN JUMPDEST PUSH2 0x135 PUSH1 0x4 DUP1 CALLDATASIZE SUB DUP2 ADD SWAP1 PUSH2 0x130 SWAP2 SWAP1 PUSH2 0xF05 JUMP JUMPDEST PUSH2 0x2DD JUMP JUMPDEST PUSH1 0x40 MLOAD PUSH2 0x142 SWAP2 SWAP1 PUSH2 0x104F JUMP JUMPDEST PUSH1 0x40 MLOAD DUP1 SWAP2 SUB SWAP1 RETURN JUMPDEST PUSH2 0x165 PUSH1 0x4 DUP1 CALLDATASIZE SUB DUP2 ADD SWAP1 PUSH2 0x160 SWAP2 SWAP1 PUSH2 0x10AA JUMP JUMPDEST PUSH2 0x529 JUMP JUMPDEST STOP JUMPDEST PUSH2 0x181 PUSH1 0x4 DUP1 CALLDATASIZE SUB DUP2 ADD SWAP1 PUSH2 0x17C SWAP2 SWAP1 PUSH2 0x10FD JUMP JUMPDEST PUSH2 0x7C1 JUMP JUMPDEST STOP JUMPDEST PUSH2 0x19D PUSH1 0x4 DUP1 CALLDATASIZE SUB DUP2 ADD SWAP1 PUSH2 0x198 SWAP2 SWAP1 PUSH2 0xF05 JUMP JUMPDEST PUSH2 0xD12 JUMP JUMPDEST PUSH1 0x40 MLOAD PUSH2 0x1AA SWAP2 SWAP1 PUSH2 0x104F JUMP JUMPDEST PUSH1 0x40 MLOAD DUP1 SWAP2 SUB SWAP1 RETURN JUMPDEST PUSH1 0x3 PUSH1 0x20 MSTORE DUP2 PUSH1 0x0 MSTORE PUSH1 0x40 PUSH1 0x0 KECCAK256 PUSH1 0x20 MSTORE DUP1 PUSH1 0x0 MSTORE PUSH1 0x40 PUSH1 0x0 KECCAK256 PUSH1 0x0 SWAP2 POP SWAP2 POP POP DUP1 PUSH1 0x0 ADD PUSH1 0x0 SWAP1 SLOAD SWAP1 PUSH2 0x100 EXP SWAP1 DIV PUSH20 0xFFFFFFFFFFFFFFFFFFFFFFFFFFFFFFFFFFFFFFFF AND SWAP1 DUP1 PUSH1 0x1 ADD SLOAD SWAP1 DUP1 PUSH1 0x2 ADD SLOAD SWAP1 DUP1 PUSH1 0x3 ADD SLOAD SWAP1 DUP1 PUSH1 0x4 ADD SLOAD SWAP1 DUP1 PUSH1 0x5 ADD SLOAD SWAP1 DUP1 PUSH1 0x6 ADD SLOAD SWAP1 DUP1 PUSH1 0x7 ADD SLOAD SWAP1 DUP1 PUSH1 0x8 ADD SLOAD SWAP1 DUP1 PUSH1 0x9 ADD SLOAD SWAP1 POP DUP11 JUMP JUMPDEST PUSH1 0x2 PUSH1 0x20 MSTORE DUP2 PUSH1 0x0 MSTORE PUSH1 0x40 PUSH1 0x0 KECCAK256 PUSH1 0x20 MSTORE DUP1 PUSH1 0x0 MSTORE PUSH1 0x40 PUSH1 0x0 KECCAK256 PUSH1 0x0 SWAP2 POP SWAP2 POP POP SLOAD DUP2 JUMP JUMPDEST PUSH1 0x0 DUP3 PUSH20 0xFFFFFFFFFFFFFFFFFFFFFFFFFFFFFFFFFFFFFFFF AND PUSH4 0x70A08231 DUP4 PUSH1 0x40 MLOAD DUP3 PUSH4 0xFFFFFFFF AND PUSH1 0xE0 SHL DUP2 MSTORE PUSH1 0x4 ADD PUSH2 0x294 SWAP2 SWAP1 PUSH2 0x11AE JUMP JUMPDEST PUSH1 0x20 PUSH1 0x40 MLOAD DUP1 DUP4 SUB DUP2 DUP7 GAS STATICCALL ISZERO DUP1 ISZERO PUSH2 0x2B1 JUMPI RETURNDATASIZE PUSH1 0x0 DUP1 RETURNDATACOPY RETURNDATASIZE PUSH1 0x0 REVERT JUMPDEST POP POP POP POP PUSH1 0x40 MLOAD RETURNDATASIZE PUSH1 0x1F NOT PUSH1 0x1F DUP3 ADD AND DUP3 ADD DUP1 PUSH1 0x40 MSTORE POP DUP2 ADD SWAP1 PUSH2 0x2D5 SWAP2 SWAP1 PUSH2 0x11DE JUMP JUMPDEST SWAP1 POP SWAP3 SWAP2 POP POP JUMP JUMPDEST PUSH1 0x0 DUP1 PUSH1 0x3 PUSH1 0x0 DUP6 PUSH20 0xFFFFFFFFFFFFFFFFFFFFFFFFFFFFFFFFFFFFFFFF AND PUSH20 0xFFFFFFFFFFFFFFFFFFFFFFFFFFFFFFFFFFFFFFFF AND DUP2 MSTORE PUSH1 0x20 ADD SWAP1 DUP2 MSTORE PUSH1 0x20 ADD PUSH1 0x0 KECCAK256 PUSH1 0x0 DUP5 DUP2 MSTORE PUSH1 0x20 ADD SWAP1 DUP2 MSTORE PUSH1 0x20 ADD PUSH1 0x0 KECCAK256 SWAP1 POP TIMESTAMP DUP2 PUSH1 0x4 ADD SLOAD DUP3 PUSH1 0x1 ADD SLOAD PUSH2 0x347 SWAP2 SWAP1 PUSH2 0x123A JUMP JUMPDEST GT ISZERO PUSH2 0x388 JUMPI PUSH1 0x40 MLOAD PUSH32 0x8C379A000000000000000000000000000000000000000000000000000000000 DUP2 MSTORE PUSH1 0x4 ADD PUSH2 0x37F SWAP1 PUSH2 0x12CB JUMP JUMPDEST PUSH1 0x40 MLOAD DUP1 SWAP2 SUB SWAP1 REVERT JUMPDEST PUSH1 0x0 DUP2 PUSH1 0x4 ADD SLOAD DUP3 PUSH1 0x3 ADD SLOAD PUSH2 0x39E SWAP2 SWAP1 PUSH2 0x131A JUMP JUMPDEST SWAP1 POP PUSH1 0x0 DUP2 DUP4 PUSH1 0x5 ADD SLOAD PUSH2 0x3B2 SWAP2 SWAP1 PUSH2 0x131A JUMP JUMPDEST SWAP1 POP PUSH1 0x0 TIMESTAMP SWAP1 POP DUP4 PUSH1 0x3 ADD SLOAD DUP5 PUSH1 0x1 ADD SLOAD PUSH2 0x3CD SWAP2 SWAP1 PUSH2 0x123A JUMP JUMPDEST DUP2 LT PUSH2 0x3EA JUMPI DUP4 PUSH1 0x3 ADD SLOAD DUP5 PUSH1 0x1 ADD SLOAD PUSH2 0x3E7 SWAP2 SWAP1 PUSH2 0x123A JUMP JUMPDEST SWAP1 POP JUMPDEST DUP4 PUSH1 0x1 ADD SLOAD DUP2 PUSH2 0x3FA SWAP2 SWAP1 PUSH2 0x134B JUMP JUMPDEST DUP5 PUSH1 0x8 ADD DUP2 SWAP1 SSTORE POP PUSH1 0x0 DUP5 PUSH1 0x4 ADD SLOAD DUP6 PUSH1 0x8 ADD SLOAD PUSH2 0x418 SWAP2 SWAP1 PUSH2 0x131A JUMP JUMPDEST SWAP1 POP DUP5 PUSH1 0x6 ADD SLOAD DUP4 DUP3 PUSH2 0x42B SWAP2 SWAP1 PUSH2 0x137F JUMP JUMPDEST PUSH2 0x435 SWAP2 SWAP1 PUSH2 0x134B JUMP JUMPDEST DUP6 PUSH1 0x7 ADD DUP2 SWAP1 SSTORE POP DUP5 PUSH1 0x7 ADD SLOAD DUP6 PUSH1 0x6 ADD PUSH1 0x0 DUP3 DUP3 SLOAD PUSH2 0x455 SWAP2 SWAP1 PUSH2 0x123A JUMP JUMPDEST SWAP3 POP POP DUP2 SWAP1 SSTORE POP DUP4 DUP2 LT PUSH2 0x492 JUMPI DUP5 PUSH1 0x6 ADD SLOAD DUP6 PUSH1 0x5 ADD SLOAD PUSH2 0x477 SWAP2 SWAP1 PUSH2 0x134B JUMP JUMPDEST DUP6 PUSH1 0x7 ADD PUSH1 0x0 DUP3 DUP3 SLOAD PUSH2 0x48A SWAP2 SWAP1 PUSH2 0x123A JUMP JUMPDEST SWAP3 POP POP DUP2 SWAP1 SSTORE POP JUMPDEST DUP5 PUSH1 0x7 ADD SLOAD PUSH1 0x1 PUSH1 0x0 DUP11 PUSH20 0xFFFFFFFFFFFFFFFFFFFFFFFFFFFFFFFFFFFFFFFF AND PUSH20 0xFFFFFFFFFFFFFFFFFFFFFFFFFFFFFFFFFFFFFFFF AND DUP2 MSTORE PUSH1 0x20 ADD SWAP1 DUP2 MSTORE PUSH1 0x20 ADD PUSH1 0x0 KECCAK256 DUP2 SWAP1 SSTORE POP PUSH32 0xF91178D1BE119AF5729BCBBCEEC49BBC2BB69207997394E7C9BE1CF3F1CA9CA0 DUP9 DUP7 PUSH1 0x7 ADD SLOAD PUSH1 0x40 MLOAD PUSH2 0x50F SWAP3 SWAP2 SWAP1 PUSH2 0x13C1 JUMP JUMPDEST PUSH1 0x40 MLOAD DUP1 SWAP2 SUB SWAP1 LOG1 DUP5 PUSH1 0x7 ADD SLOAD SWAP6 POP POP POP POP POP POP SWAP3 SWAP2 POP POP JUMP JUMPDEST CALLER PUSH20 0xFFFFFFFFFFFFFFFFFFFFFFFFFFFFFFFFFFFFFFFF AND DUP4 PUSH20 0xFFFFFFFFFFFFFFFFFFFFFFFFFFFFFFFFFFFFFFFF AND EQ PUSH2 0x597 JUMPI PUSH1 0x40 MLOAD PUSH32 0x8C379A000000000000000000000000000000000000000000000000000000000 DUP2 MSTORE PUSH1 0x4 ADD PUSH2 0x58E SWAP1 PUSH2 0x1436 JUMP JUMPDEST PUSH1 0x40 MLOAD DUP1 SWAP2 SUB SWAP1 REVERT JUMPDEST PUSH1 0x0 PUSH1 0x2 PUSH1 0x0 DUP6 PUSH20 0xFFFFFFFFFFFFFFFFFFFFFFFFFFFFFFFFFFFFFFFF AND PUSH20 0xFFFFFFFFFFFFFFFFFFFFFFFFFFFFFFFFFFFFFFFF AND DUP2 MSTORE PUSH1 0x20 ADD SWAP1 DUP2 MSTORE PUSH1 0x20 ADD PUSH1 0x0 KECCAK256 PUSH1 0x0 DUP4 DUP2 MSTORE PUSH1 0x20 ADD SWAP1 DUP2 MSTORE PUSH1 0x20 ADD PUSH1 0x0 KECCAK256 SLOAD GT PUSH2 0x62A JUMPI PUSH1 0x40 MLOAD PUSH32 0x8C379A000000000000000000000000000000000000000000000000000000000 DUP2 MSTORE PUSH1 0x4 ADD PUSH2 0x621 SWAP1 PUSH2 0x14A2 JUMP JUMPDEST PUSH1 0x40 MLOAD DUP1 SWAP2 SUB SWAP1 REVERT JUMPDEST DUP2 PUSH1 0x2 PUSH1 0x0 DUP6 PUSH20 0xFFFFFFFFFFFFFFFFFFFFFFFFFFFFFFFFFFFFFFFF AND PUSH20 0xFFFFFFFFFFFFFFFFFFFFFFFFFFFFFFFFFFFFFFFF AND DUP2 MSTORE PUSH1 0x20 ADD SWAP1 DUP2 MSTORE PUSH1 0x20 ADD PUSH1 0x0 KECCAK256 PUSH1 0x0 DUP4 DUP2 MSTORE PUSH1 0x20 ADD SWAP1 DUP2 MSTORE PUSH1 0x20 ADD PUSH1 0x0 KECCAK256 PUSH1 0x0 DUP3 DUP3 SLOAD PUSH2 0x68A SWAP2 SWAP1 PUSH2 0x134B JUMP JUMPDEST SWAP3 POP POP DUP2 SWAP1 SSTORE POP PUSH1 0x3 PUSH1 0x0 DUP5 PUSH20 0xFFFFFFFFFFFFFFFFFFFFFFFFFFFFFFFFFFFFFFFF AND PUSH20 0xFFFFFFFFFFFFFFFFFFFFFFFFFFFFFFFFFFFFFFFF AND DUP2 MSTORE PUSH1 0x20 ADD SWAP1 DUP2 MSTORE PUSH1 0x20 ADD PUSH1 0x0 KECCAK256 PUSH1 0x0 DUP3 DUP2 MSTORE PUSH1 0x20 ADD SWAP1 DUP2 MSTORE PUSH1 0x20 ADD PUSH1 0x0 KECCAK256 PUSH1 0x0 ADD PUSH1 0x0 SWAP1 SLOAD SWAP1 PUSH2 0x100 EXP SWAP1 DIV PUSH20 0xFFFFFFFFFFFFFFFFFFFFFFFFFFFFFFFFFFFFFFFF AND PUSH20 0xFFFFFFFFFFFFFFFFFFFFFFFFFFFFFFFFFFFFFFFF AND PUSH4 0xA9059CBB DUP5 DUP5 PUSH1 0x40 MLOAD DUP4 PUSH4 0xFFFFFFFF AND PUSH1 0xE0 SHL DUP2 MSTORE PUSH1 0x4 ADD PUSH2 0x73F SWAP3 SWAP2 SWAP1 PUSH2 0x13C1 JUMP JUMPDEST PUSH1 0x20 PUSH1 0x40 MLOAD DUP1 DUP4 SUB DUP2 PUSH1 0x0 DUP8 GAS CALL ISZERO DUP1 ISZERO PUSH2 0x75E JUMPI RETURNDATASIZE PUSH1 0x0 DUP1 RETURNDATACOPY RETURNDATASIZE PUSH1 0x0 REVERT JUMPDEST POP POP POP POP PUSH1 0x40 MLOAD RETURNDATASIZE PUSH1 0x1F NOT PUSH1 0x1F DUP3 ADD AND DUP3 ADD DUP1 PUSH1 0x40 MSTORE POP DUP2 ADD SWAP1 PUSH2 0x782 SWAP2 SWAP1 PUSH2 0x14FA JUMP JUMPDEST POP PUSH32 0x680F2E4F4032EBF1774E8CDBADDCB1B617A5A606411C8CA96257ADA338D3833C DUP4 DUP4 PUSH1 0x40 MLOAD PUSH2 0x7B4 SWAP3 SWAP2 SWAP1 PUSH2 0x13C1 JUMP JUMPDEST PUSH1 0x40 MLOAD DUP1 SWAP2 SUB SWAP1 LOG1 POP POP POP JUMP JUMPDEST PUSH1 0x40 MLOAD DUP1 PUSH2 0x140 ADD PUSH1 0x40 MSTORE DUP1 DUP9 PUSH20 0xFFFFFFFFFFFFFFFFFFFFFFFFFFFFFFFFFFFFFFFF AND DUP2 MSTORE PUSH1 0x20 ADD DUP6 DUP2 MSTORE PUSH1 0x20 ADD DUP5 DUP2 MSTORE PUSH1 0x20 ADD DUP4 DUP2 MSTORE PUSH1 0x20 ADD DUP3 DUP2 MSTORE PUSH1 0x20 ADD DUP7 DUP2 MSTORE PUSH1 0x20 ADD PUSH1 0x0 DUP2 MSTORE PUSH1 0x20 ADD PUSH1 0x0 DUP2 MSTORE PUSH1 0x20 ADD PUSH1 0x0 DUP2 MSTORE PUSH1 0x20 ADD PUSH1 0x4 PUSH1 0x0 DUP10 PUSH20 0xFFFFFFFFFFFFFFFFFFFFFFFFFFFFFFFFFFFFFFFF AND PUSH20 0xFFFFFFFFFFFFFFFFFFFFFFFFFFFFFFFFFFFFFFFF AND DUP2 MSTORE PUSH1 0x20 ADD SWAP1 DUP2 MSTORE PUSH1 0x20 ADD PUSH1 0x0 KECCAK256 SLOAD DUP2 MSTORE POP PUSH1 0x3 PUSH1 0x0 DUP9 PUSH20 0xFFFFFFFFFFFFFFFFFFFFFFFFFFFFFFFFFFFFFFFF AND PUSH20 0xFFFFFFFFFFFFFFFFFFFFFFFFFFFFFFFFFFFFFFFF AND DUP2 MSTORE PUSH1 0x20 ADD SWAP1 DUP2 MSTORE PUSH1 0x20 ADD PUSH1 0x0 KECCAK256 PUSH1 0x0 PUSH1 0x4 PUSH1 0x0 DUP11 PUSH20 0xFFFFFFFFFFFFFFFFFFFFFFFFFFFFFFFFFFFFFFFF AND PUSH20 0xFFFFFFFFFFFFFFFFFFFFFFFFFFFFFFFFFFFFFFFF AND DUP2 MSTORE PUSH1 0x20 ADD SWAP1 DUP2 MSTORE PUSH1 0x20 ADD PUSH1 0x0 KECCAK256 SLOAD DUP2 MSTORE PUSH1 0x20 ADD SWAP1 DUP2 MSTORE PUSH1 0x20 ADD PUSH1 0x0 KECCAK256 PUSH1 0x0 DUP3 ADD MLOAD DUP2 PUSH1 0x0 ADD PUSH1 0x0 PUSH2 0x100 EXP DUP2 SLOAD DUP2 PUSH20 0xFFFFFFFFFFFFFFFFFFFFFFFFFFFFFFFFFFFFFFFF MUL NOT AND SWAP1 DUP4 PUSH20 0xFFFFFFFFFFFFFFFFFFFFFFFFFFFFFFFFFFFFFFFF AND MUL OR SWAP1 SSTORE POP PUSH1 0x20 DUP3 ADD MLOAD DUP2 PUSH1 0x1 ADD SSTORE PUSH1 0x40 DUP3 ADD MLOAD DUP2 PUSH1 0x2 ADD SSTORE PUSH1 0x60 DUP3 ADD MLOAD DUP2 PUSH1 0x3 ADD SSTORE PUSH1 0x80 DUP3 ADD MLOAD DUP2 PUSH1 0x4 ADD SSTORE PUSH1 0xA0 DUP3 ADD MLOAD DUP2 PUSH1 0x5 ADD SSTORE PUSH1 0xC0 DUP3 ADD MLOAD DUP2 PUSH1 0x6 ADD SSTORE PUSH1 0xE0 DUP3 ADD MLOAD DUP2 PUSH1 0x7 ADD SSTORE PUSH2 0x100 DUP3 ADD MLOAD DUP2 PUSH1 0x8 ADD SSTORE PUSH2 0x120 DUP3 ADD MLOAD DUP2 PUSH1 0x9 ADD SSTORE SWAP1 POP POP PUSH1 0x0 DUP6 GT PUSH2 0x9D7 JUMPI PUSH1 0x40 MLOAD PUSH32 0x8C379A000000000000000000000000000000000000000000000000000000000 DUP2 MSTORE PUSH1 0x4 ADD PUSH2 0x9CE SWAP1 PUSH2 0x1573 JUMP JUMPDEST PUSH1 0x40 MLOAD DUP1 SWAP2 SUB SWAP1 REVERT JUMPDEST PUSH1 0x3 PUSH1 0x0 DUP8 PUSH20 0xFFFFFFFFFFFFFFFFFFFFFFFFFFFFFFFFFFFFFFFF AND PUSH20 0xFFFFFFFFFFFFFFFFFFFFFFFFFFFFFFFFFFFFFFFF AND DUP2 MSTORE PUSH1 0x20 ADD SWAP1 DUP2 MSTORE PUSH1 0x20 ADD PUSH1 0x0 KECCAK256 PUSH1 0x0 PUSH1 0x4 PUSH1 0x0 DUP10 PUSH20 0xFFFFFFFFFFFFFFFFFFFFFFFFFFFFFFFFFFFFFFFF AND PUSH20 0xFFFFFFFFFFFFFFFFFFFFFFFFFFFFFFFFFFFFFFFF AND DUP2 MSTORE PUSH1 0x20 ADD SWAP1 DUP2 MSTORE PUSH1 0x20 ADD PUSH1 0x0 KECCAK256 SLOAD DUP2 MSTORE PUSH1 0x20 ADD SWAP1 DUP2 MSTORE PUSH1 0x20 ADD PUSH1 0x0 KECCAK256 PUSH1 0x0 ADD PUSH1 0x0 SWAP1 SLOAD SWAP1 PUSH2 0x100 EXP SWAP1 DIV PUSH20 0xFFFFFFFFFFFFFFFFFFFFFFFFFFFFFFFFFFFFFFFF AND PUSH20 0xFFFFFFFFFFFFFFFFFFFFFFFFFFFFFFFFFFFFFFFF AND PUSH4 0x95EA7B3 ADDRESS DUP8 PUSH1 0x40 MLOAD DUP4 PUSH4 0xFFFFFFFF AND PUSH1 0xE0 SHL DUP2 MSTORE PUSH1 0x4 ADD PUSH2 0xAC4 SWAP3 SWAP2 SWAP1 PUSH2 0x13C1 JUMP JUMPDEST PUSH1 0x20 PUSH1 0x40 MLOAD DUP1 DUP4 SUB DUP2 PUSH1 0x0 DUP8 GAS CALL ISZERO DUP1 ISZERO PUSH2 0xAE3 JUMPI RETURNDATASIZE PUSH1 0x0 DUP1 RETURNDATACOPY RETURNDATASIZE PUSH1 0x0 REVERT JUMPDEST POP POP POP POP PUSH1 0x40 MLOAD RETURNDATASIZE PUSH1 0x1F NOT PUSH1 0x1F DUP3 ADD AND DUP3 ADD DUP1 PUSH1 0x40 MSTORE POP DUP2 ADD SWAP1 PUSH2 0xB07 SWAP2 SWAP1 PUSH2 0x14FA JUMP JUMPDEST PUSH2 0xB46 JUMPI PUSH1 0x40 MLOAD PUSH32 0x8C379A000000000000000000000000000000000000000000000000000000000 DUP2 MSTORE PUSH1 0x4 ADD PUSH2 0xB3D SWAP1 PUSH2 0x15DF JUMP JUMPDEST PUSH1 0x40 MLOAD DUP1 SWAP2 SUB SWAP1 REVERT JUMPDEST PUSH1 0x3 PUSH1 0x0 DUP8 PUSH20 0xFFFFFFFFFFFFFFFFFFFFFFFFFFFFFFFFFFFFFFFF AND PUSH20 0xFFFFFFFFFFFFFFFFFFFFFFFFFFFFFFFFFFFFFFFF AND DUP2 MSTORE PUSH1 0x20 ADD SWAP1 DUP2 MSTORE PUSH1 0x20 ADD PUSH1 0x0 KECCAK256 PUSH1 0x0 PUSH1 0x4 PUSH1 0x0 DUP10 PUSH20 0xFFFFFFFFFFFFFFFFFFFFFFFFFFFFFFFFFFFFFFFF AND PUSH20 0xFFFFFFFFFFFFFFFFFFFFFFFFFFFFFFFFFFFFFFFF AND DUP2 MSTORE PUSH1 0x20 ADD SWAP1 DUP2 MSTORE PUSH1 0x20 ADD PUSH1 0x0 KECCAK256 SLOAD DUP2 MSTORE PUSH1 0x20 ADD SWAP1 DUP2 MSTORE PUSH1 0x20 ADD PUSH1 0x0 KECCAK256 PUSH1 0x0 ADD PUSH1 0x0 SWAP1 SLOAD SWAP1 PUSH2 0x100 EXP SWAP1 DIV PUSH20 0xFFFFFFFFFFFFFFFFFFFFFFFFFFFFFFFFFFFFFFFF AND PUSH20 0xFFFFFFFFFFFFFFFFFFFFFFFFFFFFFFFFFFFFFFFF AND PUSH4 0x23B872DD DUP8 ADDRESS DUP9 PUSH1 0x40 MLOAD DUP5 PUSH4 0xFFFFFFFF AND PUSH1 0xE0 SHL DUP2 MSTORE PUSH1 0x4 ADD PUSH2 0xC35 SWAP4 SWAP3 SWAP2 SWAP1 PUSH2 0x15FF JUMP JUMPDEST PUSH1 0x20 PUSH1 0x40 MLOAD DUP1 DUP4 SUB DUP2 PUSH1 0x0 DUP8 GAS CALL ISZERO DUP1 ISZERO PUSH2 0xC54 JUMPI RETURNDATASIZE PUSH1 0x0 DUP1 RETURNDATACOPY RETURNDATASIZE PUSH1 0x0 REVERT JUMPDEST POP POP POP POP PUSH1 0x40 MLOAD RETURNDATASIZE PUSH1 0x1F NOT PUSH1 0x1F DUP3 ADD AND DUP3 ADD DUP1 PUSH1 0x40 MSTORE POP DUP2 ADD SWAP1 PUSH2 0xC78 SWAP2 SWAP1 PUSH2 0x14FA JUMP JUMPDEST POP PUSH1 0x4 PUSH1 0x0 DUP8 PUSH20 0xFFFFFFFFFFFFFFFFFFFFFFFFFFFFFFFFFFFFFFFF AND PUSH20 0xFFFFFFFFFFFFFFFFFFFFFFFFFFFFFFFFFFFFFFFF AND DUP2 MSTORE PUSH1 0x20 ADD SWAP1 DUP2 MSTORE PUSH1 0x20 ADD PUSH1 0x0 KECCAK256 PUSH1 0x0 DUP2 SLOAD DUP1 SWAP3 SWAP2 SWAP1 PUSH2 0xCC9 SWAP1 PUSH2 0x1636 JUMP JUMPDEST SWAP2 SWAP1 POP SSTORE POP PUSH32 0x5B2C363C4205D12F22A6DC6A35136117F80F8CD6897D7A05E7E2987883B05004 DUP7 ADDRESS DUP8 PUSH1 0x40 MLOAD PUSH2 0xD01 SWAP4 SWAP3 SWAP2 SWAP1 PUSH2 0x15FF JUMP JUMPDEST PUSH1 0x40 MLOAD DUP1 SWAP2 SUB SWAP1 LOG1 POP POP POP POP POP POP POP JUMP JUMPDEST PUSH1 0x0 DUP1 PUSH1 0x0 SWAP1 SLOAD SWAP1 PUSH2 0x100 EXP SWAP1 DIV PUSH20 0xFFFFFFFFFFFFFFFFFFFFFFFFFFFFFFFFFFFFFFFF AND PUSH20 0xFFFFFFFFFFFFFFFFFFFFFFFFFFFFFFFFFFFFFFFF AND CALLER PUSH20 0xFFFFFFFFFFFFFFFFFFFFFFFFFFFFFFFFFFFFFFFF AND EQ PUSH2 0xDA3 JUMPI PUSH1 0x40 MLOAD PUSH32 0x8C379A000000000000000000000000000000000000000000000000000000000 DUP2 MSTORE PUSH1 0x4 ADD PUSH2 0xD9A SWAP1 PUSH2 0x16CA JUMP JUMPDEST PUSH1 0x40 MLOAD DUP1 SWAP2 SUB SWAP1 REVERT JUMPDEST PUSH2 0xDAD DUP4 DUP4 PUSH2 0x2DD JUMP JUMPDEST PUSH1 0x2 PUSH1 0x0 DUP6 PUSH20 0xFFFFFFFFFFFFFFFFFFFFFFFFFFFFFFFFFFFFFFFF AND PUSH20 0xFFFFFFFFFFFFFFFFFFFFFFFFFFFFFFFFFFFFFFFF AND DUP2 MSTORE PUSH1 0x20 ADD SWAP1 DUP2 MSTORE PUSH1 0x20 ADD PUSH1 0x0 KECCAK256 PUSH1 0x0 DUP5 DUP2 MSTORE PUSH1 0x20 ADD SWAP1 DUP2 MSTORE PUSH1 0x20 ADD PUSH1 0x0 KECCAK256 PUSH1 0x0 DUP3 DUP3 SLOAD PUSH2 0xE0C SWAP2 SWAP1 PUSH2 0x123A JUMP JUMPDEST SWAP3 POP POP DUP2 SWAP1 SSTORE POP PUSH1 0x2 PUSH1 0x0 DUP5 PUSH20 0xFFFFFFFFFFFFFFFFFFFFFFFFFFFFFFFFFFFFFFFF AND PUSH20 0xFFFFFFFFFFFFFFFFFFFFFFFFFFFFFFFFFFFFFFFF AND DUP2 MSTORE PUSH1 0x20 ADD SWAP1 DUP2 MSTORE PUSH1 0x20 ADD PUSH1 0x0 KECCAK256 PUSH1 0x0 DUP4 DUP2 MSTORE PUSH1 0x20 ADD SWAP1 DUP2 MSTORE PUSH1 0x20 ADD PUSH1 0x0 KECCAK256 SLOAD SWAP1 POP SWAP3 SWAP2 POP POP JUMP JUMPDEST PUSH1 0x0 DUP1 REVERT JUMPDEST PUSH1 0x0 PUSH20 0xFFFFFFFFFFFFFFFFFFFFFFFFFFFFFFFFFFFFFFFF DUP3 AND SWAP1 POP SWAP2 SWAP1 POP JUMP JUMPDEST PUSH1 0x0 PUSH2 0xE9C DUP3 PUSH2 0xE71 JUMP JUMPDEST SWAP1 POP SWAP2 SWAP1 POP JUMP JUMPDEST PUSH2 0xEAC DUP2 PUSH2 0xE91 JUMP JUMPDEST DUP2 EQ PUSH2 0xEB7 JUMPI PUSH1 0x0 DUP1 REVERT JUMPDEST POP JUMP JUMPDEST PUSH1 0x0 DUP2 CALLDATALOAD SWAP1 POP PUSH2 0xEC9 DUP2 PUSH2 0xEA3 JUMP JUMPDEST SWAP3 SWAP2 POP POP JUMP JUMPDEST PUSH1 0x0 DUP2 SWAP1 POP SWAP2 SWAP1 POP JUMP JUMPDEST PUSH2 0xEE2 DUP2 PUSH2 0xECF JUMP JUMPDEST DUP2 EQ PUSH2 0xEED JUMPI PUSH1 0x0 DUP1 REVERT JUMPDEST POP JUMP JUMPDEST PUSH1 0x0 DUP2 CALLDATALOAD SWAP1 POP PUSH2 0xEFF DUP2 PUSH2 0xED9 JUMP JUMPDEST SWAP3 SWAP2 POP POP JUMP JUMPDEST PUSH1 0x0 DUP1 PUSH1 0x40 DUP4 DUP6 SUB SLT ISZERO PUSH2 0xF1C JUMPI PUSH2 0xF1B PUSH2 0xE6C JUMP JUMPDEST JUMPDEST PUSH1 0x0 PUSH2 0xF2A DUP6 DUP3 DUP7 ADD PUSH2 0xEBA JUMP JUMPDEST SWAP3 POP POP PUSH1 0x20 PUSH2 0xF3B DUP6 DUP3 DUP7 ADD PUSH2 0xEF0 JUMP JUMPDEST SWAP2 POP POP SWAP3 POP SWAP3 SWAP1 POP JUMP JUMPDEST PUSH1 0x0 DUP2 SWAP1 POP SWAP2 SWAP1 POP JUMP JUMPDEST PUSH1 0x0 PUSH2 0xF6A PUSH2 0xF65 PUSH2 0xF60 DUP5 PUSH2 0xE71 JUMP JUMPDEST PUSH2 0xF45 JUMP JUMPDEST PUSH2 0xE71 JUMP JUMPDEST SWAP1 POP SWAP2 SWAP1 POP JUMP JUMPDEST PUSH1 0x0 PUSH2 0xF7C DUP3 PUSH2 0xF4F JUMP JUMPDEST SWAP1 POP SWAP2 SWAP1 POP JUMP JUMPDEST PUSH1 0x0 PUSH2 0xF8E DUP3 PUSH2 0xF71 JUMP JUMPDEST SWAP1 POP SWAP2 SWAP1 POP JUMP JUMPDEST PUSH2 0xF9E DUP2 PUSH2 0xF83 JUMP JUMPDEST DUP3 MSTORE POP POP JUMP JUMPDEST PUSH2 0xFAD DUP2 PUSH2 0xECF JUMP JUMPDEST DUP3 MSTORE POP POP JUMP JUMPDEST PUSH1 0x0 PUSH2 0x140 DUP3 ADD SWAP1 POP PUSH2 0xFC9 PUSH1 0x0 DUP4 ADD DUP14 PUSH2 0xF95 JUMP JUMPDEST PUSH2 0xFD6 PUSH1 0x20 DUP4 ADD DUP13 PUSH2 0xFA4 JUMP JUMPDEST PUSH2 0xFE3 PUSH1 0x40 DUP4 ADD DUP12 PUSH2 0xFA4 JUMP JUMPDEST PUSH2 0xFF0 PUSH1 0x60 DUP4 ADD DUP11 PUSH2 0xFA4 JUMP JUMPDEST PUSH2 0xFFD PUSH1 0x80 DUP4 ADD DUP10 PUSH2 0xFA4 JUMP JUMPDEST PUSH2 0x100A PUSH1 0xA0 DUP4 ADD DUP9 PUSH2 0xFA4 JUMP JUMPDEST PUSH2 0x1017 PUSH1 0xC0 DUP4 ADD DUP8 PUSH2 0xFA4 JUMP JUMPDEST PUSH2 0x1024 PUSH1 0xE0 DUP4 ADD DUP7 PUSH2 0xFA4 JUMP JUMPDEST PUSH2 0x1032 PUSH2 0x100 DUP4 ADD DUP6 PUSH2 0xFA4 JUMP JUMPDEST PUSH2 0x1040 PUSH2 0x120 DUP4 ADD DUP5 PUSH2 0xFA4 JUMP JUMPDEST SWAP12 SWAP11 POP POP POP POP POP POP POP POP POP POP POP JUMP JUMPDEST PUSH1 0x0 PUSH1 0x20 DUP3 ADD SWAP1 POP PUSH2 0x1064 PUSH1 0x0 DUP4 ADD DUP5 PUSH2 0xFA4 JUMP JUMPDEST SWAP3 SWAP2 POP POP JUMP JUMPDEST PUSH1 0x0 DUP1 PUSH1 0x40 DUP4 DUP6 SUB SLT ISZERO PUSH2 0x1081 JUMPI PUSH2 0x1080 PUSH2 0xE6C JUMP JUMPDEST JUMPDEST PUSH1 0x0 PUSH2 0x108F DUP6 DUP3 DUP7 ADD PUSH2 0xEBA JUMP JUMPDEST SWAP3 POP POP PUSH1 0x20 PUSH2 0x10A0 DUP6 DUP3 DUP7 ADD PUSH2 0xEBA JUMP JUMPDEST SWAP2 POP POP SWAP3 POP SWAP3 SWAP1 POP JUMP JUMPDEST PUSH1 0x0 DUP1 PUSH1 0x0 PUSH1 0x60 DUP5 DUP7 SUB SLT ISZERO PUSH2 0x10C3 JUMPI PUSH2 0x10C2 PUSH2 0xE6C JUMP JUMPDEST JUMPDEST PUSH1 0x0 PUSH2 0x10D1 DUP7 DUP3 DUP8 ADD PUSH2 0xEBA JUMP JUMPDEST SWAP4 POP POP PUSH1 0x20 PUSH2 0x10E2 DUP7 DUP3 DUP8 ADD PUSH2 0xEF0 JUMP JUMPDEST SWAP3 POP POP PUSH1 0x40 PUSH2 0x10F3 DUP7 DUP3 DUP8 ADD PUSH2 0xEF0 JUMP JUMPDEST SWAP2 POP POP SWAP3 POP SWAP3 POP SWAP3 JUMP JUMPDEST PUSH1 0x0 DUP1 PUSH1 0x0 DUP1 PUSH1 0x0 DUP1 PUSH1 0x0 PUSH1 0xE0 DUP9 DUP11 SUB SLT ISZERO PUSH2 0x111C JUMPI PUSH2 0x111B PUSH2 0xE6C JUMP JUMPDEST JUMPDEST PUSH1 0x0 PUSH2 0x112A DUP11 DUP3 DUP12 ADD PUSH2 0xEBA JUMP JUMPDEST SWAP8 POP POP PUSH1 0x20 PUSH2 0x113B DUP11 DUP3 DUP12 ADD PUSH2 0xEBA JUMP JUMPDEST SWAP7 POP POP PUSH1 0x40 PUSH2 0x114C DUP11 DUP3 DUP12 ADD PUSH2 0xEF0 JUMP JUMPDEST SWAP6 POP POP PUSH1 0x60 PUSH2 0x115D DUP11 DUP3 DUP12 ADD PUSH2 0xEF0 JUMP JUMPDEST SWAP5 POP POP PUSH1 0x80 PUSH2 0x116E DUP11 DUP3 DUP12 ADD PUSH2 0xEF0 JUMP JUMPDEST SWAP4 POP POP PUSH1 0xA0 PUSH2 0x117F DUP11 DUP3 DUP12 ADD PUSH2 0xEF0 JUMP JUMPDEST SWAP3 POP POP PUSH1 0xC0 PUSH2 0x1190 DUP11 DUP3 DUP12 ADD PUSH2 0xEF0 JUMP JUMPDEST SWAP2 POP POP SWAP3 SWAP6 SWAP9 SWAP2 SWAP5 SWAP8 POP SWAP3 SWAP6 POP JUMP JUMPDEST PUSH2 0x11A8 DUP2 PUSH2 0xE91 JUMP JUMPDEST DUP3 MSTORE POP POP JUMP JUMPDEST PUSH1 0x0 PUSH1 0x20 DUP3 ADD SWAP1 POP PUSH2 0x11C3 PUSH1 0x0 DUP4 ADD DUP5 PUSH2 0x119F JUMP JUMPDEST SWAP3 SWAP2 POP POP JUMP JUMPDEST PUSH1 0x0 DUP2 MLOAD SWAP1 POP PUSH2 0x11D8 DUP2 PUSH2 0xED9 JUMP JUMPDEST SWAP3 SWAP2 POP POP JUMP JUMPDEST PUSH1 0x0 PUSH1 0x20 DUP3 DUP5 SUB SLT ISZERO PUSH2 0x11F4 JUMPI PUSH2 0x11F3 PUSH2 0xE6C JUMP JUMPDEST JUMPDEST PUSH1 0x0 PUSH2 0x1202 DUP5 DUP3 DUP6 ADD PUSH2 0x11C9 JUMP JUMPDEST SWAP2 POP POP SWAP3 SWAP2 POP POP JUMP JUMPDEST PUSH32 0x4E487B7100000000000000000000000000000000000000000000000000000000 PUSH1 0x0 MSTORE PUSH1 0x11 PUSH1 0x4 MSTORE PUSH1 0x24 PUSH1 0x0 REVERT JUMPDEST PUSH1 0x0 PUSH2 0x1245 DUP3 PUSH2 0xECF JUMP JUMPDEST SWAP2 POP PUSH2 0x1250 DUP4 PUSH2 0xECF JUMP JUMPDEST SWAP3 POP DUP3 DUP3 ADD SWAP1 POP DUP1 DUP3 GT ISZERO PUSH2 0x1268 JUMPI PUSH2 0x1267 PUSH2 0x120B JUMP JUMPDEST JUMPDEST SWAP3 SWAP2 POP POP JUMP JUMPDEST PUSH1 0x0 DUP3 DUP3 MSTORE PUSH1 0x20 DUP3 ADD SWAP1 POP SWAP3 SWAP2 POP POP JUMP JUMPDEST PUSH32 0x4E6F20546F6B656E207665737465642079657400000000000000000000000000 PUSH1 0x0 DUP3 ADD MSTORE POP JUMP JUMPDEST PUSH1 0x0 PUSH2 0x12B5 PUSH1 0x13 DUP4 PUSH2 0x126E JUMP JUMPDEST SWAP2 POP PUSH2 0x12C0 DUP3 PUSH2 0x127F JUMP JUMPDEST PUSH1 0x20 DUP3 ADD SWAP1 POP SWAP2 SWAP1 POP JUMP JUMPDEST PUSH1 0x0 PUSH1 0x20 DUP3 ADD SWAP1 POP DUP2 DUP2 SUB PUSH1 0x0 DUP4 ADD MSTORE PUSH2 0x12E4 DUP2 PUSH2 0x12A8 JUMP JUMPDEST SWAP1 POP SWAP2 SWAP1 POP JUMP JUMPDEST PUSH32 0x4E487B7100000000000000000000000000000000000000000000000000000000 PUSH1 0x0 MSTORE PUSH1 0x12 PUSH1 0x4 MSTORE PUSH1 0x24 PUSH1 0x0 REVERT JUMPDEST PUSH1 0x0 PUSH2 0x1325 DUP3 PUSH2 0xECF JUMP JUMPDEST SWAP2 POP PUSH2 0x1330 DUP4 PUSH2 0xECF JUMP JUMPDEST SWAP3 POP DUP3 PUSH2 0x1340 JUMPI PUSH2 0x133F PUSH2 0x12EB JUMP JUMPDEST JUMPDEST DUP3 DUP3 DIV SWAP1 POP SWAP3 SWAP2 POP POP JUMP JUMPDEST PUSH1 0x0 PUSH2 0x1356 DUP3 PUSH2 0xECF JUMP JUMPDEST SWAP2 POP PUSH2 0x1361 DUP4 PUSH2 0xECF JUMP JUMPDEST SWAP3 POP DUP3 DUP3 SUB SWAP1 POP DUP2 DUP2 GT ISZERO PUSH2 0x1379 JUMPI PUSH2 0x1378 PUSH2 0x120B JUMP JUMPDEST JUMPDEST SWAP3 SWAP2 POP POP JUMP JUMPDEST PUSH1 0x0 PUSH2 0x138A DUP3 PUSH2 0xECF JUMP JUMPDEST SWAP2 POP PUSH2 0x1395 DUP4 PUSH2 0xECF JUMP JUMPDEST SWAP3 POP DUP3 DUP3 MUL PUSH2 0x13A3 DUP2 PUSH2 0xECF JUMP JUMPDEST SWAP2 POP DUP3 DUP3 DIV DUP5 EQ DUP4 ISZERO OR PUSH2 0x13BA JUMPI PUSH2 0x13B9 PUSH2 0x120B JUMP JUMPDEST JUMPDEST POP SWAP3 SWAP2 POP POP JUMP JUMPDEST PUSH1 0x0 PUSH1 0x40 DUP3 ADD SWAP1 POP PUSH2 0x13D6 PUSH1 0x0 DUP4 ADD DUP6 PUSH2 0x119F JUMP JUMPDEST PUSH2 0x13E3 PUSH1 0x20 DUP4 ADD DUP5 PUSH2 0xFA4 JUMP JUMPDEST SWAP4 SWAP3 POP POP POP JUMP JUMPDEST PUSH32 0x4F6E6C792062656E696669636961722063616E20776974686472617700000000 PUSH1 0x0 DUP3 ADD MSTORE POP JUMP JUMPDEST PUSH1 0x0 PUSH2 0x1420 PUSH1 0x1C DUP4 PUSH2 0x126E JUMP JUMPDEST SWAP2 POP PUSH2 0x142B DUP3 PUSH2 0x13EA JUMP JUMPDEST PUSH1 0x20 DUP3 ADD SWAP1 POP SWAP2 SWAP1 POP JUMP JUMPDEST PUSH1 0x0 PUSH1 0x20 DUP3 ADD SWAP1 POP DUP2 DUP2 SUB PUSH1 0x0 DUP4 ADD MSTORE PUSH2 0x144F DUP2 PUSH2 0x1413 JUMP JUMPDEST SWAP1 POP SWAP2 SWAP1 POP JUMP JUMPDEST PUSH32 0x4E6F20616D6F756E7420746F2062652077697468647261776E00000000000000 PUSH1 0x0 DUP3 ADD MSTORE POP JUMP JUMPDEST PUSH1 0x0 PUSH2 0x148C PUSH1 0x19 DUP4 PUSH2 0x126E JUMP JUMPDEST SWAP2 POP PUSH2 0x1497 DUP3 PUSH2 0x1456 JUMP JUMPDEST PUSH1 0x20 DUP3 ADD SWAP1 POP SWAP2 SWAP1 POP JUMP JUMPDEST PUSH1 0x0 PUSH1 0x20 DUP3 ADD SWAP1 POP DUP2 DUP2 SUB PUSH1 0x0 DUP4 ADD MSTORE PUSH2 0x14BB DUP2 PUSH2 0x147F JUMP JUMPDEST SWAP1 POP SWAP2 SWAP1 POP JUMP JUMPDEST PUSH1 0x0 DUP2 ISZERO ISZERO SWAP1 POP SWAP2 SWAP1 POP JUMP JUMPDEST PUSH2 0x14D7 DUP2 PUSH2 0x14C2 JUMP JUMPDEST DUP2 EQ PUSH2 0x14E2 JUMPI PUSH1 0x0 DUP1 REVERT JUMPDEST POP JUMP JUMPDEST PUSH1 0x0 DUP2 MLOAD SWAP1 POP PUSH2 0x14F4 DUP2 PUSH2 0x14CE JUMP JUMPDEST SWAP3 SWAP2 POP POP JUMP JUMPDEST PUSH1 0x0 PUSH1 0x20 DUP3 DUP5 SUB SLT ISZERO PUSH2 0x1510 JUMPI PUSH2 0x150F PUSH2 0xE6C JUMP JUMPDEST JUMPDEST PUSH1 0x0 PUSH2 0x151E DUP5 DUP3 DUP6 ADD PUSH2 0x14E5 JUMP JUMPDEST SWAP2 POP POP SWAP3 SWAP2 POP POP JUMP JUMPDEST PUSH32 0x41646420736F6D6520746F6B656E730000000000000000000000000000000000 PUSH1 0x0 DUP3 ADD MSTORE POP JUMP JUMPDEST PUSH1 0x0 PUSH2 0x155D PUSH1 0xF DUP4 PUSH2 0x126E JUMP JUMPDEST SWAP2 POP PUSH2 0x1568 DUP3 PUSH2 0x1527 JUMP JUMPDEST PUSH1 0x20 DUP3 ADD SWAP1 POP SWAP2 SWAP1 POP JUMP JUMPDEST PUSH1 0x0 PUSH1 0x20 DUP3 ADD SWAP1 POP DUP2 DUP2 SUB PUSH1 0x0 DUP4 ADD MSTORE PUSH2 0x158C DUP2 PUSH2 0x1550 JUMP JUMPDEST SWAP1 POP SWAP2 SWAP1 POP JUMP JUMPDEST PUSH32 0x417070726F76616C206661696C65640000000000000000000000000000000000 PUSH1 0x0 DUP3 ADD MSTORE POP JUMP JUMPDEST PUSH1 0x0 PUSH2 0x15C9 PUSH1 0xF DUP4 PUSH2 0x126E JUMP JUMPDEST SWAP2 POP PUSH2 0x15D4 DUP3 PUSH2 0x1593 JUMP JUMPDEST PUSH1 0x20 DUP3 ADD SWAP1 POP SWAP2 SWAP1 POP JUMP JUMPDEST PUSH1 0x0 PUSH1 0x20 DUP3 ADD SWAP1 POP DUP2 DUP2 SUB PUSH1 0x0 DUP4 ADD MSTORE PUSH2 0x15F8 DUP2 PUSH2 0x15BC JUMP JUMPDEST SWAP1 POP SWAP2 SWAP1 POP JUMP JUMPDEST PUSH1 0x0 PUSH1 0x60 DUP3 ADD SWAP1 POP PUSH2 0x1614 PUSH1 0x0 DUP4 ADD DUP7 PUSH2 0x119F JUMP JUMPDEST PUSH2 0x1621 PUSH1 0x20 DUP4 ADD DUP6 PUSH2 0x119F JUMP JUMPDEST PUSH2 0x162E PUSH1 0x40 DUP4 ADD DUP5 PUSH2 0xFA4 JUMP JUMPDEST SWAP5 SWAP4 POP POP POP POP JUMP JUMPDEST PUSH1 0x0 PUSH2 0x1641 DUP3 PUSH2 0xECF JUMP JUMPDEST SWAP2 POP PUSH32 0xFFFFFFFFFFFFFFFFFFFFFFFFFFFFFFFFFFFFFFFFFFFFFFFFFFFFFFFFFFFFFFFF DUP3 SUB PUSH2 0x1673 JUMPI PUSH2 0x1672 PUSH2 0x120B JUMP JUMPDEST JUMPDEST PUSH1 0x1 DUP3 ADD SWAP1 POP SWAP2 SWAP1 POP JUMP JUMPDEST PUSH32 0x4F6E6C79204F776E65722063616E206163636573730000000000000000000000 PUSH1 0x0 DUP3 ADD MSTORE POP JUMP JUMPDEST PUSH1 0x0 PUSH2 0x16B4 PUSH1 0x15 DUP4 PUSH2 0x126E JUMP JUMPDEST SWAP2 POP PUSH2 0x16BF DUP3 PUSH2 0x167E JUMP JUMPDEST PUSH1 0x20 DUP3 ADD SWAP1 POP SWAP2 SWAP1 POP JUMP JUMPDEST PUSH1 0x0 PUSH1 0x20 DUP3 ADD SWAP1 POP DUP2 DUP2 SUB PUSH1 0x0 DUP4 ADD MSTORE PUSH2 0x16E3 DUP2 PUSH2 0x16A7 JUMP JUMPDEST SWAP1 POP SWAP2 SWAP1 POP JUMP INVALID LOG2 PUSH5 0x6970667358 0x22 SLT KECCAK256 PC DUP1 PUSH1 0xAE STOP 0xF9 RETURNDATACOPY 0xEC SAR SHL DUP12 PUSH27 0x9148B80AADB2A1547D35B24D18340DAA867157DE64736F6C634300 ADDMOD SLT STOP CALLER "
		},
		"gasEstimates": {
			"creation": {
				"codeDepositCost": "1184000",
				"executionCost": "25493",
				"totalCost": "1209493"
			},
			"external": {
				"addAmount(address,address,uint256,uint256,uint256,uint256,uint256)": "infinite",
				"calculateVestedAmount(address,uint256)": "infinite",
				"checkBalance(address,address)": "infinite",
				"releaseTokens(address,uint256)": "infinite",
				"vestingSchedules(address,uint256)": "infinite",
				"withdraw(address,uint256,uint256)": "infinite",
				"withdrawableAmount(address,uint256)": "infinite"
			}
		},
		"methodIdentifiers": {
			"addAmount(address,address,uint256,uint256,uint256,uint256,uint256)": "bba4e631",
			"calculateVestedAmount(address,uint256)": "8ce4081a",
			"checkBalance(address,address)": "77b76ec3",
			"releaseTokens(address,uint256)": "f40d71f1",
			"vestingSchedules(address,uint256)": "45626bd6",
			"withdraw(address,uint256,uint256)": "b5c5f672",
			"withdrawableAmount(address,uint256)": "4dc12d7f"
		}
	},
	"abi": [
		{
			"inputs": [],
			"stateMutability": "nonpayable",
			"type": "constructor"
		},
		{
			"anonymous": false,
			"inputs": [
				{
					"indexed": false,
					"internalType": "address",
					"name": "_from",
					"type": "address"
				},
				{
					"indexed": false,
					"internalType": "address",
					"name": "_to",
					"type": "address"
				},
				{
					"indexed": false,
					"internalType": "uint256",
					"name": "totalTokens",
					"type": "uint256"
				}
			],
			"name": "DepositTokens",
			"type": "event"
		},
		{
			"anonymous": false,
			"inputs": [
				{
					"indexed": false,
					"internalType": "address",
					"name": "_benificiary",
					"type": "address"
				},
				{
					"indexed": false,
					"internalType": "uint256",
					"name": "vestedTopkens",
					"type": "uint256"
				}
			],
			"name": "VestedTokens",
			"type": "event"
		},
		{
			"anonymous": false,
			"inputs": [
				{
					"indexed": false,
					"internalType": "address",
					"name": "_to",
					"type": "address"
				},
				{
					"indexed": false,
					"internalType": "uint256",
					"name": "amount",
					"type": "uint256"
				}
			],
			"name": "WithdrawTokens",
			"type": "event"
		},
		{
			"inputs": [
				{
					"internalType": "address",
					"name": "token",
					"type": "address"
				},
				{
					"internalType": "address",
					"name": "benificiary",
					"type": "address"
				},
				{
					"internalType": "uint256",
					"name": "totalTokens",
					"type": "uint256"
				},
				{
					"internalType": "uint256",
					"name": "startTime",
					"type": "uint256"
				},
				{
					"internalType": "uint256",
					"name": "cliff",
					"type": "uint256"
				},
				{
					"internalType": "uint256",
					"name": "vestingPeriod",
					"type": "uint256"
				},
				{
					"internalType": "uint256",
					"name": "slicePeriod",
					"type": "uint256"
				}
			],
			"name": "addAmount",
			"outputs": [],
			"stateMutability": "nonpayable",
			"type": "function"
		},
		{
			"inputs": [
				{
					"internalType": "address",
					"name": "benificiary",
					"type": "address"
				},
				{
					"internalType": "uint256",
					"name": "vestingID",
					"type": "uint256"
				}
			],
			"name": "calculateVestedAmount",
			"outputs": [
				{
					"internalType": "uint256",
					"name": "",
					"type": "uint256"
				}
			],
			"stateMutability": "nonpayable",
			"type": "function"
		},
		{
			"inputs": [
				{
					"internalType": "address",
					"name": "token",
					"type": "address"
				},
				{
					"internalType": "address",
					"name": "account",
					"type": "address"
				}
			],
			"name": "checkBalance",
			"outputs": [
				{
					"internalType": "uint256",
					"name": "",
					"type": "uint256"
				}
			],
			"stateMutability": "view",
			"type": "function"
		},
		{
			"inputs": [
				{
					"internalType": "address",
					"name": "benificiary",
					"type": "address"
				},
				{
					"internalType": "uint256",
					"name": "vestingID",
					"type": "uint256"
				}
			],
			"name": "releaseTokens",
			"outputs": [
				{
					"internalType": "uint256",
					"name": "",
					"type": "uint256"
				}
			],
			"stateMutability": "nonpayable",
			"type": "function"
		},
		{
			"inputs": [
				{
					"internalType": "address",
					"name": "",
					"type": "address"
				},
				{
					"internalType": "uint256",
					"name": "",
					"type": "uint256"
				}
			],
			"name": "vestingSchedules",
			"outputs": [
				{
					"internalType": "contract IERC20",
					"name": "_token",
					"type": "address"
				},
				{
					"internalType": "uint256",
					"name": "_startTime",
					"type": "uint256"
				},
				{
					"internalType": "uint256",
					"name": "_cliff",
					"type": "uint256"
				},
				{
					"internalType": "uint256",
					"name": "_vestingPeriod",
					"type": "uint256"
				},
				{
					"internalType": "uint256",
					"name": "_slicePeriod",
					"type": "uint256"
				},
				{
					"internalType": "uint256",
					"name": "_totalTokens",
					"type": "uint256"
				},
				{
					"internalType": "uint256",
					"name": "_releasedTokens",
					"type": "uint256"
				},
				{
					"internalType": "uint256",
					"name": "_vestedTokens",
					"type": "uint256"
				},
				{
					"internalType": "uint256",
					"name": "_elaspTime",
					"type": "uint256"
				},
				{
					"internalType": "uint256",
					"name": "_vestingID",
					"type": "uint256"
				}
			],
			"stateMutability": "view",
			"type": "function"
		},
		{
			"inputs": [
				{
					"internalType": "address",
					"name": "benificiary",
					"type": "address"
				},
				{
					"internalType": "uint256",
					"name": "withdrawAmount",
					"type": "uint256"
				},
				{
					"internalType": "uint256",
					"name": "vestingID",
					"type": "uint256"
				}
			],
			"name": "withdraw",
			"outputs": [],
			"stateMutability": "nonpayable",
			"type": "function"
		},
		{
			"inputs": [
				{
					"internalType": "address",
					"name": "",
					"type": "address"
				},
				{
					"internalType": "uint256",
					"name": "",
					"type": "uint256"
				}
			],
			"name": "withdrawableAmount",
			"outputs": [
				{
					"internalType": "uint256",
					"name": "",
					"type": "uint256"
				}
			],
			"stateMutability": "view",
			"type": "function"
		}
	]
}